{"contracts/EscrowTeamTreasury.sol":{"EscrowTeamTreasury":{"abi":[{"inputs":[{"internalType":"address","name":"_escrowToken","type":"address"}],"stateMutability":"nonpayable","type":"constructor"},{"inputs":[],"name":"AllocationAlreadyRevoked","type":"error"},{"inputs":[],"name":"AllocationsAlreadyLocked","type":"error"},{"inputs":[],"name":"AllocationsNotLocked","type":"error"},{"inputs":[],"name":"AlreadyAllocated","type":"error"},{"inputs":[],"name":"EnforcedPause","type":"error"},{"inputs":[],"name":"ExceedsTotalAllocation","type":"error"},{"inputs":[],"name":"ExpectedPause","type":"error"},{"inputs":[],"name":"InsufficientBalance","type":"error"},{"inputs":[],"name":"InvalidAddress","type":"error"},{"inputs":[],"name":"InvalidAmount","type":"error"},{"inputs":[],"name":"InvalidMilestone","type":"error"},{"inputs":[],"name":"LockPeriodNotEnded","type":"error"},{"inputs":[],"name":"NoTokensAvailable","type":"error"},{"inputs":[],"name":"NotBeneficiary","type":"error"},{"inputs":[{"internalType":"address","name":"owner","type":"address"}],"name":"OwnableInvalidOwner","type":"error"},{"inputs":[{"internalType":"address","name":"account","type":"address"}],"name":"OwnableUnauthorizedAccount","type":"error"},{"inputs":[],"name":"ReentrancyGuardReentrantCall","type":"error"},{"inputs":[{"internalType":"address","name":"token","type":"address"}],"name":"SafeERC20FailedOperation","type":"error"},{"inputs":[],"name":"TreasuryAlreadyFunded","type":"error"},{"inputs":[],"name":"TreasuryNotFunded","type":"error"},{"anonymous":false,"inputs":[{"indexed":true,"internalType":"address","name":"beneficiary","type":"address"},{"indexed":false,"internalType":"uint256","name":"unvestedAmount","type":"uint256"}],"name":"AllocationRevoked","type":"event"},{"anonymous":false,"inputs":[{"indexed":false,"internalType":"uint256","name":"timestamp","type":"uint256"}],"name":"AllocationsLocked","type":"event"},{"anonymous":false,"inputs":[{"indexed":true,"internalType":"address","name":"beneficiary","type":"address"},{"indexed":false,"internalType":"uint256","name":"allocation","type":"uint256"}],"name":"BeneficiaryAdded","type":"event"},{"anonymous":false,"inputs":[{"indexed":true,"internalType":"address","name":"beneficiary","type":"address"},{"indexed":false,"internalType":"uint256","name":"allocation","type":"uint256"}],"name":"BeneficiaryRemoved","type":"event"},{"anonymous":false,"inputs":[{"indexed":true,"internalType":"address","name":"beneficiary","type":"address"},{"indexed":false,"internalType":"uint256","name":"newAllocation","type":"uint256"}],"name":"BeneficiaryUpdated","type":"event"},{"anonymous":false,"inputs":[{"indexed":true,"internalType":"address","name":"token","type":"address"},{"indexed":false,"internalType":"uint256","name":"amount","type":"uint256"}],"name":"EmergencyWithdraw","type":"event"},{"anonymous":false,"inputs":[{"indexed":true,"internalType":"address","name":"previousOwner","type":"address"},{"indexed":true,"internalType":"address","name":"newOwner","type":"address"}],"name":"OwnershipTransferred","type":"event"},{"anonymous":false,"inputs":[{"indexed":false,"internalType":"address","name":"account","type":"address"}],"name":"Paused","type":"event"},{"anonymous":false,"inputs":[{"indexed":true,"internalType":"address","name":"beneficiary","type":"address"},{"indexed":false,"internalType":"uint256","name":"amount","type":"uint256"},{"indexed":false,"internalType":"uint256","name":"milestone","type":"uint256"}],"name":"TokensClaimed","type":"event"},{"anonymous":false,"inputs":[{"indexed":false,"internalType":"uint256","name":"amount","type":"uint256"},{"indexed":false,"internalType":"uint256","name":"timestamp","type":"uint256"}],"name":"TreasuryFunded","type":"event"},{"anonymous":false,"inputs":[{"indexed":false,"internalType":"address","name":"account","type":"address"}],"name":"Unpaused","type":"event"},{"inputs":[],"name":"BASIS_POINTS","outputs":[{"internalType":"uint256","name":"","type":"uint256"}],"stateMutability":"view","type":"function"},{"inputs":[],"name":"LOCK_DURATION","outputs":[{"internalType":"uint256","name":"","type":"uint256"}],"stateMutability":"view","type":"function"},{"inputs":[],"name":"PERCENTAGE_PER_MILESTONE","outputs":[{"internalType":"uint256","name":"","type":"uint256"}],"stateMutability":"view","type":"function"},{"inputs":[],"name":"TOTAL_ALLOCATION","outputs":[{"internalType":"uint256","name":"","type":"uint256"}],"stateMutability":"view","type":"function"},{"inputs":[],"name":"VESTING_INTERVAL","outputs":[{"internalType":"uint256","name":"","type":"uint256"}],"stateMutability":"view","type":"function"},{"inputs":[],"name":"VESTING_MILESTONES","outputs":[{"internalType":"uint256","name":"","type":"uint256"}],"stateMutability":"view","type":"function"},{"inputs":[{"internalType":"address","name":"beneficiary","type":"address"},{"internalType":"uint256","name":"allocation","type":"uint256"}],"name":"addBeneficiary","outputs":[],"stateMutability":"nonpayable","type":"function"},{"inputs":[],"name":"allocationsLocked","outputs":[{"internalType":"bool","name":"","type":"bool"}],"stateMutability":"view","type":"function"},{"inputs":[{"internalType":"address","name":"","type":"address"}],"name":"beneficiaries","outputs":[{"internalType":"uint256","name":"totalAllocation","type":"uint256"},{"internalType":"uint256","name":"claimedAmount","type":"uint256"},{"internalType":"uint256","name":"lastClaimMilestone","type":"uint256"},{"internalType":"bool","name":"isActive","type":"bool"},{"internalType":"bool","name":"revoked","type":"bool"}],"stateMutability":"view","type":"function"},{"inputs":[{"internalType":"uint256","name":"","type":"uint256"}],"name":"beneficiaryList","outputs":[{"internalType":"address","name":"","type":"address"}],"stateMutability":"view","type":"function"},{"inputs":[{"internalType":"address","name":"beneficiary","type":"address"}],"name":"claimFor","outputs":[],"stateMutability":"nonpayable","type":"function"},{"inputs":[],"name":"claimTokens","outputs":[],"stateMutability":"nonpayable","type":"function"},{"inputs":[],"name":"emergencyWithdraw","outputs":[],"stateMutability":"nonpayable","type":"function"},{"inputs":[],"name":"escrowToken","outputs":[{"internalType":"contract IERC20","name":"","type":"address"}],"stateMutability":"view","type":"function"},{"inputs":[],"name":"firstUnlockTime","outputs":[{"internalType":"uint256","name":"","type":"uint256"}],"stateMutability":"view","type":"function"},{"inputs":[],"name":"fundTreasury","outputs":[],"stateMutability":"nonpayable","type":"function"},{"inputs":[],"name":"getAllBeneficiaries","outputs":[{"internalType":"address[]","name":"addresses","type":"address[]"},{"internalType":"uint256[]","name":"allocations","type":"uint256[]"},{"internalType":"uint256[]","name":"claimed","type":"uint256[]"},{"internalType":"bool[]","name":"active","type":"bool[]"}],"stateMutability":"view","type":"function"},{"inputs":[{"internalType":"address","name":"beneficiary","type":"address"}],"name":"getBeneficiaryInfo","outputs":[{"internalType":"uint256","name":"totalAllocation","type":"uint256"},{"internalType":"uint256","name":"vestedAmount","type":"uint256"},{"internalType":"uint256","name":"claimedAmount","type":"uint256"},{"internalType":"uint256","name":"claimableAmount","type":"uint256"},{"internalType":"uint256","name":"remainingAmount","type":"uint256"},{"internalType":"uint256","name":"currentMilestone","type":"uint256"},{"internalType":"bool","name":"isActive","type":"bool"},{"internalType":"bool","name":"revoked","type":"bool"}],"stateMutability":"view","type":"function"},{"inputs":[{"internalType":"address","name":"beneficiary","type":"address"}],"name":"getClaimableAmount","outputs":[{"internalType":"uint256","name":"","type":"uint256"}],"stateMutability":"view","type":"function"},{"inputs":[],"name":"getContractInfo","outputs":[{"internalType":"address","name":"tokenAddress","type":"address"},{"internalType":"uint256","name":"totalAllocation","type":"uint256"},{"internalType":"uint256","name":"lockDuration","type":"uint256"},{"internalType":"uint256","name":"vestingInterval","type":"uint256"},{"internalType":"uint256","name":"milestones","type":"uint256"},{"internalType":"uint256","name":"percentPerMilestone","type":"uint256"}],"stateMutability":"view","type":"function"},{"inputs":[],"name":"getNextUnlockTime","outputs":[{"internalType":"uint256","name":"","type":"uint256"}],"stateMutability":"view","type":"function"},{"inputs":[],"name":"getTimeUntilNextUnlock","outputs":[{"internalType":"uint256","name":"","type":"uint256"}],"stateMutability":"view","type":"function"},{"inputs":[],"name":"getTreasuryStats","outputs":[{"internalType":"uint256","name":"totalAlloc","type":"uint256"},{"internalType":"uint256","name":"totalClaim","type":"uint256"},{"internalType":"uint256","name":"totalRemaining","type":"uint256"},{"internalType":"uint256","name":"unallocated","type":"uint256"},{"internalType":"uint256","name":"beneficiaryCount","type":"uint256"},{"internalType":"bool","name":"locked","type":"bool"},{"internalType":"bool","name":"funded","type":"bool"}],"stateMutability":"view","type":"function"},{"inputs":[],"name":"getVestingSchedule","outputs":[{"internalType":"uint256","name":"startTime","type":"uint256"},{"internalType":"uint256","name":"firstUnlock","type":"uint256"},{"internalType":"uint256","name":"currentMilestone","type":"uint256"},{"internalType":"uint256","name":"totalMilestones","type":"uint256"},{"internalType":"uint256","name":"intervalDays","type":"uint256"},{"internalType":"uint256[]","name":"unlockTimes","type":"uint256[]"}],"stateMutability":"view","type":"function"},{"inputs":[{"internalType":"address","name":"account","type":"address"}],"name":"isBeneficiary","outputs":[{"internalType":"bool","name":"","type":"bool"}],"stateMutability":"view","type":"function"},{"inputs":[],"name":"lockAllocations","outputs":[],"stateMutability":"nonpayable","type":"function"},{"inputs":[],"name":"owner","outputs":[{"internalType":"address","name":"","type":"address"}],"stateMutability":"view","type":"function"},{"inputs":[],"name":"pause","outputs":[],"stateMutability":"nonpayable","type":"function"},{"inputs":[],"name":"paused","outputs":[{"internalType":"bool","name":"","type":"bool"}],"stateMutability":"view","type":"function"},{"inputs":[{"internalType":"address","name":"beneficiary","type":"address"}],"name":"removeBeneficiary","outputs":[],"stateMutability":"nonpayable","type":"function"},{"inputs":[],"name":"renounceOwnership","outputs":[],"stateMutability":"nonpayable","type":"function"},{"inputs":[{"internalType":"address","name":"beneficiary","type":"address"}],"name":"revokeAllocation","outputs":[],"stateMutability":"nonpayable","type":"function"},{"inputs":[],"name":"totalAllocated","outputs":[{"internalType":"uint256","name":"","type":"uint256"}],"stateMutability":"view","type":"function"},{"inputs":[],"name":"totalClaimed","outputs":[{"internalType":"uint256","name":"","type":"uint256"}],"stateMutability":"view","type":"function"},{"inputs":[{"internalType":"address","name":"newOwner","type":"address"}],"name":"transferOwnership","outputs":[],"stateMutability":"nonpayable","type":"function"},{"inputs":[],"name":"treasuryFunded","outputs":[{"internalType":"bool","name":"","type":"bool"}],"stateMutability":"view","type":"function"},{"inputs":[],"name":"treasuryStartTime","outputs":[{"internalType":"uint256","name":"","type":"uint256"}],"stateMutability":"view","type":"function"},{"inputs":[],"name":"unpause","outputs":[],"stateMutability":"nonpayable","type":"function"},{"inputs":[{"internalType":"address","name":"beneficiary","type":"address"},{"internalType":"uint256","name":"newAllocation","type":"uint256"}],"name":"updateBeneficiary","outputs":[],"stateMutability":"nonpayable","type":"function"}],"evm":{"bytecode":{"linkReferences":{},"object":"60e06040523480156200001157600080fd5b50604051620025833803806200258383398101604081905262000034916200014a565b33806200005b57604051631e4fbdf760e01b81526000600482015260240160405180910390fd5b6200006681620000fa565b50600180556001600160a01b038116620000935760405163e6c4247b60e01b815260040160405180910390fd5b6001600160a01b0381166080524260a0819052620000b7906305a39a80906200017c565b60c05260408051600081524260208201527ff705142bf09f04297640495ddf7c59b7fd6f51894c5aea9602d631cf05f0efc2910160405180910390a150620001a4565b600080546001600160a01b038381166001600160a01b0319831681178455604051919092169283917f8be0079c531659141344cd1fd0a4f28419497f9722a3daafe3b4186f6b6457e09190a35050565b6000602082840312156200015d57600080fd5b81516001600160a01b03811681146200017557600080fd5b9392505050565b808201808211156200019e57634e487b7160e01b600052601160045260246000fd5b92915050565b60805160a05160c05161232362000260600039600081816102db01528181610a8701528181610afe01528181610b7001528181610ba801528181610fbb01528181610fe601528181611ce201528181611d690152611d9c0152600081816103d20152610add0152600081816103240152818161048801528181610d09015281816112d40152818161138201528181611438015281816115370152818161160d01528181611636015281816117c601526119df01526123236000f3fe608060405234801561001057600080fd5b506004361061023d5760003560e01c8063766f968e1161013b578063c8692e3f116100b8578063e12f3a611161007c578063e12f3a61146105de578063e1f1c4a7146105f1578063e70b11df146105fa578063f2fde38b1461060d578063fcb9b5051461062057600080fd5b8063c8692e3f14610570578063cc1b7ee5146105b1578063d54ad2a1146105ba578063db2e21bc146105c3578063ddeae033146105cb57600080fd5b806399aabf53116100ff57806399aabf53146105135780639d19b2261461051b5780639e761bbb1461054b578063a5ca2afa1461055e578063b9c186851461056857600080fd5b8063766f968e146104725780637cc1f8671461047a5780638456cb59146104e75780638da5cb5b146104ef57806396074e701461050057600080fd5b80633a05f0d8116101c957806348c54b9d1161018d57806348c54b9d146104325780635926a9e51461043a57806359633a1c1461044c5780635c975abb1461045f578063715018a61461046a57600080fd5b80633a05f0d8146103f45780633bc8bce01461040e5780633f4ba83a1461041657806345f7f2491461041e578063485d38341461042757600080fd5b80632f14bae8116102105780632f14bae8146103075780632fe319da1461031f578063306e6a1d1461035e578063366dc0831461037b578063388ea310146103cd57600080fd5b806301567739146102425780630dac7bea146102b65780631db0ad5a146102d657806325e2fbef146102fd575b600080fd5b610285610250366004612071565b600360208190526000918252604090912080546001820154600283015492909301549092919060ff8082169161010090041685565b60408051958652602086019490945292840191909152151560608301521515608082015260a0015b60405180910390f35b6102c8676765c793fa10079d601b1b81565b6040519081526020016102ad565b6102c87f000000000000000000000000000000000000000000000000000000000000000081565b610305610633565b005b61030f6106f3565b6040516102ad94939291906120ce565b6103467f000000000000000000000000000000000000000000000000000000000000000081565b6040516001600160a01b0390911681526020016102ad565b60075461036b9060ff1681565b60405190151581526020016102ad565b61038e610389366004612071565b61096d565b604080519889526020890197909752958701949094526060860192909252608085015260a0840152151560c0830152151560e0820152610100016102ad565b6102c87f000000000000000000000000000000000000000000000000000000000000000081565b6103fc610a32565b6040516102ad9695949392919061217e565b6102c8610b49565b610305610bd2565b6102c860055481565b6102c86305a39a8081565b610305610be4565b60075461036b90610100900460ff1681565b61030561045a366004612071565b610d77565b60025460ff1661036b565b610305610f71565b6102c8610f83565b604080516001600160a01b037f0000000000000000000000000000000000000000000000000000000000000000168152676765c793fa10079d601b1b60208201526305a39a809181019190915262ed4e006060820152600560808201526107d060a082015260c0016102ad565b610305611027565b6000546001600160a01b0316610346565b61030561050e3660046121bb565b611037565b6102c8600581565b61036b610529366004612071565b6001600160a01b03166000908152600360208190526040909120015460ff1690565b6103466105593660046121e5565b611263565b6102c862ed4e0081565b61030561128d565b61057861140a565b6040805197885260208801969096529486019390935260608501919091526080840152151560a0830152151560c082015260e0016102ad565b6102c86107d081565b6102c860065481565b610305611517565b6103056105d9366004612071565b61168f565b6102c86105ec366004612071565b611840565b6102c861271081565b610305610608366004612071565b6118ee565b61030561061b366004612071565b611ac6565b61030561062e3660046121bb565b611b06565b61063b611c3b565b60075460ff161561065f57604051633bcd404960e01b815260040160405180910390fd5b600754610100900460ff1661068757604051638896be0760e01b815260040160405180910390fd5b6005546000036106aa5760405163162908e360e11b815260040160405180910390fd5b6007805460ff191660011790556040517f50502e52aa6ca293c321541049509f7cdc9bc3fee99f3d02331196f7da8ef71f906106e99042815260200190565b60405180910390a1565b6004546060908190819081908067ffffffffffffffff811115610718576107186121fe565b604051908082528060200260200182016040528015610741578160200160208202803683370190505b5094508067ffffffffffffffff81111561075d5761075d6121fe565b604051908082528060200260200182016040528015610786578160200160208202803683370190505b5093508067ffffffffffffffff8111156107a2576107a26121fe565b6040519080825280602002602001820160405280156107cb578160200160208202803683370190505b5092508067ffffffffffffffff8111156107e7576107e76121fe565b604051908082528060200260200182016040528015610810578160200160208202803683370190505b50915060005b818110156109655760006004828154811061083357610833612214565b60009182526020808320909101546001600160a01b03168083526003808352604093849020845160a08101865281548152600182015494810194909452600281015494840194909452929092015460ff80821615156060840152610100909104161515608082015288519192509082908990859081106108b5576108b5612214565b60200260200101906001600160a01b031690816001600160a01b03168152505080600001518784815181106108ec576108ec612214565b602002602001018181525050806020015186848151811061090f5761090f612214565b6020026020010181815250508060600151801561092e57508060800151155b85848151811061094057610940612214565b911515602092830291909101909101525081905061095d81612240565b915050610816565b505090919293565b6001600160a01b0381166000908152600360208181526040808420815160a081018352815481526001820154938101939093526002810154918301919091529091015460ff80821615156060840152610100909104161515608082015281908190819081908190819081906109e18a611c68565b97506109ec8a611840565b602082015182519197506109ff91612259565b9450610a09611d65565b815160208301516060840151608090940151919d9a9c509a509698959750959094909350915050565b60008080808060606005604051908082528060200260200182016040528015610a65578160200160208202803683370190505b50905060005b6005811015610ada57610a8162ed4e0082612272565b610aab907f0000000000000000000000000000000000000000000000000000000000000000612289565b828281518110610abd57610abd612214565b602090810291909101015280610ad281612240565b915050610a6b565b507f00000000000000000000000000000000000000000000000000000000000000007f0000000000000000000000000000000000000000000000000000000000000000610b25611d65565b6005610b376201518062ed4e0061229c565b95509550955095509550909192939495565b600080610b54611d65565b905060058110610b6657600091505090565b80600003610b95577f000000000000000000000000000000000000000000000000000000000000000091505090565b610ba262ed4e0082612272565b610bcc907f0000000000000000000000000000000000000000000000000000000000000000612289565b91505090565b610bda611c3b565b610be2611df6565b565b610bec611e43565b610bf4611e6d565b60075460ff16610c1757604051631cee3a7560e11b815260040160405180910390fd5b336000908152600360208190526040909120015460ff16610c4b5760405163644d871f60e01b815260040160405180910390fd5b33600090815260036020819052604090912090810154610100900460ff1615610c875760405163d1ba89a160e01b815260040160405180910390fd5b6000610c9233611840565b905080600003610cb557604051630626e30760e51b815260040160405180910390fd5b6000610cbf611d65565b905081836001016000828254610cd59190612289565b90915550506002830181905560068054839190600090610cf6908490612289565b90915550610d3090506001600160a01b037f0000000000000000000000000000000000000000000000000000000000000000163384611e91565b604080518381526020810183905233917f9923b4306c6c030f2bdfbf156517d5983b87e15b96176da122cd4f2effa4ba7b910160405180910390a2505050610be260018055565b610d7f611c3b565b60075460ff1615610da357604051633bcd404960e01b815260040160405180910390fd5b6001600160a01b0381166000908152600360208190526040909120015460ff16610de05760405163644d871f60e01b815260040160405180910390fd5b6001600160a01b038116600090815260036020819052604082208054918101805460ff191690556005805491938392610e1a908490612259565b90915550600090505b600454811015610f2857836001600160a01b031660048281548110610e4a57610e4a612214565b6000918252602090912001546001600160a01b031603610f165760048054610e7490600190612259565b81548110610e8457610e84612214565b600091825260209091200154600480546001600160a01b039092169183908110610eb057610eb0612214565b9060005260206000200160006101000a8154816001600160a01b0302191690836001600160a01b031602179055506004805480610eef57610eef6122be565b600082815260209020810160001990810180546001600160a01b0319169055019055610f28565b80610f2081612240565b915050610e23565b50826001600160a01b03167f4eba15b1481ac9c456ea6075869b280f4f84c5b462cf7bc01868dd40119ec06582604051610f6491815260200190565b60405180910390a2505050565b610f79611c3b565b610be26000611ef5565b600080610f8e611d65565b905060058110610fa057600091505090565b60008115610fe457610fb562ed4e0083612272565b610fdf907f0000000000000000000000000000000000000000000000000000000000000000612289565b611006565b7f00000000000000000000000000000000000000000000000000000000000000005b9050428111611016576000611020565b6110204282612259565b9250505090565b61102f611c3b565b610be2611f45565b61103f611c3b565b60075460ff161561106357604051633bcd404960e01b815260040160405180910390fd5b600754610100900460ff1661108b57604051638896be0760e01b815260040160405180910390fd5b6001600160a01b0382166110b25760405163e6c4247b60e01b815260040160405180910390fd5b806000036110d35760405163162908e360e11b815260040160405180910390fd5b6001600160a01b0382166000908152600360208190526040909120015460ff16156111115760405163185e69a360e31b815260040160405180910390fd5b676765c793fa10079d601b1b8160055461112b9190612289565b111561114a576040516343d3e30f60e11b815260040160405180910390fd5b6040805160a08101825282815260006020808301828152838501838152600160608601818152608087018681526001600160a01b038b1680885260039687905298872097518855935187830155915160028701559051949092018054915161ffff1990921694151561ff00191694909417610100911515919091021790925560048054928301815581527f8a35acfbc15ff81a39ae7d344fd709f28e8600b4aa8c65c6b64bfe7fe36bd19b90910180546001600160a01b0319169092179091556005805483929061121c908490612289565b90915550506040518181526001600160a01b038316907fe6b83177f11971ba30369bb38b914ffba97d5969a3c857b286fa8fdbb150b3ba9060200160405180910390a25050565b6004818154811061127357600080fd5b6000918252602090912001546001600160a01b0316905081565b611295611c3b565b600754610100900460ff16156112bc5760405161e85f60ef1b815260040160405180910390fd5b6040516370a0823160e01b81523360048201526000907f00000000000000000000000000000000000000000000000000000000000000006001600160a01b0316906370a0823190602401602060405180830381865afa158015611323573d6000803e3d6000fd5b505050506040513d601f19601f8201168201806040525081019061134791906122d4565b9050676765c793fa10079d601b1b81101561137557604051631e9acf1760e31b815260040160405180910390fd5b6113b56001600160a01b037f0000000000000000000000000000000000000000000000000000000000000000163330676765c793fa10079d601b1b611f82565b6007805461ff00191661010017905560408051676765c793fa10079d601b1b81524260208201527ff705142bf09f04297640495ddf7c59b7fd6f51894c5aea9602d631cf05f0efc2910160405180910390a150565b6040516370a0823160e01b815230600482015260009081908190819081908190819081906001600160a01b037f000000000000000000000000000000000000000000000000000000000000000016906370a0823190602401602060405180830381865afa15801561147f573d6000803e3d6000fd5b505050506040513d601f19601f820116820180604052508101906114a391906122d4565b600554600654919250906114b78183612259565b6006546005546114c79190612259565b84116114d45760006114ee565b6006546005546114e49190612259565b6114ee9085612259565b600454600754949d939c50919a509850965060ff80831696506101009092049091169350915050565b61151f611c3b565b6040516370a0823160e01b81523060048201526000907f00000000000000000000000000000000000000000000000000000000000000006001600160a01b0316906370a0823190602401602060405180830381865afa158015611586573d6000803e3d6000fd5b505050506040513d601f19601f820116820180604052508101906115aa91906122d4565b905060006006546005546115be9190612259565b90508082116115e057604051631e9acf1760e31b815260040160405180910390fd5b60006115ec8284612259565b90506116346116036000546001600160a01b031690565b6001600160a01b037f0000000000000000000000000000000000000000000000000000000000000000169083611e91565b7f00000000000000000000000000000000000000000000000000000000000000006001600160a01b03167f5fafa99d0643513820be26656b45130b01e1c03062e1266bf36f88cbd3bd969582604051610f6491815260200190565b611697611e43565b61169f611e6d565b60075460ff166116c257604051631cee3a7560e11b815260040160405180910390fd5b6001600160a01b0381166000908152600360208190526040909120015460ff166116ff5760405163644d871f60e01b815260040160405180910390fd5b6001600160a01b038116600090815260036020819052604090912090810154610100900460ff16156117445760405163d1ba89a160e01b815260040160405180910390fd5b600061174f83611840565b90508060000361177257604051630626e30760e51b815260040160405180910390fd5b600061177c611d65565b9050818360010160008282546117929190612289565b909155505060028301819055600680548391906000906117b3908490612289565b909155506117ed90506001600160a01b037f0000000000000000000000000000000000000000000000000000000000000000168584611e91565b60408051838152602081018390526001600160a01b038616917f9923b4306c6c030f2bdfbf156517d5983b87e15b96176da122cd4f2effa4ba7b910160405180910390a250505061183d60018055565b50565b6001600160a01b0381166000908152600360208181526040808420815160a081018352815481526001820154938101939093526002810154918301919091529091015460ff80821615801560608501526101009092041615156080830152806118aa575080608001515b156118b85750600092915050565b60006118c384611c68565b9050816020015181116118d75760006118e6565b60208201516118e69082612259565b949350505050565b6118f6611c3b565b6001600160a01b0381166000908152600360208190526040909120015460ff166119335760405163644d871f60e01b815260040160405180910390fd5b6001600160a01b038116600090815260036020819052604090912090810154610100900460ff16156119785760405163d1ba89a160e01b815260040160405180910390fd5b600061198383611c68565b905060008260010154826119979190612259565b90508015611a5357808360010160008282546119b39190612289565b9250508190555080600660008282546119cc9190612289565b90915550611a0690506001600160a01b037f0000000000000000000000000000000000000000000000000000000000000000168583611e91565b836001600160a01b03167f9923b4306c6c030f2bdfbf156517d5983b87e15b96176da122cd4f2effa4ba7b82611a3a611d65565b6040805192835260208301919091520160405180910390a25b60018301548354600091611a6691612259565b60038501805461ff0019166101001790556040519091506001600160a01b038616907f040f95d3c705a0cfbbcfbb6f9b8777a527378d1c8ceac50e5e22a1eb953e7f2090611ab79084815260200190565b60405180910390a25050505050565b611ace611c3b565b6001600160a01b038116611afd57604051631e4fbdf760e01b8152600060048201526024015b60405180910390fd5b61183d81611ef5565b611b0e611c3b565b60075460ff1615611b3257604051633bcd404960e01b815260040160405180910390fd5b6001600160a01b0382166000908152600360208190526040909120015460ff16611b6f5760405163644d871f60e01b815260040160405180910390fd5b80600003611b905760405163162908e360e11b815260040160405180910390fd5b6001600160a01b038216600090815260036020526040902080546005548390611bba908390612259565b611bc49190612289565b6005819055676765c793fa10079d601b1b1015611bf4576040516343d3e30f60e11b815260040160405180910390fd5b8282556040518381526001600160a01b038516907f73d60fa978f046c1ccf0f85c6247b34d322ad63d5184881ef2f10bf3c70dde219060200160405180910390a250505050565b6000546001600160a01b03163314610be25760405163118cdaa760e01b8152336004820152602401611af4565b6001600160a01b0381166000908152600360208181526040808420815160a081018352815481526001820154938101939093526002810154918301919091529091015460ff8082161580156060850152610100909204161515608083015280611cd2575080608001515b15611ce05750600092915050565b7f0000000000000000000000000000000000000000000000000000000000000000421015611d115750600092915050565b6000611d1b611d65565b905080600003611d2f575060009392505050565b6000611d3d6107d083612272565b9050612710818460000151611d529190612272565b611d5c919061229c565b95945050505050565b60007f0000000000000000000000000000000000000000000000000000000000000000421015611d955750600090565b6000611dc17f000000000000000000000000000000000000000000000000000000000000000042612259565b90506000611dd262ed4e008361229c565b611ddd906001612289565b905060058111611ded5780611020565b60059250505090565b611dfe611fc1565b6002805460ff191690557f5db9ee0a495bf2e6ff9c91a7834c1ba4fdd244a5e8aa4e537bd38aeae4b073aa335b6040516001600160a01b0390911681526020016106e9565b600260015403611e6657604051633ee5aeb560e01b815260040160405180910390fd5b6002600155565b60025460ff1615610be25760405163d93c066560e01b815260040160405180910390fd5b6040516001600160a01b03838116602483015260448201839052611ef091859182169063a9059cbb906064015b604051602081830303815290604052915060e01b6020820180516001600160e01b038381831617835250505050611fe4565b505050565b600080546001600160a01b038381166001600160a01b0319831681178455604051919092169283917f8be0079c531659141344cd1fd0a4f28419497f9722a3daafe3b4186f6b6457e09190a35050565b611f4d611e6d565b6002805460ff191660011790557f62e78cea01bee320cd4e420270b5ea74000d11b0c9f74754ebdbfc544b05a258611e2b3390565b6040516001600160a01b038481166024830152838116604483015260648201839052611fbb9186918216906323b872dd90608401611ebe565b50505050565b60025460ff16610be257604051638dfc202b60e01b815260040160405180910390fd5b600080602060008451602086016000885af180612007576040513d6000823e3d81fd5b50506000513d9150811561201f57806001141561202c565b6001600160a01b0384163b155b15611fbb57604051635274afe760e01b81526001600160a01b0385166004820152602401611af4565b80356001600160a01b038116811461206c57600080fd5b919050565b60006020828403121561208357600080fd5b61208c82612055565b9392505050565b600081518084526020808501945080840160005b838110156120c3578151875295820195908201906001016120a7565b509495945050505050565b6080808252855190820181905260009060209060a0840190828901845b828110156121105781516001600160a01b0316845292840192908401906001016120eb565b505050838103828501526121248188612093565b905083810360408501526121388187612093565b8481036060860152855180825283870192509083019060005b8181101561216f578351151583529284019291840191600101612151565b50909998505050505050505050565b86815285602082015284604082015283606082015282608082015260c060a082015260006121af60c0830184612093565b98975050505050505050565b600080604083850312156121ce57600080fd5b6121d783612055565b946020939093013593505050565b6000602082840312156121f757600080fd5b5035919050565b634e487b7160e01b600052604160045260246000fd5b634e487b7160e01b600052603260045260246000fd5b634e487b7160e01b600052601160045260246000fd5b6000600182016122525761225261222a565b5060010190565b8181038181111561226c5761226c61222a565b92915050565b808202811582820484141761226c5761226c61222a565b8082018082111561226c5761226c61222a565b6000826122b957634e487b7160e01b600052601260045260246000fd5b500490565b634e487b7160e01b600052603160045260246000fd5b6000602082840312156122e657600080fd5b505191905056fea2646970667358221220e74d1ca0507f24577729c486884956b6a2dd5c263e5ca22354dc07b46f472de364736f6c63430008140033","opcodes":"PUSH1 0xE0 PUSH1 0x40 MSTORE CALLVALUE DUP1 ISZERO PUSH3 0x11 JUMPI PUSH1 0x0 DUP1 REVERT JUMPDEST POP PUSH1 0x40 MLOAD PUSH3 0x2583 CODESIZE SUB DUP1 PUSH3 0x2583 DUP4 CODECOPY DUP2 ADD PUSH1 0x40 DUP2 SWAP1 MSTORE PUSH3 0x34 SWAP2 PUSH3 0x14A JUMP JUMPDEST CALLER DUP1 PUSH3 0x5B JUMPI PUSH1 0x40 MLOAD PUSH4 0x1E4FBDF7 PUSH1 0xE0 SHL DUP2 MSTORE PUSH1 0x0 PUSH1 0x4 DUP3 ADD MSTORE PUSH1 0x24 ADD PUSH1 0x40 MLOAD DUP1 SWAP2 SUB SWAP1 REVERT JUMPDEST PUSH3 0x66 DUP2 PUSH3 0xFA JUMP JUMPDEST POP PUSH1 0x1 DUP1 SSTORE PUSH1 0x1 PUSH1 0x1 PUSH1 0xA0 SHL SUB DUP2 AND PUSH3 0x93 JUMPI PUSH1 0x40 MLOAD PUSH4 0xE6C4247B PUSH1 0xE0 SHL DUP2 MSTORE PUSH1 0x4 ADD PUSH1 0x40 MLOAD DUP1 SWAP2 SUB SWAP1 REVERT JUMPDEST PUSH1 0x1 PUSH1 0x1 PUSH1 0xA0 SHL SUB DUP2 AND PUSH1 0x80 MSTORE TIMESTAMP PUSH1 0xA0 DUP2 SWAP1 MSTORE PUSH3 0xB7 SWAP1 PUSH4 0x5A39A80 SWAP1 PUSH3 0x17C JUMP JUMPDEST PUSH1 0xC0 MSTORE PUSH1 0x40 DUP1 MLOAD PUSH1 0x0 DUP2 MSTORE TIMESTAMP PUSH1 0x20 DUP3 ADD MSTORE PUSH32 0xF705142BF09F04297640495DDF7C59B7FD6F51894C5AEA9602D631CF05F0EFC2 SWAP2 ADD PUSH1 0x40 MLOAD DUP1 SWAP2 SUB SWAP1 LOG1 POP PUSH3 0x1A4 JUMP JUMPDEST PUSH1 0x0 DUP1 SLOAD PUSH1 0x1 PUSH1 0x1 PUSH1 0xA0 SHL SUB DUP4 DUP2 AND PUSH1 0x1 PUSH1 0x1 PUSH1 0xA0 SHL SUB NOT DUP4 AND DUP2 OR DUP5 SSTORE PUSH1 0x40 MLOAD SWAP2 SWAP1 SWAP3 AND SWAP3 DUP4 SWAP2 PUSH32 0x8BE0079C531659141344CD1FD0A4F28419497F9722A3DAAFE3B4186F6B6457E0 SWAP2 SWAP1 LOG3 POP POP JUMP JUMPDEST PUSH1 0x0 PUSH1 0x20 DUP3 DUP5 SUB SLT ISZERO PUSH3 0x15D JUMPI PUSH1 0x0 DUP1 REVERT JUMPDEST DUP2 MLOAD PUSH1 0x1 PUSH1 0x1 PUSH1 0xA0 SHL SUB DUP2 AND DUP2 EQ PUSH3 0x175 JUMPI PUSH1 0x0 DUP1 REVERT JUMPDEST SWAP4 SWAP3 POP POP POP JUMP JUMPDEST DUP1 DUP3 ADD DUP1 DUP3 GT ISZERO PUSH3 0x19E JUMPI PUSH4 0x4E487B71 PUSH1 0xE0 SHL PUSH1 0x0 MSTORE PUSH1 0x11 PUSH1 0x4 MSTORE PUSH1 0x24 PUSH1 0x0 REVERT JUMPDEST SWAP3 SWAP2 POP POP JUMP JUMPDEST PUSH1 0x80 MLOAD PUSH1 0xA0 MLOAD PUSH1 0xC0 MLOAD PUSH2 0x2323 PUSH3 0x260 PUSH1 0x0 CODECOPY PUSH1 0x0 DUP2 DUP2 PUSH2 0x2DB ADD MSTORE DUP2 DUP2 PUSH2 0xA87 ADD MSTORE DUP2 DUP2 PUSH2 0xAFE ADD MSTORE DUP2 DUP2 PUSH2 0xB70 ADD MSTORE DUP2 DUP2 PUSH2 0xBA8 ADD MSTORE DUP2 DUP2 PUSH2 0xFBB ADD MSTORE DUP2 DUP2 PUSH2 0xFE6 ADD MSTORE DUP2 DUP2 PUSH2 0x1CE2 ADD MSTORE DUP2 DUP2 PUSH2 0x1D69 ADD MSTORE PUSH2 0x1D9C ADD MSTORE PUSH1 0x0 DUP2 DUP2 PUSH2 0x3D2 ADD MSTORE PUSH2 0xADD ADD MSTORE PUSH1 0x0 DUP2 DUP2 PUSH2 0x324 ADD MSTORE DUP2 DUP2 PUSH2 0x488 ADD MSTORE DUP2 DUP2 PUSH2 0xD09 ADD MSTORE DUP2 DUP2 PUSH2 0x12D4 ADD MSTORE DUP2 DUP2 PUSH2 0x1382 ADD MSTORE DUP2 DUP2 PUSH2 0x1438 ADD MSTORE DUP2 DUP2 PUSH2 0x1537 ADD MSTORE DUP2 DUP2 PUSH2 0x160D ADD MSTORE DUP2 DUP2 PUSH2 0x1636 ADD MSTORE DUP2 DUP2 PUSH2 0x17C6 ADD MSTORE PUSH2 0x19DF ADD MSTORE PUSH2 0x2323 PUSH1 0x0 RETURN INVALID PUSH1 0x80 PUSH1 0x40 MSTORE CALLVALUE DUP1 ISZERO PUSH2 0x10 JUMPI PUSH1 0x0 DUP1 REVERT JUMPDEST POP PUSH1 0x4 CALLDATASIZE LT PUSH2 0x23D JUMPI PUSH1 0x0 CALLDATALOAD PUSH1 0xE0 SHR DUP1 PUSH4 0x766F968E GT PUSH2 0x13B JUMPI DUP1 PUSH4 0xC8692E3F GT PUSH2 0xB8 JUMPI DUP1 PUSH4 0xE12F3A61 GT PUSH2 0x7C JUMPI DUP1 PUSH4 0xE12F3A61 EQ PUSH2 0x5DE JUMPI DUP1 PUSH4 0xE1F1C4A7 EQ PUSH2 0x5F1 JUMPI DUP1 PUSH4 0xE70B11DF EQ PUSH2 0x5FA JUMPI DUP1 PUSH4 0xF2FDE38B EQ PUSH2 0x60D JUMPI DUP1 PUSH4 0xFCB9B505 EQ PUSH2 0x620 JUMPI PUSH1 0x0 DUP1 REVERT JUMPDEST DUP1 PUSH4 0xC8692E3F EQ PUSH2 0x570 JUMPI DUP1 PUSH4 0xCC1B7EE5 EQ PUSH2 0x5B1 JUMPI DUP1 PUSH4 0xD54AD2A1 EQ PUSH2 0x5BA JUMPI DUP1 PUSH4 0xDB2E21BC EQ PUSH2 0x5C3 JUMPI DUP1 PUSH4 0xDDEAE033 EQ PUSH2 0x5CB JUMPI PUSH1 0x0 DUP1 REVERT JUMPDEST DUP1 PUSH4 0x99AABF53 GT PUSH2 0xFF JUMPI DUP1 PUSH4 0x99AABF53 EQ PUSH2 0x513 JUMPI DUP1 PUSH4 0x9D19B226 EQ PUSH2 0x51B JUMPI DUP1 PUSH4 0x9E761BBB EQ PUSH2 0x54B JUMPI DUP1 PUSH4 0xA5CA2AFA EQ PUSH2 0x55E JUMPI DUP1 PUSH4 0xB9C18685 EQ PUSH2 0x568 JUMPI PUSH1 0x0 DUP1 REVERT JUMPDEST DUP1 PUSH4 0x766F968E EQ PUSH2 0x472 JUMPI DUP1 PUSH4 0x7CC1F867 EQ PUSH2 0x47A JUMPI DUP1 PUSH4 0x8456CB59 EQ PUSH2 0x4E7 JUMPI DUP1 PUSH4 0x8DA5CB5B EQ PUSH2 0x4EF JUMPI DUP1 PUSH4 0x96074E70 EQ PUSH2 0x500 JUMPI PUSH1 0x0 DUP1 REVERT JUMPDEST DUP1 PUSH4 0x3A05F0D8 GT PUSH2 0x1C9 JUMPI DUP1 PUSH4 0x48C54B9D GT PUSH2 0x18D JUMPI DUP1 PUSH4 0x48C54B9D EQ PUSH2 0x432 JUMPI DUP1 PUSH4 0x5926A9E5 EQ PUSH2 0x43A JUMPI DUP1 PUSH4 0x59633A1C EQ PUSH2 0x44C JUMPI DUP1 PUSH4 0x5C975ABB EQ PUSH2 0x45F JUMPI DUP1 PUSH4 0x715018A6 EQ PUSH2 0x46A JUMPI PUSH1 0x0 DUP1 REVERT JUMPDEST DUP1 PUSH4 0x3A05F0D8 EQ PUSH2 0x3F4 JUMPI DUP1 PUSH4 0x3BC8BCE0 EQ PUSH2 0x40E JUMPI DUP1 PUSH4 0x3F4BA83A EQ PUSH2 0x416 JUMPI DUP1 PUSH4 0x45F7F249 EQ PUSH2 0x41E JUMPI DUP1 PUSH4 0x485D3834 EQ PUSH2 0x427 JUMPI PUSH1 0x0 DUP1 REVERT JUMPDEST DUP1 PUSH4 0x2F14BAE8 GT PUSH2 0x210 JUMPI DUP1 PUSH4 0x2F14BAE8 EQ PUSH2 0x307 JUMPI DUP1 PUSH4 0x2FE319DA EQ PUSH2 0x31F JUMPI DUP1 PUSH4 0x306E6A1D EQ PUSH2 0x35E JUMPI DUP1 PUSH4 0x366DC083 EQ PUSH2 0x37B JUMPI DUP1 PUSH4 0x388EA310 EQ PUSH2 0x3CD JUMPI PUSH1 0x0 DUP1 REVERT JUMPDEST DUP1 PUSH4 0x1567739 EQ PUSH2 0x242 JUMPI DUP1 PUSH4 0xDAC7BEA EQ PUSH2 0x2B6 JUMPI DUP1 PUSH4 0x1DB0AD5A EQ PUSH2 0x2D6 JUMPI DUP1 PUSH4 0x25E2FBEF EQ PUSH2 0x2FD JUMPI JUMPDEST PUSH1 0x0 DUP1 REVERT JUMPDEST PUSH2 0x285 PUSH2 0x250 CALLDATASIZE PUSH1 0x4 PUSH2 0x2071 JUMP JUMPDEST PUSH1 0x3 PUSH1 0x20 DUP2 SWAP1 MSTORE PUSH1 0x0 SWAP2 DUP3 MSTORE PUSH1 0x40 SWAP1 SWAP2 KECCAK256 DUP1 SLOAD PUSH1 0x1 DUP3 ADD SLOAD PUSH1 0x2 DUP4 ADD SLOAD SWAP3 SWAP1 SWAP4 ADD SLOAD SWAP1 SWAP3 SWAP2 SWAP1 PUSH1 0xFF DUP1 DUP3 AND SWAP2 PUSH2 0x100 SWAP1 DIV AND DUP6 JUMP JUMPDEST PUSH1 0x40 DUP1 MLOAD SWAP6 DUP7 MSTORE PUSH1 0x20 DUP7 ADD SWAP5 SWAP1 SWAP5 MSTORE SWAP3 DUP5 ADD SWAP2 SWAP1 SWAP2 MSTORE ISZERO ISZERO PUSH1 0x60 DUP4 ADD MSTORE ISZERO ISZERO PUSH1 0x80 DUP3 ADD MSTORE PUSH1 0xA0 ADD JUMPDEST PUSH1 0x40 MLOAD DUP1 SWAP2 SUB SWAP1 RETURN JUMPDEST PUSH2 0x2C8 PUSH8 0x6765C793FA10079D PUSH1 0x1B SHL DUP2 JUMP JUMPDEST PUSH1 0x40 MLOAD SWAP1 DUP2 MSTORE PUSH1 0x20 ADD PUSH2 0x2AD JUMP JUMPDEST PUSH2 0x2C8 PUSH32 0x0 DUP2 JUMP JUMPDEST PUSH2 0x305 PUSH2 0x633 JUMP JUMPDEST STOP JUMPDEST PUSH2 0x30F PUSH2 0x6F3 JUMP JUMPDEST PUSH1 0x40 MLOAD PUSH2 0x2AD SWAP5 SWAP4 SWAP3 SWAP2 SWAP1 PUSH2 0x20CE JUMP JUMPDEST PUSH2 0x346 PUSH32 0x0 DUP2 JUMP JUMPDEST PUSH1 0x40 MLOAD PUSH1 0x1 PUSH1 0x1 PUSH1 0xA0 SHL SUB SWAP1 SWAP2 AND DUP2 MSTORE PUSH1 0x20 ADD PUSH2 0x2AD JUMP JUMPDEST PUSH1 0x7 SLOAD PUSH2 0x36B SWAP1 PUSH1 0xFF AND DUP2 JUMP JUMPDEST PUSH1 0x40 MLOAD SWAP1 ISZERO ISZERO DUP2 MSTORE PUSH1 0x20 ADD PUSH2 0x2AD JUMP JUMPDEST PUSH2 0x38E PUSH2 0x389 CALLDATASIZE PUSH1 0x4 PUSH2 0x2071 JUMP JUMPDEST PUSH2 0x96D JUMP JUMPDEST PUSH1 0x40 DUP1 MLOAD SWAP9 DUP10 MSTORE PUSH1 0x20 DUP10 ADD SWAP8 SWAP1 SWAP8 MSTORE SWAP6 DUP8 ADD SWAP5 SWAP1 SWAP5 MSTORE PUSH1 0x60 DUP7 ADD SWAP3 SWAP1 SWAP3 MSTORE PUSH1 0x80 DUP6 ADD MSTORE PUSH1 0xA0 DUP5 ADD MSTORE ISZERO ISZERO PUSH1 0xC0 DUP4 ADD MSTORE ISZERO ISZERO PUSH1 0xE0 DUP3 ADD MSTORE PUSH2 0x100 ADD PUSH2 0x2AD JUMP JUMPDEST PUSH2 0x2C8 PUSH32 0x0 DUP2 JUMP JUMPDEST PUSH2 0x3FC PUSH2 0xA32 JUMP JUMPDEST PUSH1 0x40 MLOAD PUSH2 0x2AD SWAP7 SWAP6 SWAP5 SWAP4 SWAP3 SWAP2 SWAP1 PUSH2 0x217E JUMP JUMPDEST PUSH2 0x2C8 PUSH2 0xB49 JUMP JUMPDEST PUSH2 0x305 PUSH2 0xBD2 JUMP JUMPDEST PUSH2 0x2C8 PUSH1 0x5 SLOAD DUP2 JUMP JUMPDEST PUSH2 0x2C8 PUSH4 0x5A39A80 DUP2 JUMP JUMPDEST PUSH2 0x305 PUSH2 0xBE4 JUMP JUMPDEST PUSH1 0x7 SLOAD PUSH2 0x36B SWAP1 PUSH2 0x100 SWAP1 DIV PUSH1 0xFF AND DUP2 JUMP JUMPDEST PUSH2 0x305 PUSH2 0x45A CALLDATASIZE PUSH1 0x4 PUSH2 0x2071 JUMP JUMPDEST PUSH2 0xD77 JUMP JUMPDEST PUSH1 0x2 SLOAD PUSH1 0xFF AND PUSH2 0x36B JUMP JUMPDEST PUSH2 0x305 PUSH2 0xF71 JUMP JUMPDEST PUSH2 0x2C8 PUSH2 0xF83 JUMP JUMPDEST PUSH1 0x40 DUP1 MLOAD PUSH1 0x1 PUSH1 0x1 PUSH1 0xA0 SHL SUB PUSH32 0x0 AND DUP2 MSTORE PUSH8 0x6765C793FA10079D PUSH1 0x1B SHL PUSH1 0x20 DUP3 ADD MSTORE PUSH4 0x5A39A80 SWAP2 DUP2 ADD SWAP2 SWAP1 SWAP2 MSTORE PUSH3 0xED4E00 PUSH1 0x60 DUP3 ADD MSTORE PUSH1 0x5 PUSH1 0x80 DUP3 ADD MSTORE PUSH2 0x7D0 PUSH1 0xA0 DUP3 ADD MSTORE PUSH1 0xC0 ADD PUSH2 0x2AD JUMP JUMPDEST PUSH2 0x305 PUSH2 0x1027 JUMP JUMPDEST PUSH1 0x0 SLOAD PUSH1 0x1 PUSH1 0x1 PUSH1 0xA0 SHL SUB AND PUSH2 0x346 JUMP JUMPDEST PUSH2 0x305 PUSH2 0x50E CALLDATASIZE PUSH1 0x4 PUSH2 0x21BB JUMP JUMPDEST PUSH2 0x1037 JUMP JUMPDEST PUSH2 0x2C8 PUSH1 0x5 DUP2 JUMP JUMPDEST PUSH2 0x36B PUSH2 0x529 CALLDATASIZE PUSH1 0x4 PUSH2 0x2071 JUMP JUMPDEST PUSH1 0x1 PUSH1 0x1 PUSH1 0xA0 SHL SUB AND PUSH1 0x0 SWAP1 DUP2 MSTORE PUSH1 0x3 PUSH1 0x20 DUP2 SWAP1 MSTORE PUSH1 0x40 SWAP1 SWAP2 KECCAK256 ADD SLOAD PUSH1 0xFF AND SWAP1 JUMP JUMPDEST PUSH2 0x346 PUSH2 0x559 CALLDATASIZE PUSH1 0x4 PUSH2 0x21E5 JUMP JUMPDEST PUSH2 0x1263 JUMP JUMPDEST PUSH2 0x2C8 PUSH3 0xED4E00 DUP2 JUMP JUMPDEST PUSH2 0x305 PUSH2 0x128D JUMP JUMPDEST PUSH2 0x578 PUSH2 0x140A JUMP JUMPDEST PUSH1 0x40 DUP1 MLOAD SWAP8 DUP9 MSTORE PUSH1 0x20 DUP9 ADD SWAP7 SWAP1 SWAP7 MSTORE SWAP5 DUP7 ADD SWAP4 SWAP1 SWAP4 MSTORE PUSH1 0x60 DUP6 ADD SWAP2 SWAP1 SWAP2 MSTORE PUSH1 0x80 DUP5 ADD MSTORE ISZERO ISZERO PUSH1 0xA0 DUP4 ADD MSTORE ISZERO ISZERO PUSH1 0xC0 DUP3 ADD MSTORE PUSH1 0xE0 ADD PUSH2 0x2AD JUMP JUMPDEST PUSH2 0x2C8 PUSH2 0x7D0 DUP2 JUMP JUMPDEST PUSH2 0x2C8 PUSH1 0x6 SLOAD DUP2 JUMP JUMPDEST PUSH2 0x305 PUSH2 0x1517 JUMP JUMPDEST PUSH2 0x305 PUSH2 0x5D9 CALLDATASIZE PUSH1 0x4 PUSH2 0x2071 JUMP JUMPDEST PUSH2 0x168F JUMP JUMPDEST PUSH2 0x2C8 PUSH2 0x5EC CALLDATASIZE PUSH1 0x4 PUSH2 0x2071 JUMP JUMPDEST PUSH2 0x1840 JUMP JUMPDEST PUSH2 0x2C8 PUSH2 0x2710 DUP2 JUMP JUMPDEST PUSH2 0x305 PUSH2 0x608 CALLDATASIZE PUSH1 0x4 PUSH2 0x2071 JUMP JUMPDEST PUSH2 0x18EE JUMP JUMPDEST PUSH2 0x305 PUSH2 0x61B CALLDATASIZE PUSH1 0x4 PUSH2 0x2071 JUMP JUMPDEST PUSH2 0x1AC6 JUMP JUMPDEST PUSH2 0x305 PUSH2 0x62E CALLDATASIZE PUSH1 0x4 PUSH2 0x21BB JUMP JUMPDEST PUSH2 0x1B06 JUMP JUMPDEST PUSH2 0x63B PUSH2 0x1C3B JUMP JUMPDEST PUSH1 0x7 SLOAD PUSH1 0xFF AND ISZERO PUSH2 0x65F JUMPI PUSH1 0x40 MLOAD PUSH4 0x3BCD4049 PUSH1 0xE0 SHL DUP2 MSTORE PUSH1 0x4 ADD PUSH1 0x40 MLOAD DUP1 SWAP2 SUB SWAP1 REVERT JUMPDEST PUSH1 0x7 SLOAD PUSH2 0x100 SWAP1 DIV PUSH1 0xFF AND PUSH2 0x687 JUMPI PUSH1 0x40 MLOAD PUSH4 0x8896BE07 PUSH1 0xE0 SHL DUP2 MSTORE PUSH1 0x4 ADD PUSH1 0x40 MLOAD DUP1 SWAP2 SUB SWAP1 REVERT JUMPDEST PUSH1 0x5 SLOAD PUSH1 0x0 SUB PUSH2 0x6AA JUMPI PUSH1 0x40 MLOAD PUSH4 0x162908E3 PUSH1 0xE1 SHL DUP2 MSTORE PUSH1 0x4 ADD PUSH1 0x40 MLOAD DUP1 SWAP2 SUB SWAP1 REVERT JUMPDEST PUSH1 0x7 DUP1 SLOAD PUSH1 0xFF NOT AND PUSH1 0x1 OR SWAP1 SSTORE PUSH1 0x40 MLOAD PUSH32 0x50502E52AA6CA293C321541049509F7CDC9BC3FEE99F3D02331196F7DA8EF71F SWAP1 PUSH2 0x6E9 SWAP1 TIMESTAMP DUP2 MSTORE PUSH1 0x20 ADD SWAP1 JUMP JUMPDEST PUSH1 0x40 MLOAD DUP1 SWAP2 SUB SWAP1 LOG1 JUMP JUMPDEST PUSH1 0x4 SLOAD PUSH1 0x60 SWAP1 DUP2 SWAP1 DUP2 SWAP1 DUP2 SWAP1 DUP1 PUSH8 0xFFFFFFFFFFFFFFFF DUP2 GT ISZERO PUSH2 0x718 JUMPI PUSH2 0x718 PUSH2 0x21FE JUMP JUMPDEST PUSH1 0x40 MLOAD SWAP1 DUP1 DUP3 MSTORE DUP1 PUSH1 0x20 MUL PUSH1 0x20 ADD DUP3 ADD PUSH1 0x40 MSTORE DUP1 ISZERO PUSH2 0x741 JUMPI DUP2 PUSH1 0x20 ADD PUSH1 0x20 DUP3 MUL DUP1 CALLDATASIZE DUP4 CALLDATACOPY ADD SWAP1 POP JUMPDEST POP SWAP5 POP DUP1 PUSH8 0xFFFFFFFFFFFFFFFF DUP2 GT ISZERO PUSH2 0x75D JUMPI PUSH2 0x75D PUSH2 0x21FE JUMP JUMPDEST PUSH1 0x40 MLOAD SWAP1 DUP1 DUP3 MSTORE DUP1 PUSH1 0x20 MUL PUSH1 0x20 ADD DUP3 ADD PUSH1 0x40 MSTORE DUP1 ISZERO PUSH2 0x786 JUMPI DUP2 PUSH1 0x20 ADD PUSH1 0x20 DUP3 MUL DUP1 CALLDATASIZE DUP4 CALLDATACOPY ADD SWAP1 POP JUMPDEST POP SWAP4 POP DUP1 PUSH8 0xFFFFFFFFFFFFFFFF DUP2 GT ISZERO PUSH2 0x7A2 JUMPI PUSH2 0x7A2 PUSH2 0x21FE JUMP JUMPDEST PUSH1 0x40 MLOAD SWAP1 DUP1 DUP3 MSTORE DUP1 PUSH1 0x20 MUL PUSH1 0x20 ADD DUP3 ADD PUSH1 0x40 MSTORE DUP1 ISZERO PUSH2 0x7CB JUMPI DUP2 PUSH1 0x20 ADD PUSH1 0x20 DUP3 MUL DUP1 CALLDATASIZE DUP4 CALLDATACOPY ADD SWAP1 POP JUMPDEST POP SWAP3 POP DUP1 PUSH8 0xFFFFFFFFFFFFFFFF DUP2 GT ISZERO PUSH2 0x7E7 JUMPI PUSH2 0x7E7 PUSH2 0x21FE JUMP JUMPDEST PUSH1 0x40 MLOAD SWAP1 DUP1 DUP3 MSTORE DUP1 PUSH1 0x20 MUL PUSH1 0x20 ADD DUP3 ADD PUSH1 0x40 MSTORE DUP1 ISZERO PUSH2 0x810 JUMPI DUP2 PUSH1 0x20 ADD PUSH1 0x20 DUP3 MUL DUP1 CALLDATASIZE DUP4 CALLDATACOPY ADD SWAP1 POP JUMPDEST POP SWAP2 POP PUSH1 0x0 JUMPDEST DUP2 DUP2 LT ISZERO PUSH2 0x965 JUMPI PUSH1 0x0 PUSH1 0x4 DUP3 DUP2 SLOAD DUP2 LT PUSH2 0x833 JUMPI PUSH2 0x833 PUSH2 0x2214 JUMP JUMPDEST PUSH1 0x0 SWAP2 DUP3 MSTORE PUSH1 0x20 DUP1 DUP4 KECCAK256 SWAP1 SWAP2 ADD SLOAD PUSH1 0x1 PUSH1 0x1 PUSH1 0xA0 SHL SUB AND DUP1 DUP4 MSTORE PUSH1 0x3 DUP1 DUP4 MSTORE PUSH1 0x40 SWAP4 DUP5 SWAP1 KECCAK256 DUP5 MLOAD PUSH1 0xA0 DUP2 ADD DUP7 MSTORE DUP2 SLOAD DUP2 MSTORE PUSH1 0x1 DUP3 ADD SLOAD SWAP5 DUP2 ADD SWAP5 SWAP1 SWAP5 MSTORE PUSH1 0x2 DUP2 ADD SLOAD SWAP5 DUP5 ADD SWAP5 SWAP1 SWAP5 MSTORE SWAP3 SWAP1 SWAP3 ADD SLOAD PUSH1 0xFF DUP1 DUP3 AND ISZERO ISZERO PUSH1 0x60 DUP5 ADD MSTORE PUSH2 0x100 SWAP1 SWAP2 DIV AND ISZERO ISZERO PUSH1 0x80 DUP3 ADD MSTORE DUP9 MLOAD SWAP2 SWAP3 POP SWAP1 DUP3 SWAP1 DUP10 SWAP1 DUP6 SWAP1 DUP2 LT PUSH2 0x8B5 JUMPI PUSH2 0x8B5 PUSH2 0x2214 JUMP JUMPDEST PUSH1 0x20 MUL PUSH1 0x20 ADD ADD SWAP1 PUSH1 0x1 PUSH1 0x1 PUSH1 0xA0 SHL SUB AND SWAP1 DUP2 PUSH1 0x1 PUSH1 0x1 PUSH1 0xA0 SHL SUB AND DUP2 MSTORE POP POP DUP1 PUSH1 0x0 ADD MLOAD DUP8 DUP5 DUP2 MLOAD DUP2 LT PUSH2 0x8EC JUMPI PUSH2 0x8EC PUSH2 0x2214 JUMP JUMPDEST PUSH1 0x20 MUL PUSH1 0x20 ADD ADD DUP2 DUP2 MSTORE POP POP DUP1 PUSH1 0x20 ADD MLOAD DUP7 DUP5 DUP2 MLOAD DUP2 LT PUSH2 0x90F JUMPI PUSH2 0x90F PUSH2 0x2214 JUMP JUMPDEST PUSH1 0x20 MUL PUSH1 0x20 ADD ADD DUP2 DUP2 MSTORE POP POP DUP1 PUSH1 0x60 ADD MLOAD DUP1 ISZERO PUSH2 0x92E JUMPI POP DUP1 PUSH1 0x80 ADD MLOAD ISZERO JUMPDEST DUP6 DUP5 DUP2 MLOAD DUP2 LT PUSH2 0x940 JUMPI PUSH2 0x940 PUSH2 0x2214 JUMP JUMPDEST SWAP2 ISZERO ISZERO PUSH1 0x20 SWAP3 DUP4 MUL SWAP2 SWAP1 SWAP2 ADD SWAP1 SWAP2 ADD MSTORE POP DUP2 SWAP1 POP PUSH2 0x95D DUP2 PUSH2 0x2240 JUMP JUMPDEST SWAP2 POP POP PUSH2 0x816 JUMP JUMPDEST POP POP SWAP1 SWAP2 SWAP3 SWAP4 JUMP JUMPDEST PUSH1 0x1 PUSH1 0x1 PUSH1 0xA0 SHL SUB DUP2 AND PUSH1 0x0 SWAP1 DUP2 MSTORE PUSH1 0x3 PUSH1 0x20 DUP2 DUP2 MSTORE PUSH1 0x40 DUP1 DUP5 KECCAK256 DUP2 MLOAD PUSH1 0xA0 DUP2 ADD DUP4 MSTORE DUP2 SLOAD DUP2 MSTORE PUSH1 0x1 DUP3 ADD SLOAD SWAP4 DUP2 ADD SWAP4 SWAP1 SWAP4 MSTORE PUSH1 0x2 DUP2 ADD SLOAD SWAP2 DUP4 ADD SWAP2 SWAP1 SWAP2 MSTORE SWAP1 SWAP2 ADD SLOAD PUSH1 0xFF DUP1 DUP3 AND ISZERO ISZERO PUSH1 0x60 DUP5 ADD MSTORE PUSH2 0x100 SWAP1 SWAP2 DIV AND ISZERO ISZERO PUSH1 0x80 DUP3 ADD MSTORE DUP2 SWAP1 DUP2 SWAP1 DUP2 SWAP1 DUP2 SWAP1 DUP2 SWAP1 DUP2 SWAP1 DUP2 SWAP1 PUSH2 0x9E1 DUP11 PUSH2 0x1C68 JUMP JUMPDEST SWAP8 POP PUSH2 0x9EC DUP11 PUSH2 0x1840 JUMP JUMPDEST PUSH1 0x20 DUP3 ADD MLOAD DUP3 MLOAD SWAP2 SWAP8 POP PUSH2 0x9FF SWAP2 PUSH2 0x2259 JUMP JUMPDEST SWAP5 POP PUSH2 0xA09 PUSH2 0x1D65 JUMP JUMPDEST DUP2 MLOAD PUSH1 0x20 DUP4 ADD MLOAD PUSH1 0x60 DUP5 ADD MLOAD PUSH1 0x80 SWAP1 SWAP5 ADD MLOAD SWAP2 SWAP14 SWAP11 SWAP13 POP SWAP11 POP SWAP7 SWAP9 SWAP6 SWAP8 POP SWAP6 SWAP1 SWAP5 SWAP1 SWAP4 POP SWAP2 POP POP JUMP JUMPDEST PUSH1 0x0 DUP1 DUP1 DUP1 DUP1 PUSH1 0x60 PUSH1 0x5 PUSH1 0x40 MLOAD SWAP1 DUP1 DUP3 MSTORE DUP1 PUSH1 0x20 MUL PUSH1 0x20 ADD DUP3 ADD PUSH1 0x40 MSTORE DUP1 ISZERO PUSH2 0xA65 JUMPI DUP2 PUSH1 0x20 ADD PUSH1 0x20 DUP3 MUL DUP1 CALLDATASIZE DUP4 CALLDATACOPY ADD SWAP1 POP JUMPDEST POP SWAP1 POP PUSH1 0x0 JUMPDEST PUSH1 0x5 DUP2 LT ISZERO PUSH2 0xADA JUMPI PUSH2 0xA81 PUSH3 0xED4E00 DUP3 PUSH2 0x2272 JUMP JUMPDEST PUSH2 0xAAB SWAP1 PUSH32 0x0 PUSH2 0x2289 JUMP JUMPDEST DUP3 DUP3 DUP2 MLOAD DUP2 LT PUSH2 0xABD JUMPI PUSH2 0xABD PUSH2 0x2214 JUMP JUMPDEST PUSH1 0x20 SWAP1 DUP2 MUL SWAP2 SWAP1 SWAP2 ADD ADD MSTORE DUP1 PUSH2 0xAD2 DUP2 PUSH2 0x2240 JUMP JUMPDEST SWAP2 POP POP PUSH2 0xA6B JUMP JUMPDEST POP PUSH32 0x0 PUSH32 0x0 PUSH2 0xB25 PUSH2 0x1D65 JUMP JUMPDEST PUSH1 0x5 PUSH2 0xB37 PUSH3 0x15180 PUSH3 0xED4E00 PUSH2 0x229C JUMP JUMPDEST SWAP6 POP SWAP6 POP SWAP6 POP SWAP6 POP SWAP6 POP SWAP1 SWAP2 SWAP3 SWAP4 SWAP5 SWAP6 JUMP JUMPDEST PUSH1 0x0 DUP1 PUSH2 0xB54 PUSH2 0x1D65 JUMP JUMPDEST SWAP1 POP PUSH1 0x5 DUP2 LT PUSH2 0xB66 JUMPI PUSH1 0x0 SWAP2 POP POP SWAP1 JUMP JUMPDEST DUP1 PUSH1 0x0 SUB PUSH2 0xB95 JUMPI PUSH32 0x0 SWAP2 POP POP SWAP1 JUMP JUMPDEST PUSH2 0xBA2 PUSH3 0xED4E00 DUP3 PUSH2 0x2272 JUMP JUMPDEST PUSH2 0xBCC SWAP1 PUSH32 0x0 PUSH2 0x2289 JUMP JUMPDEST SWAP2 POP POP SWAP1 JUMP JUMPDEST PUSH2 0xBDA PUSH2 0x1C3B JUMP JUMPDEST PUSH2 0xBE2 PUSH2 0x1DF6 JUMP JUMPDEST JUMP JUMPDEST PUSH2 0xBEC PUSH2 0x1E43 JUMP JUMPDEST PUSH2 0xBF4 PUSH2 0x1E6D JUMP JUMPDEST PUSH1 0x7 SLOAD PUSH1 0xFF AND PUSH2 0xC17 JUMPI PUSH1 0x40 MLOAD PUSH4 0x1CEE3A75 PUSH1 0xE1 SHL DUP2 MSTORE PUSH1 0x4 ADD PUSH1 0x40 MLOAD DUP1 SWAP2 SUB SWAP1 REVERT JUMPDEST CALLER PUSH1 0x0 SWAP1 DUP2 MSTORE PUSH1 0x3 PUSH1 0x20 DUP2 SWAP1 MSTORE PUSH1 0x40 SWAP1 SWAP2 KECCAK256 ADD SLOAD PUSH1 0xFF AND PUSH2 0xC4B JUMPI PUSH1 0x40 MLOAD PUSH4 0x644D871F PUSH1 0xE0 SHL DUP2 MSTORE PUSH1 0x4 ADD PUSH1 0x40 MLOAD DUP1 SWAP2 SUB SWAP1 REVERT JUMPDEST CALLER PUSH1 0x0 SWAP1 DUP2 MSTORE PUSH1 0x3 PUSH1 0x20 DUP2 SWAP1 MSTORE PUSH1 0x40 SWAP1 SWAP2 KECCAK256 SWAP1 DUP2 ADD SLOAD PUSH2 0x100 SWAP1 DIV PUSH1 0xFF AND ISZERO PUSH2 0xC87 JUMPI PUSH1 0x40 MLOAD PUSH4 0xD1BA89A1 PUSH1 0xE0 SHL DUP2 MSTORE PUSH1 0x4 ADD PUSH1 0x40 MLOAD DUP1 SWAP2 SUB SWAP1 REVERT JUMPDEST PUSH1 0x0 PUSH2 0xC92 CALLER PUSH2 0x1840 JUMP JUMPDEST SWAP1 POP DUP1 PUSH1 0x0 SUB PUSH2 0xCB5 JUMPI PUSH1 0x40 MLOAD PUSH4 0x626E307 PUSH1 0xE5 SHL DUP2 MSTORE PUSH1 0x4 ADD PUSH1 0x40 MLOAD DUP1 SWAP2 SUB SWAP1 REVERT JUMPDEST PUSH1 0x0 PUSH2 0xCBF PUSH2 0x1D65 JUMP JUMPDEST SWAP1 POP DUP2 DUP4 PUSH1 0x1 ADD PUSH1 0x0 DUP3 DUP3 SLOAD PUSH2 0xCD5 SWAP2 SWAP1 PUSH2 0x2289 JUMP JUMPDEST SWAP1 SWAP2 SSTORE POP POP PUSH1 0x2 DUP4 ADD DUP2 SWAP1 SSTORE PUSH1 0x6 DUP1 SLOAD DUP4 SWAP2 SWAP1 PUSH1 0x0 SWAP1 PUSH2 0xCF6 SWAP1 DUP5 SWAP1 PUSH2 0x2289 JUMP JUMPDEST SWAP1 SWAP2 SSTORE POP PUSH2 0xD30 SWAP1 POP PUSH1 0x1 PUSH1 0x1 PUSH1 0xA0 SHL SUB PUSH32 0x0 AND CALLER DUP5 PUSH2 0x1E91 JUMP JUMPDEST PUSH1 0x40 DUP1 MLOAD DUP4 DUP2 MSTORE PUSH1 0x20 DUP2 ADD DUP4 SWAP1 MSTORE CALLER SWAP2 PUSH32 0x9923B4306C6C030F2BDFBF156517D5983B87E15B96176DA122CD4F2EFFA4BA7B SWAP2 ADD PUSH1 0x40 MLOAD DUP1 SWAP2 SUB SWAP1 LOG2 POP POP POP PUSH2 0xBE2 PUSH1 0x1 DUP1 SSTORE JUMP JUMPDEST PUSH2 0xD7F PUSH2 0x1C3B JUMP JUMPDEST PUSH1 0x7 SLOAD PUSH1 0xFF AND ISZERO PUSH2 0xDA3 JUMPI PUSH1 0x40 MLOAD PUSH4 0x3BCD4049 PUSH1 0xE0 SHL DUP2 MSTORE PUSH1 0x4 ADD PUSH1 0x40 MLOAD DUP1 SWAP2 SUB SWAP1 REVERT JUMPDEST PUSH1 0x1 PUSH1 0x1 PUSH1 0xA0 SHL SUB DUP2 AND PUSH1 0x0 SWAP1 DUP2 MSTORE PUSH1 0x3 PUSH1 0x20 DUP2 SWAP1 MSTORE PUSH1 0x40 SWAP1 SWAP2 KECCAK256 ADD SLOAD PUSH1 0xFF AND PUSH2 0xDE0 JUMPI PUSH1 0x40 MLOAD PUSH4 0x644D871F PUSH1 0xE0 SHL DUP2 MSTORE PUSH1 0x4 ADD PUSH1 0x40 MLOAD DUP1 SWAP2 SUB SWAP1 REVERT JUMPDEST PUSH1 0x1 PUSH1 0x1 PUSH1 0xA0 SHL SUB DUP2 AND PUSH1 0x0 SWAP1 DUP2 MSTORE PUSH1 0x3 PUSH1 0x20 DUP2 SWAP1 MSTORE PUSH1 0x40 DUP3 KECCAK256 DUP1 SLOAD SWAP2 DUP2 ADD DUP1 SLOAD PUSH1 0xFF NOT AND SWAP1 SSTORE PUSH1 0x5 DUP1 SLOAD SWAP2 SWAP4 DUP4 SWAP3 PUSH2 0xE1A SWAP1 DUP5 SWAP1 PUSH2 0x2259 JUMP JUMPDEST SWAP1 SWAP2 SSTORE POP PUSH1 0x0 SWAP1 POP JUMPDEST PUSH1 0x4 SLOAD DUP2 LT ISZERO PUSH2 0xF28 JUMPI DUP4 PUSH1 0x1 PUSH1 0x1 PUSH1 0xA0 SHL SUB AND PUSH1 0x4 DUP3 DUP2 SLOAD DUP2 LT PUSH2 0xE4A JUMPI PUSH2 0xE4A PUSH2 0x2214 JUMP JUMPDEST PUSH1 0x0 SWAP2 DUP3 MSTORE PUSH1 0x20 SWAP1 SWAP2 KECCAK256 ADD SLOAD PUSH1 0x1 PUSH1 0x1 PUSH1 0xA0 SHL SUB AND SUB PUSH2 0xF16 JUMPI PUSH1 0x4 DUP1 SLOAD PUSH2 0xE74 SWAP1 PUSH1 0x1 SWAP1 PUSH2 0x2259 JUMP JUMPDEST DUP2 SLOAD DUP2 LT PUSH2 0xE84 JUMPI PUSH2 0xE84 PUSH2 0x2214 JUMP JUMPDEST PUSH1 0x0 SWAP2 DUP3 MSTORE PUSH1 0x20 SWAP1 SWAP2 KECCAK256 ADD SLOAD PUSH1 0x4 DUP1 SLOAD PUSH1 0x1 PUSH1 0x1 PUSH1 0xA0 SHL SUB SWAP1 SWAP3 AND SWAP2 DUP4 SWAP1 DUP2 LT PUSH2 0xEB0 JUMPI PUSH2 0xEB0 PUSH2 0x2214 JUMP JUMPDEST SWAP1 PUSH1 0x0 MSTORE PUSH1 0x20 PUSH1 0x0 KECCAK256 ADD PUSH1 0x0 PUSH2 0x100 EXP DUP2 SLOAD DUP2 PUSH1 0x1 PUSH1 0x1 PUSH1 0xA0 SHL SUB MUL NOT AND SWAP1 DUP4 PUSH1 0x1 PUSH1 0x1 PUSH1 0xA0 SHL SUB AND MUL OR SWAP1 SSTORE POP PUSH1 0x4 DUP1 SLOAD DUP1 PUSH2 0xEEF JUMPI PUSH2 0xEEF PUSH2 0x22BE JUMP JUMPDEST PUSH1 0x0 DUP3 DUP2 MSTORE PUSH1 0x20 SWAP1 KECCAK256 DUP2 ADD PUSH1 0x0 NOT SWAP1 DUP2 ADD DUP1 SLOAD PUSH1 0x1 PUSH1 0x1 PUSH1 0xA0 SHL SUB NOT AND SWAP1 SSTORE ADD SWAP1 SSTORE PUSH2 0xF28 JUMP JUMPDEST DUP1 PUSH2 0xF20 DUP2 PUSH2 0x2240 JUMP JUMPDEST SWAP2 POP POP PUSH2 0xE23 JUMP JUMPDEST POP DUP3 PUSH1 0x1 PUSH1 0x1 PUSH1 0xA0 SHL SUB AND PUSH32 0x4EBA15B1481AC9C456EA6075869B280F4F84C5B462CF7BC01868DD40119EC065 DUP3 PUSH1 0x40 MLOAD PUSH2 0xF64 SWAP2 DUP2 MSTORE PUSH1 0x20 ADD SWAP1 JUMP JUMPDEST PUSH1 0x40 MLOAD DUP1 SWAP2 SUB SWAP1 LOG2 POP POP POP JUMP JUMPDEST PUSH2 0xF79 PUSH2 0x1C3B JUMP JUMPDEST PUSH2 0xBE2 PUSH1 0x0 PUSH2 0x1EF5 JUMP JUMPDEST PUSH1 0x0 DUP1 PUSH2 0xF8E PUSH2 0x1D65 JUMP JUMPDEST SWAP1 POP PUSH1 0x5 DUP2 LT PUSH2 0xFA0 JUMPI PUSH1 0x0 SWAP2 POP POP SWAP1 JUMP JUMPDEST PUSH1 0x0 DUP2 ISZERO PUSH2 0xFE4 JUMPI PUSH2 0xFB5 PUSH3 0xED4E00 DUP4 PUSH2 0x2272 JUMP JUMPDEST PUSH2 0xFDF SWAP1 PUSH32 0x0 PUSH2 0x2289 JUMP JUMPDEST PUSH2 0x1006 JUMP JUMPDEST PUSH32 0x0 JUMPDEST SWAP1 POP TIMESTAMP DUP2 GT PUSH2 0x1016 JUMPI PUSH1 0x0 PUSH2 0x1020 JUMP JUMPDEST PUSH2 0x1020 TIMESTAMP DUP3 PUSH2 0x2259 JUMP JUMPDEST SWAP3 POP POP POP SWAP1 JUMP JUMPDEST PUSH2 0x102F PUSH2 0x1C3B JUMP JUMPDEST PUSH2 0xBE2 PUSH2 0x1F45 JUMP JUMPDEST PUSH2 0x103F PUSH2 0x1C3B JUMP JUMPDEST PUSH1 0x7 SLOAD PUSH1 0xFF AND ISZERO PUSH2 0x1063 JUMPI PUSH1 0x40 MLOAD PUSH4 0x3BCD4049 PUSH1 0xE0 SHL DUP2 MSTORE PUSH1 0x4 ADD PUSH1 0x40 MLOAD DUP1 SWAP2 SUB SWAP1 REVERT JUMPDEST PUSH1 0x7 SLOAD PUSH2 0x100 SWAP1 DIV PUSH1 0xFF AND PUSH2 0x108B JUMPI PUSH1 0x40 MLOAD PUSH4 0x8896BE07 PUSH1 0xE0 SHL DUP2 MSTORE PUSH1 0x4 ADD PUSH1 0x40 MLOAD DUP1 SWAP2 SUB SWAP1 REVERT JUMPDEST PUSH1 0x1 PUSH1 0x1 PUSH1 0xA0 SHL SUB DUP3 AND PUSH2 0x10B2 JUMPI PUSH1 0x40 MLOAD PUSH4 0xE6C4247B PUSH1 0xE0 SHL DUP2 MSTORE PUSH1 0x4 ADD PUSH1 0x40 MLOAD DUP1 SWAP2 SUB SWAP1 REVERT JUMPDEST DUP1 PUSH1 0x0 SUB PUSH2 0x10D3 JUMPI PUSH1 0x40 MLOAD PUSH4 0x162908E3 PUSH1 0xE1 SHL DUP2 MSTORE PUSH1 0x4 ADD PUSH1 0x40 MLOAD DUP1 SWAP2 SUB SWAP1 REVERT JUMPDEST PUSH1 0x1 PUSH1 0x1 PUSH1 0xA0 SHL SUB DUP3 AND PUSH1 0x0 SWAP1 DUP2 MSTORE PUSH1 0x3 PUSH1 0x20 DUP2 SWAP1 MSTORE PUSH1 0x40 SWAP1 SWAP2 KECCAK256 ADD SLOAD PUSH1 0xFF AND ISZERO PUSH2 0x1111 JUMPI PUSH1 0x40 MLOAD PUSH4 0x185E69A3 PUSH1 0xE3 SHL DUP2 MSTORE PUSH1 0x4 ADD PUSH1 0x40 MLOAD DUP1 SWAP2 SUB SWAP1 REVERT JUMPDEST PUSH8 0x6765C793FA10079D PUSH1 0x1B SHL DUP2 PUSH1 0x5 SLOAD PUSH2 0x112B SWAP2 SWAP1 PUSH2 0x2289 JUMP JUMPDEST GT ISZERO PUSH2 0x114A JUMPI PUSH1 0x40 MLOAD PUSH4 0x43D3E30F PUSH1 0xE1 SHL DUP2 MSTORE PUSH1 0x4 ADD PUSH1 0x40 MLOAD DUP1 SWAP2 SUB SWAP1 REVERT JUMPDEST PUSH1 0x40 DUP1 MLOAD PUSH1 0xA0 DUP2 ADD DUP3 MSTORE DUP3 DUP2 MSTORE PUSH1 0x0 PUSH1 0x20 DUP1 DUP4 ADD DUP3 DUP2 MSTORE DUP4 DUP6 ADD DUP4 DUP2 MSTORE PUSH1 0x1 PUSH1 0x60 DUP7 ADD DUP2 DUP2 MSTORE PUSH1 0x80 DUP8 ADD DUP7 DUP2 MSTORE PUSH1 0x1 PUSH1 0x1 PUSH1 0xA0 SHL SUB DUP12 AND DUP1 DUP9 MSTORE PUSH1 0x3 SWAP7 DUP8 SWAP1 MSTORE SWAP9 DUP8 KECCAK256 SWAP8 MLOAD DUP9 SSTORE SWAP4 MLOAD DUP8 DUP4 ADD SSTORE SWAP2 MLOAD PUSH1 0x2 DUP8 ADD SSTORE SWAP1 MLOAD SWAP5 SWAP1 SWAP3 ADD DUP1 SLOAD SWAP2 MLOAD PUSH2 0xFFFF NOT SWAP1 SWAP3 AND SWAP5 ISZERO ISZERO PUSH2 0xFF00 NOT AND SWAP5 SWAP1 SWAP5 OR PUSH2 0x100 SWAP2 ISZERO ISZERO SWAP2 SWAP1 SWAP2 MUL OR SWAP1 SWAP3 SSTORE PUSH1 0x4 DUP1 SLOAD SWAP3 DUP4 ADD DUP2 SSTORE DUP2 MSTORE PUSH32 0x8A35ACFBC15FF81A39AE7D344FD709F28E8600B4AA8C65C6B64BFE7FE36BD19B SWAP1 SWAP2 ADD DUP1 SLOAD PUSH1 0x1 PUSH1 0x1 PUSH1 0xA0 SHL SUB NOT AND SWAP1 SWAP3 OR SWAP1 SWAP2 SSTORE PUSH1 0x5 DUP1 SLOAD DUP4 SWAP3 SWAP1 PUSH2 0x121C SWAP1 DUP5 SWAP1 PUSH2 0x2289 JUMP JUMPDEST SWAP1 SWAP2 SSTORE POP POP PUSH1 0x40 MLOAD DUP2 DUP2 MSTORE PUSH1 0x1 PUSH1 0x1 PUSH1 0xA0 SHL SUB DUP4 AND SWAP1 PUSH32 0xE6B83177F11971BA30369BB38B914FFBA97D5969A3C857B286FA8FDBB150B3BA SWAP1 PUSH1 0x20 ADD PUSH1 0x40 MLOAD DUP1 SWAP2 SUB SWAP1 LOG2 POP POP JUMP JUMPDEST PUSH1 0x4 DUP2 DUP2 SLOAD DUP2 LT PUSH2 0x1273 JUMPI PUSH1 0x0 DUP1 REVERT JUMPDEST PUSH1 0x0 SWAP2 DUP3 MSTORE PUSH1 0x20 SWAP1 SWAP2 KECCAK256 ADD SLOAD PUSH1 0x1 PUSH1 0x1 PUSH1 0xA0 SHL SUB AND SWAP1 POP DUP2 JUMP JUMPDEST PUSH2 0x1295 PUSH2 0x1C3B JUMP JUMPDEST PUSH1 0x7 SLOAD PUSH2 0x100 SWAP1 DIV PUSH1 0xFF AND ISZERO PUSH2 0x12BC JUMPI PUSH1 0x40 MLOAD PUSH2 0xE85F PUSH1 0xEF SHL DUP2 MSTORE PUSH1 0x4 ADD PUSH1 0x40 MLOAD DUP1 SWAP2 SUB SWAP1 REVERT JUMPDEST PUSH1 0x40 MLOAD PUSH4 0x70A08231 PUSH1 0xE0 SHL DUP2 MSTORE CALLER PUSH1 0x4 DUP3 ADD MSTORE PUSH1 0x0 SWAP1 PUSH32 0x0 PUSH1 0x1 PUSH1 0x1 PUSH1 0xA0 SHL SUB AND SWAP1 PUSH4 0x70A08231 SWAP1 PUSH1 0x24 ADD PUSH1 0x20 PUSH1 0x40 MLOAD DUP1 DUP4 SUB DUP2 DUP7 GAS STATICCALL ISZERO DUP1 ISZERO PUSH2 0x1323 JUMPI RETURNDATASIZE PUSH1 0x0 DUP1 RETURNDATACOPY RETURNDATASIZE PUSH1 0x0 REVERT JUMPDEST POP POP POP POP PUSH1 0x40 MLOAD RETURNDATASIZE PUSH1 0x1F NOT PUSH1 0x1F DUP3 ADD AND DUP3 ADD DUP1 PUSH1 0x40 MSTORE POP DUP2 ADD SWAP1 PUSH2 0x1347 SWAP2 SWAP1 PUSH2 0x22D4 JUMP JUMPDEST SWAP1 POP PUSH8 0x6765C793FA10079D PUSH1 0x1B SHL DUP2 LT ISZERO PUSH2 0x1375 JUMPI PUSH1 0x40 MLOAD PUSH4 0x1E9ACF17 PUSH1 0xE3 SHL DUP2 MSTORE PUSH1 0x4 ADD PUSH1 0x40 MLOAD DUP1 SWAP2 SUB SWAP1 REVERT JUMPDEST PUSH2 0x13B5 PUSH1 0x1 PUSH1 0x1 PUSH1 0xA0 SHL SUB PUSH32 0x0 AND CALLER ADDRESS PUSH8 0x6765C793FA10079D PUSH1 0x1B SHL PUSH2 0x1F82 JUMP JUMPDEST PUSH1 0x7 DUP1 SLOAD PUSH2 0xFF00 NOT AND PUSH2 0x100 OR SWAP1 SSTORE PUSH1 0x40 DUP1 MLOAD PUSH8 0x6765C793FA10079D PUSH1 0x1B SHL DUP2 MSTORE TIMESTAMP PUSH1 0x20 DUP3 ADD MSTORE PUSH32 0xF705142BF09F04297640495DDF7C59B7FD6F51894C5AEA9602D631CF05F0EFC2 SWAP2 ADD PUSH1 0x40 MLOAD DUP1 SWAP2 SUB SWAP1 LOG1 POP JUMP JUMPDEST PUSH1 0x40 MLOAD PUSH4 0x70A08231 PUSH1 0xE0 SHL DUP2 MSTORE ADDRESS PUSH1 0x4 DUP3 ADD MSTORE PUSH1 0x0 SWAP1 DUP2 SWAP1 DUP2 SWAP1 DUP2 SWAP1 DUP2 SWAP1 DUP2 SWAP1 DUP2 SWAP1 DUP2 SWAP1 PUSH1 0x1 PUSH1 0x1 PUSH1 0xA0 SHL SUB PUSH32 0x0 AND SWAP1 PUSH4 0x70A08231 SWAP1 PUSH1 0x24 ADD PUSH1 0x20 PUSH1 0x40 MLOAD DUP1 DUP4 SUB DUP2 DUP7 GAS STATICCALL ISZERO DUP1 ISZERO PUSH2 0x147F JUMPI RETURNDATASIZE PUSH1 0x0 DUP1 RETURNDATACOPY RETURNDATASIZE PUSH1 0x0 REVERT JUMPDEST POP POP POP POP PUSH1 0x40 MLOAD RETURNDATASIZE PUSH1 0x1F NOT PUSH1 0x1F DUP3 ADD AND DUP3 ADD DUP1 PUSH1 0x40 MSTORE POP DUP2 ADD SWAP1 PUSH2 0x14A3 SWAP2 SWAP1 PUSH2 0x22D4 JUMP JUMPDEST PUSH1 0x5 SLOAD PUSH1 0x6 SLOAD SWAP2 SWAP3 POP SWAP1 PUSH2 0x14B7 DUP2 DUP4 PUSH2 0x2259 JUMP JUMPDEST PUSH1 0x6 SLOAD PUSH1 0x5 SLOAD PUSH2 0x14C7 SWAP2 SWAP1 PUSH2 0x2259 JUMP JUMPDEST DUP5 GT PUSH2 0x14D4 JUMPI PUSH1 0x0 PUSH2 0x14EE JUMP JUMPDEST PUSH1 0x6 SLOAD PUSH1 0x5 SLOAD PUSH2 0x14E4 SWAP2 SWAP1 PUSH2 0x2259 JUMP JUMPDEST PUSH2 0x14EE SWAP1 DUP6 PUSH2 0x2259 JUMP JUMPDEST PUSH1 0x4 SLOAD PUSH1 0x7 SLOAD SWAP5 SWAP14 SWAP4 SWAP13 POP SWAP2 SWAP11 POP SWAP9 POP SWAP7 POP PUSH1 0xFF DUP1 DUP4 AND SWAP7 POP PUSH2 0x100 SWAP1 SWAP3 DIV SWAP1 SWAP2 AND SWAP4 POP SWAP2 POP POP JUMP JUMPDEST PUSH2 0x151F PUSH2 0x1C3B JUMP JUMPDEST PUSH1 0x40 MLOAD PUSH4 0x70A08231 PUSH1 0xE0 SHL DUP2 MSTORE ADDRESS PUSH1 0x4 DUP3 ADD MSTORE PUSH1 0x0 SWAP1 PUSH32 0x0 PUSH1 0x1 PUSH1 0x1 PUSH1 0xA0 SHL SUB AND SWAP1 PUSH4 0x70A08231 SWAP1 PUSH1 0x24 ADD PUSH1 0x20 PUSH1 0x40 MLOAD DUP1 DUP4 SUB DUP2 DUP7 GAS STATICCALL ISZERO DUP1 ISZERO PUSH2 0x1586 JUMPI RETURNDATASIZE PUSH1 0x0 DUP1 RETURNDATACOPY RETURNDATASIZE PUSH1 0x0 REVERT JUMPDEST POP POP POP POP PUSH1 0x40 MLOAD RETURNDATASIZE PUSH1 0x1F NOT PUSH1 0x1F DUP3 ADD AND DUP3 ADD DUP1 PUSH1 0x40 MSTORE POP DUP2 ADD SWAP1 PUSH2 0x15AA SWAP2 SWAP1 PUSH2 0x22D4 JUMP JUMPDEST SWAP1 POP PUSH1 0x0 PUSH1 0x6 SLOAD PUSH1 0x5 SLOAD PUSH2 0x15BE SWAP2 SWAP1 PUSH2 0x2259 JUMP JUMPDEST SWAP1 POP DUP1 DUP3 GT PUSH2 0x15E0 JUMPI PUSH1 0x40 MLOAD PUSH4 0x1E9ACF17 PUSH1 0xE3 SHL DUP2 MSTORE PUSH1 0x4 ADD PUSH1 0x40 MLOAD DUP1 SWAP2 SUB SWAP1 REVERT JUMPDEST PUSH1 0x0 PUSH2 0x15EC DUP3 DUP5 PUSH2 0x2259 JUMP JUMPDEST SWAP1 POP PUSH2 0x1634 PUSH2 0x1603 PUSH1 0x0 SLOAD PUSH1 0x1 PUSH1 0x1 PUSH1 0xA0 SHL SUB AND SWAP1 JUMP JUMPDEST PUSH1 0x1 PUSH1 0x1 PUSH1 0xA0 SHL SUB PUSH32 0x0 AND SWAP1 DUP4 PUSH2 0x1E91 JUMP JUMPDEST PUSH32 0x0 PUSH1 0x1 PUSH1 0x1 PUSH1 0xA0 SHL SUB AND PUSH32 0x5FAFA99D0643513820BE26656B45130B01E1C03062E1266BF36F88CBD3BD9695 DUP3 PUSH1 0x40 MLOAD PUSH2 0xF64 SWAP2 DUP2 MSTORE PUSH1 0x20 ADD SWAP1 JUMP JUMPDEST PUSH2 0x1697 PUSH2 0x1E43 JUMP JUMPDEST PUSH2 0x169F PUSH2 0x1E6D JUMP JUMPDEST PUSH1 0x7 SLOAD PUSH1 0xFF AND PUSH2 0x16C2 JUMPI PUSH1 0x40 MLOAD PUSH4 0x1CEE3A75 PUSH1 0xE1 SHL DUP2 MSTORE PUSH1 0x4 ADD PUSH1 0x40 MLOAD DUP1 SWAP2 SUB SWAP1 REVERT JUMPDEST PUSH1 0x1 PUSH1 0x1 PUSH1 0xA0 SHL SUB DUP2 AND PUSH1 0x0 SWAP1 DUP2 MSTORE PUSH1 0x3 PUSH1 0x20 DUP2 SWAP1 MSTORE PUSH1 0x40 SWAP1 SWAP2 KECCAK256 ADD SLOAD PUSH1 0xFF AND PUSH2 0x16FF JUMPI PUSH1 0x40 MLOAD PUSH4 0x644D871F PUSH1 0xE0 SHL DUP2 MSTORE PUSH1 0x4 ADD PUSH1 0x40 MLOAD DUP1 SWAP2 SUB SWAP1 REVERT JUMPDEST PUSH1 0x1 PUSH1 0x1 PUSH1 0xA0 SHL SUB DUP2 AND PUSH1 0x0 SWAP1 DUP2 MSTORE PUSH1 0x3 PUSH1 0x20 DUP2 SWAP1 MSTORE PUSH1 0x40 SWAP1 SWAP2 KECCAK256 SWAP1 DUP2 ADD SLOAD PUSH2 0x100 SWAP1 DIV PUSH1 0xFF AND ISZERO PUSH2 0x1744 JUMPI PUSH1 0x40 MLOAD PUSH4 0xD1BA89A1 PUSH1 0xE0 SHL DUP2 MSTORE PUSH1 0x4 ADD PUSH1 0x40 MLOAD DUP1 SWAP2 SUB SWAP1 REVERT JUMPDEST PUSH1 0x0 PUSH2 0x174F DUP4 PUSH2 0x1840 JUMP JUMPDEST SWAP1 POP DUP1 PUSH1 0x0 SUB PUSH2 0x1772 JUMPI PUSH1 0x40 MLOAD PUSH4 0x626E307 PUSH1 0xE5 SHL DUP2 MSTORE PUSH1 0x4 ADD PUSH1 0x40 MLOAD DUP1 SWAP2 SUB SWAP1 REVERT JUMPDEST PUSH1 0x0 PUSH2 0x177C PUSH2 0x1D65 JUMP JUMPDEST SWAP1 POP DUP2 DUP4 PUSH1 0x1 ADD PUSH1 0x0 DUP3 DUP3 SLOAD PUSH2 0x1792 SWAP2 SWAP1 PUSH2 0x2289 JUMP JUMPDEST SWAP1 SWAP2 SSTORE POP POP PUSH1 0x2 DUP4 ADD DUP2 SWAP1 SSTORE PUSH1 0x6 DUP1 SLOAD DUP4 SWAP2 SWAP1 PUSH1 0x0 SWAP1 PUSH2 0x17B3 SWAP1 DUP5 SWAP1 PUSH2 0x2289 JUMP JUMPDEST SWAP1 SWAP2 SSTORE POP PUSH2 0x17ED SWAP1 POP PUSH1 0x1 PUSH1 0x1 PUSH1 0xA0 SHL SUB PUSH32 0x0 AND DUP6 DUP5 PUSH2 0x1E91 JUMP JUMPDEST PUSH1 0x40 DUP1 MLOAD DUP4 DUP2 MSTORE PUSH1 0x20 DUP2 ADD DUP4 SWAP1 MSTORE PUSH1 0x1 PUSH1 0x1 PUSH1 0xA0 SHL SUB DUP7 AND SWAP2 PUSH32 0x9923B4306C6C030F2BDFBF156517D5983B87E15B96176DA122CD4F2EFFA4BA7B SWAP2 ADD PUSH1 0x40 MLOAD DUP1 SWAP2 SUB SWAP1 LOG2 POP POP POP PUSH2 0x183D PUSH1 0x1 DUP1 SSTORE JUMP JUMPDEST POP JUMP JUMPDEST PUSH1 0x1 PUSH1 0x1 PUSH1 0xA0 SHL SUB DUP2 AND PUSH1 0x0 SWAP1 DUP2 MSTORE PUSH1 0x3 PUSH1 0x20 DUP2 DUP2 MSTORE PUSH1 0x40 DUP1 DUP5 KECCAK256 DUP2 MLOAD PUSH1 0xA0 DUP2 ADD DUP4 MSTORE DUP2 SLOAD DUP2 MSTORE PUSH1 0x1 DUP3 ADD SLOAD SWAP4 DUP2 ADD SWAP4 SWAP1 SWAP4 MSTORE PUSH1 0x2 DUP2 ADD SLOAD SWAP2 DUP4 ADD SWAP2 SWAP1 SWAP2 MSTORE SWAP1 SWAP2 ADD SLOAD PUSH1 0xFF DUP1 DUP3 AND ISZERO DUP1 ISZERO PUSH1 0x60 DUP6 ADD MSTORE PUSH2 0x100 SWAP1 SWAP3 DIV AND ISZERO ISZERO PUSH1 0x80 DUP4 ADD MSTORE DUP1 PUSH2 0x18AA JUMPI POP DUP1 PUSH1 0x80 ADD MLOAD JUMPDEST ISZERO PUSH2 0x18B8 JUMPI POP PUSH1 0x0 SWAP3 SWAP2 POP POP JUMP JUMPDEST PUSH1 0x0 PUSH2 0x18C3 DUP5 PUSH2 0x1C68 JUMP JUMPDEST SWAP1 POP DUP2 PUSH1 0x20 ADD MLOAD DUP2 GT PUSH2 0x18D7 JUMPI PUSH1 0x0 PUSH2 0x18E6 JUMP JUMPDEST PUSH1 0x20 DUP3 ADD MLOAD PUSH2 0x18E6 SWAP1 DUP3 PUSH2 0x2259 JUMP JUMPDEST SWAP5 SWAP4 POP POP POP POP JUMP JUMPDEST PUSH2 0x18F6 PUSH2 0x1C3B JUMP JUMPDEST PUSH1 0x1 PUSH1 0x1 PUSH1 0xA0 SHL SUB DUP2 AND PUSH1 0x0 SWAP1 DUP2 MSTORE PUSH1 0x3 PUSH1 0x20 DUP2 SWAP1 MSTORE PUSH1 0x40 SWAP1 SWAP2 KECCAK256 ADD SLOAD PUSH1 0xFF AND PUSH2 0x1933 JUMPI PUSH1 0x40 MLOAD PUSH4 0x644D871F PUSH1 0xE0 SHL DUP2 MSTORE PUSH1 0x4 ADD PUSH1 0x40 MLOAD DUP1 SWAP2 SUB SWAP1 REVERT JUMPDEST PUSH1 0x1 PUSH1 0x1 PUSH1 0xA0 SHL SUB DUP2 AND PUSH1 0x0 SWAP1 DUP2 MSTORE PUSH1 0x3 PUSH1 0x20 DUP2 SWAP1 MSTORE PUSH1 0x40 SWAP1 SWAP2 KECCAK256 SWAP1 DUP2 ADD SLOAD PUSH2 0x100 SWAP1 DIV PUSH1 0xFF AND ISZERO PUSH2 0x1978 JUMPI PUSH1 0x40 MLOAD PUSH4 0xD1BA89A1 PUSH1 0xE0 SHL DUP2 MSTORE PUSH1 0x4 ADD PUSH1 0x40 MLOAD DUP1 SWAP2 SUB SWAP1 REVERT JUMPDEST PUSH1 0x0 PUSH2 0x1983 DUP4 PUSH2 0x1C68 JUMP JUMPDEST SWAP1 POP PUSH1 0x0 DUP3 PUSH1 0x1 ADD SLOAD DUP3 PUSH2 0x1997 SWAP2 SWAP1 PUSH2 0x2259 JUMP JUMPDEST SWAP1 POP DUP1 ISZERO PUSH2 0x1A53 JUMPI DUP1 DUP4 PUSH1 0x1 ADD PUSH1 0x0 DUP3 DUP3 SLOAD PUSH2 0x19B3 SWAP2 SWAP1 PUSH2 0x2289 JUMP JUMPDEST SWAP3 POP POP DUP2 SWAP1 SSTORE POP DUP1 PUSH1 0x6 PUSH1 0x0 DUP3 DUP3 SLOAD PUSH2 0x19CC SWAP2 SWAP1 PUSH2 0x2289 JUMP JUMPDEST SWAP1 SWAP2 SSTORE POP PUSH2 0x1A06 SWAP1 POP PUSH1 0x1 PUSH1 0x1 PUSH1 0xA0 SHL SUB PUSH32 0x0 AND DUP6 DUP4 PUSH2 0x1E91 JUMP JUMPDEST DUP4 PUSH1 0x1 PUSH1 0x1 PUSH1 0xA0 SHL SUB AND PUSH32 0x9923B4306C6C030F2BDFBF156517D5983B87E15B96176DA122CD4F2EFFA4BA7B DUP3 PUSH2 0x1A3A PUSH2 0x1D65 JUMP JUMPDEST PUSH1 0x40 DUP1 MLOAD SWAP3 DUP4 MSTORE PUSH1 0x20 DUP4 ADD SWAP2 SWAP1 SWAP2 MSTORE ADD PUSH1 0x40 MLOAD DUP1 SWAP2 SUB SWAP1 LOG2 JUMPDEST PUSH1 0x1 DUP4 ADD SLOAD DUP4 SLOAD PUSH1 0x0 SWAP2 PUSH2 0x1A66 SWAP2 PUSH2 0x2259 JUMP JUMPDEST PUSH1 0x3 DUP6 ADD DUP1 SLOAD PUSH2 0xFF00 NOT AND PUSH2 0x100 OR SWAP1 SSTORE PUSH1 0x40 MLOAD SWAP1 SWAP2 POP PUSH1 0x1 PUSH1 0x1 PUSH1 0xA0 SHL SUB DUP7 AND SWAP1 PUSH32 0x40F95D3C705A0CFBBCFBB6F9B8777A527378D1C8CEAC50E5E22A1EB953E7F20 SWAP1 PUSH2 0x1AB7 SWAP1 DUP5 DUP2 MSTORE PUSH1 0x20 ADD SWAP1 JUMP JUMPDEST PUSH1 0x40 MLOAD DUP1 SWAP2 SUB SWAP1 LOG2 POP POP POP POP POP JUMP JUMPDEST PUSH2 0x1ACE PUSH2 0x1C3B JUMP JUMPDEST PUSH1 0x1 PUSH1 0x1 PUSH1 0xA0 SHL SUB DUP2 AND PUSH2 0x1AFD JUMPI PUSH1 0x40 MLOAD PUSH4 0x1E4FBDF7 PUSH1 0xE0 SHL DUP2 MSTORE PUSH1 0x0 PUSH1 0x4 DUP3 ADD MSTORE PUSH1 0x24 ADD JUMPDEST PUSH1 0x40 MLOAD DUP1 SWAP2 SUB SWAP1 REVERT JUMPDEST PUSH2 0x183D DUP2 PUSH2 0x1EF5 JUMP JUMPDEST PUSH2 0x1B0E PUSH2 0x1C3B JUMP JUMPDEST PUSH1 0x7 SLOAD PUSH1 0xFF AND ISZERO PUSH2 0x1B32 JUMPI PUSH1 0x40 MLOAD PUSH4 0x3BCD4049 PUSH1 0xE0 SHL DUP2 MSTORE PUSH1 0x4 ADD PUSH1 0x40 MLOAD DUP1 SWAP2 SUB SWAP1 REVERT JUMPDEST PUSH1 0x1 PUSH1 0x1 PUSH1 0xA0 SHL SUB DUP3 AND PUSH1 0x0 SWAP1 DUP2 MSTORE PUSH1 0x3 PUSH1 0x20 DUP2 SWAP1 MSTORE PUSH1 0x40 SWAP1 SWAP2 KECCAK256 ADD SLOAD PUSH1 0xFF AND PUSH2 0x1B6F JUMPI PUSH1 0x40 MLOAD PUSH4 0x644D871F PUSH1 0xE0 SHL DUP2 MSTORE PUSH1 0x4 ADD PUSH1 0x40 MLOAD DUP1 SWAP2 SUB SWAP1 REVERT JUMPDEST DUP1 PUSH1 0x0 SUB PUSH2 0x1B90 JUMPI PUSH1 0x40 MLOAD PUSH4 0x162908E3 PUSH1 0xE1 SHL DUP2 MSTORE PUSH1 0x4 ADD PUSH1 0x40 MLOAD DUP1 SWAP2 SUB SWAP1 REVERT JUMPDEST PUSH1 0x1 PUSH1 0x1 PUSH1 0xA0 SHL SUB DUP3 AND PUSH1 0x0 SWAP1 DUP2 MSTORE PUSH1 0x3 PUSH1 0x20 MSTORE PUSH1 0x40 SWAP1 KECCAK256 DUP1 SLOAD PUSH1 0x5 SLOAD DUP4 SWAP1 PUSH2 0x1BBA SWAP1 DUP4 SWAP1 PUSH2 0x2259 JUMP JUMPDEST PUSH2 0x1BC4 SWAP2 SWAP1 PUSH2 0x2289 JUMP JUMPDEST PUSH1 0x5 DUP2 SWAP1 SSTORE PUSH8 0x6765C793FA10079D PUSH1 0x1B SHL LT ISZERO PUSH2 0x1BF4 JUMPI PUSH1 0x40 MLOAD PUSH4 0x43D3E30F PUSH1 0xE1 SHL DUP2 MSTORE PUSH1 0x4 ADD PUSH1 0x40 MLOAD DUP1 SWAP2 SUB SWAP1 REVERT JUMPDEST DUP3 DUP3 SSTORE PUSH1 0x40 MLOAD DUP4 DUP2 MSTORE PUSH1 0x1 PUSH1 0x1 PUSH1 0xA0 SHL SUB DUP6 AND SWAP1 PUSH32 0x73D60FA978F046C1CCF0F85C6247B34D322AD63D5184881EF2F10BF3C70DDE21 SWAP1 PUSH1 0x20 ADD PUSH1 0x40 MLOAD DUP1 SWAP2 SUB SWAP1 LOG2 POP POP POP POP JUMP JUMPDEST PUSH1 0x0 SLOAD PUSH1 0x1 PUSH1 0x1 PUSH1 0xA0 SHL SUB AND CALLER EQ PUSH2 0xBE2 JUMPI PUSH1 0x40 MLOAD PUSH4 0x118CDAA7 PUSH1 0xE0 SHL DUP2 MSTORE CALLER PUSH1 0x4 DUP3 ADD MSTORE PUSH1 0x24 ADD PUSH2 0x1AF4 JUMP JUMPDEST PUSH1 0x1 PUSH1 0x1 PUSH1 0xA0 SHL SUB DUP2 AND PUSH1 0x0 SWAP1 DUP2 MSTORE PUSH1 0x3 PUSH1 0x20 DUP2 DUP2 MSTORE PUSH1 0x40 DUP1 DUP5 KECCAK256 DUP2 MLOAD PUSH1 0xA0 DUP2 ADD DUP4 MSTORE DUP2 SLOAD DUP2 MSTORE PUSH1 0x1 DUP3 ADD SLOAD SWAP4 DUP2 ADD SWAP4 SWAP1 SWAP4 MSTORE PUSH1 0x2 DUP2 ADD SLOAD SWAP2 DUP4 ADD SWAP2 SWAP1 SWAP2 MSTORE SWAP1 SWAP2 ADD SLOAD PUSH1 0xFF DUP1 DUP3 AND ISZERO DUP1 ISZERO PUSH1 0x60 DUP6 ADD MSTORE PUSH2 0x100 SWAP1 SWAP3 DIV AND ISZERO ISZERO PUSH1 0x80 DUP4 ADD MSTORE DUP1 PUSH2 0x1CD2 JUMPI POP DUP1 PUSH1 0x80 ADD MLOAD JUMPDEST ISZERO PUSH2 0x1CE0 JUMPI POP PUSH1 0x0 SWAP3 SWAP2 POP POP JUMP JUMPDEST PUSH32 0x0 TIMESTAMP LT ISZERO PUSH2 0x1D11 JUMPI POP PUSH1 0x0 SWAP3 SWAP2 POP POP JUMP JUMPDEST PUSH1 0x0 PUSH2 0x1D1B PUSH2 0x1D65 JUMP JUMPDEST SWAP1 POP DUP1 PUSH1 0x0 SUB PUSH2 0x1D2F JUMPI POP PUSH1 0x0 SWAP4 SWAP3 POP POP POP JUMP JUMPDEST PUSH1 0x0 PUSH2 0x1D3D PUSH2 0x7D0 DUP4 PUSH2 0x2272 JUMP JUMPDEST SWAP1 POP PUSH2 0x2710 DUP2 DUP5 PUSH1 0x0 ADD MLOAD PUSH2 0x1D52 SWAP2 SWAP1 PUSH2 0x2272 JUMP JUMPDEST PUSH2 0x1D5C SWAP2 SWAP1 PUSH2 0x229C JUMP JUMPDEST SWAP6 SWAP5 POP POP POP POP POP JUMP JUMPDEST PUSH1 0x0 PUSH32 0x0 TIMESTAMP LT ISZERO PUSH2 0x1D95 JUMPI POP PUSH1 0x0 SWAP1 JUMP JUMPDEST PUSH1 0x0 PUSH2 0x1DC1 PUSH32 0x0 TIMESTAMP PUSH2 0x2259 JUMP JUMPDEST SWAP1 POP PUSH1 0x0 PUSH2 0x1DD2 PUSH3 0xED4E00 DUP4 PUSH2 0x229C JUMP JUMPDEST PUSH2 0x1DDD SWAP1 PUSH1 0x1 PUSH2 0x2289 JUMP JUMPDEST SWAP1 POP PUSH1 0x5 DUP2 GT PUSH2 0x1DED JUMPI DUP1 PUSH2 0x1020 JUMP JUMPDEST PUSH1 0x5 SWAP3 POP POP POP SWAP1 JUMP JUMPDEST PUSH2 0x1DFE PUSH2 0x1FC1 JUMP JUMPDEST PUSH1 0x2 DUP1 SLOAD PUSH1 0xFF NOT AND SWAP1 SSTORE PUSH32 0x5DB9EE0A495BF2E6FF9C91A7834C1BA4FDD244A5E8AA4E537BD38AEAE4B073AA CALLER JUMPDEST PUSH1 0x40 MLOAD PUSH1 0x1 PUSH1 0x1 PUSH1 0xA0 SHL SUB SWAP1 SWAP2 AND DUP2 MSTORE PUSH1 0x20 ADD PUSH2 0x6E9 JUMP JUMPDEST PUSH1 0x2 PUSH1 0x1 SLOAD SUB PUSH2 0x1E66 JUMPI PUSH1 0x40 MLOAD PUSH4 0x3EE5AEB5 PUSH1 0xE0 SHL DUP2 MSTORE PUSH1 0x4 ADD PUSH1 0x40 MLOAD DUP1 SWAP2 SUB SWAP1 REVERT JUMPDEST PUSH1 0x2 PUSH1 0x1 SSTORE JUMP JUMPDEST PUSH1 0x2 SLOAD PUSH1 0xFF AND ISZERO PUSH2 0xBE2 JUMPI PUSH1 0x40 MLOAD PUSH4 0xD93C0665 PUSH1 0xE0 SHL DUP2 MSTORE PUSH1 0x4 ADD PUSH1 0x40 MLOAD DUP1 SWAP2 SUB SWAP1 REVERT JUMPDEST PUSH1 0x40 MLOAD PUSH1 0x1 PUSH1 0x1 PUSH1 0xA0 SHL SUB DUP4 DUP2 AND PUSH1 0x24 DUP4 ADD MSTORE PUSH1 0x44 DUP3 ADD DUP4 SWAP1 MSTORE PUSH2 0x1EF0 SWAP2 DUP6 SWAP2 DUP3 AND SWAP1 PUSH4 0xA9059CBB SWAP1 PUSH1 0x64 ADD JUMPDEST PUSH1 0x40 MLOAD PUSH1 0x20 DUP2 DUP4 SUB SUB DUP2 MSTORE SWAP1 PUSH1 0x40 MSTORE SWAP2 POP PUSH1 0xE0 SHL PUSH1 0x20 DUP3 ADD DUP1 MLOAD PUSH1 0x1 PUSH1 0x1 PUSH1 0xE0 SHL SUB DUP4 DUP2 DUP4 AND OR DUP4 MSTORE POP POP POP POP PUSH2 0x1FE4 JUMP JUMPDEST POP POP POP JUMP JUMPDEST PUSH1 0x0 DUP1 SLOAD PUSH1 0x1 PUSH1 0x1 PUSH1 0xA0 SHL SUB DUP4 DUP2 AND PUSH1 0x1 PUSH1 0x1 PUSH1 0xA0 SHL SUB NOT DUP4 AND DUP2 OR DUP5 SSTORE PUSH1 0x40 MLOAD SWAP2 SWAP1 SWAP3 AND SWAP3 DUP4 SWAP2 PUSH32 0x8BE0079C531659141344CD1FD0A4F28419497F9722A3DAAFE3B4186F6B6457E0 SWAP2 SWAP1 LOG3 POP POP JUMP JUMPDEST PUSH2 0x1F4D PUSH2 0x1E6D JUMP JUMPDEST PUSH1 0x2 DUP1 SLOAD PUSH1 0xFF NOT AND PUSH1 0x1 OR SWAP1 SSTORE PUSH32 0x62E78CEA01BEE320CD4E420270B5EA74000D11B0C9F74754EBDBFC544B05A258 PUSH2 0x1E2B CALLER SWAP1 JUMP JUMPDEST PUSH1 0x40 MLOAD PUSH1 0x1 PUSH1 0x1 PUSH1 0xA0 SHL SUB DUP5 DUP2 AND PUSH1 0x24 DUP4 ADD MSTORE DUP4 DUP2 AND PUSH1 0x44 DUP4 ADD MSTORE PUSH1 0x64 DUP3 ADD DUP4 SWAP1 MSTORE PUSH2 0x1FBB SWAP2 DUP7 SWAP2 DUP3 AND SWAP1 PUSH4 0x23B872DD SWAP1 PUSH1 0x84 ADD PUSH2 0x1EBE JUMP JUMPDEST POP POP POP POP JUMP JUMPDEST PUSH1 0x2 SLOAD PUSH1 0xFF AND PUSH2 0xBE2 JUMPI PUSH1 0x40 MLOAD PUSH4 0x8DFC202B PUSH1 0xE0 SHL DUP2 MSTORE PUSH1 0x4 ADD PUSH1 0x40 MLOAD DUP1 SWAP2 SUB SWAP1 REVERT JUMPDEST PUSH1 0x0 DUP1 PUSH1 0x20 PUSH1 0x0 DUP5 MLOAD PUSH1 0x20 DUP7 ADD PUSH1 0x0 DUP9 GAS CALL DUP1 PUSH2 0x2007 JUMPI PUSH1 0x40 MLOAD RETURNDATASIZE PUSH1 0x0 DUP3 RETURNDATACOPY RETURNDATASIZE DUP2 REVERT JUMPDEST POP POP PUSH1 0x0 MLOAD RETURNDATASIZE SWAP2 POP DUP2 ISZERO PUSH2 0x201F JUMPI DUP1 PUSH1 0x1 EQ ISZERO PUSH2 0x202C JUMP JUMPDEST PUSH1 0x1 PUSH1 0x1 PUSH1 0xA0 SHL SUB DUP5 AND EXTCODESIZE ISZERO JUMPDEST ISZERO PUSH2 0x1FBB JUMPI PUSH1 0x40 MLOAD PUSH4 0x5274AFE7 PUSH1 0xE0 SHL DUP2 MSTORE PUSH1 0x1 PUSH1 0x1 PUSH1 0xA0 SHL SUB DUP6 AND PUSH1 0x4 DUP3 ADD MSTORE PUSH1 0x24 ADD PUSH2 0x1AF4 JUMP JUMPDEST DUP1 CALLDATALOAD PUSH1 0x1 PUSH1 0x1 PUSH1 0xA0 SHL SUB DUP2 AND DUP2 EQ PUSH2 0x206C JUMPI PUSH1 0x0 DUP1 REVERT JUMPDEST SWAP2 SWAP1 POP JUMP JUMPDEST PUSH1 0x0 PUSH1 0x20 DUP3 DUP5 SUB SLT ISZERO PUSH2 0x2083 JUMPI PUSH1 0x0 DUP1 REVERT JUMPDEST PUSH2 0x208C DUP3 PUSH2 0x2055 JUMP JUMPDEST SWAP4 SWAP3 POP POP POP JUMP JUMPDEST PUSH1 0x0 DUP2 MLOAD DUP1 DUP5 MSTORE PUSH1 0x20 DUP1 DUP6 ADD SWAP5 POP DUP1 DUP5 ADD PUSH1 0x0 JUMPDEST DUP4 DUP2 LT ISZERO PUSH2 0x20C3 JUMPI DUP2 MLOAD DUP8 MSTORE SWAP6 DUP3 ADD SWAP6 SWAP1 DUP3 ADD SWAP1 PUSH1 0x1 ADD PUSH2 0x20A7 JUMP JUMPDEST POP SWAP5 SWAP6 SWAP5 POP POP POP POP POP JUMP JUMPDEST PUSH1 0x80 DUP1 DUP3 MSTORE DUP6 MLOAD SWAP1 DUP3 ADD DUP2 SWAP1 MSTORE PUSH1 0x0 SWAP1 PUSH1 0x20 SWAP1 PUSH1 0xA0 DUP5 ADD SWAP1 DUP3 DUP10 ADD DUP5 JUMPDEST DUP3 DUP2 LT ISZERO PUSH2 0x2110 JUMPI DUP2 MLOAD PUSH1 0x1 PUSH1 0x1 PUSH1 0xA0 SHL SUB AND DUP5 MSTORE SWAP3 DUP5 ADD SWAP3 SWAP1 DUP5 ADD SWAP1 PUSH1 0x1 ADD PUSH2 0x20EB JUMP JUMPDEST POP POP POP DUP4 DUP2 SUB DUP3 DUP6 ADD MSTORE PUSH2 0x2124 DUP2 DUP9 PUSH2 0x2093 JUMP JUMPDEST SWAP1 POP DUP4 DUP2 SUB PUSH1 0x40 DUP6 ADD MSTORE PUSH2 0x2138 DUP2 DUP8 PUSH2 0x2093 JUMP JUMPDEST DUP5 DUP2 SUB PUSH1 0x60 DUP7 ADD MSTORE DUP6 MLOAD DUP1 DUP3 MSTORE DUP4 DUP8 ADD SWAP3 POP SWAP1 DUP4 ADD SWAP1 PUSH1 0x0 JUMPDEST DUP2 DUP2 LT ISZERO PUSH2 0x216F JUMPI DUP4 MLOAD ISZERO ISZERO DUP4 MSTORE SWAP3 DUP5 ADD SWAP3 SWAP2 DUP5 ADD SWAP2 PUSH1 0x1 ADD PUSH2 0x2151 JUMP JUMPDEST POP SWAP1 SWAP10 SWAP9 POP POP POP POP POP POP POP POP POP JUMP JUMPDEST DUP7 DUP2 MSTORE DUP6 PUSH1 0x20 DUP3 ADD MSTORE DUP5 PUSH1 0x40 DUP3 ADD MSTORE DUP4 PUSH1 0x60 DUP3 ADD MSTORE DUP3 PUSH1 0x80 DUP3 ADD MSTORE PUSH1 0xC0 PUSH1 0xA0 DUP3 ADD MSTORE PUSH1 0x0 PUSH2 0x21AF PUSH1 0xC0 DUP4 ADD DUP5 PUSH2 0x2093 JUMP JUMPDEST SWAP9 SWAP8 POP POP POP POP POP POP POP POP JUMP JUMPDEST PUSH1 0x0 DUP1 PUSH1 0x40 DUP4 DUP6 SUB SLT ISZERO PUSH2 0x21CE JUMPI PUSH1 0x0 DUP1 REVERT JUMPDEST PUSH2 0x21D7 DUP4 PUSH2 0x2055 JUMP JUMPDEST SWAP5 PUSH1 0x20 SWAP4 SWAP1 SWAP4 ADD CALLDATALOAD SWAP4 POP POP POP JUMP JUMPDEST PUSH1 0x0 PUSH1 0x20 DUP3 DUP5 SUB SLT ISZERO PUSH2 0x21F7 JUMPI PUSH1 0x0 DUP1 REVERT JUMPDEST POP CALLDATALOAD SWAP2 SWAP1 POP JUMP JUMPDEST PUSH4 0x4E487B71 PUSH1 0xE0 SHL PUSH1 0x0 MSTORE PUSH1 0x41 PUSH1 0x4 MSTORE PUSH1 0x24 PUSH1 0x0 REVERT JUMPDEST PUSH4 0x4E487B71 PUSH1 0xE0 SHL PUSH1 0x0 MSTORE PUSH1 0x32 PUSH1 0x4 MSTORE PUSH1 0x24 PUSH1 0x0 REVERT JUMPDEST PUSH4 0x4E487B71 PUSH1 0xE0 SHL PUSH1 0x0 MSTORE PUSH1 0x11 PUSH1 0x4 MSTORE PUSH1 0x24 PUSH1 0x0 REVERT JUMPDEST PUSH1 0x0 PUSH1 0x1 DUP3 ADD PUSH2 0x2252 JUMPI PUSH2 0x2252 PUSH2 0x222A JUMP JUMPDEST POP PUSH1 0x1 ADD SWAP1 JUMP JUMPDEST DUP2 DUP2 SUB DUP2 DUP2 GT ISZERO PUSH2 0x226C JUMPI PUSH2 0x226C PUSH2 0x222A JUMP JUMPDEST SWAP3 SWAP2 POP POP JUMP JUMPDEST DUP1 DUP3 MUL DUP2 ISZERO DUP3 DUP3 DIV DUP5 EQ OR PUSH2 0x226C JUMPI PUSH2 0x226C PUSH2 0x222A JUMP JUMPDEST DUP1 DUP3 ADD DUP1 DUP3 GT ISZERO PUSH2 0x226C JUMPI PUSH2 0x226C PUSH2 0x222A JUMP JUMPDEST PUSH1 0x0 DUP3 PUSH2 0x22B9 JUMPI PUSH4 0x4E487B71 PUSH1 0xE0 SHL PUSH1 0x0 MSTORE PUSH1 0x12 PUSH1 0x4 MSTORE PUSH1 0x24 PUSH1 0x0 REVERT JUMPDEST POP DIV SWAP1 JUMP JUMPDEST PUSH4 0x4E487B71 PUSH1 0xE0 SHL PUSH1 0x0 MSTORE PUSH1 0x31 PUSH1 0x4 MSTORE PUSH1 0x24 PUSH1 0x0 REVERT JUMPDEST PUSH1 0x0 PUSH1 0x20 DUP3 DUP5 SUB SLT ISZERO PUSH2 0x22E6 JUMPI PUSH1 0x0 DUP1 REVERT JUMPDEST POP MLOAD SWAP2 SWAP1 POP JUMP INVALID LOG2 PUSH5 0x6970667358 0x22 SLT KECCAK256 0xE7 0x4D SHR LOG0 POP PUSH32 0x24577729C486884956B6A2DD5C263E5CA22354DC07B46F472DE364736F6C6343 STOP ADDMOD EQ STOP CALLER "},"methodIdentifiers":{"BASIS_POINTS()":"e1f1c4a7","LOCK_DURATION()":"485d3834","PERCENTAGE_PER_MILESTONE()":"cc1b7ee5","TOTAL_ALLOCATION()":"0dac7bea","VESTING_INTERVAL()":"a5ca2afa","VESTING_MILESTONES()":"99aabf53","addBeneficiary(address,uint256)":"96074e70","allocationsLocked()":"306e6a1d","beneficiaries(address)":"01567739","beneficiaryList(uint256)":"9e761bbb","claimFor(address)":"ddeae033","claimTokens()":"48c54b9d","emergencyWithdraw()":"db2e21bc","escrowToken()":"2fe319da","firstUnlockTime()":"1db0ad5a","fundTreasury()":"b9c18685","getAllBeneficiaries()":"2f14bae8","getBeneficiaryInfo(address)":"366dc083","getClaimableAmount(address)":"e12f3a61","getContractInfo()":"7cc1f867","getNextUnlockTime()":"3bc8bce0","getTimeUntilNextUnlock()":"766f968e","getTreasuryStats()":"c8692e3f","getVestingSchedule()":"3a05f0d8","isBeneficiary(address)":"9d19b226","lockAllocations()":"25e2fbef","owner()":"8da5cb5b","pause()":"8456cb59","paused()":"5c975abb","removeBeneficiary(address)":"59633a1c","renounceOwnership()":"715018a6","revokeAllocation(address)":"e70b11df","totalAllocated()":"45f7f249","totalClaimed()":"d54ad2a1","transferOwnership(address)":"f2fde38b","treasuryFunded()":"5926a9e5","treasuryStartTime()":"388ea310","unpause()":"3f4ba83a","updateBeneficiary(address,uint256)":"fcb9b505"}}}}}