{"contracts/EscrowTeamTreasury.sol":{"EscrowTeamTreasury":{"abi":[{"inputs":[{"internalType":"address","name":"_escrowToken","type":"address"}],"stateMutability":"nonpayable","type":"constructor"},{"inputs":[],"name":"AllocationAlreadyRevoked","type":"error"},{"inputs":[],"name":"AllocationsAlreadyLocked","type":"error"},{"inputs":[],"name":"AllocationsNotLocked","type":"error"},{"inputs":[],"name":"AlreadyAllocated","type":"error"},{"inputs":[],"name":"EnforcedPause","type":"error"},{"inputs":[],"name":"ExceedsTotalAllocation","type":"error"},{"inputs":[],"name":"ExpectedPause","type":"error"},{"inputs":[],"name":"InsufficientBalance","type":"error"},{"inputs":[],"name":"InvalidAddress","type":"error"},{"inputs":[],"name":"InvalidAmount","type":"error"},{"inputs":[],"name":"InvalidMilestone","type":"error"},{"inputs":[],"name":"LockPeriodNotEnded","type":"error"},{"inputs":[],"name":"NoTokensAvailable","type":"error"},{"inputs":[],"name":"NotBeneficiary","type":"error"},{"inputs":[{"internalType":"address","name":"owner","type":"address"}],"name":"OwnableInvalidOwner","type":"error"},{"inputs":[{"internalType":"address","name":"account","type":"address"}],"name":"OwnableUnauthorizedAccount","type":"error"},{"inputs":[],"name":"ReentrancyGuardReentrantCall","type":"error"},{"inputs":[{"internalType":"address","name":"token","type":"address"}],"name":"SafeERC20FailedOperation","type":"error"},{"inputs":[],"name":"TreasuryAlreadyFunded","type":"error"},{"inputs":[],"name":"TreasuryNotFunded","type":"error"},{"anonymous":false,"inputs":[{"indexed":true,"internalType":"address","name":"beneficiary","type":"address"},{"indexed":false,"internalType":"uint256","name":"unvestedAmount","type":"uint256"}],"name":"AllocationRevoked","type":"event"},{"anonymous":false,"inputs":[{"indexed":false,"internalType":"uint256","name":"timestamp","type":"uint256"}],"name":"AllocationsLocked","type":"event"},{"anonymous":false,"inputs":[{"indexed":true,"internalType":"address","name":"beneficiary","type":"address"},{"indexed":false,"internalType":"uint256","name":"allocation","type":"uint256"}],"name":"BeneficiaryAdded","type":"event"},{"anonymous":false,"inputs":[{"indexed":true,"internalType":"address","name":"beneficiary","type":"address"},{"indexed":false,"internalType":"uint256","name":"allocation","type":"uint256"}],"name":"BeneficiaryRemoved","type":"event"},{"anonymous":false,"inputs":[{"indexed":true,"internalType":"address","name":"beneficiary","type":"address"},{"indexed":false,"internalType":"uint256","name":"newAllocation","type":"uint256"}],"name":"BeneficiaryUpdated","type":"event"},{"anonymous":false,"inputs":[{"indexed":true,"internalType":"address","name":"token","type":"address"},{"indexed":false,"internalType":"uint256","name":"amount","type":"uint256"}],"name":"EmergencyWithdraw","type":"event"},{"anonymous":false,"inputs":[{"indexed":true,"internalType":"address","name":"previousOwner","type":"address"},{"indexed":true,"internalType":"address","name":"newOwner","type":"address"}],"name":"OwnershipTransferred","type":"event"},{"anonymous":false,"inputs":[{"indexed":false,"internalType":"address","name":"account","type":"address"}],"name":"Paused","type":"event"},{"anonymous":false,"inputs":[{"indexed":true,"internalType":"address","name":"beneficiary","type":"address"},{"indexed":false,"internalType":"uint256","name":"amount","type":"uint256"},{"indexed":false,"internalType":"uint256","name":"milestone","type":"uint256"}],"name":"TokensClaimed","type":"event"},{"anonymous":false,"inputs":[{"indexed":false,"internalType":"uint256","name":"amount","type":"uint256"},{"indexed":false,"internalType":"uint256","name":"timestamp","type":"uint256"}],"name":"TreasuryFunded","type":"event"},{"anonymous":false,"inputs":[{"indexed":false,"internalType":"address","name":"account","type":"address"}],"name":"Unpaused","type":"event"},{"inputs":[],"name":"BASIS_POINTS","outputs":[{"internalType":"uint256","name":"","type":"uint256"}],"stateMutability":"view","type":"function"},{"inputs":[],"name":"LOCK_DURATION","outputs":[{"internalType":"uint256","name":"","type":"uint256"}],"stateMutability":"view","type":"function"},{"inputs":[],"name":"PERCENTAGE_PER_MILESTONE","outputs":[{"internalType":"uint256","name":"","type":"uint256"}],"stateMutability":"view","type":"function"},{"inputs":[],"name":"TOTAL_ALLOCATION","outputs":[{"internalType":"uint256","name":"","type":"uint256"}],"stateMutability":"view","type":"function"},{"inputs":[],"name":"VESTING_INTERVAL","outputs":[{"internalType":"uint256","name":"","type":"uint256"}],"stateMutability":"view","type":"function"},{"inputs":[],"name":"VESTING_MILESTONES","outputs":[{"internalType":"uint256","name":"","type":"uint256"}],"stateMutability":"view","type":"function"},{"inputs":[{"internalType":"address","name":"beneficiary","type":"address"},{"internalType":"uint256","name":"allocation","type":"uint256"}],"name":"addBeneficiary","outputs":[],"stateMutability":"nonpayable","type":"function"},{"inputs":[],"name":"allocationsLocked","outputs":[{"internalType":"bool","name":"","type":"bool"}],"stateMutability":"view","type":"function"},{"inputs":[{"internalType":"address","name":"","type":"address"}],"name":"beneficiaries","outputs":[{"internalType":"uint256","name":"totalAllocation","type":"uint256"},{"internalType":"uint256","name":"claimedAmount","type":"uint256"},{"internalType":"uint256","name":"lastClaimMilestone","type":"uint256"},{"internalType":"bool","name":"isActive","type":"bool"},{"internalType":"bool","name":"revoked","type":"bool"}],"stateMutability":"view","type":"function"},{"inputs":[{"internalType":"uint256","name":"","type":"uint256"}],"name":"beneficiaryList","outputs":[{"internalType":"address","name":"","type":"address"}],"stateMutability":"view","type":"function"},{"inputs":[{"internalType":"address","name":"beneficiary","type":"address"}],"name":"claimFor","outputs":[],"stateMutability":"nonpayable","type":"function"},{"inputs":[],"name":"claimTokens","outputs":[],"stateMutability":"nonpayable","type":"function"},{"inputs":[],"name":"emergencyWithdraw","outputs":[],"stateMutability":"nonpayable","type":"function"},{"inputs":[],"name":"escrowToken","outputs":[{"internalType":"contract IERC20","name":"","type":"address"}],"stateMutability":"view","type":"function"},{"inputs":[],"name":"firstUnlockTime","outputs":[{"internalType":"uint256","name":"","type":"uint256"}],"stateMutability":"view","type":"function"},{"inputs":[],"name":"fundTreasury","outputs":[],"stateMutability":"nonpayable","type":"function"},{"inputs":[],"name":"getAllBeneficiaries","outputs":[{"internalType":"address[]","name":"addresses","type":"address[]"},{"internalType":"uint256[]","name":"allocations","type":"uint256[]"},{"internalType":"uint256[]","name":"claimed","type":"uint256[]"},{"internalType":"bool[]","name":"active","type":"bool[]"}],"stateMutability":"view","type":"function"},{"inputs":[{"internalType":"address","name":"beneficiary","type":"address"}],"name":"getBeneficiaryInfo","outputs":[{"internalType":"uint256","name":"totalAllocation","type":"uint256"},{"internalType":"uint256","name":"vestedAmount","type":"uint256"},{"internalType":"uint256","name":"claimedAmount","type":"uint256"},{"internalType":"uint256","name":"claimableAmount","type":"uint256"},{"internalType":"uint256","name":"remainingAmount","type":"uint256"},{"internalType":"uint256","name":"currentMilestone","type":"uint256"},{"internalType":"bool","name":"isActive","type":"bool"},{"internalType":"bool","name":"revoked","type":"bool"}],"stateMutability":"view","type":"function"},{"inputs":[{"internalType":"address","name":"beneficiary","type":"address"}],"name":"getClaimableAmount","outputs":[{"internalType":"uint256","name":"","type":"uint256"}],"stateMutability":"view","type":"function"},{"inputs":[],"name":"getContractInfo","outputs":[{"internalType":"address","name":"tokenAddress","type":"address"},{"internalType":"uint256","name":"totalAllocation","type":"uint256"},{"internalType":"uint256","name":"lockDuration","type":"uint256"},{"internalType":"uint256","name":"vestingInterval","type":"uint256"},{"internalType":"uint256","name":"milestones","type":"uint256"},{"internalType":"uint256","name":"percentPerMilestone","type":"uint256"}],"stateMutability":"view","type":"function"},{"inputs":[],"name":"getNextUnlockTime","outputs":[{"internalType":"uint256","name":"","type":"uint256"}],"stateMutability":"view","type":"function"},{"inputs":[],"name":"getTimeUntilNextUnlock","outputs":[{"internalType":"uint256","name":"","type":"uint256"}],"stateMutability":"view","type":"function"},{"inputs":[],"name":"getTreasuryStats","outputs":[{"internalType":"uint256","name":"totalAlloc","type":"uint256"},{"internalType":"uint256","name":"totalClaim","type":"uint256"},{"internalType":"uint256","name":"totalRemaining","type":"uint256"},{"internalType":"uint256","name":"unallocated","type":"uint256"},{"internalType":"uint256","name":"beneficiaryCount","type":"uint256"},{"internalType":"bool","name":"locked","type":"bool"},{"internalType":"bool","name":"funded","type":"bool"}],"stateMutability":"view","type":"function"},{"inputs":[],"name":"getVestingSchedule","outputs":[{"internalType":"uint256","name":"startTime","type":"uint256"},{"internalType":"uint256","name":"firstUnlock","type":"uint256"},{"internalType":"uint256","name":"currentMilestone","type":"uint256"},{"internalType":"uint256","name":"totalMilestones","type":"uint256"},{"internalType":"uint256","name":"intervalDays","type":"uint256"},{"internalType":"uint256[]","name":"unlockTimes","type":"uint256[]"}],"stateMutability":"view","type":"function"},{"inputs":[{"internalType":"address","name":"account","type":"address"}],"name":"isBeneficiary","outputs":[{"internalType":"bool","name":"","type":"bool"}],"stateMutability":"view","type":"function"},{"inputs":[],"name":"lockAllocations","outputs":[],"stateMutability":"nonpayable","type":"function"},{"inputs":[],"name":"owner","outputs":[{"internalType":"address","name":"","type":"address"}],"stateMutability":"view","type":"function"},{"inputs":[],"name":"pause","outputs":[],"stateMutability":"nonpayable","type":"function"},{"inputs":[],"name":"paused","outputs":[{"internalType":"bool","name":"","type":"bool"}],"stateMutability":"view","type":"function"},{"inputs":[{"internalType":"address","name":"beneficiary","type":"address"}],"name":"removeBeneficiary","outputs":[],"stateMutability":"nonpayable","type":"function"},{"inputs":[],"name":"renounceOwnership","outputs":[],"stateMutability":"nonpayable","type":"function"},{"inputs":[{"internalType":"address","name":"beneficiary","type":"address"}],"name":"revokeAllocation","outputs":[],"stateMutability":"nonpayable","type":"function"},{"inputs":[],"name":"totalAllocated","outputs":[{"internalType":"uint256","name":"","type":"uint256"}],"stateMutability":"view","type":"function"},{"inputs":[],"name":"totalClaimed","outputs":[{"internalType":"uint256","name":"","type":"uint256"}],"stateMutability":"view","type":"function"},{"inputs":[{"internalType":"address","name":"newOwner","type":"address"}],"name":"transferOwnership","outputs":[],"stateMutability":"nonpayable","type":"function"},{"inputs":[],"name":"treasuryFunded","outputs":[{"internalType":"bool","name":"","type":"bool"}],"stateMutability":"view","type":"function"},{"inputs":[],"name":"treasuryStartTime","outputs":[{"internalType":"uint256","name":"","type":"uint256"}],"stateMutability":"view","type":"function"},{"inputs":[],"name":"unpause","outputs":[],"stateMutability":"nonpayable","type":"function"},{"inputs":[{"internalType":"address","name":"beneficiary","type":"address"},{"internalType":"uint256","name":"newAllocation","type":"uint256"}],"name":"updateBeneficiary","outputs":[],"stateMutability":"nonpayable","type":"function"}],"evm":{"bytecode":{"linkReferences":{},"object":"60e06040523480156200001157600080fd5b5060405162005dc738038062005dc783398181016040528101906200003791906200040e565b33600073ffffffffffffffffffffffffffffffffffffffff168173ffffffffffffffffffffffffffffffffffffffff1603620000ad5760006040517f1e4fbdf7000000000000000000000000000000000000000000000000000000008152600401620000a4919062000451565b60405180910390fd5b620000be81620002dd60201b60201c565b5060018081905550620000e267abffef14120c437860c01b620003a160201b60201c565b620000fe67814ce1913a61820160c01b620003a160201b60201c565b6200011a67c77d4fa952e73eda60c01b620003a160201b60201c565b600073ffffffffffffffffffffffffffffffffffffffff168173ffffffffffffffffffffffffffffffffffffffff16036200019d576200016b67f5c94861818de63660c01b620003a160201b60201c565b6040517fe6c4247b00000000000000000000000000000000000000000000000000000000815260040160405180910390fd5b620001b96708c5ca17c4e045dd60c01b620003a160201b60201c565b620001d567a66316b7e94c4d4660c01b620003a160201b60201c565b8073ffffffffffffffffffffffffffffffffffffffff1660808173ffffffffffffffffffffffffffffffffffffffff16815250506200022567cc9068548fc7853460c01b620003a160201b60201c565b4260a0818152505062000249678791c11fb06aeec160c01b620003a160201b60201c565b6305a39a80426200025b9190620004a7565b60c081815250506200027e6787d011814a357eec60c01b620003a160201b60201c565b6200029a67fbfa528ae82084d560c01b620003a160201b60201c565b7ff705142bf09f04297640495ddf7c59b7fd6f51894c5aea9602d631cf05f0efc2600042604051620002ce92919062000540565b60405180910390a1506200056d565b60008060009054906101000a900473ffffffffffffffffffffffffffffffffffffffff169050816000806101000a81548173ffffffffffffffffffffffffffffffffffffffff021916908373ffffffffffffffffffffffffffffffffffffffff1602179055508173ffffffffffffffffffffffffffffffffffffffff168173ffffffffffffffffffffffffffffffffffffffff167f8be0079c531659141344cd1fd0a4f28419497f9722a3daafe3b4186f6b6457e060405160405180910390a35050565b50565b600080fd5b600073ffffffffffffffffffffffffffffffffffffffff82169050919050565b6000620003d682620003a9565b9050919050565b620003e881620003c9565b8114620003f457600080fd5b50565b6000815190506200040881620003dd565b92915050565b600060208284031215620004275762000426620003a4565b5b60006200043784828501620003f7565b91505092915050565b6200044b81620003c9565b82525050565b600060208201905062000468600083018462000440565b92915050565b6000819050919050565b7f4e487b7100000000000000000000000000000000000000000000000000000000600052601160045260246000fd5b6000620004b4826200046e565b9150620004c1836200046e565b9250828201905080821115620004dc57620004db62000478565b5b92915050565b6000819050919050565b6000819050919050565b600062000517620005116200050b84620004e2565b620004ec565b6200046e565b9050919050565b6200052981620004f6565b82525050565b6200053a816200046e565b82525050565b60006040820190506200055760008301856200051e565b6200056660208301846200052f565b9392505050565b60805160a05160c05161579e620006296000396000818161071601528181611156015281816111fd01528181611364015281816113d8015281816120c6015281816120f60152818161463a0152818161481b01526148b201526000818161105d01526111dc015260008181610e5a0152818161190b015281816121e101528181612b0801528181612c7401528181612da301528181612fa501528181613172015281816131e0015281816136d00152613d5d015261579e6000f3fe608060405234801561001057600080fd5b506004361061023d5760003560e01c8063766f968e1161013b578063c8692e3f116100b8578063e12f3a611161007c578063e12f3a6114610612578063e1f1c4a714610642578063e70b11df14610660578063f2fde38b1461067c578063fcb9b505146106985761023d565b8063c8692e3f1461058c578063cc1b7ee5146105b0578063d54ad2a1146105ce578063db2e21bc146105ec578063ddeae033146105f65761023d565b806399aabf53116100ff57806399aabf53146104e65780639d19b226146105045780639e761bbb14610534578063a5ca2afa14610564578063b9c18685146105825761023d565b8063766f968e146104615780637cc1f8671461047f5780638456cb59146104a25780638da5cb5b146104ac57806396074e70146104ca5761023d565b80633a05f0d8116101c957806348c54b9d1161018d57806348c54b9d146103f55780635926a9e5146103ff57806359633a1c1461041d5780635c975abb14610439578063715018a6146104575761023d565b80633a05f0d81461036e5780633bc8bce0146103915780633f4ba83a146103af57806345f7f249146103b9578063485d3834146103d75761023d565b80632f14bae8116102105780632f14bae8146102bc5780632fe319da146102dd578063306e6a1d146102fb578063366dc08314610319578063388ea310146103505761023d565b806301567739146102425780630dac7bea146102765780631db0ad5a1461029457806325e2fbef146102b2575b600080fd5b61025c60048036038101906102579190614e17565b6106b4565b60405161026d959493929190614e78565b60405180910390f35b61027e610704565b60405161028b9190614ecb565b60405180910390f35b61029c610714565b6040516102a99190614ecb565b60405180910390f35b6102ba610738565b005b6102c46109c5565b6040516102d49493929190615120565b60405180910390f35b6102e5610e58565b6040516102f291906151e0565b60405180910390f35b610303610e7c565b60405161031091906151fb565b60405180910390f35b610333600480360381019061032e9190614e17565b610e8f565b604051610347989796959493929190615216565b60405180910390f35b61035861105b565b6040516103659190614ecb565b60405180910390f35b61037661107f565b60405161038896959493929190615294565b60405180910390f35b61039961124a565b6040516103a69190614ecb565b60405180910390f35b6103b7611408565b005b6103c161147e565b6040516103ce9190614ecb565b60405180910390f35b6103df611484565b6040516103ec9190614ecb565b60405180910390f35b6103fd61148c565b005b6104076119d4565b60405161041491906151fb565b60405180910390f35b61043760048036038101906104329190614e17565b6119e7565b005b610441611f62565b60405161044e91906151fb565b60405180910390f35b61045f611f79565b005b610469611f8d565b6040516104769190614ecb565b60405180910390f35b61048761219a565b6040516104999695949392919061530b565b60405180910390f35b6104aa61222f565b005b6104b46122a5565b6040516104c1919061536c565b60405180910390f35b6104e460048036038101906104df91906153b3565b6122ce565b005b6104ee612921565b6040516104fb9190614ecb565b60405180910390f35b61051e60048036038101906105199190614e17565b612926565b60405161052b91906151fb565b60405180910390f35b61054e600480360381019061054991906153f3565b6129bb565b60405161055b919061536c565b60405180910390f35b61056c6129fa565b6040516105799190614ecb565b60405180910390f35b61058a612a01565b005b610594612d58565b6040516105a79796959493929190615420565b60405180910390f35b6105b8612f29565b6040516105c59190614ecb565b60405180910390f35b6105d6612f2f565b6040516105e39190614ecb565b60405180910390f35b6105f4612f35565b005b610610600480360381019061060b9190614e17565b613251565b005b61062c60048036038101906106279190614e17565b61379a565b6040516106399190614ecb565b60405180910390f35b61064a6139f8565b6040516106579190614ecb565b60405180910390f35b61067a60048036038101906106759190614e17565b6139fe565b005b61069660048036038101906106919190614e17565b613f28565b005b6106b260048036038101906106ad91906153b3565b613fae565b005b60036020528060005260406000206000915090508060000154908060010154908060020154908060030160009054906101000a900460ff16908060030160019054906101000a900460ff16905085565b6b033b2e3c9fd0803ce800000081565b7f000000000000000000000000000000000000000000000000000000000000000081565b61074c67b2967e9b3b94542a60c01b6143e9565b6107546143ec565b610768670e19cb0dcdce539760c01b6143e9565b61077c67b5d9c165317f549f60c01b6143e9565b61079067cb59f5b5c7a6676660c01b6143e9565b6107a467ec443f2f0b7db88f60c01b6143e9565b600760009054906101000a900460ff16156107ff576107cd67d4a7ab0b576ed4c960c01b6143e9565b6040517f3bcd404900000000000000000000000000000000000000000000000000000000815260040160405180910390fd5b61081367fa9ef02b23d965b960c01b6143e9565b61082767bb374bc0fcb28e8d60c01b6143e9565b61083b6746c1f0cc989d7f5760c01b6143e9565b600760019054906101000a900460ff16610895576108636776b455dfd3f3e36560c01b6143e9565b6040517f8896be0700000000000000000000000000000000000000000000000000000000815260040160405180910390fd5b6108a967d404f737b091b1d460c01b6143e9565b6108bd67085c4ba896066f0b60c01b6143e9565b6108d167bfc6d5904be7ec7b60c01b6143e9565b600060055403610921576108ef67a7a4ed72571ec28f60c01b6143e9565b6040517f2c5211c600000000000000000000000000000000000000000000000000000000815260040160405180910390fd5b610935670faf1f13b175f43260c01b6143e9565b61094967335cabd1d28e214360c01b6143e9565b6001600760006101000a81548160ff021916908315150217905550610978673873835f38f0db3a60c01b6143e9565b61098c67405eedcff035dcae60c01b6143e9565b7f50502e52aa6ca293c321541049509f7cdc9bc3fee99f3d02331196f7da8ef71f426040516109bb9190614ecb565b60405180910390a1565b6060806060806109df674b20f523befbf11360c01b6143e9565b6109f367e756db74837429c760c01b6143e9565b610a076703664a092fa9f4a060c01b6143e9565b60006004805490509050610a25674e67732182155b7960c01b6143e9565b8067ffffffffffffffff811115610a3f57610a3e61548f565b5b604051908082528060200260200182016040528015610a6d5781602001602082028036833780820191505090505b509450610a84676079b119e51a5e4b60c01b6143e9565b8067ffffffffffffffff811115610a9e57610a9d61548f565b5b604051908082528060200260200182016040528015610acc5781602001602082028036833780820191505090505b509350610ae367db35b35224bb25e360c01b6143e9565b8067ffffffffffffffff811115610afd57610afc61548f565b5b604051908082528060200260200182016040528015610b2b5781602001602082028036833780820191505090505b509250610b4267d525d8f6312a760560c01b6143e9565b8067ffffffffffffffff811115610b5c57610b5b61548f565b5b604051908082528060200260200182016040528015610b8a5781602001602082028036833780820191505090505b509150610ba167c42d36057d8c26ba60c01b6143e9565b610bb567a50b0857e57d5b7860c01b6143e9565b60005b81811015610e2857610bd4672aed1483193d8f0060c01b6143e9565b610be86719894d22a5ac6e0660c01b6143e9565b600060048281548110610bfe57610bfd6154be565b5b9060005260206000200160009054906101000a900473ffffffffffffffffffffffffffffffffffffffff169050610c3f67e67119ed1f1e9bf460c01b6143e9565b610c5367bdcc151195c40af160c01b6143e9565b6000600360008373ffffffffffffffffffffffffffffffffffffffff1673ffffffffffffffffffffffffffffffffffffffff1681526020019081526020016000206040518060a00160405290816000820154815260200160018201548152602001600282015481526020016003820160009054906101000a900460ff161515151581526020016003820160019054906101000a900460ff1615151515815250509050610d09674ef630d10fed760760c01b6143e9565b81888481518110610d1d57610d1c6154be565b5b602002602001019073ffffffffffffffffffffffffffffffffffffffff16908173ffffffffffffffffffffffffffffffffffffffff1681525050610d6b67726832439e699d0960c01b6143e9565b8060000151878481518110610d8357610d826154be565b5b602002602001018181525050610da367a0f305e73f45b9c360c01b6143e9565b8060200151868481518110610dbb57610dba6154be565b5b602002602001018181525050610ddb67027eb2583ad4616a60c01b6143e9565b80606001518015610dee57508060800151155b858481518110610e0157610e006154be565b5b60200260200101901515908115158152505050508080610e209061551c565b915050610bb8565b50610e3d674c84222cf019419660c01b6143e9565b610e5167093ee1b93cc2e2a160c01b6143e9565b5090919293565b7f000000000000000000000000000000000000000000000000000000000000000081565b600760009054906101000a900460ff1681565b600080600080600080600080610eaf67ca11f42a9d0d687960c01b6143e9565b610ec3675d13d56b3b22120960c01b6143e9565b610ed7676fc64105f386612f60c01b6143e9565b6000600360008b73ffffffffffffffffffffffffffffffffffffffff1673ffffffffffffffffffffffffffffffffffffffff1681526020019081526020016000206040518060a00160405290816000820154815260200160018201548152602001600282015481526020016003820160009054906101000a900460ff161515151581526020016003820160019054906101000a900460ff1615151515815250509050610f8d6788c4a2a1575071bd60c01b6143e9565b610f968a614473565b9750610fac67ebee7f182eb2d3ce60c01b6143e9565b610fb58a61379a565b9550610fcb67b2598d2f3311362b60c01b6143e9565b80602001518160000151610fdf9190615564565b9450610ff5673c480cbfd53b786660c01b6143e9565b610ffd6147db565b935061101367bc0f6db82f66e85d60c01b6143e9565b611027670753fcd8b5a6b98a60c01b6143e9565b8060000151888260200151888888866060015187608001519850985098509850985098509850985050919395975091939597565b7f000000000000000000000000000000000000000000000000000000000000000081565b6000806000806000606061109d67d2ee427e9b404b3460c01b6143e9565b6110b1673466dfb7fc412d3260c01b6143e9565b600567ffffffffffffffff8111156110cc576110cb61548f565b5b6040519080825280602002602001820160405280156110fa5781602001602082028036833780820191505090505b50905061111167ac979f2037a67a1460c01b6143e9565b61112567c872245c89b5e19e60c01b6143e9565b60005b60058110156111b15761114567f1e1f024182f9f3f60c01b6143e9565b62ed4e00816111549190615598565b7f000000000000000000000000000000000000000000000000000000000000000061117f91906155da565b828281518110611192576111916154be565b5b60200260200101818152505080806111a99061551c565b915050611128565b506111c6679ca2e5fad9987c3160c01b6143e9565b6111da67c4fe5524a379209260c01b6143e9565b7f00000000000000000000000000000000000000000000000000000000000000007f00000000000000000000000000000000000000000000000000000000000000006112246147db565b60056201518062ed4e00611238919061563d565b95509550955095509550909192939495565b6000611260671d040799eb8d7d9660c01b6143e9565b61127467d466688dbc6709cf60c01b6143e9565b611288674dab686df25ab1fc60c01b6143e9565b60006112926147db565b90506112a867175dbf858687e44a60c01b6143e9565b6112bc67be45a53f8599ce0b60c01b6143e9565b600581106112f6576112d867d893726ea963f4b260c01b6143e9565b6112ec6753abfc247d0d02c560c01b6143e9565b6000915050611405565b61130a67331e0b06b8a5397760c01b6143e9565b61131e67a1e712f28b9b81f060c01b6143e9565b6113326787f37fa107f1874060c01b6143e9565b6000810361138b5761134e67ab116fc4a709e22560c01b6143e9565b61136267344c52893752d99360c01b6143e9565b7f0000000000000000000000000000000000000000000000000000000000000000915050611405565b61139f67e90ef1da7fbedf4660c01b6143e9565b6113b367259defbca5859b8560c01b6143e9565b6113c76742f15983d86b9d7a60c01b6143e9565b62ed4e00816113d69190615598565b7f000000000000000000000000000000000000000000000000000000000000000061140191906155da565b9150505b90565b61141c672884288e22ba029360c01b6143e9565b6114246143ec565b6114386771219376e91c9ffc60c01b6143e9565b61144c67adcc4e9691cbd0dd60c01b6143e9565b611460674e90b22f629bef1b60c01b6143e9565b61147467a554c21de3f1e64e60c01b6143e9565b61147c61499d565b565b60055481565b6305a39a8081565b6114a06753ce81a66c27b35160c01b6143e9565b6114a8614a00565b6114bc6789a9d86a13606fb360c01b6143e9565b6114d0671847c5f2f560c8e160c01b6143e9565b6114d8614a46565b6114ec674fa6acb3e05fb14960c01b6143e9565b61150067551ac45e8751607460c01b6143e9565b6115146732813bb479b7770560c01b6143e9565b611528670c7e09ef037ab5c760c01b6143e9565b600760009054906101000a900460ff1661158257611550677ad6c559be2a88e360c01b6143e9565b6040517f39dc74ea00000000000000000000000000000000000000000000000000000000815260040160405180910390fd5b6115966794400f68d35146e360c01b6143e9565b6115aa67f9303b8c5875bbff60c01b6143e9565b6115be67184c9615764c0e5860c01b6143e9565b600360003373ffffffffffffffffffffffffffffffffffffffff1673ffffffffffffffffffffffffffffffffffffffff16815260200190815260200160002060030160009054906101000a900460ff166116585761162667a64c033fa5f00c6860c01b6143e9565b6040517f644d871f00000000000000000000000000000000000000000000000000000000815260040160405180910390fd5b61166c679b6b0a8d3de4601660c01b6143e9565b6116806793f3f50be422270b60c01b6143e9565b611694670edad93a702f9e7b60c01b6143e9565b6000600360003373ffffffffffffffffffffffffffffffffffffffff1673ffffffffffffffffffffffffffffffffffffffff16815260200190815260200160002090506116eb67b1bd12de32eef2ed60c01b6143e9565b6116ff675359855f3aed39da60c01b6143e9565b8060030160019054906101000a900460ff161561175c5761172a6725090f33247aecd060c01b6143e9565b6040517fd1ba89a100000000000000000000000000000000000000000000000000000000815260040160405180910390fd5b6117706797d11e1a358e509260c01b6143e9565b611784675146aa89be0a096b60c01b6143e9565b611798676c85d99c69b1b03a60c01b6143e9565b60006117a33361379a565b90506117b967d8edbf06b75e33bb60c01b6143e9565b6117cd67388da15ff163fa9e60c01b6143e9565b6000810361181b576117e9674111ff79eab8b4ac60c01b6143e9565b6040517fc4dc60e000000000000000000000000000000000000000000000000000000000815260040160405180910390fd5b61182f674eba6e469d4adc2c60c01b6143e9565b611843670df1cedf316a3b2c60c01b6143e9565b6118576704def79f937d645660c01b6143e9565b60006118616147db565b9050611877676868ecdf4cd3b23f60c01b6143e9565b8183600101600082825461188b91906155da565b925050819055506118a667817cdad86be20cbb60c01b6143e9565b8083600201819055506118c367ac484f6ba9f51a3b60c01b6143e9565b81600660008282546118d591906155da565b925050819055506118f067515172f8d631cb0a60c01b6143e9565b61190467f67224a18ee73d0a60c01b6143e9565b61194f33837f000000000000000000000000000000000000000000000000000000000000000073ffffffffffffffffffffffffffffffffffffffff16614a879092919063ffffffff16565b61196367fb897654a874f23560c01b6143e9565b611977677a944a9c194caa4760c01b6143e9565b3373ffffffffffffffffffffffffffffffffffffffff167f9923b4306c6c030f2bdfbf156517d5983b87e15b96176da122cd4f2effa4ba7b83836040516119bf92919061566e565b60405180910390a25050506119d2614b06565b565b600760019054906101000a900460ff1681565b6119fb67860fff03221ee52560c01b6143e9565b611a036143ec565b611a1767cfe89699f8c1756f60c01b6143e9565b611a2b67d420415052584abc60c01b6143e9565b611a3f676542558629e1d09b60c01b6143e9565b611a53674b6376a994a7e65560c01b6143e9565b600760009054906101000a900460ff1615611aae57611a7c67c246ff12115084be60c01b6143e9565b6040517f3bcd404900000000000000000000000000000000000000000000000000000000815260040160405180910390fd5b611ac267d6ecd0d4587a08e860c01b6143e9565b611ad667e4dbbe3004011b6b60c01b6143e9565b611aea6752d27527ceae136260c01b6143e9565b600360008273ffffffffffffffffffffffffffffffffffffffff1673ffffffffffffffffffffffffffffffffffffffff16815260200190815260200160002060030160009054906101000a900460ff16611b8457611b5267946745243cf7d55960c01b6143e9565b6040517f644d871f00000000000000000000000000000000000000000000000000000000815260040160405180910390fd5b611b9867f4a278e938e48b8660c01b6143e9565b611bac6773be317eba23517760c01b6143e9565b611bc0679523bc6a2b8105bf60c01b6143e9565b6000600360008373ffffffffffffffffffffffffffffffffffffffff1673ffffffffffffffffffffffffffffffffffffffff1681526020019081526020016000209050611c176778c9c4878030358a60c01b6143e9565b611c2b6788f508451ad565da60c01b6143e9565b600081600001549050611c48676d0c40d47175255360c01b6143e9565b60008260030160006101000a81548160ff021916908315150217905550611c7967f50a583383ab229d60c01b6143e9565b8060056000828254611c8b9190615564565b92505081905550611ca6671125a926628882dd60c01b6143e9565b611cba671c80f3b4880f2f3960c01b6143e9565b60005b600480549050811015611ee657611cde67d5f484c0ae21532060c01b6143e9565b611cf267d2c86c0ffe38cf6960c01b6143e9565b8373ffffffffffffffffffffffffffffffffffffffff1660048281548110611d1d57611d1c6154be565b5b9060005260206000200160009054906101000a900473ffffffffffffffffffffffffffffffffffffffff1673ffffffffffffffffffffffffffffffffffffffff1603611ebf57611d776726466b47f2b9b9f360c01b6143e9565b611d8b67e5a3ff290977c85760c01b6143e9565b60046001600480549050611d9f9190615564565b81548110611db057611daf6154be565b5b9060005260206000200160009054906101000a900473ffffffffffffffffffffffffffffffffffffffff1660048281548110611def57611dee6154be565b5b9060005260206000200160006101000a81548173ffffffffffffffffffffffffffffffffffffffff021916908373ffffffffffffffffffffffffffffffffffffffff160217905550611e4b67a6af2209ab2a520b60c01b6143e9565b611e5f67f1a5c657f87ef8a060c01b6143e9565b6004805480611e7157611e70615697565b5b6001900381819060005260206000200160006101000a81549073ffffffffffffffffffffffffffffffffffffffff02191690559055611eba67fc1d1a06db0a6cd660c01b6143e9565b611ee6565b611ed367474bfb1210e50c9b60c01b6143e9565b8080611ede9061551c565b915050611cbd565b50611efb671971f042a4e25f4d60c01b6143e9565b611f0f67bdf4490ef55c205d60c01b6143e9565b8273ffffffffffffffffffffffffffffffffffffffff167f4eba15b1481ac9c456ea6075869b280f4f84c5b462cf7bc01868dd40119ec06582604051611f559190614ecb565b60405180910390a2505050565b6000600260009054906101000a900460ff16905090565b611f816143ec565b611f8b6000614b0f565b565b6000611fa3670d2fa2a6a74af66260c01b6143e9565b611fb7673f080d835a183a4960c01b6143e9565b611fcb676e353df8c0fbfb2660c01b6143e9565b6000611fd56147db565b9050611feb675f823e5b6f564b7a60c01b6143e9565b611fff67ab77bdc1dec779eb60c01b6143e9565b600581106120395761201b675ddf8506c02bf42f60c01b6143e9565b61202f6708c0d1ee3474553560c01b6143e9565b6000915050612197565b61204d670fa8b63db57b302660c01b6143e9565b61206167fba15da225b86e7b60c01b6143e9565b612075672041b7d0998048d260c01b6143e9565b60008082148061209557506120946707273af87b9d20d360c01b614bd3565b5b80156120b157506120b0676ea1bd2f253f10e860c01b614bda565b5b6120f45762ed4e00826120c49190615598565b7f00000000000000000000000000000000000000000000000000000000000000006120ef91906155da565b612116565b7f00000000000000000000000000000000000000000000000000000000000000005b905061212c676fa0ea05101e168560c01b6143e9565b612140670b857dbc1479d3df60c01b6143e9565b4281118061215e575061215d67306e51292bcb52f060c01b614bd3565b5b801561217a575061217967c91ef8e6983f7b6560c01b614bda565b5b612185576000612192565b42816121919190615564565b5b925050505b90565b6000806000806000806121b767394c578d69e8a65860c01b6143e9565b6121cb6779e58ebe7aef14b860c01b6143e9565b6121df678c6f200fcc9ef0ee60c01b6143e9565b7f00000000000000000000000000000000000000000000000000000000000000006b033b2e3c9fd0803ce80000006305a39a8062ed4e0060056107d0955095509550955095509550909192939495565b61224367908fc6b18f576b1860c01b6143e9565b61224b6143ec565b61225f6713b482335770f95860c01b6143e9565b61227367e6b941163877c41560c01b6143e9565b612287676a38808804430d9260c01b6143e9565b61229b67a0359974b5b1f9da60c01b6143e9565b6122a3614be5565b565b60008060009054906101000a900473ffffffffffffffffffffffffffffffffffffffff16905090565b6122e267dd3e4bbe932f069a60c01b6143e9565b6122ea6143ec565b6122fe67c76e7caa78d1ac7560c01b6143e9565b61231267bd9d74b8bc3f833160c01b6143e9565b612326671a96a0655472876660c01b6143e9565b61233a67941d718a9328105460c01b6143e9565b600760009054906101000a900460ff16156123955761236367480b51b08d4943b860c01b6143e9565b6040517f3bcd404900000000000000000000000000000000000000000000000000000000815260040160405180910390fd5b6123a967e93f462a9fc654b860c01b6143e9565b6123bd67e806f5cc0d18d6dc60c01b6143e9565b6123d06686fd9e595a3f5560c01b6143e9565b600760019054906101000a900460ff1661242a576123f867cf4ce95928134ef060c01b6143e9565b6040517f8896be0700000000000000000000000000000000000000000000000000000000815260040160405180910390fd5b61243e67b00d86883068d34f60c01b6143e9565b6124526797dd197151b2fd6160c01b6143e9565b61246667752006e8e7fabf6460c01b6143e9565b600073ffffffffffffffffffffffffffffffffffffffff168273ffffffffffffffffffffffffffffffffffffffff16036124e0576124ae67df0c62ef2537907560c01b6143e9565b6040517fe6c4247b00000000000000000000000000000000000000000000000000000000815260040160405180910390fd5b6124f4679641f2ada293f96d60c01b6143e9565b61250867af4bc0a1bddff0b660c01b6143e9565b61251c679b4aef77d0a03a4760c01b6143e9565b6000810361256a576125386783c3819de36a022c60c01b6143e9565b6040517f2c5211c600000000000000000000000000000000000000000000000000000000815260040160405180910390fd5b61257e6797a1e0e06c31765d60c01b6143e9565b612592675a6960de54bb23f860c01b6143e9565b6125a6674a6adaaf88e8c19960c01b6143e9565b600360008373ffffffffffffffffffffffffffffffffffffffff1673ffffffffffffffffffffffffffffffffffffffff16815260200190815260200160002060030160009054906101000a900460ff16156126415761260f673383533f02edfba760c01b6143e9565b6040517fc2f34d1800000000000000000000000000000000000000000000000000000000815260040160405180910390fd5b61265567fdb15791be2312e060c01b6143e9565b612669671b8eb69259e1c3bf60c01b6143e9565b61267d67766097f488046e4860c01b6143e9565b6b033b2e3c9fd0803ce80000008160055461269891906155da565b11156126f8576126b267fca58999e659c54d60c01b6143e9565b6126c6670cae04d1e751768e60c01b6143e9565b6040517f87a7c61e00000000000000000000000000000000000000000000000000000000815260040160405180910390fd5b61270c67b1001cae972891a160c01b6143e9565b61272067d65868995a92b83860c01b6143e9565b6040518060a00160405280828152602001600081526020016000815260200160011515815260200160001515815250600360008473ffffffffffffffffffffffffffffffffffffffff1673ffffffffffffffffffffffffffffffffffffffff16815260200190815260200160002060008201518160000155602082015181600101556040820151816002015560608201518160030160006101000a81548160ff02191690831515021790555060808201518160030160016101000a81548160ff02191690831515021790555090505061280367c751d94e3336662960c01b6143e9565b6128176797aabe957b42bffb60c01b6143e9565b6004829080600181540180825580915050600190039060005260206000200160009091909190916101000a81548173ffffffffffffffffffffffffffffffffffffffff021916908373ffffffffffffffffffffffffffffffffffffffff16021790555061288e673c08e1002f6b60c260c01b6143e9565b80600560008282546128a091906155da565b925050819055506128bb67c98d367aa3c99fe260c01b6143e9565b6128cf67c3b33274f72c283a60c01b6143e9565b8173ffffffffffffffffffffffffffffffffffffffff167fe6b83177f11971ba30369bb38b914ffba97d5969a3c857b286fa8fdbb150b3ba826040516129159190614ecb565b60405180910390a25050565b600581565b600061293c67ac009d2bad6b569c60c01b6143e9565b6129506799807495d1418ee360c01b6143e9565b612964677706dd0c5bdc089a60c01b6143e9565b600360008373ffffffffffffffffffffffffffffffffffffffff1673ffffffffffffffffffffffffffffffffffffffff16815260200190815260200160002060030160009054906101000a900460ff169050919050565b600481815481106129cb57600080fd5b906000526020600020016000915054906101000a900473ffffffffffffffffffffffffffffffffffffffff1681565b62ed4e0081565b612a15678cb08f52402468e060c01b6143e9565b612a1d6143ec565b612a31676681c1b27a2fa3d860c01b6143e9565b612a45673427cab15fa7b3c360c01b6143e9565b612a59677f01ba88bb0ef98560c01b6143e9565b612a6d67e5b5685cfc90afb360c01b6143e9565b600760019054906101000a900460ff1615612ac857612a9667eaf7acbd07023c8360c01b6143e9565b6040517f742f800000000000000000000000000000000000000000000000000000000000815260040160405180910390fd5b612adc672dfcef5537458e2760c01b6143e9565b612af067a5eccc8567369a0460c01b6143e9565b612b0467b6dfada730d2b1ba60c01b6143e9565b60007f000000000000000000000000000000000000000000000000000000000000000073ffffffffffffffffffffffffffffffffffffffff166370a08231336040518263ffffffff1660e01b8152600401612b5f919061536c565b602060405180830381865afa158015612b7c573d6000803e3d6000fd5b505050506040513d601f19601f82011682018060405250810190612ba091906156db565b9050612bb667516388626b13109360c01b6143e9565b612bca6758c4cc016ec9c24860c01b6143e9565b6b033b2e3c9fd0803ce8000000811015612c2457612bf267c36577b47cf2559660c01b6143e9565b6040517ff4d678b800000000000000000000000000000000000000000000000000000000815260040160405180910390fd5b612c3867cf7e46b3cdc1a27960c01b6143e9565b612c4c67a2e881040f9f381260c01b6143e9565b612c6067ba2aa30c118d59ea60c01b6143e9565b612cb933306b033b2e3c9fd0803ce80000007f000000000000000000000000000000000000000000000000000000000000000073ffffffffffffffffffffffffffffffffffffffff16614c48909392919063ffffffff16565b612ccd6752bff1f15ef0044a60c01b6143e9565b6001600760016101000a81548160ff021916908315150217905550612cfc67945006a8b4687f8660c01b6143e9565b612d1067817fabc52093b7a360c01b6143e9565b7ff705142bf09f04297640495ddf7c59b7fd6f51894c5aea9602d631cf05f0efc26b033b2e3c9fd0803ce800000042604051612d4d92919061566e565b60405180910390a150565b6000806000806000806000612d776721a9404d20b0b97e60c01b6143e9565b612d8b678e57b1a66cd9867c60c01b6143e9565b612d9f678098b8a6f37884b560c01b6143e9565b60007f000000000000000000000000000000000000000000000000000000000000000073ffffffffffffffffffffffffffffffffffffffff166370a08231306040518263ffffffff1660e01b8152600401612dfa919061536c565b602060405180830381865afa158015612e17573d6000803e3d6000fd5b505050506040513d601f19601f82011682018060405250810190612e3b91906156db565b9050612e51673c49bf5d91cd1acc60c01b6143e9565b612e65670146a35cacd5e5df60c01b6143e9565b600554600654600654600554612e7b9190615564565b600654600554612e8b9190615564565b841180612ea85750612ea767ae966c5da9e1a3db60c01b614bd3565b5b8015612ec45750612ec36743cf35e7db6ef12a60c01b614bda565b5b612ecf576000612eeb565b600654600554612edf9190615564565b84612eea9190615564565b5b600480549050600760009054906101000a900460ff16600760019054906101000a900460ff1697509750975097509750975097505090919293949596565b6107d081565b60065481565b612f496761af9bf87b2dfff160c01b6143e9565b612f516143ec565b612f6567d78e60a0455577f460c01b6143e9565b612f79674fc3eb2ad92eb68160c01b6143e9565b612f8d67dd255698d0e7ea9160c01b6143e9565b612fa16789a9b7a2d314ff7c60c01b6143e9565b60007f000000000000000000000000000000000000000000000000000000000000000073ffffffffffffffffffffffffffffffffffffffff166370a08231306040518263ffffffff1660e01b8152600401612ffc919061536c565b602060405180830381865afa158015613019573d6000803e3d6000fd5b505050506040513d601f19601f8201168201806040525081019061303d91906156db565b9050613053673fb70b0fd07532d360c01b6143e9565b61306767ebe594c87552165260c01b6143e9565b60006006546005546130799190615564565b905061308f679056534f9f53ac5160c01b6143e9565b6130a36779a9481b80afe37260c01b6143e9565b8082116130f0576130be673e5287f6e486c1df60c01b6143e9565b6040517ff4d678b800000000000000000000000000000000000000000000000000000000815260040160405180910390fd5b61310467da34a09660e151bd60c01b6143e9565b613118672f85cba82a71f31e60c01b6143e9565b61312c67961b2f5c3cde2fba60c01b6143e9565b6000818361313a9190615564565b9050613150670c06bd1ad015b37560c01b6143e9565b61316467fcd498c42fb5c83760c01b6143e9565b6131b661316f6122a5565b827f000000000000000000000000000000000000000000000000000000000000000073ffffffffffffffffffffffffffffffffffffffff16614a879092919063ffffffff16565b6131ca67e644ea392a8e56f060c01b6143e9565b6131de672f27b395576b6f2760c01b6143e9565b7f000000000000000000000000000000000000000000000000000000000000000073ffffffffffffffffffffffffffffffffffffffff167f5fafa99d0643513820be26656b45130b01e1c03062e1266bf36f88cbd3bd9695826040516132449190614ecb565b60405180910390a2505050565b61326567ef66feab10d24b1e60c01b6143e9565b61326d614a00565b61328167029799fa17b253cd60c01b6143e9565b61329567ecccd2b0953d853660c01b6143e9565b61329d614a46565b6132b167ac9b8de12ee8630e60c01b6143e9565b6132c5672dbb3f40a6aac24f60c01b6143e9565b6132d967b7b81f7eca34670960c01b6143e9565b6132ed67d6413e4cc800dcba60c01b6143e9565b600760009054906101000a900460ff16613347576133156798fc1860e8619ca360c01b6143e9565b6040517f39dc74ea00000000000000000000000000000000000000000000000000000000815260040160405180910390fd5b61335b6754fbbfd7df205f4c60c01b6143e9565b61336f675e9f727b3e92f2d660c01b6143e9565b6133836750b95a5819bb0e2d60c01b6143e9565b600360008273ffffffffffffffffffffffffffffffffffffffff1673ffffffffffffffffffffffffffffffffffffffff16815260200190815260200160002060030160009054906101000a900460ff1661341d576133eb67de5cb237e7c527db60c01b6143e9565b6040517f644d871f00000000000000000000000000000000000000000000000000000000815260040160405180910390fd5b6134316779d9ce3df765476c60c01b6143e9565b613445675f7001e89bc115b660c01b6143e9565b61345967d0355f60dc7926bf60c01b6143e9565b6000600360008373ffffffffffffffffffffffffffffffffffffffff1673ffffffffffffffffffffffffffffffffffffffff16815260200190815260200160002090506134b0671a289d0527b8edfe60c01b6143e9565b6134c467535e1290ef4dd25860c01b6143e9565b8060030160019054906101000a900460ff1615613521576134ef6762a0fe60862026e160c01b6143e9565b6040517fd1ba89a100000000000000000000000000000000000000000000000000000000815260040160405180910390fd5b6135356776dadafa1359950160c01b6143e9565b6135496725e7513416e2069760c01b6143e9565b61355d67c068a428fc39ae2360c01b6143e9565b60006135688361379a565b905061357e67c562bbd29541adad60c01b6143e9565b61359267ab2e95f38a52881f60c01b6143e9565b600081036135e0576135ae67d2a5576f2cc40a7760c01b6143e9565b6040517fc4dc60e000000000000000000000000000000000000000000000000000000000815260040160405180910390fd5b6135f4673c20ed92c4d2135f60c01b6143e9565b61360867921003c76a59e45060c01b6143e9565b61361c67f2d405ef3fcc352560c01b6143e9565b60006136266147db565b905061363c67df7f60eb12de58bc60c01b6143e9565b8183600101600082825461365091906155da565b9250508190555061366b67543384d21963ac1460c01b6143e9565b808360020181905550613688674a6b8858c165cb7c60c01b6143e9565b816006600082825461369a91906155da565b925050819055506136b567d77267629569928260c01b6143e9565b6136c967fa322d5e6d33f12560c01b6143e9565b61371484837f000000000000000000000000000000000000000000000000000000000000000073ffffffffffffffffffffffffffffffffffffffff16614a879092919063ffffffff16565b613728676d4676ea2357915f60c01b6143e9565b61373c677109e149e59b3b3f60c01b6143e9565b8373ffffffffffffffffffffffffffffffffffffffff167f9923b4306c6c030f2bdfbf156517d5983b87e15b96176da122cd4f2effa4ba7b838360405161378492919061566e565b60405180910390a2505050613797614b06565b50565b60006137b0672d3142bc750de11f60c01b6143e9565b6137c4671c3f8aa45a9f4ba460c01b6143e9565b6137d8670ce56edb0a2c33de60c01b6143e9565b6000600360008473ffffffffffffffffffffffffffffffffffffffff1673ffffffffffffffffffffffffffffffffffffffff1681526020019081526020016000206040518060a00160405290816000820154815260200160018201548152602001600282015481526020016003820160009054906101000a900460ff161515151581526020016003820160019054906101000a900460ff161515151581525050905061388e67abf5fce010b3e45c60c01b6143e9565b6138a267f4e1fa42f077f2e660c01b6143e9565b80606001511580156138c457506138c36750e2537ce67fa0c460c01b614bda565b5b806138ec5750806080015180156138eb57506138ea67d2cfc76a7daebb7a60c01b614bda565b5b5b156139235761390567aeaabcc84f67cd7560c01b6143e9565b613919677741efecc9991c7a60c01b6143e9565b60009150506139f3565b61393767d1c55781de6e337560c01b6143e9565b61394b67a8e780653af9bb8560c01b6143e9565b61395f67d9074b5f25bd5f6060c01b6143e9565b600061396a84614473565b905061398067d77f8354881aebba60c01b6143e9565b61399467d1c6a6ec0927e1e760c01b6143e9565b81602001518111806139b657506139b5674f16ba9e70ecb8c660c01b614bd3565b5b80156139d257506139d16752a1fe9668949eeb60c01b614bda565b5b6139dd5760006139ee565b8160200151816139ed9190615564565b5b925050505b919050565b61271081565b613a12672f17b67a3f5a322360c01b6143e9565b613a1a6143ec565b613a2e67e6c3e2f131b1fbd360c01b6143e9565b613a42671343c5c9273f15d160c01b6143e9565b613a5667ecedf326517a783760c01b6143e9565b613a6a671462159037ee261560c01b6143e9565b600360008273ffffffffffffffffffffffffffffffffffffffff1673ffffffffffffffffffffffffffffffffffffffff16815260200190815260200160002060030160009054906101000a900460ff16613b0457613ad267393afb4841e826f660c01b6143e9565b6040517f644d871f00000000000000000000000000000000000000000000000000000000815260040160405180910390fd5b613b186795fdacb73d08ade160c01b6143e9565b613b2c67ec71e1389af7d45660c01b6143e9565b613b4067e5279cbb25a837ba60c01b6143e9565b6000600360008373ffffffffffffffffffffffffffffffffffffffff1673ffffffffffffffffffffffffffffffffffffffff1681526020019081526020016000209050613b9767121bfd62935d052160c01b6143e9565b613bab679b88f82be0e22fe260c01b6143e9565b8060030160019054906101000a900460ff1615613c0857613bd667f4e4744c3bf12a8060c01b6143e9565b6040517fd1ba89a100000000000000000000000000000000000000000000000000000000815260040160405180910390fd5b613c1c67c483a6a76d6573d860c01b6143e9565b613c3067926245201b27df2860c01b6143e9565b613c44676ac6fb3b4f1b811660c01b6143e9565b6000613c4f83614473565b9050613c6567a06cf12bd0c1adf860c01b6143e9565b613c7967b0692da728db243960c01b6143e9565b6000826001015482613c8b9190615564565b9050613ca1671c26d0fcd5ea839960c01b6143e9565b613cb567fb21dff6e688008960c01b6143e9565b6000811115613e2557613cd26732956cb11217e24160c01b6143e9565b613ce667670626c04a6f229960c01b6143e9565b80836001016000828254613cfa91906155da565b92505081905550613d1567ab9d1adb3dfce6be60c01b6143e9565b8060066000828254613d2791906155da565b92505081905550613d4267361000cdd2677e4660c01b6143e9565b613d566751cbf0600378bd9d60c01b6143e9565b613da184827f000000000000000000000000000000000000000000000000000000000000000073ffffffffffffffffffffffffffffffffffffffff16614a879092919063ffffffff16565b613db5676e74ebaffbc604a360c01b6143e9565b613dc967927108a4dde796f260c01b6143e9565b8373ffffffffffffffffffffffffffffffffffffffff167f9923b4306c6c030f2bdfbf156517d5983b87e15b96176da122cd4f2effa4ba7b82613e0a6147db565b604051613e1892919061566e565b60405180910390a2613e3a565b613e39677fca3ff3df00388560c01b6143e9565b5b613e4e67eb7566323b426b6360c01b6143e9565b613e6267275360cece3a5cf860c01b6143e9565b600083600101548460000154613e789190615564565b9050613e8e67194dfd9fb957027660c01b6143e9565b60018460030160016101000a81548160ff021916908315150217905550613ebf67126dd02d7fe9bcff60c01b6143e9565b613ed3679e112a28aeaa9be660c01b6143e9565b8473ffffffffffffffffffffffffffffffffffffffff167f040f95d3c705a0cfbbcfbb6f9b8777a527378d1c8ceac50e5e22a1eb953e7f2082604051613f199190614ecb565b60405180910390a25050505050565b613f306143ec565b600073ffffffffffffffffffffffffffffffffffffffff168173ffffffffffffffffffffffffffffffffffffffff1603613fa25760006040517f1e4fbdf7000000000000000000000000000000000000000000000000000000008152600401613f99919061536c565b60405180910390fd5b613fab81614b0f565b50565b613fc267e88b49376a62b66a60c01b6143e9565b613fca6143ec565b613fde678e3199409eac543f60c01b6143e9565b613ff267d5aa0b8de1d413fb60c01b6143e9565b614006674359bde477c6026f60c01b6143e9565b61401a676c56b1668e4648d160c01b6143e9565b600760009054906101000a900460ff16156140755761404367b4b2bf7a86d3d0e660c01b6143e9565b6040517f3bcd404900000000000000000000000000000000000000000000000000000000815260040160405180910390fd5b61408967a25e94df6be4127760c01b6143e9565b61409d6735b7ce9712ee139b60c01b6143e9565b6140b1677f166f4018c6835660c01b6143e9565b600360008373ffffffffffffffffffffffffffffffffffffffff1673ffffffffffffffffffffffffffffffffffffffff16815260200190815260200160002060030160009054906101000a900460ff1661414b5761411967e0ee5565e0e673cd60c01b6143e9565b6040517f644d871f00000000000000000000000000000000000000000000000000000000815260040160405180910390fd5b61415f67313c31fb2f73b37360c01b6143e9565b614173676ff72a6ad9cfa86360c01b6143e9565b61418767279088856a39bcfd60c01b6143e9565b600081036141d5576141a367efd40188ed42bf0c60c01b6143e9565b6040517f2c5211c600000000000000000000000000000000000000000000000000000000815260040160405180910390fd5b6141e9675417d716657c952260c01b6143e9565b6141fd67f6b13052b56f5f6660c01b6143e9565b61421167a27fcef02cc279b060c01b6143e9565b6000600360008473ffffffffffffffffffffffffffffffffffffffff1673ffffffffffffffffffffffffffffffffffffffff168152602001908152602001600020905061426867fb5d8e1e733e6aef60c01b6143e9565b61427c678bb2908acfff1edf60c01b6143e9565b60008160000154905061429967e3775b011174ebef60c01b6143e9565b82816005546142a89190615564565b6142b291906155da565b6005819055506142cc67c2fb9f49d3054dc660c01b6143e9565b6142e06798d38b9f3265e45260c01b6143e9565b6b033b2e3c9fd0803ce8000000600554111561433c5761430a674c6c8fb3e95ac20d60c01b6143e9565b6040517f87a7c61e00000000000000000000000000000000000000000000000000000000815260040160405180910390fd5b6143506781dd9736a56786bf60c01b6143e9565b614364671e348192c12a35d260c01b6143e9565b828260000181905550614381676bfad3f883a83cb860c01b6143e9565b6143956770764a2dcb9bbfca60c01b6143e9565b8373ffffffffffffffffffffffffffffffffffffffff167f73d60fa978f046c1ccf0f85c6247b34d322ad63d5184881ef2f10bf3c70dde21846040516143db9190614ecb565b60405180910390a250505050565b50565b6143f4614cca565b73ffffffffffffffffffffffffffffffffffffffff166144126122a5565b73ffffffffffffffffffffffffffffffffffffffff161461447157614435614cca565b6040517f118cdaa7000000000000000000000000000000000000000000000000000000008152600401614468919061536c565b60405180910390fd5b565b60006144896734184535531ec49560c01b6143e9565b61449d676003d429571361d560c01b6143e9565b6144b167f3ae6df15169aa8060c01b6143e9565b6000600360008473ffffffffffffffffffffffffffffffffffffffff1673ffffffffffffffffffffffffffffffffffffffff1681526020019081526020016000206040518060a00160405290816000820154815260200160018201548152602001600282015481526020016003820160009054906101000a900460ff161515151581526020016003820160019054906101000a900460ff161515151581525050905061456767a45fd99de78581f660c01b6143e9565b61457b6794b6a67d4570b50660c01b6143e9565b806060015115801561459d575061459c679f64b8f14263a5ba60c01b614bda565b5b806145c55750806080015180156145c457506145c3673b94b57cecad3b6c60c01b614bda565b5b5b156145fc576145de673372cc5beb2a400360c01b6143e9565b6145f267e8a4626e27fa37d460c01b6143e9565b60009150506147d6565b6146106730bbccbdbe77ed4f60c01b6143e9565b61462467a02f0977f5d9b67560c01b6143e9565b614638675859541148e6cc2460c01b6143e9565b7f00000000000000000000000000000000000000000000000000000000000000004210156146925761467467b9e089f697373e7860c01b6143e9565b6146886764100488aad2184760c01b6143e9565b60009150506147d6565b6146a667d4e6574193dea1d260c01b6143e9565b6146ba675f26d5d25675ac6b60c01b6143e9565b6146ce6718e90aa2f89b544560c01b6143e9565b60006146d86147db565b90506146ee6793b8887cf724653860c01b6143e9565b61470267ee4b4ae31f81475e60c01b6143e9565b6000810361473d5761471e67b82e83653814947c60c01b6143e9565b6147326771c2e71d4b70062d60c01b6143e9565b6000925050506147d6565b614751675e9c693fcfd03f9a60c01b6143e9565b61476567a076ac151f280ee560c01b6143e9565b61477967cd3fac658757af9760c01b6143e9565b60006107d0826147899190615598565b905061479f676549caa83da517dd60c01b6143e9565b6147b367400c4229981c930d60c01b6143e9565b6127108184600001516147c69190615598565b6147d0919061563d565b93505050505b919050565b60006147f167fd164d9c20595df460c01b6143e9565b614805671e87cf49ec6bd3b860c01b6143e9565b61481967e67013e8892f8ca860c01b6143e9565b7f000000000000000000000000000000000000000000000000000000000000000042101561487257614855672eb67e8349f67c2160c01b6143e9565b614869678aa9c893a35dd3e460c01b6143e9565b6000905061499a565b6148866773682f47ef63cb7660c01b6143e9565b61489a6731a75b180a970ec760c01b6143e9565b6148ae67da6ac6b419e7f81660c01b6143e9565b60007f0000000000000000000000000000000000000000000000000000000000000000426148dc9190615564565b90506148f267f69a814cb45b4df960c01b6143e9565b61490667f16bf684f018b8b160c01b6143e9565b6000600162ed4e0083614919919061563d565b61492391906155da565b905061493967c2f677cfe6dea3d360c01b6143e9565b61494d67abaaae14c2d2950760c01b6143e9565b600581118061496c575061496b676088daaae2d07f6c60c01b614bd3565b5b8015614988575061498767cbe106b0d375675860c01b614bda565b5b6149925780614995565b60055b925050505b90565b6149a5614cd2565b6000600260006101000a81548160ff0219169083151502179055507f5db9ee0a495bf2e6ff9c91a7834c1ba4fdd244a5e8aa4e537bd38aeae4b073aa6149e9614cca565b6040516149f6919061536c565b60405180910390a1565b600260015403614a3c576040517f3ee5aeb500000000000000000000000000000000000000000000000000000000815260040160405180910390fd5b6002600181905550565b614a4e611f62565b15614a85576040517fd93c066500000000000000000000000000000000000000000000000000000000815260040160405180910390fd5b565b614b01838473ffffffffffffffffffffffffffffffffffffffff1663a9059cbb8585604051602401614aba929190615708565b604051602081830303815290604052915060e01b6020820180517bffffffffffffffffffffffffffffffffffffffffffffffffffffffff8381831617835250505050614d12565b505050565b60018081905550565b60008060009054906101000a900473ffffffffffffffffffffffffffffffffffffffff169050816000806101000a81548173ffffffffffffffffffffffffffffffffffffffff021916908373ffffffffffffffffffffffffffffffffffffffff1602179055508173ffffffffffffffffffffffffffffffffffffffff168173ffffffffffffffffffffffffffffffffffffffff167f8be0079c531659141344cd1fd0a4f28419497f9722a3daafe3b4186f6b6457e060405160405180910390a35050565b6000919050565b600060019050919050565b614bed614a46565b6001600260006101000a81548160ff0219169083151502179055507f62e78cea01bee320cd4e420270b5ea74000d11b0c9f74754ebdbfc544b05a258614c31614cca565b604051614c3e919061536c565b60405180910390a1565b614cc4848573ffffffffffffffffffffffffffffffffffffffff166323b872dd868686604051602401614c7d93929190615731565b604051602081830303815290604052915060e01b6020820180517bffffffffffffffffffffffffffffffffffffffffffffffffffffffff8381831617835250505050614d12565b50505050565b600033905090565b614cda611f62565b614d10576040517f8dfc202b00000000000000000000000000000000000000000000000000000000815260040160405180910390fd5b565b600080602060008451602086016000885af180614d35576040513d6000823e3d81fd5b3d925060005191505060008214614d50576001811415614d6c565b60008473ffffffffffffffffffffffffffffffffffffffff163b145b15614dae57836040517f5274afe7000000000000000000000000000000000000000000000000000000008152600401614da5919061536c565b60405180910390fd5b50505050565b600080fd5b600073ffffffffffffffffffffffffffffffffffffffff82169050919050565b6000614de482614db9565b9050919050565b614df481614dd9565b8114614dff57600080fd5b50565b600081359050614e1181614deb565b92915050565b600060208284031215614e2d57614e2c614db4565b5b6000614e3b84828501614e02565b91505092915050565b6000819050919050565b614e5781614e44565b82525050565b60008115159050919050565b614e7281614e5d565b82525050565b600060a082019050614e8d6000830188614e4e565b614e9a6020830187614e4e565b614ea76040830186614e4e565b614eb46060830185614e69565b614ec16080830184614e69565b9695505050505050565b6000602082019050614ee06000830184614e4e565b92915050565b600081519050919050565b600082825260208201905092915050565b6000819050602082019050919050565b614f1b81614dd9565b82525050565b6000614f2d8383614f12565b60208301905092915050565b6000602082019050919050565b6000614f5182614ee6565b614f5b8185614ef1565b9350614f6683614f02565b8060005b83811015614f97578151614f7e8882614f21565b9750614f8983614f39565b925050600181019050614f6a565b5085935050505092915050565b600081519050919050565b600082825260208201905092915050565b6000819050602082019050919050565b614fd981614e44565b82525050565b6000614feb8383614fd0565b60208301905092915050565b6000602082019050919050565b600061500f82614fa4565b6150198185614faf565b935061502483614fc0565b8060005b8381101561505557815161503c8882614fdf565b975061504783614ff7565b925050600181019050615028565b5085935050505092915050565b600081519050919050565b600082825260208201905092915050565b6000819050602082019050919050565b61509781614e5d565b82525050565b60006150a9838361508e565b60208301905092915050565b6000602082019050919050565b60006150cd82615062565b6150d7818561506d565b93506150e28361507e565b8060005b838110156151135781516150fa888261509d565b9750615105836150b5565b9250506001810190506150e6565b5085935050505092915050565b6000608082019050818103600083015261513a8187614f46565b9050818103602083015261514e8186615004565b905081810360408301526151628185615004565b9050818103606083015261517681846150c2565b905095945050505050565b6000819050919050565b60006151a66151a161519c84614db9565b615181565b614db9565b9050919050565b60006151b88261518b565b9050919050565b60006151ca826151ad565b9050919050565b6151da816151bf565b82525050565b60006020820190506151f560008301846151d1565b92915050565b60006020820190506152106000830184614e69565b92915050565b60006101008201905061522c600083018b614e4e565b615239602083018a614e4e565b6152466040830189614e4e565b6152536060830188614e4e565b6152606080830187614e4e565b61526d60a0830186614e4e565b61527a60c0830185614e69565b61528760e0830184614e69565b9998505050505050505050565b600060c0820190506152a96000830189614e4e565b6152b66020830188614e4e565b6152c36040830187614e4e565b6152d06060830186614e4e565b6152dd6080830185614e4e565b81810360a08301526152ef8184615004565b9050979650505050505050565b61530581614dd9565b82525050565b600060c08201905061532060008301896152fc565b61532d6020830188614e4e565b61533a6040830187614e4e565b6153476060830186614e4e565b6153546080830185614e4e565b61536160a0830184614e4e565b979650505050505050565b600060208201905061538160008301846152fc565b92915050565b61539081614e44565b811461539b57600080fd5b50565b6000813590506153ad81615387565b92915050565b600080604083850312156153ca576153c9614db4565b5b60006153d885828601614e02565b92505060206153e98582860161539e565b9150509250929050565b60006020828403121561540957615408614db4565b5b60006154178482850161539e565b91505092915050565b600060e082019050615435600083018a614e4e565b6154426020830189614e4e565b61544f6040830188614e4e565b61545c6060830187614e4e565b6154696080830186614e4e565b61547660a0830185614e69565b61548360c0830184614e69565b98975050505050505050565b7f4e487b7100000000000000000000000000000000000000000000000000000000600052604160045260246000fd5b7f4e487b7100000000000000000000000000000000000000000000000000000000600052603260045260246000fd5b7f4e487b7100000000000000000000000000000000000000000000000000000000600052601160045260246000fd5b600061552782614e44565b91507fffffffffffffffffffffffffffffffffffffffffffffffffffffffffffffffff8203615559576155586154ed565b5b600182019050919050565b600061556f82614e44565b915061557a83614e44565b9250828203905081811115615592576155916154ed565b5b92915050565b60006155a382614e44565b91506155ae83614e44565b92508282026155bc81614e44565b915082820484148315176155d3576155d26154ed565b5b5092915050565b60006155e582614e44565b91506155f083614e44565b9250828201905080821115615608576156076154ed565b5b92915050565b7f4e487b7100000000000000000000000000000000000000000000000000000000600052601260045260246000fd5b600061564882614e44565b915061565383614e44565b9250826156635761566261560e565b5b828204905092915050565b60006040820190506156836000830185614e4e565b6156906020830184614e4e565b9392505050565b7f4e487b7100000000000000000000000000000000000000000000000000000000600052603160045260246000fd5b6000815190506156d581615387565b92915050565b6000602082840312156156f1576156f0614db4565b5b60006156ff848285016156c6565b91505092915050565b600060408201905061571d60008301856152fc565b61572a6020830184614e4e565b9392505050565b600060608201905061574660008301866152fc565b61575360208301856152fc565b6157606040830184614e4e565b94935050505056fea26469706673582212203454b08ee01ad807aed326b5039e03b63313b7d36f78f7984fefbd7545cb242364736f6c63430008140033","opcodes":"PUSH1 0xE0 PUSH1 0x40 MSTORE CALLVALUE DUP1 ISZERO PUSH3 0x11 JUMPI PUSH1 0x0 DUP1 REVERT JUMPDEST POP PUSH1 0x40 MLOAD PUSH3 0x5DC7 CODESIZE SUB DUP1 PUSH3 0x5DC7 DUP4 CODECOPY DUP2 DUP2 ADD PUSH1 0x40 MSTORE DUP2 ADD SWAP1 PUSH3 0x37 SWAP2 SWAP1 PUSH3 0x40E JUMP JUMPDEST CALLER PUSH1 0x0 PUSH20 0xFFFFFFFFFFFFFFFFFFFFFFFFFFFFFFFFFFFFFFFF AND DUP2 PUSH20 0xFFFFFFFFFFFFFFFFFFFFFFFFFFFFFFFFFFFFFFFF AND SUB PUSH3 0xAD JUMPI PUSH1 0x0 PUSH1 0x40 MLOAD PUSH32 0x1E4FBDF700000000000000000000000000000000000000000000000000000000 DUP2 MSTORE PUSH1 0x4 ADD PUSH3 0xA4 SWAP2 SWAP1 PUSH3 0x451 JUMP JUMPDEST PUSH1 0x40 MLOAD DUP1 SWAP2 SUB SWAP1 REVERT JUMPDEST PUSH3 0xBE DUP2 PUSH3 0x2DD PUSH1 0x20 SHL PUSH1 0x20 SHR JUMP JUMPDEST POP PUSH1 0x1 DUP1 DUP2 SWAP1 SSTORE POP PUSH3 0xE2 PUSH8 0xABFFEF14120C4378 PUSH1 0xC0 SHL PUSH3 0x3A1 PUSH1 0x20 SHL PUSH1 0x20 SHR JUMP JUMPDEST PUSH3 0xFE PUSH8 0x814CE1913A618201 PUSH1 0xC0 SHL PUSH3 0x3A1 PUSH1 0x20 SHL PUSH1 0x20 SHR JUMP JUMPDEST PUSH3 0x11A PUSH8 0xC77D4FA952E73EDA PUSH1 0xC0 SHL PUSH3 0x3A1 PUSH1 0x20 SHL PUSH1 0x20 SHR JUMP JUMPDEST PUSH1 0x0 PUSH20 0xFFFFFFFFFFFFFFFFFFFFFFFFFFFFFFFFFFFFFFFF AND DUP2 PUSH20 0xFFFFFFFFFFFFFFFFFFFFFFFFFFFFFFFFFFFFFFFF AND SUB PUSH3 0x19D JUMPI PUSH3 0x16B PUSH8 0xF5C94861818DE636 PUSH1 0xC0 SHL PUSH3 0x3A1 PUSH1 0x20 SHL PUSH1 0x20 SHR JUMP JUMPDEST PUSH1 0x40 MLOAD PUSH32 0xE6C4247B00000000000000000000000000000000000000000000000000000000 DUP2 MSTORE PUSH1 0x4 ADD PUSH1 0x40 MLOAD DUP1 SWAP2 SUB SWAP1 REVERT JUMPDEST PUSH3 0x1B9 PUSH8 0x8C5CA17C4E045DD PUSH1 0xC0 SHL PUSH3 0x3A1 PUSH1 0x20 SHL PUSH1 0x20 SHR JUMP JUMPDEST PUSH3 0x1D5 PUSH8 0xA66316B7E94C4D46 PUSH1 0xC0 SHL PUSH3 0x3A1 PUSH1 0x20 SHL PUSH1 0x20 SHR JUMP JUMPDEST DUP1 PUSH20 0xFFFFFFFFFFFFFFFFFFFFFFFFFFFFFFFFFFFFFFFF AND PUSH1 0x80 DUP2 PUSH20 0xFFFFFFFFFFFFFFFFFFFFFFFFFFFFFFFFFFFFFFFF AND DUP2 MSTORE POP POP PUSH3 0x225 PUSH8 0xCC9068548FC78534 PUSH1 0xC0 SHL PUSH3 0x3A1 PUSH1 0x20 SHL PUSH1 0x20 SHR JUMP JUMPDEST TIMESTAMP PUSH1 0xA0 DUP2 DUP2 MSTORE POP POP PUSH3 0x249 PUSH8 0x8791C11FB06AEEC1 PUSH1 0xC0 SHL PUSH3 0x3A1 PUSH1 0x20 SHL PUSH1 0x20 SHR JUMP JUMPDEST PUSH4 0x5A39A80 TIMESTAMP PUSH3 0x25B SWAP2 SWAP1 PUSH3 0x4A7 JUMP JUMPDEST PUSH1 0xC0 DUP2 DUP2 MSTORE POP POP PUSH3 0x27E PUSH8 0x87D011814A357EEC PUSH1 0xC0 SHL PUSH3 0x3A1 PUSH1 0x20 SHL PUSH1 0x20 SHR JUMP JUMPDEST PUSH3 0x29A PUSH8 0xFBFA528AE82084D5 PUSH1 0xC0 SHL PUSH3 0x3A1 PUSH1 0x20 SHL PUSH1 0x20 SHR JUMP JUMPDEST PUSH32 0xF705142BF09F04297640495DDF7C59B7FD6F51894C5AEA9602D631CF05F0EFC2 PUSH1 0x0 TIMESTAMP PUSH1 0x40 MLOAD PUSH3 0x2CE SWAP3 SWAP2 SWAP1 PUSH3 0x540 JUMP JUMPDEST PUSH1 0x40 MLOAD DUP1 SWAP2 SUB SWAP1 LOG1 POP PUSH3 0x56D JUMP JUMPDEST PUSH1 0x0 DUP1 PUSH1 0x0 SWAP1 SLOAD SWAP1 PUSH2 0x100 EXP SWAP1 DIV PUSH20 0xFFFFFFFFFFFFFFFFFFFFFFFFFFFFFFFFFFFFFFFF AND SWAP1 POP DUP2 PUSH1 0x0 DUP1 PUSH2 0x100 EXP DUP2 SLOAD DUP2 PUSH20 0xFFFFFFFFFFFFFFFFFFFFFFFFFFFFFFFFFFFFFFFF MUL NOT AND SWAP1 DUP4 PUSH20 0xFFFFFFFFFFFFFFFFFFFFFFFFFFFFFFFFFFFFFFFF AND MUL OR SWAP1 SSTORE POP DUP2 PUSH20 0xFFFFFFFFFFFFFFFFFFFFFFFFFFFFFFFFFFFFFFFF AND DUP2 PUSH20 0xFFFFFFFFFFFFFFFFFFFFFFFFFFFFFFFFFFFFFFFF AND PUSH32 0x8BE0079C531659141344CD1FD0A4F28419497F9722A3DAAFE3B4186F6B6457E0 PUSH1 0x40 MLOAD PUSH1 0x40 MLOAD DUP1 SWAP2 SUB SWAP1 LOG3 POP POP JUMP JUMPDEST POP JUMP JUMPDEST PUSH1 0x0 DUP1 REVERT JUMPDEST PUSH1 0x0 PUSH20 0xFFFFFFFFFFFFFFFFFFFFFFFFFFFFFFFFFFFFFFFF DUP3 AND SWAP1 POP SWAP2 SWAP1 POP JUMP JUMPDEST PUSH1 0x0 PUSH3 0x3D6 DUP3 PUSH3 0x3A9 JUMP JUMPDEST SWAP1 POP SWAP2 SWAP1 POP JUMP JUMPDEST PUSH3 0x3E8 DUP2 PUSH3 0x3C9 JUMP JUMPDEST DUP2 EQ PUSH3 0x3F4 JUMPI PUSH1 0x0 DUP1 REVERT JUMPDEST POP JUMP JUMPDEST PUSH1 0x0 DUP2 MLOAD SWAP1 POP PUSH3 0x408 DUP2 PUSH3 0x3DD JUMP JUMPDEST SWAP3 SWAP2 POP POP JUMP JUMPDEST PUSH1 0x0 PUSH1 0x20 DUP3 DUP5 SUB SLT ISZERO PUSH3 0x427 JUMPI PUSH3 0x426 PUSH3 0x3A4 JUMP JUMPDEST JUMPDEST PUSH1 0x0 PUSH3 0x437 DUP5 DUP3 DUP6 ADD PUSH3 0x3F7 JUMP JUMPDEST SWAP2 POP POP SWAP3 SWAP2 POP POP JUMP JUMPDEST PUSH3 0x44B DUP2 PUSH3 0x3C9 JUMP JUMPDEST DUP3 MSTORE POP POP JUMP JUMPDEST PUSH1 0x0 PUSH1 0x20 DUP3 ADD SWAP1 POP PUSH3 0x468 PUSH1 0x0 DUP4 ADD DUP5 PUSH3 0x440 JUMP JUMPDEST SWAP3 SWAP2 POP POP JUMP JUMPDEST PUSH1 0x0 DUP2 SWAP1 POP SWAP2 SWAP1 POP JUMP JUMPDEST PUSH32 0x4E487B7100000000000000000000000000000000000000000000000000000000 PUSH1 0x0 MSTORE PUSH1 0x11 PUSH1 0x4 MSTORE PUSH1 0x24 PUSH1 0x0 REVERT JUMPDEST PUSH1 0x0 PUSH3 0x4B4 DUP3 PUSH3 0x46E JUMP JUMPDEST SWAP2 POP PUSH3 0x4C1 DUP4 PUSH3 0x46E JUMP JUMPDEST SWAP3 POP DUP3 DUP3 ADD SWAP1 POP DUP1 DUP3 GT ISZERO PUSH3 0x4DC JUMPI PUSH3 0x4DB PUSH3 0x478 JUMP JUMPDEST JUMPDEST SWAP3 SWAP2 POP POP JUMP JUMPDEST PUSH1 0x0 DUP2 SWAP1 POP SWAP2 SWAP1 POP JUMP JUMPDEST PUSH1 0x0 DUP2 SWAP1 POP SWAP2 SWAP1 POP JUMP JUMPDEST PUSH1 0x0 PUSH3 0x517 PUSH3 0x511 PUSH3 0x50B DUP5 PUSH3 0x4E2 JUMP JUMPDEST PUSH3 0x4EC JUMP JUMPDEST PUSH3 0x46E JUMP JUMPDEST SWAP1 POP SWAP2 SWAP1 POP JUMP JUMPDEST PUSH3 0x529 DUP2 PUSH3 0x4F6 JUMP JUMPDEST DUP3 MSTORE POP POP JUMP JUMPDEST PUSH3 0x53A DUP2 PUSH3 0x46E JUMP JUMPDEST DUP3 MSTORE POP POP JUMP JUMPDEST PUSH1 0x0 PUSH1 0x40 DUP3 ADD SWAP1 POP PUSH3 0x557 PUSH1 0x0 DUP4 ADD DUP6 PUSH3 0x51E JUMP JUMPDEST PUSH3 0x566 PUSH1 0x20 DUP4 ADD DUP5 PUSH3 0x52F JUMP JUMPDEST SWAP4 SWAP3 POP POP POP JUMP JUMPDEST PUSH1 0x80 MLOAD PUSH1 0xA0 MLOAD PUSH1 0xC0 MLOAD PUSH2 0x579E PUSH3 0x629 PUSH1 0x0 CODECOPY PUSH1 0x0 DUP2 DUP2 PUSH2 0x716 ADD MSTORE DUP2 DUP2 PUSH2 0x1156 ADD MSTORE DUP2 DUP2 PUSH2 0x11FD ADD MSTORE DUP2 DUP2 PUSH2 0x1364 ADD MSTORE DUP2 DUP2 PUSH2 0x13D8 ADD MSTORE DUP2 DUP2 PUSH2 0x20C6 ADD MSTORE DUP2 DUP2 PUSH2 0x20F6 ADD MSTORE DUP2 DUP2 PUSH2 0x463A ADD MSTORE DUP2 DUP2 PUSH2 0x481B ADD MSTORE PUSH2 0x48B2 ADD MSTORE PUSH1 0x0 DUP2 DUP2 PUSH2 0x105D ADD MSTORE PUSH2 0x11DC ADD MSTORE PUSH1 0x0 DUP2 DUP2 PUSH2 0xE5A ADD MSTORE DUP2 DUP2 PUSH2 0x190B ADD MSTORE DUP2 DUP2 PUSH2 0x21E1 ADD MSTORE DUP2 DUP2 PUSH2 0x2B08 ADD MSTORE DUP2 DUP2 PUSH2 0x2C74 ADD MSTORE DUP2 DUP2 PUSH2 0x2DA3 ADD MSTORE DUP2 DUP2 PUSH2 0x2FA5 ADD MSTORE DUP2 DUP2 PUSH2 0x3172 ADD MSTORE DUP2 DUP2 PUSH2 0x31E0 ADD MSTORE DUP2 DUP2 PUSH2 0x36D0 ADD MSTORE PUSH2 0x3D5D ADD MSTORE PUSH2 0x579E PUSH1 0x0 RETURN INVALID PUSH1 0x80 PUSH1 0x40 MSTORE CALLVALUE DUP1 ISZERO PUSH2 0x10 JUMPI PUSH1 0x0 DUP1 REVERT JUMPDEST POP PUSH1 0x4 CALLDATASIZE LT PUSH2 0x23D JUMPI PUSH1 0x0 CALLDATALOAD PUSH1 0xE0 SHR DUP1 PUSH4 0x766F968E GT PUSH2 0x13B JUMPI DUP1 PUSH4 0xC8692E3F GT PUSH2 0xB8 JUMPI DUP1 PUSH4 0xE12F3A61 GT PUSH2 0x7C JUMPI DUP1 PUSH4 0xE12F3A61 EQ PUSH2 0x612 JUMPI DUP1 PUSH4 0xE1F1C4A7 EQ PUSH2 0x642 JUMPI DUP1 PUSH4 0xE70B11DF EQ PUSH2 0x660 JUMPI DUP1 PUSH4 0xF2FDE38B EQ PUSH2 0x67C JUMPI DUP1 PUSH4 0xFCB9B505 EQ PUSH2 0x698 JUMPI PUSH2 0x23D JUMP JUMPDEST DUP1 PUSH4 0xC8692E3F EQ PUSH2 0x58C JUMPI DUP1 PUSH4 0xCC1B7EE5 EQ PUSH2 0x5B0 JUMPI DUP1 PUSH4 0xD54AD2A1 EQ PUSH2 0x5CE JUMPI DUP1 PUSH4 0xDB2E21BC EQ PUSH2 0x5EC JUMPI DUP1 PUSH4 0xDDEAE033 EQ PUSH2 0x5F6 JUMPI PUSH2 0x23D JUMP JUMPDEST DUP1 PUSH4 0x99AABF53 GT PUSH2 0xFF JUMPI DUP1 PUSH4 0x99AABF53 EQ PUSH2 0x4E6 JUMPI DUP1 PUSH4 0x9D19B226 EQ PUSH2 0x504 JUMPI DUP1 PUSH4 0x9E761BBB EQ PUSH2 0x534 JUMPI DUP1 PUSH4 0xA5CA2AFA EQ PUSH2 0x564 JUMPI DUP1 PUSH4 0xB9C18685 EQ PUSH2 0x582 JUMPI PUSH2 0x23D JUMP JUMPDEST DUP1 PUSH4 0x766F968E EQ PUSH2 0x461 JUMPI DUP1 PUSH4 0x7CC1F867 EQ PUSH2 0x47F JUMPI DUP1 PUSH4 0x8456CB59 EQ PUSH2 0x4A2 JUMPI DUP1 PUSH4 0x8DA5CB5B EQ PUSH2 0x4AC JUMPI DUP1 PUSH4 0x96074E70 EQ PUSH2 0x4CA JUMPI PUSH2 0x23D JUMP JUMPDEST DUP1 PUSH4 0x3A05F0D8 GT PUSH2 0x1C9 JUMPI DUP1 PUSH4 0x48C54B9D GT PUSH2 0x18D JUMPI DUP1 PUSH4 0x48C54B9D EQ PUSH2 0x3F5 JUMPI DUP1 PUSH4 0x5926A9E5 EQ PUSH2 0x3FF JUMPI DUP1 PUSH4 0x59633A1C EQ PUSH2 0x41D JUMPI DUP1 PUSH4 0x5C975ABB EQ PUSH2 0x439 JUMPI DUP1 PUSH4 0x715018A6 EQ PUSH2 0x457 JUMPI PUSH2 0x23D JUMP JUMPDEST DUP1 PUSH4 0x3A05F0D8 EQ PUSH2 0x36E JUMPI DUP1 PUSH4 0x3BC8BCE0 EQ PUSH2 0x391 JUMPI DUP1 PUSH4 0x3F4BA83A EQ PUSH2 0x3AF JUMPI DUP1 PUSH4 0x45F7F249 EQ PUSH2 0x3B9 JUMPI DUP1 PUSH4 0x485D3834 EQ PUSH2 0x3D7 JUMPI PUSH2 0x23D JUMP JUMPDEST DUP1 PUSH4 0x2F14BAE8 GT PUSH2 0x210 JUMPI DUP1 PUSH4 0x2F14BAE8 EQ PUSH2 0x2BC JUMPI DUP1 PUSH4 0x2FE319DA EQ PUSH2 0x2DD JUMPI DUP1 PUSH4 0x306E6A1D EQ PUSH2 0x2FB JUMPI DUP1 PUSH4 0x366DC083 EQ PUSH2 0x319 JUMPI DUP1 PUSH4 0x388EA310 EQ PUSH2 0x350 JUMPI PUSH2 0x23D JUMP JUMPDEST DUP1 PUSH4 0x1567739 EQ PUSH2 0x242 JUMPI DUP1 PUSH4 0xDAC7BEA EQ PUSH2 0x276 JUMPI DUP1 PUSH4 0x1DB0AD5A EQ PUSH2 0x294 JUMPI DUP1 PUSH4 0x25E2FBEF EQ PUSH2 0x2B2 JUMPI JUMPDEST PUSH1 0x0 DUP1 REVERT JUMPDEST PUSH2 0x25C PUSH1 0x4 DUP1 CALLDATASIZE SUB DUP2 ADD SWAP1 PUSH2 0x257 SWAP2 SWAP1 PUSH2 0x4E17 JUMP JUMPDEST PUSH2 0x6B4 JUMP JUMPDEST PUSH1 0x40 MLOAD PUSH2 0x26D SWAP6 SWAP5 SWAP4 SWAP3 SWAP2 SWAP1 PUSH2 0x4E78 JUMP JUMPDEST PUSH1 0x40 MLOAD DUP1 SWAP2 SUB SWAP1 RETURN JUMPDEST PUSH2 0x27E PUSH2 0x704 JUMP JUMPDEST PUSH1 0x40 MLOAD PUSH2 0x28B SWAP2 SWAP1 PUSH2 0x4ECB JUMP JUMPDEST PUSH1 0x40 MLOAD DUP1 SWAP2 SUB SWAP1 RETURN JUMPDEST PUSH2 0x29C PUSH2 0x714 JUMP JUMPDEST PUSH1 0x40 MLOAD PUSH2 0x2A9 SWAP2 SWAP1 PUSH2 0x4ECB JUMP JUMPDEST PUSH1 0x40 MLOAD DUP1 SWAP2 SUB SWAP1 RETURN JUMPDEST PUSH2 0x2BA PUSH2 0x738 JUMP JUMPDEST STOP JUMPDEST PUSH2 0x2C4 PUSH2 0x9C5 JUMP JUMPDEST PUSH1 0x40 MLOAD PUSH2 0x2D4 SWAP5 SWAP4 SWAP3 SWAP2 SWAP1 PUSH2 0x5120 JUMP JUMPDEST PUSH1 0x40 MLOAD DUP1 SWAP2 SUB SWAP1 RETURN JUMPDEST PUSH2 0x2E5 PUSH2 0xE58 JUMP JUMPDEST PUSH1 0x40 MLOAD PUSH2 0x2F2 SWAP2 SWAP1 PUSH2 0x51E0 JUMP JUMPDEST PUSH1 0x40 MLOAD DUP1 SWAP2 SUB SWAP1 RETURN JUMPDEST PUSH2 0x303 PUSH2 0xE7C JUMP JUMPDEST PUSH1 0x40 MLOAD PUSH2 0x310 SWAP2 SWAP1 PUSH2 0x51FB JUMP JUMPDEST PUSH1 0x40 MLOAD DUP1 SWAP2 SUB SWAP1 RETURN JUMPDEST PUSH2 0x333 PUSH1 0x4 DUP1 CALLDATASIZE SUB DUP2 ADD SWAP1 PUSH2 0x32E SWAP2 SWAP1 PUSH2 0x4E17 JUMP JUMPDEST PUSH2 0xE8F JUMP JUMPDEST PUSH1 0x40 MLOAD PUSH2 0x347 SWAP9 SWAP8 SWAP7 SWAP6 SWAP5 SWAP4 SWAP3 SWAP2 SWAP1 PUSH2 0x5216 JUMP JUMPDEST PUSH1 0x40 MLOAD DUP1 SWAP2 SUB SWAP1 RETURN JUMPDEST PUSH2 0x358 PUSH2 0x105B JUMP JUMPDEST PUSH1 0x40 MLOAD PUSH2 0x365 SWAP2 SWAP1 PUSH2 0x4ECB JUMP JUMPDEST PUSH1 0x40 MLOAD DUP1 SWAP2 SUB SWAP1 RETURN JUMPDEST PUSH2 0x376 PUSH2 0x107F JUMP JUMPDEST PUSH1 0x40 MLOAD PUSH2 0x388 SWAP7 SWAP6 SWAP5 SWAP4 SWAP3 SWAP2 SWAP1 PUSH2 0x5294 JUMP JUMPDEST PUSH1 0x40 MLOAD DUP1 SWAP2 SUB SWAP1 RETURN JUMPDEST PUSH2 0x399 PUSH2 0x124A JUMP JUMPDEST PUSH1 0x40 MLOAD PUSH2 0x3A6 SWAP2 SWAP1 PUSH2 0x4ECB JUMP JUMPDEST PUSH1 0x40 MLOAD DUP1 SWAP2 SUB SWAP1 RETURN JUMPDEST PUSH2 0x3B7 PUSH2 0x1408 JUMP JUMPDEST STOP JUMPDEST PUSH2 0x3C1 PUSH2 0x147E JUMP JUMPDEST PUSH1 0x40 MLOAD PUSH2 0x3CE SWAP2 SWAP1 PUSH2 0x4ECB JUMP JUMPDEST PUSH1 0x40 MLOAD DUP1 SWAP2 SUB SWAP1 RETURN JUMPDEST PUSH2 0x3DF PUSH2 0x1484 JUMP JUMPDEST PUSH1 0x40 MLOAD PUSH2 0x3EC SWAP2 SWAP1 PUSH2 0x4ECB JUMP JUMPDEST PUSH1 0x40 MLOAD DUP1 SWAP2 SUB SWAP1 RETURN JUMPDEST PUSH2 0x3FD PUSH2 0x148C JUMP JUMPDEST STOP JUMPDEST PUSH2 0x407 PUSH2 0x19D4 JUMP JUMPDEST PUSH1 0x40 MLOAD PUSH2 0x414 SWAP2 SWAP1 PUSH2 0x51FB JUMP JUMPDEST PUSH1 0x40 MLOAD DUP1 SWAP2 SUB SWAP1 RETURN JUMPDEST PUSH2 0x437 PUSH1 0x4 DUP1 CALLDATASIZE SUB DUP2 ADD SWAP1 PUSH2 0x432 SWAP2 SWAP1 PUSH2 0x4E17 JUMP JUMPDEST PUSH2 0x19E7 JUMP JUMPDEST STOP JUMPDEST PUSH2 0x441 PUSH2 0x1F62 JUMP JUMPDEST PUSH1 0x40 MLOAD PUSH2 0x44E SWAP2 SWAP1 PUSH2 0x51FB JUMP JUMPDEST PUSH1 0x40 MLOAD DUP1 SWAP2 SUB SWAP1 RETURN JUMPDEST PUSH2 0x45F PUSH2 0x1F79 JUMP JUMPDEST STOP JUMPDEST PUSH2 0x469 PUSH2 0x1F8D JUMP JUMPDEST PUSH1 0x40 MLOAD PUSH2 0x476 SWAP2 SWAP1 PUSH2 0x4ECB JUMP JUMPDEST PUSH1 0x40 MLOAD DUP1 SWAP2 SUB SWAP1 RETURN JUMPDEST PUSH2 0x487 PUSH2 0x219A JUMP JUMPDEST PUSH1 0x40 MLOAD PUSH2 0x499 SWAP7 SWAP6 SWAP5 SWAP4 SWAP3 SWAP2 SWAP1 PUSH2 0x530B JUMP JUMPDEST PUSH1 0x40 MLOAD DUP1 SWAP2 SUB SWAP1 RETURN JUMPDEST PUSH2 0x4AA PUSH2 0x222F JUMP JUMPDEST STOP JUMPDEST PUSH2 0x4B4 PUSH2 0x22A5 JUMP JUMPDEST PUSH1 0x40 MLOAD PUSH2 0x4C1 SWAP2 SWAP1 PUSH2 0x536C JUMP JUMPDEST PUSH1 0x40 MLOAD DUP1 SWAP2 SUB SWAP1 RETURN JUMPDEST PUSH2 0x4E4 PUSH1 0x4 DUP1 CALLDATASIZE SUB DUP2 ADD SWAP1 PUSH2 0x4DF SWAP2 SWAP1 PUSH2 0x53B3 JUMP JUMPDEST PUSH2 0x22CE JUMP JUMPDEST STOP JUMPDEST PUSH2 0x4EE PUSH2 0x2921 JUMP JUMPDEST PUSH1 0x40 MLOAD PUSH2 0x4FB SWAP2 SWAP1 PUSH2 0x4ECB JUMP JUMPDEST PUSH1 0x40 MLOAD DUP1 SWAP2 SUB SWAP1 RETURN JUMPDEST PUSH2 0x51E PUSH1 0x4 DUP1 CALLDATASIZE SUB DUP2 ADD SWAP1 PUSH2 0x519 SWAP2 SWAP1 PUSH2 0x4E17 JUMP JUMPDEST PUSH2 0x2926 JUMP JUMPDEST PUSH1 0x40 MLOAD PUSH2 0x52B SWAP2 SWAP1 PUSH2 0x51FB JUMP JUMPDEST PUSH1 0x40 MLOAD DUP1 SWAP2 SUB SWAP1 RETURN JUMPDEST PUSH2 0x54E PUSH1 0x4 DUP1 CALLDATASIZE SUB DUP2 ADD SWAP1 PUSH2 0x549 SWAP2 SWAP1 PUSH2 0x53F3 JUMP JUMPDEST PUSH2 0x29BB JUMP JUMPDEST PUSH1 0x40 MLOAD PUSH2 0x55B SWAP2 SWAP1 PUSH2 0x536C JUMP JUMPDEST PUSH1 0x40 MLOAD DUP1 SWAP2 SUB SWAP1 RETURN JUMPDEST PUSH2 0x56C PUSH2 0x29FA JUMP JUMPDEST PUSH1 0x40 MLOAD PUSH2 0x579 SWAP2 SWAP1 PUSH2 0x4ECB JUMP JUMPDEST PUSH1 0x40 MLOAD DUP1 SWAP2 SUB SWAP1 RETURN JUMPDEST PUSH2 0x58A PUSH2 0x2A01 JUMP JUMPDEST STOP JUMPDEST PUSH2 0x594 PUSH2 0x2D58 JUMP JUMPDEST PUSH1 0x40 MLOAD PUSH2 0x5A7 SWAP8 SWAP7 SWAP6 SWAP5 SWAP4 SWAP3 SWAP2 SWAP1 PUSH2 0x5420 JUMP JUMPDEST PUSH1 0x40 MLOAD DUP1 SWAP2 SUB SWAP1 RETURN JUMPDEST PUSH2 0x5B8 PUSH2 0x2F29 JUMP JUMPDEST PUSH1 0x40 MLOAD PUSH2 0x5C5 SWAP2 SWAP1 PUSH2 0x4ECB JUMP JUMPDEST PUSH1 0x40 MLOAD DUP1 SWAP2 SUB SWAP1 RETURN JUMPDEST PUSH2 0x5D6 PUSH2 0x2F2F JUMP JUMPDEST PUSH1 0x40 MLOAD PUSH2 0x5E3 SWAP2 SWAP1 PUSH2 0x4ECB JUMP JUMPDEST PUSH1 0x40 MLOAD DUP1 SWAP2 SUB SWAP1 RETURN JUMPDEST PUSH2 0x5F4 PUSH2 0x2F35 JUMP JUMPDEST STOP JUMPDEST PUSH2 0x610 PUSH1 0x4 DUP1 CALLDATASIZE SUB DUP2 ADD SWAP1 PUSH2 0x60B SWAP2 SWAP1 PUSH2 0x4E17 JUMP JUMPDEST PUSH2 0x3251 JUMP JUMPDEST STOP JUMPDEST PUSH2 0x62C PUSH1 0x4 DUP1 CALLDATASIZE SUB DUP2 ADD SWAP1 PUSH2 0x627 SWAP2 SWAP1 PUSH2 0x4E17 JUMP JUMPDEST PUSH2 0x379A JUMP JUMPDEST PUSH1 0x40 MLOAD PUSH2 0x639 SWAP2 SWAP1 PUSH2 0x4ECB JUMP JUMPDEST PUSH1 0x40 MLOAD DUP1 SWAP2 SUB SWAP1 RETURN JUMPDEST PUSH2 0x64A PUSH2 0x39F8 JUMP JUMPDEST PUSH1 0x40 MLOAD PUSH2 0x657 SWAP2 SWAP1 PUSH2 0x4ECB JUMP JUMPDEST PUSH1 0x40 MLOAD DUP1 SWAP2 SUB SWAP1 RETURN JUMPDEST PUSH2 0x67A PUSH1 0x4 DUP1 CALLDATASIZE SUB DUP2 ADD SWAP1 PUSH2 0x675 SWAP2 SWAP1 PUSH2 0x4E17 JUMP JUMPDEST PUSH2 0x39FE JUMP JUMPDEST STOP JUMPDEST PUSH2 0x696 PUSH1 0x4 DUP1 CALLDATASIZE SUB DUP2 ADD SWAP1 PUSH2 0x691 SWAP2 SWAP1 PUSH2 0x4E17 JUMP JUMPDEST PUSH2 0x3F28 JUMP JUMPDEST STOP JUMPDEST PUSH2 0x6B2 PUSH1 0x4 DUP1 CALLDATASIZE SUB DUP2 ADD SWAP1 PUSH2 0x6AD SWAP2 SWAP1 PUSH2 0x53B3 JUMP JUMPDEST PUSH2 0x3FAE JUMP JUMPDEST STOP JUMPDEST PUSH1 0x3 PUSH1 0x20 MSTORE DUP1 PUSH1 0x0 MSTORE PUSH1 0x40 PUSH1 0x0 KECCAK256 PUSH1 0x0 SWAP2 POP SWAP1 POP DUP1 PUSH1 0x0 ADD SLOAD SWAP1 DUP1 PUSH1 0x1 ADD SLOAD SWAP1 DUP1 PUSH1 0x2 ADD SLOAD SWAP1 DUP1 PUSH1 0x3 ADD PUSH1 0x0 SWAP1 SLOAD SWAP1 PUSH2 0x100 EXP SWAP1 DIV PUSH1 0xFF AND SWAP1 DUP1 PUSH1 0x3 ADD PUSH1 0x1 SWAP1 SLOAD SWAP1 PUSH2 0x100 EXP SWAP1 DIV PUSH1 0xFF AND SWAP1 POP DUP6 JUMP JUMPDEST PUSH12 0x33B2E3C9FD0803CE8000000 DUP2 JUMP JUMPDEST PUSH32 0x0 DUP2 JUMP JUMPDEST PUSH2 0x74C PUSH8 0xB2967E9B3B94542A PUSH1 0xC0 SHL PUSH2 0x43E9 JUMP JUMPDEST PUSH2 0x754 PUSH2 0x43EC JUMP JUMPDEST PUSH2 0x768 PUSH8 0xE19CB0DCDCE5397 PUSH1 0xC0 SHL PUSH2 0x43E9 JUMP JUMPDEST PUSH2 0x77C PUSH8 0xB5D9C165317F549F PUSH1 0xC0 SHL PUSH2 0x43E9 JUMP JUMPDEST PUSH2 0x790 PUSH8 0xCB59F5B5C7A66766 PUSH1 0xC0 SHL PUSH2 0x43E9 JUMP JUMPDEST PUSH2 0x7A4 PUSH8 0xEC443F2F0B7DB88F PUSH1 0xC0 SHL PUSH2 0x43E9 JUMP JUMPDEST PUSH1 0x7 PUSH1 0x0 SWAP1 SLOAD SWAP1 PUSH2 0x100 EXP SWAP1 DIV PUSH1 0xFF AND ISZERO PUSH2 0x7FF JUMPI PUSH2 0x7CD PUSH8 0xD4A7AB0B576ED4C9 PUSH1 0xC0 SHL PUSH2 0x43E9 JUMP JUMPDEST PUSH1 0x40 MLOAD PUSH32 0x3BCD404900000000000000000000000000000000000000000000000000000000 DUP2 MSTORE PUSH1 0x4 ADD PUSH1 0x40 MLOAD DUP1 SWAP2 SUB SWAP1 REVERT JUMPDEST PUSH2 0x813 PUSH8 0xFA9EF02B23D965B9 PUSH1 0xC0 SHL PUSH2 0x43E9 JUMP JUMPDEST PUSH2 0x827 PUSH8 0xBB374BC0FCB28E8D PUSH1 0xC0 SHL PUSH2 0x43E9 JUMP JUMPDEST PUSH2 0x83B PUSH8 0x46C1F0CC989D7F57 PUSH1 0xC0 SHL PUSH2 0x43E9 JUMP JUMPDEST PUSH1 0x7 PUSH1 0x1 SWAP1 SLOAD SWAP1 PUSH2 0x100 EXP SWAP1 DIV PUSH1 0xFF AND PUSH2 0x895 JUMPI PUSH2 0x863 PUSH8 0x76B455DFD3F3E365 PUSH1 0xC0 SHL PUSH2 0x43E9 JUMP JUMPDEST PUSH1 0x40 MLOAD PUSH32 0x8896BE0700000000000000000000000000000000000000000000000000000000 DUP2 MSTORE PUSH1 0x4 ADD PUSH1 0x40 MLOAD DUP1 SWAP2 SUB SWAP1 REVERT JUMPDEST PUSH2 0x8A9 PUSH8 0xD404F737B091B1D4 PUSH1 0xC0 SHL PUSH2 0x43E9 JUMP JUMPDEST PUSH2 0x8BD PUSH8 0x85C4BA896066F0B PUSH1 0xC0 SHL PUSH2 0x43E9 JUMP JUMPDEST PUSH2 0x8D1 PUSH8 0xBFC6D5904BE7EC7B PUSH1 0xC0 SHL PUSH2 0x43E9 JUMP JUMPDEST PUSH1 0x0 PUSH1 0x5 SLOAD SUB PUSH2 0x921 JUMPI PUSH2 0x8EF PUSH8 0xA7A4ED72571EC28F PUSH1 0xC0 SHL PUSH2 0x43E9 JUMP JUMPDEST PUSH1 0x40 MLOAD PUSH32 0x2C5211C600000000000000000000000000000000000000000000000000000000 DUP2 MSTORE PUSH1 0x4 ADD PUSH1 0x40 MLOAD DUP1 SWAP2 SUB SWAP1 REVERT JUMPDEST PUSH2 0x935 PUSH8 0xFAF1F13B175F432 PUSH1 0xC0 SHL PUSH2 0x43E9 JUMP JUMPDEST PUSH2 0x949 PUSH8 0x335CABD1D28E2143 PUSH1 0xC0 SHL PUSH2 0x43E9 JUMP JUMPDEST PUSH1 0x1 PUSH1 0x7 PUSH1 0x0 PUSH2 0x100 EXP DUP2 SLOAD DUP2 PUSH1 0xFF MUL NOT AND SWAP1 DUP4 ISZERO ISZERO MUL OR SWAP1 SSTORE POP PUSH2 0x978 PUSH8 0x3873835F38F0DB3A PUSH1 0xC0 SHL PUSH2 0x43E9 JUMP JUMPDEST PUSH2 0x98C PUSH8 0x405EEDCFF035DCAE PUSH1 0xC0 SHL PUSH2 0x43E9 JUMP JUMPDEST PUSH32 0x50502E52AA6CA293C321541049509F7CDC9BC3FEE99F3D02331196F7DA8EF71F TIMESTAMP PUSH1 0x40 MLOAD PUSH2 0x9BB SWAP2 SWAP1 PUSH2 0x4ECB JUMP JUMPDEST PUSH1 0x40 MLOAD DUP1 SWAP2 SUB SWAP1 LOG1 JUMP JUMPDEST PUSH1 0x60 DUP1 PUSH1 0x60 DUP1 PUSH2 0x9DF PUSH8 0x4B20F523BEFBF113 PUSH1 0xC0 SHL PUSH2 0x43E9 JUMP JUMPDEST PUSH2 0x9F3 PUSH8 0xE756DB74837429C7 PUSH1 0xC0 SHL PUSH2 0x43E9 JUMP JUMPDEST PUSH2 0xA07 PUSH8 0x3664A092FA9F4A0 PUSH1 0xC0 SHL PUSH2 0x43E9 JUMP JUMPDEST PUSH1 0x0 PUSH1 0x4 DUP1 SLOAD SWAP1 POP SWAP1 POP PUSH2 0xA25 PUSH8 0x4E67732182155B79 PUSH1 0xC0 SHL PUSH2 0x43E9 JUMP JUMPDEST DUP1 PUSH8 0xFFFFFFFFFFFFFFFF DUP2 GT ISZERO PUSH2 0xA3F JUMPI PUSH2 0xA3E PUSH2 0x548F JUMP JUMPDEST JUMPDEST PUSH1 0x40 MLOAD SWAP1 DUP1 DUP3 MSTORE DUP1 PUSH1 0x20 MUL PUSH1 0x20 ADD DUP3 ADD PUSH1 0x40 MSTORE DUP1 ISZERO PUSH2 0xA6D JUMPI DUP2 PUSH1 0x20 ADD PUSH1 0x20 DUP3 MUL DUP1 CALLDATASIZE DUP4 CALLDATACOPY DUP1 DUP3 ADD SWAP2 POP POP SWAP1 POP JUMPDEST POP SWAP5 POP PUSH2 0xA84 PUSH8 0x6079B119E51A5E4B PUSH1 0xC0 SHL PUSH2 0x43E9 JUMP JUMPDEST DUP1 PUSH8 0xFFFFFFFFFFFFFFFF DUP2 GT ISZERO PUSH2 0xA9E JUMPI PUSH2 0xA9D PUSH2 0x548F JUMP JUMPDEST JUMPDEST PUSH1 0x40 MLOAD SWAP1 DUP1 DUP3 MSTORE DUP1 PUSH1 0x20 MUL PUSH1 0x20 ADD DUP3 ADD PUSH1 0x40 MSTORE DUP1 ISZERO PUSH2 0xACC JUMPI DUP2 PUSH1 0x20 ADD PUSH1 0x20 DUP3 MUL DUP1 CALLDATASIZE DUP4 CALLDATACOPY DUP1 DUP3 ADD SWAP2 POP POP SWAP1 POP JUMPDEST POP SWAP4 POP PUSH2 0xAE3 PUSH8 0xDB35B35224BB25E3 PUSH1 0xC0 SHL PUSH2 0x43E9 JUMP JUMPDEST DUP1 PUSH8 0xFFFFFFFFFFFFFFFF DUP2 GT ISZERO PUSH2 0xAFD JUMPI PUSH2 0xAFC PUSH2 0x548F JUMP JUMPDEST JUMPDEST PUSH1 0x40 MLOAD SWAP1 DUP1 DUP3 MSTORE DUP1 PUSH1 0x20 MUL PUSH1 0x20 ADD DUP3 ADD PUSH1 0x40 MSTORE DUP1 ISZERO PUSH2 0xB2B JUMPI DUP2 PUSH1 0x20 ADD PUSH1 0x20 DUP3 MUL DUP1 CALLDATASIZE DUP4 CALLDATACOPY DUP1 DUP3 ADD SWAP2 POP POP SWAP1 POP JUMPDEST POP SWAP3 POP PUSH2 0xB42 PUSH8 0xD525D8F6312A7605 PUSH1 0xC0 SHL PUSH2 0x43E9 JUMP JUMPDEST DUP1 PUSH8 0xFFFFFFFFFFFFFFFF DUP2 GT ISZERO PUSH2 0xB5C JUMPI PUSH2 0xB5B PUSH2 0x548F JUMP JUMPDEST JUMPDEST PUSH1 0x40 MLOAD SWAP1 DUP1 DUP3 MSTORE DUP1 PUSH1 0x20 MUL PUSH1 0x20 ADD DUP3 ADD PUSH1 0x40 MSTORE DUP1 ISZERO PUSH2 0xB8A JUMPI DUP2 PUSH1 0x20 ADD PUSH1 0x20 DUP3 MUL DUP1 CALLDATASIZE DUP4 CALLDATACOPY DUP1 DUP3 ADD SWAP2 POP POP SWAP1 POP JUMPDEST POP SWAP2 POP PUSH2 0xBA1 PUSH8 0xC42D36057D8C26BA PUSH1 0xC0 SHL PUSH2 0x43E9 JUMP JUMPDEST PUSH2 0xBB5 PUSH8 0xA50B0857E57D5B78 PUSH1 0xC0 SHL PUSH2 0x43E9 JUMP JUMPDEST PUSH1 0x0 JUMPDEST DUP2 DUP2 LT ISZERO PUSH2 0xE28 JUMPI PUSH2 0xBD4 PUSH8 0x2AED1483193D8F00 PUSH1 0xC0 SHL PUSH2 0x43E9 JUMP JUMPDEST PUSH2 0xBE8 PUSH8 0x19894D22A5AC6E06 PUSH1 0xC0 SHL PUSH2 0x43E9 JUMP JUMPDEST PUSH1 0x0 PUSH1 0x4 DUP3 DUP2 SLOAD DUP2 LT PUSH2 0xBFE JUMPI PUSH2 0xBFD PUSH2 0x54BE JUMP JUMPDEST JUMPDEST SWAP1 PUSH1 0x0 MSTORE PUSH1 0x20 PUSH1 0x0 KECCAK256 ADD PUSH1 0x0 SWAP1 SLOAD SWAP1 PUSH2 0x100 EXP SWAP1 DIV PUSH20 0xFFFFFFFFFFFFFFFFFFFFFFFFFFFFFFFFFFFFFFFF AND SWAP1 POP PUSH2 0xC3F PUSH8 0xE67119ED1F1E9BF4 PUSH1 0xC0 SHL PUSH2 0x43E9 JUMP JUMPDEST PUSH2 0xC53 PUSH8 0xBDCC151195C40AF1 PUSH1 0xC0 SHL PUSH2 0x43E9 JUMP JUMPDEST PUSH1 0x0 PUSH1 0x3 PUSH1 0x0 DUP4 PUSH20 0xFFFFFFFFFFFFFFFFFFFFFFFFFFFFFFFFFFFFFFFF AND PUSH20 0xFFFFFFFFFFFFFFFFFFFFFFFFFFFFFFFFFFFFFFFF AND DUP2 MSTORE PUSH1 0x20 ADD SWAP1 DUP2 MSTORE PUSH1 0x20 ADD PUSH1 0x0 KECCAK256 PUSH1 0x40 MLOAD DUP1 PUSH1 0xA0 ADD PUSH1 0x40 MSTORE SWAP1 DUP2 PUSH1 0x0 DUP3 ADD SLOAD DUP2 MSTORE PUSH1 0x20 ADD PUSH1 0x1 DUP3 ADD SLOAD DUP2 MSTORE PUSH1 0x20 ADD PUSH1 0x2 DUP3 ADD SLOAD DUP2 MSTORE PUSH1 0x20 ADD PUSH1 0x3 DUP3 ADD PUSH1 0x0 SWAP1 SLOAD SWAP1 PUSH2 0x100 EXP SWAP1 DIV PUSH1 0xFF AND ISZERO ISZERO ISZERO ISZERO DUP2 MSTORE PUSH1 0x20 ADD PUSH1 0x3 DUP3 ADD PUSH1 0x1 SWAP1 SLOAD SWAP1 PUSH2 0x100 EXP SWAP1 DIV PUSH1 0xFF AND ISZERO ISZERO ISZERO ISZERO DUP2 MSTORE POP POP SWAP1 POP PUSH2 0xD09 PUSH8 0x4EF630D10FED7607 PUSH1 0xC0 SHL PUSH2 0x43E9 JUMP JUMPDEST DUP2 DUP9 DUP5 DUP2 MLOAD DUP2 LT PUSH2 0xD1D JUMPI PUSH2 0xD1C PUSH2 0x54BE JUMP JUMPDEST JUMPDEST PUSH1 0x20 MUL PUSH1 0x20 ADD ADD SWAP1 PUSH20 0xFFFFFFFFFFFFFFFFFFFFFFFFFFFFFFFFFFFFFFFF AND SWAP1 DUP2 PUSH20 0xFFFFFFFFFFFFFFFFFFFFFFFFFFFFFFFFFFFFFFFF AND DUP2 MSTORE POP POP PUSH2 0xD6B PUSH8 0x726832439E699D09 PUSH1 0xC0 SHL PUSH2 0x43E9 JUMP JUMPDEST DUP1 PUSH1 0x0 ADD MLOAD DUP8 DUP5 DUP2 MLOAD DUP2 LT PUSH2 0xD83 JUMPI PUSH2 0xD82 PUSH2 0x54BE JUMP JUMPDEST JUMPDEST PUSH1 0x20 MUL PUSH1 0x20 ADD ADD DUP2 DUP2 MSTORE POP POP PUSH2 0xDA3 PUSH8 0xA0F305E73F45B9C3 PUSH1 0xC0 SHL PUSH2 0x43E9 JUMP JUMPDEST DUP1 PUSH1 0x20 ADD MLOAD DUP7 DUP5 DUP2 MLOAD DUP2 LT PUSH2 0xDBB JUMPI PUSH2 0xDBA PUSH2 0x54BE JUMP JUMPDEST JUMPDEST PUSH1 0x20 MUL PUSH1 0x20 ADD ADD DUP2 DUP2 MSTORE POP POP PUSH2 0xDDB PUSH8 0x27EB2583AD4616A PUSH1 0xC0 SHL PUSH2 0x43E9 JUMP JUMPDEST DUP1 PUSH1 0x60 ADD MLOAD DUP1 ISZERO PUSH2 0xDEE JUMPI POP DUP1 PUSH1 0x80 ADD MLOAD ISZERO JUMPDEST DUP6 DUP5 DUP2 MLOAD DUP2 LT PUSH2 0xE01 JUMPI PUSH2 0xE00 PUSH2 0x54BE JUMP JUMPDEST JUMPDEST PUSH1 0x20 MUL PUSH1 0x20 ADD ADD SWAP1 ISZERO ISZERO SWAP1 DUP2 ISZERO ISZERO DUP2 MSTORE POP POP POP POP DUP1 DUP1 PUSH2 0xE20 SWAP1 PUSH2 0x551C JUMP JUMPDEST SWAP2 POP POP PUSH2 0xBB8 JUMP JUMPDEST POP PUSH2 0xE3D PUSH8 0x4C84222CF0194196 PUSH1 0xC0 SHL PUSH2 0x43E9 JUMP JUMPDEST PUSH2 0xE51 PUSH8 0x93EE1B93CC2E2A1 PUSH1 0xC0 SHL PUSH2 0x43E9 JUMP JUMPDEST POP SWAP1 SWAP2 SWAP3 SWAP4 JUMP JUMPDEST PUSH32 0x0 DUP2 JUMP JUMPDEST PUSH1 0x7 PUSH1 0x0 SWAP1 SLOAD SWAP1 PUSH2 0x100 EXP SWAP1 DIV PUSH1 0xFF AND DUP2 JUMP JUMPDEST PUSH1 0x0 DUP1 PUSH1 0x0 DUP1 PUSH1 0x0 DUP1 PUSH1 0x0 DUP1 PUSH2 0xEAF PUSH8 0xCA11F42A9D0D6879 PUSH1 0xC0 SHL PUSH2 0x43E9 JUMP JUMPDEST PUSH2 0xEC3 PUSH8 0x5D13D56B3B221209 PUSH1 0xC0 SHL PUSH2 0x43E9 JUMP JUMPDEST PUSH2 0xED7 PUSH8 0x6FC64105F386612F PUSH1 0xC0 SHL PUSH2 0x43E9 JUMP JUMPDEST PUSH1 0x0 PUSH1 0x3 PUSH1 0x0 DUP12 PUSH20 0xFFFFFFFFFFFFFFFFFFFFFFFFFFFFFFFFFFFFFFFF AND PUSH20 0xFFFFFFFFFFFFFFFFFFFFFFFFFFFFFFFFFFFFFFFF AND DUP2 MSTORE PUSH1 0x20 ADD SWAP1 DUP2 MSTORE PUSH1 0x20 ADD PUSH1 0x0 KECCAK256 PUSH1 0x40 MLOAD DUP1 PUSH1 0xA0 ADD PUSH1 0x40 MSTORE SWAP1 DUP2 PUSH1 0x0 DUP3 ADD SLOAD DUP2 MSTORE PUSH1 0x20 ADD PUSH1 0x1 DUP3 ADD SLOAD DUP2 MSTORE PUSH1 0x20 ADD PUSH1 0x2 DUP3 ADD SLOAD DUP2 MSTORE PUSH1 0x20 ADD PUSH1 0x3 DUP3 ADD PUSH1 0x0 SWAP1 SLOAD SWAP1 PUSH2 0x100 EXP SWAP1 DIV PUSH1 0xFF AND ISZERO ISZERO ISZERO ISZERO DUP2 MSTORE PUSH1 0x20 ADD PUSH1 0x3 DUP3 ADD PUSH1 0x1 SWAP1 SLOAD SWAP1 PUSH2 0x100 EXP SWAP1 DIV PUSH1 0xFF AND ISZERO ISZERO ISZERO ISZERO DUP2 MSTORE POP POP SWAP1 POP PUSH2 0xF8D PUSH8 0x88C4A2A1575071BD PUSH1 0xC0 SHL PUSH2 0x43E9 JUMP JUMPDEST PUSH2 0xF96 DUP11 PUSH2 0x4473 JUMP JUMPDEST SWAP8 POP PUSH2 0xFAC PUSH8 0xEBEE7F182EB2D3CE PUSH1 0xC0 SHL PUSH2 0x43E9 JUMP JUMPDEST PUSH2 0xFB5 DUP11 PUSH2 0x379A JUMP JUMPDEST SWAP6 POP PUSH2 0xFCB PUSH8 0xB2598D2F3311362B PUSH1 0xC0 SHL PUSH2 0x43E9 JUMP JUMPDEST DUP1 PUSH1 0x20 ADD MLOAD DUP2 PUSH1 0x0 ADD MLOAD PUSH2 0xFDF SWAP2 SWAP1 PUSH2 0x5564 JUMP JUMPDEST SWAP5 POP PUSH2 0xFF5 PUSH8 0x3C480CBFD53B7866 PUSH1 0xC0 SHL PUSH2 0x43E9 JUMP JUMPDEST PUSH2 0xFFD PUSH2 0x47DB JUMP JUMPDEST SWAP4 POP PUSH2 0x1013 PUSH8 0xBC0F6DB82F66E85D PUSH1 0xC0 SHL PUSH2 0x43E9 JUMP JUMPDEST PUSH2 0x1027 PUSH8 0x753FCD8B5A6B98A PUSH1 0xC0 SHL PUSH2 0x43E9 JUMP JUMPDEST DUP1 PUSH1 0x0 ADD MLOAD DUP9 DUP3 PUSH1 0x20 ADD MLOAD DUP9 DUP9 DUP9 DUP7 PUSH1 0x60 ADD MLOAD DUP8 PUSH1 0x80 ADD MLOAD SWAP9 POP SWAP9 POP SWAP9 POP SWAP9 POP SWAP9 POP SWAP9 POP SWAP9 POP SWAP9 POP POP SWAP2 SWAP4 SWAP6 SWAP8 POP SWAP2 SWAP4 SWAP6 SWAP8 JUMP JUMPDEST PUSH32 0x0 DUP2 JUMP JUMPDEST PUSH1 0x0 DUP1 PUSH1 0x0 DUP1 PUSH1 0x0 PUSH1 0x60 PUSH2 0x109D PUSH8 0xD2EE427E9B404B34 PUSH1 0xC0 SHL PUSH2 0x43E9 JUMP JUMPDEST PUSH2 0x10B1 PUSH8 0x3466DFB7FC412D32 PUSH1 0xC0 SHL PUSH2 0x43E9 JUMP JUMPDEST PUSH1 0x5 PUSH8 0xFFFFFFFFFFFFFFFF DUP2 GT ISZERO PUSH2 0x10CC JUMPI PUSH2 0x10CB PUSH2 0x548F JUMP JUMPDEST JUMPDEST PUSH1 0x40 MLOAD SWAP1 DUP1 DUP3 MSTORE DUP1 PUSH1 0x20 MUL PUSH1 0x20 ADD DUP3 ADD PUSH1 0x40 MSTORE DUP1 ISZERO PUSH2 0x10FA JUMPI DUP2 PUSH1 0x20 ADD PUSH1 0x20 DUP3 MUL DUP1 CALLDATASIZE DUP4 CALLDATACOPY DUP1 DUP3 ADD SWAP2 POP POP SWAP1 POP JUMPDEST POP SWAP1 POP PUSH2 0x1111 PUSH8 0xAC979F2037A67A14 PUSH1 0xC0 SHL PUSH2 0x43E9 JUMP JUMPDEST PUSH2 0x1125 PUSH8 0xC872245C89B5E19E PUSH1 0xC0 SHL PUSH2 0x43E9 JUMP JUMPDEST PUSH1 0x0 JUMPDEST PUSH1 0x5 DUP2 LT ISZERO PUSH2 0x11B1 JUMPI PUSH2 0x1145 PUSH8 0xF1E1F024182F9F3F PUSH1 0xC0 SHL PUSH2 0x43E9 JUMP JUMPDEST PUSH3 0xED4E00 DUP2 PUSH2 0x1154 SWAP2 SWAP1 PUSH2 0x5598 JUMP JUMPDEST PUSH32 0x0 PUSH2 0x117F SWAP2 SWAP1 PUSH2 0x55DA JUMP JUMPDEST DUP3 DUP3 DUP2 MLOAD DUP2 LT PUSH2 0x1192 JUMPI PUSH2 0x1191 PUSH2 0x54BE JUMP JUMPDEST JUMPDEST PUSH1 0x20 MUL PUSH1 0x20 ADD ADD DUP2 DUP2 MSTORE POP POP DUP1 DUP1 PUSH2 0x11A9 SWAP1 PUSH2 0x551C JUMP JUMPDEST SWAP2 POP POP PUSH2 0x1128 JUMP JUMPDEST POP PUSH2 0x11C6 PUSH8 0x9CA2E5FAD9987C31 PUSH1 0xC0 SHL PUSH2 0x43E9 JUMP JUMPDEST PUSH2 0x11DA PUSH8 0xC4FE5524A3792092 PUSH1 0xC0 SHL PUSH2 0x43E9 JUMP JUMPDEST PUSH32 0x0 PUSH32 0x0 PUSH2 0x1224 PUSH2 0x47DB JUMP JUMPDEST PUSH1 0x5 PUSH3 0x15180 PUSH3 0xED4E00 PUSH2 0x1238 SWAP2 SWAP1 PUSH2 0x563D JUMP JUMPDEST SWAP6 POP SWAP6 POP SWAP6 POP SWAP6 POP SWAP6 POP SWAP1 SWAP2 SWAP3 SWAP4 SWAP5 SWAP6 JUMP JUMPDEST PUSH1 0x0 PUSH2 0x1260 PUSH8 0x1D040799EB8D7D96 PUSH1 0xC0 SHL PUSH2 0x43E9 JUMP JUMPDEST PUSH2 0x1274 PUSH8 0xD466688DBC6709CF PUSH1 0xC0 SHL PUSH2 0x43E9 JUMP JUMPDEST PUSH2 0x1288 PUSH8 0x4DAB686DF25AB1FC PUSH1 0xC0 SHL PUSH2 0x43E9 JUMP JUMPDEST PUSH1 0x0 PUSH2 0x1292 PUSH2 0x47DB JUMP JUMPDEST SWAP1 POP PUSH2 0x12A8 PUSH8 0x175DBF858687E44A PUSH1 0xC0 SHL PUSH2 0x43E9 JUMP JUMPDEST PUSH2 0x12BC PUSH8 0xBE45A53F8599CE0B PUSH1 0xC0 SHL PUSH2 0x43E9 JUMP JUMPDEST PUSH1 0x5 DUP2 LT PUSH2 0x12F6 JUMPI PUSH2 0x12D8 PUSH8 0xD893726EA963F4B2 PUSH1 0xC0 SHL PUSH2 0x43E9 JUMP JUMPDEST PUSH2 0x12EC PUSH8 0x53ABFC247D0D02C5 PUSH1 0xC0 SHL PUSH2 0x43E9 JUMP JUMPDEST PUSH1 0x0 SWAP2 POP POP PUSH2 0x1405 JUMP JUMPDEST PUSH2 0x130A PUSH8 0x331E0B06B8A53977 PUSH1 0xC0 SHL PUSH2 0x43E9 JUMP JUMPDEST PUSH2 0x131E PUSH8 0xA1E712F28B9B81F0 PUSH1 0xC0 SHL PUSH2 0x43E9 JUMP JUMPDEST PUSH2 0x1332 PUSH8 0x87F37FA107F18740 PUSH1 0xC0 SHL PUSH2 0x43E9 JUMP JUMPDEST PUSH1 0x0 DUP2 SUB PUSH2 0x138B JUMPI PUSH2 0x134E PUSH8 0xAB116FC4A709E225 PUSH1 0xC0 SHL PUSH2 0x43E9 JUMP JUMPDEST PUSH2 0x1362 PUSH8 0x344C52893752D993 PUSH1 0xC0 SHL PUSH2 0x43E9 JUMP JUMPDEST PUSH32 0x0 SWAP2 POP POP PUSH2 0x1405 JUMP JUMPDEST PUSH2 0x139F PUSH8 0xE90EF1DA7FBEDF46 PUSH1 0xC0 SHL PUSH2 0x43E9 JUMP JUMPDEST PUSH2 0x13B3 PUSH8 0x259DEFBCA5859B85 PUSH1 0xC0 SHL PUSH2 0x43E9 JUMP JUMPDEST PUSH2 0x13C7 PUSH8 0x42F15983D86B9D7A PUSH1 0xC0 SHL PUSH2 0x43E9 JUMP JUMPDEST PUSH3 0xED4E00 DUP2 PUSH2 0x13D6 SWAP2 SWAP1 PUSH2 0x5598 JUMP JUMPDEST PUSH32 0x0 PUSH2 0x1401 SWAP2 SWAP1 PUSH2 0x55DA JUMP JUMPDEST SWAP2 POP POP JUMPDEST SWAP1 JUMP JUMPDEST PUSH2 0x141C PUSH8 0x2884288E22BA0293 PUSH1 0xC0 SHL PUSH2 0x43E9 JUMP JUMPDEST PUSH2 0x1424 PUSH2 0x43EC JUMP JUMPDEST PUSH2 0x1438 PUSH8 0x71219376E91C9FFC PUSH1 0xC0 SHL PUSH2 0x43E9 JUMP JUMPDEST PUSH2 0x144C PUSH8 0xADCC4E9691CBD0DD PUSH1 0xC0 SHL PUSH2 0x43E9 JUMP JUMPDEST PUSH2 0x1460 PUSH8 0x4E90B22F629BEF1B PUSH1 0xC0 SHL PUSH2 0x43E9 JUMP JUMPDEST PUSH2 0x1474 PUSH8 0xA554C21DE3F1E64E PUSH1 0xC0 SHL PUSH2 0x43E9 JUMP JUMPDEST PUSH2 0x147C PUSH2 0x499D JUMP JUMPDEST JUMP JUMPDEST PUSH1 0x5 SLOAD DUP2 JUMP JUMPDEST PUSH4 0x5A39A80 DUP2 JUMP JUMPDEST PUSH2 0x14A0 PUSH8 0x53CE81A66C27B351 PUSH1 0xC0 SHL PUSH2 0x43E9 JUMP JUMPDEST PUSH2 0x14A8 PUSH2 0x4A00 JUMP JUMPDEST PUSH2 0x14BC PUSH8 0x89A9D86A13606FB3 PUSH1 0xC0 SHL PUSH2 0x43E9 JUMP JUMPDEST PUSH2 0x14D0 PUSH8 0x1847C5F2F560C8E1 PUSH1 0xC0 SHL PUSH2 0x43E9 JUMP JUMPDEST PUSH2 0x14D8 PUSH2 0x4A46 JUMP JUMPDEST PUSH2 0x14EC PUSH8 0x4FA6ACB3E05FB149 PUSH1 0xC0 SHL PUSH2 0x43E9 JUMP JUMPDEST PUSH2 0x1500 PUSH8 0x551AC45E87516074 PUSH1 0xC0 SHL PUSH2 0x43E9 JUMP JUMPDEST PUSH2 0x1514 PUSH8 0x32813BB479B77705 PUSH1 0xC0 SHL PUSH2 0x43E9 JUMP JUMPDEST PUSH2 0x1528 PUSH8 0xC7E09EF037AB5C7 PUSH1 0xC0 SHL PUSH2 0x43E9 JUMP JUMPDEST PUSH1 0x7 PUSH1 0x0 SWAP1 SLOAD SWAP1 PUSH2 0x100 EXP SWAP1 DIV PUSH1 0xFF AND PUSH2 0x1582 JUMPI PUSH2 0x1550 PUSH8 0x7AD6C559BE2A88E3 PUSH1 0xC0 SHL PUSH2 0x43E9 JUMP JUMPDEST PUSH1 0x40 MLOAD PUSH32 0x39DC74EA00000000000000000000000000000000000000000000000000000000 DUP2 MSTORE PUSH1 0x4 ADD PUSH1 0x40 MLOAD DUP1 SWAP2 SUB SWAP1 REVERT JUMPDEST PUSH2 0x1596 PUSH8 0x94400F68D35146E3 PUSH1 0xC0 SHL PUSH2 0x43E9 JUMP JUMPDEST PUSH2 0x15AA PUSH8 0xF9303B8C5875BBFF PUSH1 0xC0 SHL PUSH2 0x43E9 JUMP JUMPDEST PUSH2 0x15BE PUSH8 0x184C9615764C0E58 PUSH1 0xC0 SHL PUSH2 0x43E9 JUMP JUMPDEST PUSH1 0x3 PUSH1 0x0 CALLER PUSH20 0xFFFFFFFFFFFFFFFFFFFFFFFFFFFFFFFFFFFFFFFF AND PUSH20 0xFFFFFFFFFFFFFFFFFFFFFFFFFFFFFFFFFFFFFFFF AND DUP2 MSTORE PUSH1 0x20 ADD SWAP1 DUP2 MSTORE PUSH1 0x20 ADD PUSH1 0x0 KECCAK256 PUSH1 0x3 ADD PUSH1 0x0 SWAP1 SLOAD SWAP1 PUSH2 0x100 EXP SWAP1 DIV PUSH1 0xFF AND PUSH2 0x1658 JUMPI PUSH2 0x1626 PUSH8 0xA64C033FA5F00C68 PUSH1 0xC0 SHL PUSH2 0x43E9 JUMP JUMPDEST PUSH1 0x40 MLOAD PUSH32 0x644D871F00000000000000000000000000000000000000000000000000000000 DUP2 MSTORE PUSH1 0x4 ADD PUSH1 0x40 MLOAD DUP1 SWAP2 SUB SWAP1 REVERT JUMPDEST PUSH2 0x166C PUSH8 0x9B6B0A8D3DE46016 PUSH1 0xC0 SHL PUSH2 0x43E9 JUMP JUMPDEST PUSH2 0x1680 PUSH8 0x93F3F50BE422270B PUSH1 0xC0 SHL PUSH2 0x43E9 JUMP JUMPDEST PUSH2 0x1694 PUSH8 0xEDAD93A702F9E7B PUSH1 0xC0 SHL PUSH2 0x43E9 JUMP JUMPDEST PUSH1 0x0 PUSH1 0x3 PUSH1 0x0 CALLER PUSH20 0xFFFFFFFFFFFFFFFFFFFFFFFFFFFFFFFFFFFFFFFF AND PUSH20 0xFFFFFFFFFFFFFFFFFFFFFFFFFFFFFFFFFFFFFFFF AND DUP2 MSTORE PUSH1 0x20 ADD SWAP1 DUP2 MSTORE PUSH1 0x20 ADD PUSH1 0x0 KECCAK256 SWAP1 POP PUSH2 0x16EB PUSH8 0xB1BD12DE32EEF2ED PUSH1 0xC0 SHL PUSH2 0x43E9 JUMP JUMPDEST PUSH2 0x16FF PUSH8 0x5359855F3AED39DA PUSH1 0xC0 SHL PUSH2 0x43E9 JUMP JUMPDEST DUP1 PUSH1 0x3 ADD PUSH1 0x1 SWAP1 SLOAD SWAP1 PUSH2 0x100 EXP SWAP1 DIV PUSH1 0xFF AND ISZERO PUSH2 0x175C JUMPI PUSH2 0x172A PUSH8 0x25090F33247AECD0 PUSH1 0xC0 SHL PUSH2 0x43E9 JUMP JUMPDEST PUSH1 0x40 MLOAD PUSH32 0xD1BA89A100000000000000000000000000000000000000000000000000000000 DUP2 MSTORE PUSH1 0x4 ADD PUSH1 0x40 MLOAD DUP1 SWAP2 SUB SWAP1 REVERT JUMPDEST PUSH2 0x1770 PUSH8 0x97D11E1A358E5092 PUSH1 0xC0 SHL PUSH2 0x43E9 JUMP JUMPDEST PUSH2 0x1784 PUSH8 0x5146AA89BE0A096B PUSH1 0xC0 SHL PUSH2 0x43E9 JUMP JUMPDEST PUSH2 0x1798 PUSH8 0x6C85D99C69B1B03A PUSH1 0xC0 SHL PUSH2 0x43E9 JUMP JUMPDEST PUSH1 0x0 PUSH2 0x17A3 CALLER PUSH2 0x379A JUMP JUMPDEST SWAP1 POP PUSH2 0x17B9 PUSH8 0xD8EDBF06B75E33BB PUSH1 0xC0 SHL PUSH2 0x43E9 JUMP JUMPDEST PUSH2 0x17CD PUSH8 0x388DA15FF163FA9E PUSH1 0xC0 SHL PUSH2 0x43E9 JUMP JUMPDEST PUSH1 0x0 DUP2 SUB PUSH2 0x181B JUMPI PUSH2 0x17E9 PUSH8 0x4111FF79EAB8B4AC PUSH1 0xC0 SHL PUSH2 0x43E9 JUMP JUMPDEST PUSH1 0x40 MLOAD PUSH32 0xC4DC60E000000000000000000000000000000000000000000000000000000000 DUP2 MSTORE PUSH1 0x4 ADD PUSH1 0x40 MLOAD DUP1 SWAP2 SUB SWAP1 REVERT JUMPDEST PUSH2 0x182F PUSH8 0x4EBA6E469D4ADC2C PUSH1 0xC0 SHL PUSH2 0x43E9 JUMP JUMPDEST PUSH2 0x1843 PUSH8 0xDF1CEDF316A3B2C PUSH1 0xC0 SHL PUSH2 0x43E9 JUMP JUMPDEST PUSH2 0x1857 PUSH8 0x4DEF79F937D6456 PUSH1 0xC0 SHL PUSH2 0x43E9 JUMP JUMPDEST PUSH1 0x0 PUSH2 0x1861 PUSH2 0x47DB JUMP JUMPDEST SWAP1 POP PUSH2 0x1877 PUSH8 0x6868ECDF4CD3B23F PUSH1 0xC0 SHL PUSH2 0x43E9 JUMP JUMPDEST DUP2 DUP4 PUSH1 0x1 ADD PUSH1 0x0 DUP3 DUP3 SLOAD PUSH2 0x188B SWAP2 SWAP1 PUSH2 0x55DA JUMP JUMPDEST SWAP3 POP POP DUP2 SWAP1 SSTORE POP PUSH2 0x18A6 PUSH8 0x817CDAD86BE20CBB PUSH1 0xC0 SHL PUSH2 0x43E9 JUMP JUMPDEST DUP1 DUP4 PUSH1 0x2 ADD DUP2 SWAP1 SSTORE POP PUSH2 0x18C3 PUSH8 0xAC484F6BA9F51A3B PUSH1 0xC0 SHL PUSH2 0x43E9 JUMP JUMPDEST DUP2 PUSH1 0x6 PUSH1 0x0 DUP3 DUP3 SLOAD PUSH2 0x18D5 SWAP2 SWAP1 PUSH2 0x55DA JUMP JUMPDEST SWAP3 POP POP DUP2 SWAP1 SSTORE POP PUSH2 0x18F0 PUSH8 0x515172F8D631CB0A PUSH1 0xC0 SHL PUSH2 0x43E9 JUMP JUMPDEST PUSH2 0x1904 PUSH8 0xF67224A18EE73D0A PUSH1 0xC0 SHL PUSH2 0x43E9 JUMP JUMPDEST PUSH2 0x194F CALLER DUP4 PUSH32 0x0 PUSH20 0xFFFFFFFFFFFFFFFFFFFFFFFFFFFFFFFFFFFFFFFF AND PUSH2 0x4A87 SWAP1 SWAP3 SWAP2 SWAP1 PUSH4 0xFFFFFFFF AND JUMP JUMPDEST PUSH2 0x1963 PUSH8 0xFB897654A874F235 PUSH1 0xC0 SHL PUSH2 0x43E9 JUMP JUMPDEST PUSH2 0x1977 PUSH8 0x7A944A9C194CAA47 PUSH1 0xC0 SHL PUSH2 0x43E9 JUMP JUMPDEST CALLER PUSH20 0xFFFFFFFFFFFFFFFFFFFFFFFFFFFFFFFFFFFFFFFF AND PUSH32 0x9923B4306C6C030F2BDFBF156517D5983B87E15B96176DA122CD4F2EFFA4BA7B DUP4 DUP4 PUSH1 0x40 MLOAD PUSH2 0x19BF SWAP3 SWAP2 SWAP1 PUSH2 0x566E JUMP JUMPDEST PUSH1 0x40 MLOAD DUP1 SWAP2 SUB SWAP1 LOG2 POP POP POP PUSH2 0x19D2 PUSH2 0x4B06 JUMP JUMPDEST JUMP JUMPDEST PUSH1 0x7 PUSH1 0x1 SWAP1 SLOAD SWAP1 PUSH2 0x100 EXP SWAP1 DIV PUSH1 0xFF AND DUP2 JUMP JUMPDEST PUSH2 0x19FB PUSH8 0x860FFF03221EE525 PUSH1 0xC0 SHL PUSH2 0x43E9 JUMP JUMPDEST PUSH2 0x1A03 PUSH2 0x43EC JUMP JUMPDEST PUSH2 0x1A17 PUSH8 0xCFE89699F8C1756F PUSH1 0xC0 SHL PUSH2 0x43E9 JUMP JUMPDEST PUSH2 0x1A2B PUSH8 0xD420415052584ABC PUSH1 0xC0 SHL PUSH2 0x43E9 JUMP JUMPDEST PUSH2 0x1A3F PUSH8 0x6542558629E1D09B PUSH1 0xC0 SHL PUSH2 0x43E9 JUMP JUMPDEST PUSH2 0x1A53 PUSH8 0x4B6376A994A7E655 PUSH1 0xC0 SHL PUSH2 0x43E9 JUMP JUMPDEST PUSH1 0x7 PUSH1 0x0 SWAP1 SLOAD SWAP1 PUSH2 0x100 EXP SWAP1 DIV PUSH1 0xFF AND ISZERO PUSH2 0x1AAE JUMPI PUSH2 0x1A7C PUSH8 0xC246FF12115084BE PUSH1 0xC0 SHL PUSH2 0x43E9 JUMP JUMPDEST PUSH1 0x40 MLOAD PUSH32 0x3BCD404900000000000000000000000000000000000000000000000000000000 DUP2 MSTORE PUSH1 0x4 ADD PUSH1 0x40 MLOAD DUP1 SWAP2 SUB SWAP1 REVERT JUMPDEST PUSH2 0x1AC2 PUSH8 0xD6ECD0D4587A08E8 PUSH1 0xC0 SHL PUSH2 0x43E9 JUMP JUMPDEST PUSH2 0x1AD6 PUSH8 0xE4DBBE3004011B6B PUSH1 0xC0 SHL PUSH2 0x43E9 JUMP JUMPDEST PUSH2 0x1AEA PUSH8 0x52D27527CEAE1362 PUSH1 0xC0 SHL PUSH2 0x43E9 JUMP JUMPDEST PUSH1 0x3 PUSH1 0x0 DUP3 PUSH20 0xFFFFFFFFFFFFFFFFFFFFFFFFFFFFFFFFFFFFFFFF AND PUSH20 0xFFFFFFFFFFFFFFFFFFFFFFFFFFFFFFFFFFFFFFFF AND DUP2 MSTORE PUSH1 0x20 ADD SWAP1 DUP2 MSTORE PUSH1 0x20 ADD PUSH1 0x0 KECCAK256 PUSH1 0x3 ADD PUSH1 0x0 SWAP1 SLOAD SWAP1 PUSH2 0x100 EXP SWAP1 DIV PUSH1 0xFF AND PUSH2 0x1B84 JUMPI PUSH2 0x1B52 PUSH8 0x946745243CF7D559 PUSH1 0xC0 SHL PUSH2 0x43E9 JUMP JUMPDEST PUSH1 0x40 MLOAD PUSH32 0x644D871F00000000000000000000000000000000000000000000000000000000 DUP2 MSTORE PUSH1 0x4 ADD PUSH1 0x40 MLOAD DUP1 SWAP2 SUB SWAP1 REVERT JUMPDEST PUSH2 0x1B98 PUSH8 0xF4A278E938E48B86 PUSH1 0xC0 SHL PUSH2 0x43E9 JUMP JUMPDEST PUSH2 0x1BAC PUSH8 0x73BE317EBA235177 PUSH1 0xC0 SHL PUSH2 0x43E9 JUMP JUMPDEST PUSH2 0x1BC0 PUSH8 0x9523BC6A2B8105BF PUSH1 0xC0 SHL PUSH2 0x43E9 JUMP JUMPDEST PUSH1 0x0 PUSH1 0x3 PUSH1 0x0 DUP4 PUSH20 0xFFFFFFFFFFFFFFFFFFFFFFFFFFFFFFFFFFFFFFFF AND PUSH20 0xFFFFFFFFFFFFFFFFFFFFFFFFFFFFFFFFFFFFFFFF AND DUP2 MSTORE PUSH1 0x20 ADD SWAP1 DUP2 MSTORE PUSH1 0x20 ADD PUSH1 0x0 KECCAK256 SWAP1 POP PUSH2 0x1C17 PUSH8 0x78C9C4878030358A PUSH1 0xC0 SHL PUSH2 0x43E9 JUMP JUMPDEST PUSH2 0x1C2B PUSH8 0x88F508451AD565DA PUSH1 0xC0 SHL PUSH2 0x43E9 JUMP JUMPDEST PUSH1 0x0 DUP2 PUSH1 0x0 ADD SLOAD SWAP1 POP PUSH2 0x1C48 PUSH8 0x6D0C40D471752553 PUSH1 0xC0 SHL PUSH2 0x43E9 JUMP JUMPDEST PUSH1 0x0 DUP3 PUSH1 0x3 ADD PUSH1 0x0 PUSH2 0x100 EXP DUP2 SLOAD DUP2 PUSH1 0xFF MUL NOT AND SWAP1 DUP4 ISZERO ISZERO MUL OR SWAP1 SSTORE POP PUSH2 0x1C79 PUSH8 0xF50A583383AB229D PUSH1 0xC0 SHL PUSH2 0x43E9 JUMP JUMPDEST DUP1 PUSH1 0x5 PUSH1 0x0 DUP3 DUP3 SLOAD PUSH2 0x1C8B SWAP2 SWAP1 PUSH2 0x5564 JUMP JUMPDEST SWAP3 POP POP DUP2 SWAP1 SSTORE POP PUSH2 0x1CA6 PUSH8 0x1125A926628882DD PUSH1 0xC0 SHL PUSH2 0x43E9 JUMP JUMPDEST PUSH2 0x1CBA PUSH8 0x1C80F3B4880F2F39 PUSH1 0xC0 SHL PUSH2 0x43E9 JUMP JUMPDEST PUSH1 0x0 JUMPDEST PUSH1 0x4 DUP1 SLOAD SWAP1 POP DUP2 LT ISZERO PUSH2 0x1EE6 JUMPI PUSH2 0x1CDE PUSH8 0xD5F484C0AE215320 PUSH1 0xC0 SHL PUSH2 0x43E9 JUMP JUMPDEST PUSH2 0x1CF2 PUSH8 0xD2C86C0FFE38CF69 PUSH1 0xC0 SHL PUSH2 0x43E9 JUMP JUMPDEST DUP4 PUSH20 0xFFFFFFFFFFFFFFFFFFFFFFFFFFFFFFFFFFFFFFFF AND PUSH1 0x4 DUP3 DUP2 SLOAD DUP2 LT PUSH2 0x1D1D JUMPI PUSH2 0x1D1C PUSH2 0x54BE JUMP JUMPDEST JUMPDEST SWAP1 PUSH1 0x0 MSTORE PUSH1 0x20 PUSH1 0x0 KECCAK256 ADD PUSH1 0x0 SWAP1 SLOAD SWAP1 PUSH2 0x100 EXP SWAP1 DIV PUSH20 0xFFFFFFFFFFFFFFFFFFFFFFFFFFFFFFFFFFFFFFFF AND PUSH20 0xFFFFFFFFFFFFFFFFFFFFFFFFFFFFFFFFFFFFFFFF AND SUB PUSH2 0x1EBF JUMPI PUSH2 0x1D77 PUSH8 0x26466B47F2B9B9F3 PUSH1 0xC0 SHL PUSH2 0x43E9 JUMP JUMPDEST PUSH2 0x1D8B PUSH8 0xE5A3FF290977C857 PUSH1 0xC0 SHL PUSH2 0x43E9 JUMP JUMPDEST PUSH1 0x4 PUSH1 0x1 PUSH1 0x4 DUP1 SLOAD SWAP1 POP PUSH2 0x1D9F SWAP2 SWAP1 PUSH2 0x5564 JUMP JUMPDEST DUP2 SLOAD DUP2 LT PUSH2 0x1DB0 JUMPI PUSH2 0x1DAF PUSH2 0x54BE JUMP JUMPDEST JUMPDEST SWAP1 PUSH1 0x0 MSTORE PUSH1 0x20 PUSH1 0x0 KECCAK256 ADD PUSH1 0x0 SWAP1 SLOAD SWAP1 PUSH2 0x100 EXP SWAP1 DIV PUSH20 0xFFFFFFFFFFFFFFFFFFFFFFFFFFFFFFFFFFFFFFFF AND PUSH1 0x4 DUP3 DUP2 SLOAD DUP2 LT PUSH2 0x1DEF JUMPI PUSH2 0x1DEE PUSH2 0x54BE JUMP JUMPDEST JUMPDEST SWAP1 PUSH1 0x0 MSTORE PUSH1 0x20 PUSH1 0x0 KECCAK256 ADD PUSH1 0x0 PUSH2 0x100 EXP DUP2 SLOAD DUP2 PUSH20 0xFFFFFFFFFFFFFFFFFFFFFFFFFFFFFFFFFFFFFFFF MUL NOT AND SWAP1 DUP4 PUSH20 0xFFFFFFFFFFFFFFFFFFFFFFFFFFFFFFFFFFFFFFFF AND MUL OR SWAP1 SSTORE POP PUSH2 0x1E4B PUSH8 0xA6AF2209AB2A520B PUSH1 0xC0 SHL PUSH2 0x43E9 JUMP JUMPDEST PUSH2 0x1E5F PUSH8 0xF1A5C657F87EF8A0 PUSH1 0xC0 SHL PUSH2 0x43E9 JUMP JUMPDEST PUSH1 0x4 DUP1 SLOAD DUP1 PUSH2 0x1E71 JUMPI PUSH2 0x1E70 PUSH2 0x5697 JUMP JUMPDEST JUMPDEST PUSH1 0x1 SWAP1 SUB DUP2 DUP2 SWAP1 PUSH1 0x0 MSTORE PUSH1 0x20 PUSH1 0x0 KECCAK256 ADD PUSH1 0x0 PUSH2 0x100 EXP DUP2 SLOAD SWAP1 PUSH20 0xFFFFFFFFFFFFFFFFFFFFFFFFFFFFFFFFFFFFFFFF MUL NOT AND SWAP1 SSTORE SWAP1 SSTORE PUSH2 0x1EBA PUSH8 0xFC1D1A06DB0A6CD6 PUSH1 0xC0 SHL PUSH2 0x43E9 JUMP JUMPDEST PUSH2 0x1EE6 JUMP JUMPDEST PUSH2 0x1ED3 PUSH8 0x474BFB1210E50C9B PUSH1 0xC0 SHL PUSH2 0x43E9 JUMP JUMPDEST DUP1 DUP1 PUSH2 0x1EDE SWAP1 PUSH2 0x551C JUMP JUMPDEST SWAP2 POP POP PUSH2 0x1CBD JUMP JUMPDEST POP PUSH2 0x1EFB PUSH8 0x1971F042A4E25F4D PUSH1 0xC0 SHL PUSH2 0x43E9 JUMP JUMPDEST PUSH2 0x1F0F PUSH8 0xBDF4490EF55C205D PUSH1 0xC0 SHL PUSH2 0x43E9 JUMP JUMPDEST DUP3 PUSH20 0xFFFFFFFFFFFFFFFFFFFFFFFFFFFFFFFFFFFFFFFF AND PUSH32 0x4EBA15B1481AC9C456EA6075869B280F4F84C5B462CF7BC01868DD40119EC065 DUP3 PUSH1 0x40 MLOAD PUSH2 0x1F55 SWAP2 SWAP1 PUSH2 0x4ECB JUMP JUMPDEST PUSH1 0x40 MLOAD DUP1 SWAP2 SUB SWAP1 LOG2 POP POP POP JUMP JUMPDEST PUSH1 0x0 PUSH1 0x2 PUSH1 0x0 SWAP1 SLOAD SWAP1 PUSH2 0x100 EXP SWAP1 DIV PUSH1 0xFF AND SWAP1 POP SWAP1 JUMP JUMPDEST PUSH2 0x1F81 PUSH2 0x43EC JUMP JUMPDEST PUSH2 0x1F8B PUSH1 0x0 PUSH2 0x4B0F JUMP JUMPDEST JUMP JUMPDEST PUSH1 0x0 PUSH2 0x1FA3 PUSH8 0xD2FA2A6A74AF662 PUSH1 0xC0 SHL PUSH2 0x43E9 JUMP JUMPDEST PUSH2 0x1FB7 PUSH8 0x3F080D835A183A49 PUSH1 0xC0 SHL PUSH2 0x43E9 JUMP JUMPDEST PUSH2 0x1FCB PUSH8 0x6E353DF8C0FBFB26 PUSH1 0xC0 SHL PUSH2 0x43E9 JUMP JUMPDEST PUSH1 0x0 PUSH2 0x1FD5 PUSH2 0x47DB JUMP JUMPDEST SWAP1 POP PUSH2 0x1FEB PUSH8 0x5F823E5B6F564B7A PUSH1 0xC0 SHL PUSH2 0x43E9 JUMP JUMPDEST PUSH2 0x1FFF PUSH8 0xAB77BDC1DEC779EB PUSH1 0xC0 SHL PUSH2 0x43E9 JUMP JUMPDEST PUSH1 0x5 DUP2 LT PUSH2 0x2039 JUMPI PUSH2 0x201B PUSH8 0x5DDF8506C02BF42F PUSH1 0xC0 SHL PUSH2 0x43E9 JUMP JUMPDEST PUSH2 0x202F PUSH8 0x8C0D1EE34745535 PUSH1 0xC0 SHL PUSH2 0x43E9 JUMP JUMPDEST PUSH1 0x0 SWAP2 POP POP PUSH2 0x2197 JUMP JUMPDEST PUSH2 0x204D PUSH8 0xFA8B63DB57B3026 PUSH1 0xC0 SHL PUSH2 0x43E9 JUMP JUMPDEST PUSH2 0x2061 PUSH8 0xFBA15DA225B86E7B PUSH1 0xC0 SHL PUSH2 0x43E9 JUMP JUMPDEST PUSH2 0x2075 PUSH8 0x2041B7D0998048D2 PUSH1 0xC0 SHL PUSH2 0x43E9 JUMP JUMPDEST PUSH1 0x0 DUP1 DUP3 EQ DUP1 PUSH2 0x2095 JUMPI POP PUSH2 0x2094 PUSH8 0x7273AF87B9D20D3 PUSH1 0xC0 SHL PUSH2 0x4BD3 JUMP JUMPDEST JUMPDEST DUP1 ISZERO PUSH2 0x20B1 JUMPI POP PUSH2 0x20B0 PUSH8 0x6EA1BD2F253F10E8 PUSH1 0xC0 SHL PUSH2 0x4BDA JUMP JUMPDEST JUMPDEST PUSH2 0x20F4 JUMPI PUSH3 0xED4E00 DUP3 PUSH2 0x20C4 SWAP2 SWAP1 PUSH2 0x5598 JUMP JUMPDEST PUSH32 0x0 PUSH2 0x20EF SWAP2 SWAP1 PUSH2 0x55DA JUMP JUMPDEST PUSH2 0x2116 JUMP JUMPDEST PUSH32 0x0 JUMPDEST SWAP1 POP PUSH2 0x212C PUSH8 0x6FA0EA05101E1685 PUSH1 0xC0 SHL PUSH2 0x43E9 JUMP JUMPDEST PUSH2 0x2140 PUSH8 0xB857DBC1479D3DF PUSH1 0xC0 SHL PUSH2 0x43E9 JUMP JUMPDEST TIMESTAMP DUP2 GT DUP1 PUSH2 0x215E JUMPI POP PUSH2 0x215D PUSH8 0x306E51292BCB52F0 PUSH1 0xC0 SHL PUSH2 0x4BD3 JUMP JUMPDEST JUMPDEST DUP1 ISZERO PUSH2 0x217A JUMPI POP PUSH2 0x2179 PUSH8 0xC91EF8E6983F7B65 PUSH1 0xC0 SHL PUSH2 0x4BDA JUMP JUMPDEST JUMPDEST PUSH2 0x2185 JUMPI PUSH1 0x0 PUSH2 0x2192 JUMP JUMPDEST TIMESTAMP DUP2 PUSH2 0x2191 SWAP2 SWAP1 PUSH2 0x5564 JUMP JUMPDEST JUMPDEST SWAP3 POP POP POP JUMPDEST SWAP1 JUMP JUMPDEST PUSH1 0x0 DUP1 PUSH1 0x0 DUP1 PUSH1 0x0 DUP1 PUSH2 0x21B7 PUSH8 0x394C578D69E8A658 PUSH1 0xC0 SHL PUSH2 0x43E9 JUMP JUMPDEST PUSH2 0x21CB PUSH8 0x79E58EBE7AEF14B8 PUSH1 0xC0 SHL PUSH2 0x43E9 JUMP JUMPDEST PUSH2 0x21DF PUSH8 0x8C6F200FCC9EF0EE PUSH1 0xC0 SHL PUSH2 0x43E9 JUMP JUMPDEST PUSH32 0x0 PUSH12 0x33B2E3C9FD0803CE8000000 PUSH4 0x5A39A80 PUSH3 0xED4E00 PUSH1 0x5 PUSH2 0x7D0 SWAP6 POP SWAP6 POP SWAP6 POP SWAP6 POP SWAP6 POP SWAP6 POP SWAP1 SWAP2 SWAP3 SWAP4 SWAP5 SWAP6 JUMP JUMPDEST PUSH2 0x2243 PUSH8 0x908FC6B18F576B18 PUSH1 0xC0 SHL PUSH2 0x43E9 JUMP JUMPDEST PUSH2 0x224B PUSH2 0x43EC JUMP JUMPDEST PUSH2 0x225F PUSH8 0x13B482335770F958 PUSH1 0xC0 SHL PUSH2 0x43E9 JUMP JUMPDEST PUSH2 0x2273 PUSH8 0xE6B941163877C415 PUSH1 0xC0 SHL PUSH2 0x43E9 JUMP JUMPDEST PUSH2 0x2287 PUSH8 0x6A38808804430D92 PUSH1 0xC0 SHL PUSH2 0x43E9 JUMP JUMPDEST PUSH2 0x229B PUSH8 0xA0359974B5B1F9DA PUSH1 0xC0 SHL PUSH2 0x43E9 JUMP JUMPDEST PUSH2 0x22A3 PUSH2 0x4BE5 JUMP JUMPDEST JUMP JUMPDEST PUSH1 0x0 DUP1 PUSH1 0x0 SWAP1 SLOAD SWAP1 PUSH2 0x100 EXP SWAP1 DIV PUSH20 0xFFFFFFFFFFFFFFFFFFFFFFFFFFFFFFFFFFFFFFFF AND SWAP1 POP SWAP1 JUMP JUMPDEST PUSH2 0x22E2 PUSH8 0xDD3E4BBE932F069A PUSH1 0xC0 SHL PUSH2 0x43E9 JUMP JUMPDEST PUSH2 0x22EA PUSH2 0x43EC JUMP JUMPDEST PUSH2 0x22FE PUSH8 0xC76E7CAA78D1AC75 PUSH1 0xC0 SHL PUSH2 0x43E9 JUMP JUMPDEST PUSH2 0x2312 PUSH8 0xBD9D74B8BC3F8331 PUSH1 0xC0 SHL PUSH2 0x43E9 JUMP JUMPDEST PUSH2 0x2326 PUSH8 0x1A96A06554728766 PUSH1 0xC0 SHL PUSH2 0x43E9 JUMP JUMPDEST PUSH2 0x233A PUSH8 0x941D718A93281054 PUSH1 0xC0 SHL PUSH2 0x43E9 JUMP JUMPDEST PUSH1 0x7 PUSH1 0x0 SWAP1 SLOAD SWAP1 PUSH2 0x100 EXP SWAP1 DIV PUSH1 0xFF AND ISZERO PUSH2 0x2395 JUMPI PUSH2 0x2363 PUSH8 0x480B51B08D4943B8 PUSH1 0xC0 SHL PUSH2 0x43E9 JUMP JUMPDEST PUSH1 0x40 MLOAD PUSH32 0x3BCD404900000000000000000000000000000000000000000000000000000000 DUP2 MSTORE PUSH1 0x4 ADD PUSH1 0x40 MLOAD DUP1 SWAP2 SUB SWAP1 REVERT JUMPDEST PUSH2 0x23A9 PUSH8 0xE93F462A9FC654B8 PUSH1 0xC0 SHL PUSH2 0x43E9 JUMP JUMPDEST PUSH2 0x23BD PUSH8 0xE806F5CC0D18D6DC PUSH1 0xC0 SHL PUSH2 0x43E9 JUMP JUMPDEST PUSH2 0x23D0 PUSH7 0x86FD9E595A3F55 PUSH1 0xC0 SHL PUSH2 0x43E9 JUMP JUMPDEST PUSH1 0x7 PUSH1 0x1 SWAP1 SLOAD SWAP1 PUSH2 0x100 EXP SWAP1 DIV PUSH1 0xFF AND PUSH2 0x242A JUMPI PUSH2 0x23F8 PUSH8 0xCF4CE95928134EF0 PUSH1 0xC0 SHL PUSH2 0x43E9 JUMP JUMPDEST PUSH1 0x40 MLOAD PUSH32 0x8896BE0700000000000000000000000000000000000000000000000000000000 DUP2 MSTORE PUSH1 0x4 ADD PUSH1 0x40 MLOAD DUP1 SWAP2 SUB SWAP1 REVERT JUMPDEST PUSH2 0x243E PUSH8 0xB00D86883068D34F PUSH1 0xC0 SHL PUSH2 0x43E9 JUMP JUMPDEST PUSH2 0x2452 PUSH8 0x97DD197151B2FD61 PUSH1 0xC0 SHL PUSH2 0x43E9 JUMP JUMPDEST PUSH2 0x2466 PUSH8 0x752006E8E7FABF64 PUSH1 0xC0 SHL PUSH2 0x43E9 JUMP JUMPDEST PUSH1 0x0 PUSH20 0xFFFFFFFFFFFFFFFFFFFFFFFFFFFFFFFFFFFFFFFF AND DUP3 PUSH20 0xFFFFFFFFFFFFFFFFFFFFFFFFFFFFFFFFFFFFFFFF AND SUB PUSH2 0x24E0 JUMPI PUSH2 0x24AE PUSH8 0xDF0C62EF25379075 PUSH1 0xC0 SHL PUSH2 0x43E9 JUMP JUMPDEST PUSH1 0x40 MLOAD PUSH32 0xE6C4247B00000000000000000000000000000000000000000000000000000000 DUP2 MSTORE PUSH1 0x4 ADD PUSH1 0x40 MLOAD DUP1 SWAP2 SUB SWAP1 REVERT JUMPDEST PUSH2 0x24F4 PUSH8 0x9641F2ADA293F96D PUSH1 0xC0 SHL PUSH2 0x43E9 JUMP JUMPDEST PUSH2 0x2508 PUSH8 0xAF4BC0A1BDDFF0B6 PUSH1 0xC0 SHL PUSH2 0x43E9 JUMP JUMPDEST PUSH2 0x251C PUSH8 0x9B4AEF77D0A03A47 PUSH1 0xC0 SHL PUSH2 0x43E9 JUMP JUMPDEST PUSH1 0x0 DUP2 SUB PUSH2 0x256A JUMPI PUSH2 0x2538 PUSH8 0x83C3819DE36A022C PUSH1 0xC0 SHL PUSH2 0x43E9 JUMP JUMPDEST PUSH1 0x40 MLOAD PUSH32 0x2C5211C600000000000000000000000000000000000000000000000000000000 DUP2 MSTORE PUSH1 0x4 ADD PUSH1 0x40 MLOAD DUP1 SWAP2 SUB SWAP1 REVERT JUMPDEST PUSH2 0x257E PUSH8 0x97A1E0E06C31765D PUSH1 0xC0 SHL PUSH2 0x43E9 JUMP JUMPDEST PUSH2 0x2592 PUSH8 0x5A6960DE54BB23F8 PUSH1 0xC0 SHL PUSH2 0x43E9 JUMP JUMPDEST PUSH2 0x25A6 PUSH8 0x4A6ADAAF88E8C199 PUSH1 0xC0 SHL PUSH2 0x43E9 JUMP JUMPDEST PUSH1 0x3 PUSH1 0x0 DUP4 PUSH20 0xFFFFFFFFFFFFFFFFFFFFFFFFFFFFFFFFFFFFFFFF AND PUSH20 0xFFFFFFFFFFFFFFFFFFFFFFFFFFFFFFFFFFFFFFFF AND DUP2 MSTORE PUSH1 0x20 ADD SWAP1 DUP2 MSTORE PUSH1 0x20 ADD PUSH1 0x0 KECCAK256 PUSH1 0x3 ADD PUSH1 0x0 SWAP1 SLOAD SWAP1 PUSH2 0x100 EXP SWAP1 DIV PUSH1 0xFF AND ISZERO PUSH2 0x2641 JUMPI PUSH2 0x260F PUSH8 0x3383533F02EDFBA7 PUSH1 0xC0 SHL PUSH2 0x43E9 JUMP JUMPDEST PUSH1 0x40 MLOAD PUSH32 0xC2F34D1800000000000000000000000000000000000000000000000000000000 DUP2 MSTORE PUSH1 0x4 ADD PUSH1 0x40 MLOAD DUP1 SWAP2 SUB SWAP1 REVERT JUMPDEST PUSH2 0x2655 PUSH8 0xFDB15791BE2312E0 PUSH1 0xC0 SHL PUSH2 0x43E9 JUMP JUMPDEST PUSH2 0x2669 PUSH8 0x1B8EB69259E1C3BF PUSH1 0xC0 SHL PUSH2 0x43E9 JUMP JUMPDEST PUSH2 0x267D PUSH8 0x766097F488046E48 PUSH1 0xC0 SHL PUSH2 0x43E9 JUMP JUMPDEST PUSH12 0x33B2E3C9FD0803CE8000000 DUP2 PUSH1 0x5 SLOAD PUSH2 0x2698 SWAP2 SWAP1 PUSH2 0x55DA JUMP JUMPDEST GT ISZERO PUSH2 0x26F8 JUMPI PUSH2 0x26B2 PUSH8 0xFCA58999E659C54D PUSH1 0xC0 SHL PUSH2 0x43E9 JUMP JUMPDEST PUSH2 0x26C6 PUSH8 0xCAE04D1E751768E PUSH1 0xC0 SHL PUSH2 0x43E9 JUMP JUMPDEST PUSH1 0x40 MLOAD PUSH32 0x87A7C61E00000000000000000000000000000000000000000000000000000000 DUP2 MSTORE PUSH1 0x4 ADD PUSH1 0x40 MLOAD DUP1 SWAP2 SUB SWAP1 REVERT JUMPDEST PUSH2 0x270C PUSH8 0xB1001CAE972891A1 PUSH1 0xC0 SHL PUSH2 0x43E9 JUMP JUMPDEST PUSH2 0x2720 PUSH8 0xD65868995A92B838 PUSH1 0xC0 SHL PUSH2 0x43E9 JUMP JUMPDEST PUSH1 0x40 MLOAD DUP1 PUSH1 0xA0 ADD PUSH1 0x40 MSTORE DUP1 DUP3 DUP2 MSTORE PUSH1 0x20 ADD PUSH1 0x0 DUP2 MSTORE PUSH1 0x20 ADD PUSH1 0x0 DUP2 MSTORE PUSH1 0x20 ADD PUSH1 0x1 ISZERO ISZERO DUP2 MSTORE PUSH1 0x20 ADD PUSH1 0x0 ISZERO ISZERO DUP2 MSTORE POP PUSH1 0x3 PUSH1 0x0 DUP5 PUSH20 0xFFFFFFFFFFFFFFFFFFFFFFFFFFFFFFFFFFFFFFFF AND PUSH20 0xFFFFFFFFFFFFFFFFFFFFFFFFFFFFFFFFFFFFFFFF AND DUP2 MSTORE PUSH1 0x20 ADD SWAP1 DUP2 MSTORE PUSH1 0x20 ADD PUSH1 0x0 KECCAK256 PUSH1 0x0 DUP3 ADD MLOAD DUP2 PUSH1 0x0 ADD SSTORE PUSH1 0x20 DUP3 ADD MLOAD DUP2 PUSH1 0x1 ADD SSTORE PUSH1 0x40 DUP3 ADD MLOAD DUP2 PUSH1 0x2 ADD SSTORE PUSH1 0x60 DUP3 ADD MLOAD DUP2 PUSH1 0x3 ADD PUSH1 0x0 PUSH2 0x100 EXP DUP2 SLOAD DUP2 PUSH1 0xFF MUL NOT AND SWAP1 DUP4 ISZERO ISZERO MUL OR SWAP1 SSTORE POP PUSH1 0x80 DUP3 ADD MLOAD DUP2 PUSH1 0x3 ADD PUSH1 0x1 PUSH2 0x100 EXP DUP2 SLOAD DUP2 PUSH1 0xFF MUL NOT AND SWAP1 DUP4 ISZERO ISZERO MUL OR SWAP1 SSTORE POP SWAP1 POP POP PUSH2 0x2803 PUSH8 0xC751D94E33366629 PUSH1 0xC0 SHL PUSH2 0x43E9 JUMP JUMPDEST PUSH2 0x2817 PUSH8 0x97AABE957B42BFFB PUSH1 0xC0 SHL PUSH2 0x43E9 JUMP JUMPDEST PUSH1 0x4 DUP3 SWAP1 DUP1 PUSH1 0x1 DUP2 SLOAD ADD DUP1 DUP3 SSTORE DUP1 SWAP2 POP POP PUSH1 0x1 SWAP1 SUB SWAP1 PUSH1 0x0 MSTORE PUSH1 0x20 PUSH1 0x0 KECCAK256 ADD PUSH1 0x0 SWAP1 SWAP2 SWAP1 SWAP2 SWAP1 SWAP2 PUSH2 0x100 EXP DUP2 SLOAD DUP2 PUSH20 0xFFFFFFFFFFFFFFFFFFFFFFFFFFFFFFFFFFFFFFFF MUL NOT AND SWAP1 DUP4 PUSH20 0xFFFFFFFFFFFFFFFFFFFFFFFFFFFFFFFFFFFFFFFF AND MUL OR SWAP1 SSTORE POP PUSH2 0x288E PUSH8 0x3C08E1002F6B60C2 PUSH1 0xC0 SHL PUSH2 0x43E9 JUMP JUMPDEST DUP1 PUSH1 0x5 PUSH1 0x0 DUP3 DUP3 SLOAD PUSH2 0x28A0 SWAP2 SWAP1 PUSH2 0x55DA JUMP JUMPDEST SWAP3 POP POP DUP2 SWAP1 SSTORE POP PUSH2 0x28BB PUSH8 0xC98D367AA3C99FE2 PUSH1 0xC0 SHL PUSH2 0x43E9 JUMP JUMPDEST PUSH2 0x28CF PUSH8 0xC3B33274F72C283A PUSH1 0xC0 SHL PUSH2 0x43E9 JUMP JUMPDEST DUP2 PUSH20 0xFFFFFFFFFFFFFFFFFFFFFFFFFFFFFFFFFFFFFFFF AND PUSH32 0xE6B83177F11971BA30369BB38B914FFBA97D5969A3C857B286FA8FDBB150B3BA DUP3 PUSH1 0x40 MLOAD PUSH2 0x2915 SWAP2 SWAP1 PUSH2 0x4ECB JUMP JUMPDEST PUSH1 0x40 MLOAD DUP1 SWAP2 SUB SWAP1 LOG2 POP POP JUMP JUMPDEST PUSH1 0x5 DUP2 JUMP JUMPDEST PUSH1 0x0 PUSH2 0x293C PUSH8 0xAC009D2BAD6B569C PUSH1 0xC0 SHL PUSH2 0x43E9 JUMP JUMPDEST PUSH2 0x2950 PUSH8 0x99807495D1418EE3 PUSH1 0xC0 SHL PUSH2 0x43E9 JUMP JUMPDEST PUSH2 0x2964 PUSH8 0x7706DD0C5BDC089A PUSH1 0xC0 SHL PUSH2 0x43E9 JUMP JUMPDEST PUSH1 0x3 PUSH1 0x0 DUP4 PUSH20 0xFFFFFFFFFFFFFFFFFFFFFFFFFFFFFFFFFFFFFFFF AND PUSH20 0xFFFFFFFFFFFFFFFFFFFFFFFFFFFFFFFFFFFFFFFF AND DUP2 MSTORE PUSH1 0x20 ADD SWAP1 DUP2 MSTORE PUSH1 0x20 ADD PUSH1 0x0 KECCAK256 PUSH1 0x3 ADD PUSH1 0x0 SWAP1 SLOAD SWAP1 PUSH2 0x100 EXP SWAP1 DIV PUSH1 0xFF AND SWAP1 POP SWAP2 SWAP1 POP JUMP JUMPDEST PUSH1 0x4 DUP2 DUP2 SLOAD DUP2 LT PUSH2 0x29CB JUMPI PUSH1 0x0 DUP1 REVERT JUMPDEST SWAP1 PUSH1 0x0 MSTORE PUSH1 0x20 PUSH1 0x0 KECCAK256 ADD PUSH1 0x0 SWAP2 POP SLOAD SWAP1 PUSH2 0x100 EXP SWAP1 DIV PUSH20 0xFFFFFFFFFFFFFFFFFFFFFFFFFFFFFFFFFFFFFFFF AND DUP2 JUMP JUMPDEST PUSH3 0xED4E00 DUP2 JUMP JUMPDEST PUSH2 0x2A15 PUSH8 0x8CB08F52402468E0 PUSH1 0xC0 SHL PUSH2 0x43E9 JUMP JUMPDEST PUSH2 0x2A1D PUSH2 0x43EC JUMP JUMPDEST PUSH2 0x2A31 PUSH8 0x6681C1B27A2FA3D8 PUSH1 0xC0 SHL PUSH2 0x43E9 JUMP JUMPDEST PUSH2 0x2A45 PUSH8 0x3427CAB15FA7B3C3 PUSH1 0xC0 SHL PUSH2 0x43E9 JUMP JUMPDEST PUSH2 0x2A59 PUSH8 0x7F01BA88BB0EF985 PUSH1 0xC0 SHL PUSH2 0x43E9 JUMP JUMPDEST PUSH2 0x2A6D PUSH8 0xE5B5685CFC90AFB3 PUSH1 0xC0 SHL PUSH2 0x43E9 JUMP JUMPDEST PUSH1 0x7 PUSH1 0x1 SWAP1 SLOAD SWAP1 PUSH2 0x100 EXP SWAP1 DIV PUSH1 0xFF AND ISZERO PUSH2 0x2AC8 JUMPI PUSH2 0x2A96 PUSH8 0xEAF7ACBD07023C83 PUSH1 0xC0 SHL PUSH2 0x43E9 JUMP JUMPDEST PUSH1 0x40 MLOAD PUSH32 0x742F800000000000000000000000000000000000000000000000000000000000 DUP2 MSTORE PUSH1 0x4 ADD PUSH1 0x40 MLOAD DUP1 SWAP2 SUB SWAP1 REVERT JUMPDEST PUSH2 0x2ADC PUSH8 0x2DFCEF5537458E27 PUSH1 0xC0 SHL PUSH2 0x43E9 JUMP JUMPDEST PUSH2 0x2AF0 PUSH8 0xA5ECCC8567369A04 PUSH1 0xC0 SHL PUSH2 0x43E9 JUMP JUMPDEST PUSH2 0x2B04 PUSH8 0xB6DFADA730D2B1BA PUSH1 0xC0 SHL PUSH2 0x43E9 JUMP JUMPDEST PUSH1 0x0 PUSH32 0x0 PUSH20 0xFFFFFFFFFFFFFFFFFFFFFFFFFFFFFFFFFFFFFFFF AND PUSH4 0x70A08231 CALLER PUSH1 0x40 MLOAD DUP3 PUSH4 0xFFFFFFFF AND PUSH1 0xE0 SHL DUP2 MSTORE PUSH1 0x4 ADD PUSH2 0x2B5F SWAP2 SWAP1 PUSH2 0x536C JUMP JUMPDEST PUSH1 0x20 PUSH1 0x40 MLOAD DUP1 DUP4 SUB DUP2 DUP7 GAS STATICCALL ISZERO DUP1 ISZERO PUSH2 0x2B7C JUMPI RETURNDATASIZE PUSH1 0x0 DUP1 RETURNDATACOPY RETURNDATASIZE PUSH1 0x0 REVERT JUMPDEST POP POP POP POP PUSH1 0x40 MLOAD RETURNDATASIZE PUSH1 0x1F NOT PUSH1 0x1F DUP3 ADD AND DUP3 ADD DUP1 PUSH1 0x40 MSTORE POP DUP2 ADD SWAP1 PUSH2 0x2BA0 SWAP2 SWAP1 PUSH2 0x56DB JUMP JUMPDEST SWAP1 POP PUSH2 0x2BB6 PUSH8 0x516388626B131093 PUSH1 0xC0 SHL PUSH2 0x43E9 JUMP JUMPDEST PUSH2 0x2BCA PUSH8 0x58C4CC016EC9C248 PUSH1 0xC0 SHL PUSH2 0x43E9 JUMP JUMPDEST PUSH12 0x33B2E3C9FD0803CE8000000 DUP2 LT ISZERO PUSH2 0x2C24 JUMPI PUSH2 0x2BF2 PUSH8 0xC36577B47CF25596 PUSH1 0xC0 SHL PUSH2 0x43E9 JUMP JUMPDEST PUSH1 0x40 MLOAD PUSH32 0xF4D678B800000000000000000000000000000000000000000000000000000000 DUP2 MSTORE PUSH1 0x4 ADD PUSH1 0x40 MLOAD DUP1 SWAP2 SUB SWAP1 REVERT JUMPDEST PUSH2 0x2C38 PUSH8 0xCF7E46B3CDC1A279 PUSH1 0xC0 SHL PUSH2 0x43E9 JUMP JUMPDEST PUSH2 0x2C4C PUSH8 0xA2E881040F9F3812 PUSH1 0xC0 SHL PUSH2 0x43E9 JUMP JUMPDEST PUSH2 0x2C60 PUSH8 0xBA2AA30C118D59EA PUSH1 0xC0 SHL PUSH2 0x43E9 JUMP JUMPDEST PUSH2 0x2CB9 CALLER ADDRESS PUSH12 0x33B2E3C9FD0803CE8000000 PUSH32 0x0 PUSH20 0xFFFFFFFFFFFFFFFFFFFFFFFFFFFFFFFFFFFFFFFF AND PUSH2 0x4C48 SWAP1 SWAP4 SWAP3 SWAP2 SWAP1 PUSH4 0xFFFFFFFF AND JUMP JUMPDEST PUSH2 0x2CCD PUSH8 0x52BFF1F15EF0044A PUSH1 0xC0 SHL PUSH2 0x43E9 JUMP JUMPDEST PUSH1 0x1 PUSH1 0x7 PUSH1 0x1 PUSH2 0x100 EXP DUP2 SLOAD DUP2 PUSH1 0xFF MUL NOT AND SWAP1 DUP4 ISZERO ISZERO MUL OR SWAP1 SSTORE POP PUSH2 0x2CFC PUSH8 0x945006A8B4687F86 PUSH1 0xC0 SHL PUSH2 0x43E9 JUMP JUMPDEST PUSH2 0x2D10 PUSH8 0x817FABC52093B7A3 PUSH1 0xC0 SHL PUSH2 0x43E9 JUMP JUMPDEST PUSH32 0xF705142BF09F04297640495DDF7C59B7FD6F51894C5AEA9602D631CF05F0EFC2 PUSH12 0x33B2E3C9FD0803CE8000000 TIMESTAMP PUSH1 0x40 MLOAD PUSH2 0x2D4D SWAP3 SWAP2 SWAP1 PUSH2 0x566E JUMP JUMPDEST PUSH1 0x40 MLOAD DUP1 SWAP2 SUB SWAP1 LOG1 POP JUMP JUMPDEST PUSH1 0x0 DUP1 PUSH1 0x0 DUP1 PUSH1 0x0 DUP1 PUSH1 0x0 PUSH2 0x2D77 PUSH8 0x21A9404D20B0B97E PUSH1 0xC0 SHL PUSH2 0x43E9 JUMP JUMPDEST PUSH2 0x2D8B PUSH8 0x8E57B1A66CD9867C PUSH1 0xC0 SHL PUSH2 0x43E9 JUMP JUMPDEST PUSH2 0x2D9F PUSH8 0x8098B8A6F37884B5 PUSH1 0xC0 SHL PUSH2 0x43E9 JUMP JUMPDEST PUSH1 0x0 PUSH32 0x0 PUSH20 0xFFFFFFFFFFFFFFFFFFFFFFFFFFFFFFFFFFFFFFFF AND PUSH4 0x70A08231 ADDRESS PUSH1 0x40 MLOAD DUP3 PUSH4 0xFFFFFFFF AND PUSH1 0xE0 SHL DUP2 MSTORE PUSH1 0x4 ADD PUSH2 0x2DFA SWAP2 SWAP1 PUSH2 0x536C JUMP JUMPDEST PUSH1 0x20 PUSH1 0x40 MLOAD DUP1 DUP4 SUB DUP2 DUP7 GAS STATICCALL ISZERO DUP1 ISZERO PUSH2 0x2E17 JUMPI RETURNDATASIZE PUSH1 0x0 DUP1 RETURNDATACOPY RETURNDATASIZE PUSH1 0x0 REVERT JUMPDEST POP POP POP POP PUSH1 0x40 MLOAD RETURNDATASIZE PUSH1 0x1F NOT PUSH1 0x1F DUP3 ADD AND DUP3 ADD DUP1 PUSH1 0x40 MSTORE POP DUP2 ADD SWAP1 PUSH2 0x2E3B SWAP2 SWAP1 PUSH2 0x56DB JUMP JUMPDEST SWAP1 POP PUSH2 0x2E51 PUSH8 0x3C49BF5D91CD1ACC PUSH1 0xC0 SHL PUSH2 0x43E9 JUMP JUMPDEST PUSH2 0x2E65 PUSH8 0x146A35CACD5E5DF PUSH1 0xC0 SHL PUSH2 0x43E9 JUMP JUMPDEST PUSH1 0x5 SLOAD PUSH1 0x6 SLOAD PUSH1 0x6 SLOAD PUSH1 0x5 SLOAD PUSH2 0x2E7B SWAP2 SWAP1 PUSH2 0x5564 JUMP JUMPDEST PUSH1 0x6 SLOAD PUSH1 0x5 SLOAD PUSH2 0x2E8B SWAP2 SWAP1 PUSH2 0x5564 JUMP JUMPDEST DUP5 GT DUP1 PUSH2 0x2EA8 JUMPI POP PUSH2 0x2EA7 PUSH8 0xAE966C5DA9E1A3DB PUSH1 0xC0 SHL PUSH2 0x4BD3 JUMP JUMPDEST JUMPDEST DUP1 ISZERO PUSH2 0x2EC4 JUMPI POP PUSH2 0x2EC3 PUSH8 0x43CF35E7DB6EF12A PUSH1 0xC0 SHL PUSH2 0x4BDA JUMP JUMPDEST JUMPDEST PUSH2 0x2ECF JUMPI PUSH1 0x0 PUSH2 0x2EEB JUMP JUMPDEST PUSH1 0x6 SLOAD PUSH1 0x5 SLOAD PUSH2 0x2EDF SWAP2 SWAP1 PUSH2 0x5564 JUMP JUMPDEST DUP5 PUSH2 0x2EEA SWAP2 SWAP1 PUSH2 0x5564 JUMP JUMPDEST JUMPDEST PUSH1 0x4 DUP1 SLOAD SWAP1 POP PUSH1 0x7 PUSH1 0x0 SWAP1 SLOAD SWAP1 PUSH2 0x100 EXP SWAP1 DIV PUSH1 0xFF AND PUSH1 0x7 PUSH1 0x1 SWAP1 SLOAD SWAP1 PUSH2 0x100 EXP SWAP1 DIV PUSH1 0xFF AND SWAP8 POP SWAP8 POP SWAP8 POP SWAP8 POP SWAP8 POP SWAP8 POP SWAP8 POP POP SWAP1 SWAP2 SWAP3 SWAP4 SWAP5 SWAP6 SWAP7 JUMP JUMPDEST PUSH2 0x7D0 DUP2 JUMP JUMPDEST PUSH1 0x6 SLOAD DUP2 JUMP JUMPDEST PUSH2 0x2F49 PUSH8 0x61AF9BF87B2DFFF1 PUSH1 0xC0 SHL PUSH2 0x43E9 JUMP JUMPDEST PUSH2 0x2F51 PUSH2 0x43EC JUMP JUMPDEST PUSH2 0x2F65 PUSH8 0xD78E60A0455577F4 PUSH1 0xC0 SHL PUSH2 0x43E9 JUMP JUMPDEST PUSH2 0x2F79 PUSH8 0x4FC3EB2AD92EB681 PUSH1 0xC0 SHL PUSH2 0x43E9 JUMP JUMPDEST PUSH2 0x2F8D PUSH8 0xDD255698D0E7EA91 PUSH1 0xC0 SHL PUSH2 0x43E9 JUMP JUMPDEST PUSH2 0x2FA1 PUSH8 0x89A9B7A2D314FF7C PUSH1 0xC0 SHL PUSH2 0x43E9 JUMP JUMPDEST PUSH1 0x0 PUSH32 0x0 PUSH20 0xFFFFFFFFFFFFFFFFFFFFFFFFFFFFFFFFFFFFFFFF AND PUSH4 0x70A08231 ADDRESS PUSH1 0x40 MLOAD DUP3 PUSH4 0xFFFFFFFF AND PUSH1 0xE0 SHL DUP2 MSTORE PUSH1 0x4 ADD PUSH2 0x2FFC SWAP2 SWAP1 PUSH2 0x536C JUMP JUMPDEST PUSH1 0x20 PUSH1 0x40 MLOAD DUP1 DUP4 SUB DUP2 DUP7 GAS STATICCALL ISZERO DUP1 ISZERO PUSH2 0x3019 JUMPI RETURNDATASIZE PUSH1 0x0 DUP1 RETURNDATACOPY RETURNDATASIZE PUSH1 0x0 REVERT JUMPDEST POP POP POP POP PUSH1 0x40 MLOAD RETURNDATASIZE PUSH1 0x1F NOT PUSH1 0x1F DUP3 ADD AND DUP3 ADD DUP1 PUSH1 0x40 MSTORE POP DUP2 ADD SWAP1 PUSH2 0x303D SWAP2 SWAP1 PUSH2 0x56DB JUMP JUMPDEST SWAP1 POP PUSH2 0x3053 PUSH8 0x3FB70B0FD07532D3 PUSH1 0xC0 SHL PUSH2 0x43E9 JUMP JUMPDEST PUSH2 0x3067 PUSH8 0xEBE594C875521652 PUSH1 0xC0 SHL PUSH2 0x43E9 JUMP JUMPDEST PUSH1 0x0 PUSH1 0x6 SLOAD PUSH1 0x5 SLOAD PUSH2 0x3079 SWAP2 SWAP1 PUSH2 0x5564 JUMP JUMPDEST SWAP1 POP PUSH2 0x308F PUSH8 0x9056534F9F53AC51 PUSH1 0xC0 SHL PUSH2 0x43E9 JUMP JUMPDEST PUSH2 0x30A3 PUSH8 0x79A9481B80AFE372 PUSH1 0xC0 SHL PUSH2 0x43E9 JUMP JUMPDEST DUP1 DUP3 GT PUSH2 0x30F0 JUMPI PUSH2 0x30BE PUSH8 0x3E5287F6E486C1DF PUSH1 0xC0 SHL PUSH2 0x43E9 JUMP JUMPDEST PUSH1 0x40 MLOAD PUSH32 0xF4D678B800000000000000000000000000000000000000000000000000000000 DUP2 MSTORE PUSH1 0x4 ADD PUSH1 0x40 MLOAD DUP1 SWAP2 SUB SWAP1 REVERT JUMPDEST PUSH2 0x3104 PUSH8 0xDA34A09660E151BD PUSH1 0xC0 SHL PUSH2 0x43E9 JUMP JUMPDEST PUSH2 0x3118 PUSH8 0x2F85CBA82A71F31E PUSH1 0xC0 SHL PUSH2 0x43E9 JUMP JUMPDEST PUSH2 0x312C PUSH8 0x961B2F5C3CDE2FBA PUSH1 0xC0 SHL PUSH2 0x43E9 JUMP JUMPDEST PUSH1 0x0 DUP2 DUP4 PUSH2 0x313A SWAP2 SWAP1 PUSH2 0x5564 JUMP JUMPDEST SWAP1 POP PUSH2 0x3150 PUSH8 0xC06BD1AD015B375 PUSH1 0xC0 SHL PUSH2 0x43E9 JUMP JUMPDEST PUSH2 0x3164 PUSH8 0xFCD498C42FB5C837 PUSH1 0xC0 SHL PUSH2 0x43E9 JUMP JUMPDEST PUSH2 0x31B6 PUSH2 0x316F PUSH2 0x22A5 JUMP JUMPDEST DUP3 PUSH32 0x0 PUSH20 0xFFFFFFFFFFFFFFFFFFFFFFFFFFFFFFFFFFFFFFFF AND PUSH2 0x4A87 SWAP1 SWAP3 SWAP2 SWAP1 PUSH4 0xFFFFFFFF AND JUMP JUMPDEST PUSH2 0x31CA PUSH8 0xE644EA392A8E56F0 PUSH1 0xC0 SHL PUSH2 0x43E9 JUMP JUMPDEST PUSH2 0x31DE PUSH8 0x2F27B395576B6F27 PUSH1 0xC0 SHL PUSH2 0x43E9 JUMP JUMPDEST PUSH32 0x0 PUSH20 0xFFFFFFFFFFFFFFFFFFFFFFFFFFFFFFFFFFFFFFFF AND PUSH32 0x5FAFA99D0643513820BE26656B45130B01E1C03062E1266BF36F88CBD3BD9695 DUP3 PUSH1 0x40 MLOAD PUSH2 0x3244 SWAP2 SWAP1 PUSH2 0x4ECB JUMP JUMPDEST PUSH1 0x40 MLOAD DUP1 SWAP2 SUB SWAP1 LOG2 POP POP POP JUMP JUMPDEST PUSH2 0x3265 PUSH8 0xEF66FEAB10D24B1E PUSH1 0xC0 SHL PUSH2 0x43E9 JUMP JUMPDEST PUSH2 0x326D PUSH2 0x4A00 JUMP JUMPDEST PUSH2 0x3281 PUSH8 0x29799FA17B253CD PUSH1 0xC0 SHL PUSH2 0x43E9 JUMP JUMPDEST PUSH2 0x3295 PUSH8 0xECCCD2B0953D8536 PUSH1 0xC0 SHL PUSH2 0x43E9 JUMP JUMPDEST PUSH2 0x329D PUSH2 0x4A46 JUMP JUMPDEST PUSH2 0x32B1 PUSH8 0xAC9B8DE12EE8630E PUSH1 0xC0 SHL PUSH2 0x43E9 JUMP JUMPDEST PUSH2 0x32C5 PUSH8 0x2DBB3F40A6AAC24F PUSH1 0xC0 SHL PUSH2 0x43E9 JUMP JUMPDEST PUSH2 0x32D9 PUSH8 0xB7B81F7ECA346709 PUSH1 0xC0 SHL PUSH2 0x43E9 JUMP JUMPDEST PUSH2 0x32ED PUSH8 0xD6413E4CC800DCBA PUSH1 0xC0 SHL PUSH2 0x43E9 JUMP JUMPDEST PUSH1 0x7 PUSH1 0x0 SWAP1 SLOAD SWAP1 PUSH2 0x100 EXP SWAP1 DIV PUSH1 0xFF AND PUSH2 0x3347 JUMPI PUSH2 0x3315 PUSH8 0x98FC1860E8619CA3 PUSH1 0xC0 SHL PUSH2 0x43E9 JUMP JUMPDEST PUSH1 0x40 MLOAD PUSH32 0x39DC74EA00000000000000000000000000000000000000000000000000000000 DUP2 MSTORE PUSH1 0x4 ADD PUSH1 0x40 MLOAD DUP1 SWAP2 SUB SWAP1 REVERT JUMPDEST PUSH2 0x335B PUSH8 0x54FBBFD7DF205F4C PUSH1 0xC0 SHL PUSH2 0x43E9 JUMP JUMPDEST PUSH2 0x336F PUSH8 0x5E9F727B3E92F2D6 PUSH1 0xC0 SHL PUSH2 0x43E9 JUMP JUMPDEST PUSH2 0x3383 PUSH8 0x50B95A5819BB0E2D PUSH1 0xC0 SHL PUSH2 0x43E9 JUMP JUMPDEST PUSH1 0x3 PUSH1 0x0 DUP3 PUSH20 0xFFFFFFFFFFFFFFFFFFFFFFFFFFFFFFFFFFFFFFFF AND PUSH20 0xFFFFFFFFFFFFFFFFFFFFFFFFFFFFFFFFFFFFFFFF AND DUP2 MSTORE PUSH1 0x20 ADD SWAP1 DUP2 MSTORE PUSH1 0x20 ADD PUSH1 0x0 KECCAK256 PUSH1 0x3 ADD PUSH1 0x0 SWAP1 SLOAD SWAP1 PUSH2 0x100 EXP SWAP1 DIV PUSH1 0xFF AND PUSH2 0x341D JUMPI PUSH2 0x33EB PUSH8 0xDE5CB237E7C527DB PUSH1 0xC0 SHL PUSH2 0x43E9 JUMP JUMPDEST PUSH1 0x40 MLOAD PUSH32 0x644D871F00000000000000000000000000000000000000000000000000000000 DUP2 MSTORE PUSH1 0x4 ADD PUSH1 0x40 MLOAD DUP1 SWAP2 SUB SWAP1 REVERT JUMPDEST PUSH2 0x3431 PUSH8 0x79D9CE3DF765476C PUSH1 0xC0 SHL PUSH2 0x43E9 JUMP JUMPDEST PUSH2 0x3445 PUSH8 0x5F7001E89BC115B6 PUSH1 0xC0 SHL PUSH2 0x43E9 JUMP JUMPDEST PUSH2 0x3459 PUSH8 0xD0355F60DC7926BF PUSH1 0xC0 SHL PUSH2 0x43E9 JUMP JUMPDEST PUSH1 0x0 PUSH1 0x3 PUSH1 0x0 DUP4 PUSH20 0xFFFFFFFFFFFFFFFFFFFFFFFFFFFFFFFFFFFFFFFF AND PUSH20 0xFFFFFFFFFFFFFFFFFFFFFFFFFFFFFFFFFFFFFFFF AND DUP2 MSTORE PUSH1 0x20 ADD SWAP1 DUP2 MSTORE PUSH1 0x20 ADD PUSH1 0x0 KECCAK256 SWAP1 POP PUSH2 0x34B0 PUSH8 0x1A289D0527B8EDFE PUSH1 0xC0 SHL PUSH2 0x43E9 JUMP JUMPDEST PUSH2 0x34C4 PUSH8 0x535E1290EF4DD258 PUSH1 0xC0 SHL PUSH2 0x43E9 JUMP JUMPDEST DUP1 PUSH1 0x3 ADD PUSH1 0x1 SWAP1 SLOAD SWAP1 PUSH2 0x100 EXP SWAP1 DIV PUSH1 0xFF AND ISZERO PUSH2 0x3521 JUMPI PUSH2 0x34EF PUSH8 0x62A0FE60862026E1 PUSH1 0xC0 SHL PUSH2 0x43E9 JUMP JUMPDEST PUSH1 0x40 MLOAD PUSH32 0xD1BA89A100000000000000000000000000000000000000000000000000000000 DUP2 MSTORE PUSH1 0x4 ADD PUSH1 0x40 MLOAD DUP1 SWAP2 SUB SWAP1 REVERT JUMPDEST PUSH2 0x3535 PUSH8 0x76DADAFA13599501 PUSH1 0xC0 SHL PUSH2 0x43E9 JUMP JUMPDEST PUSH2 0x3549 PUSH8 0x25E7513416E20697 PUSH1 0xC0 SHL PUSH2 0x43E9 JUMP JUMPDEST PUSH2 0x355D PUSH8 0xC068A428FC39AE23 PUSH1 0xC0 SHL PUSH2 0x43E9 JUMP JUMPDEST PUSH1 0x0 PUSH2 0x3568 DUP4 PUSH2 0x379A JUMP JUMPDEST SWAP1 POP PUSH2 0x357E PUSH8 0xC562BBD29541ADAD PUSH1 0xC0 SHL PUSH2 0x43E9 JUMP JUMPDEST PUSH2 0x3592 PUSH8 0xAB2E95F38A52881F PUSH1 0xC0 SHL PUSH2 0x43E9 JUMP JUMPDEST PUSH1 0x0 DUP2 SUB PUSH2 0x35E0 JUMPI PUSH2 0x35AE PUSH8 0xD2A5576F2CC40A77 PUSH1 0xC0 SHL PUSH2 0x43E9 JUMP JUMPDEST PUSH1 0x40 MLOAD PUSH32 0xC4DC60E000000000000000000000000000000000000000000000000000000000 DUP2 MSTORE PUSH1 0x4 ADD PUSH1 0x40 MLOAD DUP1 SWAP2 SUB SWAP1 REVERT JUMPDEST PUSH2 0x35F4 PUSH8 0x3C20ED92C4D2135F PUSH1 0xC0 SHL PUSH2 0x43E9 JUMP JUMPDEST PUSH2 0x3608 PUSH8 0x921003C76A59E450 PUSH1 0xC0 SHL PUSH2 0x43E9 JUMP JUMPDEST PUSH2 0x361C PUSH8 0xF2D405EF3FCC3525 PUSH1 0xC0 SHL PUSH2 0x43E9 JUMP JUMPDEST PUSH1 0x0 PUSH2 0x3626 PUSH2 0x47DB JUMP JUMPDEST SWAP1 POP PUSH2 0x363C PUSH8 0xDF7F60EB12DE58BC PUSH1 0xC0 SHL PUSH2 0x43E9 JUMP JUMPDEST DUP2 DUP4 PUSH1 0x1 ADD PUSH1 0x0 DUP3 DUP3 SLOAD PUSH2 0x3650 SWAP2 SWAP1 PUSH2 0x55DA JUMP JUMPDEST SWAP3 POP POP DUP2 SWAP1 SSTORE POP PUSH2 0x366B PUSH8 0x543384D21963AC14 PUSH1 0xC0 SHL PUSH2 0x43E9 JUMP JUMPDEST DUP1 DUP4 PUSH1 0x2 ADD DUP2 SWAP1 SSTORE POP PUSH2 0x3688 PUSH8 0x4A6B8858C165CB7C PUSH1 0xC0 SHL PUSH2 0x43E9 JUMP JUMPDEST DUP2 PUSH1 0x6 PUSH1 0x0 DUP3 DUP3 SLOAD PUSH2 0x369A SWAP2 SWAP1 PUSH2 0x55DA JUMP JUMPDEST SWAP3 POP POP DUP2 SWAP1 SSTORE POP PUSH2 0x36B5 PUSH8 0xD772676295699282 PUSH1 0xC0 SHL PUSH2 0x43E9 JUMP JUMPDEST PUSH2 0x36C9 PUSH8 0xFA322D5E6D33F125 PUSH1 0xC0 SHL PUSH2 0x43E9 JUMP JUMPDEST PUSH2 0x3714 DUP5 DUP4 PUSH32 0x0 PUSH20 0xFFFFFFFFFFFFFFFFFFFFFFFFFFFFFFFFFFFFFFFF AND PUSH2 0x4A87 SWAP1 SWAP3 SWAP2 SWAP1 PUSH4 0xFFFFFFFF AND JUMP JUMPDEST PUSH2 0x3728 PUSH8 0x6D4676EA2357915F PUSH1 0xC0 SHL PUSH2 0x43E9 JUMP JUMPDEST PUSH2 0x373C PUSH8 0x7109E149E59B3B3F PUSH1 0xC0 SHL PUSH2 0x43E9 JUMP JUMPDEST DUP4 PUSH20 0xFFFFFFFFFFFFFFFFFFFFFFFFFFFFFFFFFFFFFFFF AND PUSH32 0x9923B4306C6C030F2BDFBF156517D5983B87E15B96176DA122CD4F2EFFA4BA7B DUP4 DUP4 PUSH1 0x40 MLOAD PUSH2 0x3784 SWAP3 SWAP2 SWAP1 PUSH2 0x566E JUMP JUMPDEST PUSH1 0x40 MLOAD DUP1 SWAP2 SUB SWAP1 LOG2 POP POP POP PUSH2 0x3797 PUSH2 0x4B06 JUMP JUMPDEST POP JUMP JUMPDEST PUSH1 0x0 PUSH2 0x37B0 PUSH8 0x2D3142BC750DE11F PUSH1 0xC0 SHL PUSH2 0x43E9 JUMP JUMPDEST PUSH2 0x37C4 PUSH8 0x1C3F8AA45A9F4BA4 PUSH1 0xC0 SHL PUSH2 0x43E9 JUMP JUMPDEST PUSH2 0x37D8 PUSH8 0xCE56EDB0A2C33DE PUSH1 0xC0 SHL PUSH2 0x43E9 JUMP JUMPDEST PUSH1 0x0 PUSH1 0x3 PUSH1 0x0 DUP5 PUSH20 0xFFFFFFFFFFFFFFFFFFFFFFFFFFFFFFFFFFFFFFFF AND PUSH20 0xFFFFFFFFFFFFFFFFFFFFFFFFFFFFFFFFFFFFFFFF AND DUP2 MSTORE PUSH1 0x20 ADD SWAP1 DUP2 MSTORE PUSH1 0x20 ADD PUSH1 0x0 KECCAK256 PUSH1 0x40 MLOAD DUP1 PUSH1 0xA0 ADD PUSH1 0x40 MSTORE SWAP1 DUP2 PUSH1 0x0 DUP3 ADD SLOAD DUP2 MSTORE PUSH1 0x20 ADD PUSH1 0x1 DUP3 ADD SLOAD DUP2 MSTORE PUSH1 0x20 ADD PUSH1 0x2 DUP3 ADD SLOAD DUP2 MSTORE PUSH1 0x20 ADD PUSH1 0x3 DUP3 ADD PUSH1 0x0 SWAP1 SLOAD SWAP1 PUSH2 0x100 EXP SWAP1 DIV PUSH1 0xFF AND ISZERO ISZERO ISZERO ISZERO DUP2 MSTORE PUSH1 0x20 ADD PUSH1 0x3 DUP3 ADD PUSH1 0x1 SWAP1 SLOAD SWAP1 PUSH2 0x100 EXP SWAP1 DIV PUSH1 0xFF AND ISZERO ISZERO ISZERO ISZERO DUP2 MSTORE POP POP SWAP1 POP PUSH2 0x388E PUSH8 0xABF5FCE010B3E45C PUSH1 0xC0 SHL PUSH2 0x43E9 JUMP JUMPDEST PUSH2 0x38A2 PUSH8 0xF4E1FA42F077F2E6 PUSH1 0xC0 SHL PUSH2 0x43E9 JUMP JUMPDEST DUP1 PUSH1 0x60 ADD MLOAD ISZERO DUP1 ISZERO PUSH2 0x38C4 JUMPI POP PUSH2 0x38C3 PUSH8 0x50E2537CE67FA0C4 PUSH1 0xC0 SHL PUSH2 0x4BDA JUMP JUMPDEST JUMPDEST DUP1 PUSH2 0x38EC JUMPI POP DUP1 PUSH1 0x80 ADD MLOAD DUP1 ISZERO PUSH2 0x38EB JUMPI POP PUSH2 0x38EA PUSH8 0xD2CFC76A7DAEBB7A PUSH1 0xC0 SHL PUSH2 0x4BDA JUMP JUMPDEST JUMPDEST JUMPDEST ISZERO PUSH2 0x3923 JUMPI PUSH2 0x3905 PUSH8 0xAEAABCC84F67CD75 PUSH1 0xC0 SHL PUSH2 0x43E9 JUMP JUMPDEST PUSH2 0x3919 PUSH8 0x7741EFECC9991C7A PUSH1 0xC0 SHL PUSH2 0x43E9 JUMP JUMPDEST PUSH1 0x0 SWAP2 POP POP PUSH2 0x39F3 JUMP JUMPDEST PUSH2 0x3937 PUSH8 0xD1C55781DE6E3375 PUSH1 0xC0 SHL PUSH2 0x43E9 JUMP JUMPDEST PUSH2 0x394B PUSH8 0xA8E780653AF9BB85 PUSH1 0xC0 SHL PUSH2 0x43E9 JUMP JUMPDEST PUSH2 0x395F PUSH8 0xD9074B5F25BD5F60 PUSH1 0xC0 SHL PUSH2 0x43E9 JUMP JUMPDEST PUSH1 0x0 PUSH2 0x396A DUP5 PUSH2 0x4473 JUMP JUMPDEST SWAP1 POP PUSH2 0x3980 PUSH8 0xD77F8354881AEBBA PUSH1 0xC0 SHL PUSH2 0x43E9 JUMP JUMPDEST PUSH2 0x3994 PUSH8 0xD1C6A6EC0927E1E7 PUSH1 0xC0 SHL PUSH2 0x43E9 JUMP JUMPDEST DUP2 PUSH1 0x20 ADD MLOAD DUP2 GT DUP1 PUSH2 0x39B6 JUMPI POP PUSH2 0x39B5 PUSH8 0x4F16BA9E70ECB8C6 PUSH1 0xC0 SHL PUSH2 0x4BD3 JUMP JUMPDEST JUMPDEST DUP1 ISZERO PUSH2 0x39D2 JUMPI POP PUSH2 0x39D1 PUSH8 0x52A1FE9668949EEB PUSH1 0xC0 SHL PUSH2 0x4BDA JUMP JUMPDEST JUMPDEST PUSH2 0x39DD JUMPI PUSH1 0x0 PUSH2 0x39EE JUMP JUMPDEST DUP2 PUSH1 0x20 ADD MLOAD DUP2 PUSH2 0x39ED SWAP2 SWAP1 PUSH2 0x5564 JUMP JUMPDEST JUMPDEST SWAP3 POP POP POP JUMPDEST SWAP2 SWAP1 POP JUMP JUMPDEST PUSH2 0x2710 DUP2 JUMP JUMPDEST PUSH2 0x3A12 PUSH8 0x2F17B67A3F5A3223 PUSH1 0xC0 SHL PUSH2 0x43E9 JUMP JUMPDEST PUSH2 0x3A1A PUSH2 0x43EC JUMP JUMPDEST PUSH2 0x3A2E PUSH8 0xE6C3E2F131B1FBD3 PUSH1 0xC0 SHL PUSH2 0x43E9 JUMP JUMPDEST PUSH2 0x3A42 PUSH8 0x1343C5C9273F15D1 PUSH1 0xC0 SHL PUSH2 0x43E9 JUMP JUMPDEST PUSH2 0x3A56 PUSH8 0xECEDF326517A7837 PUSH1 0xC0 SHL PUSH2 0x43E9 JUMP JUMPDEST PUSH2 0x3A6A PUSH8 0x1462159037EE2615 PUSH1 0xC0 SHL PUSH2 0x43E9 JUMP JUMPDEST PUSH1 0x3 PUSH1 0x0 DUP3 PUSH20 0xFFFFFFFFFFFFFFFFFFFFFFFFFFFFFFFFFFFFFFFF AND PUSH20 0xFFFFFFFFFFFFFFFFFFFFFFFFFFFFFFFFFFFFFFFF AND DUP2 MSTORE PUSH1 0x20 ADD SWAP1 DUP2 MSTORE PUSH1 0x20 ADD PUSH1 0x0 KECCAK256 PUSH1 0x3 ADD PUSH1 0x0 SWAP1 SLOAD SWAP1 PUSH2 0x100 EXP SWAP1 DIV PUSH1 0xFF AND PUSH2 0x3B04 JUMPI PUSH2 0x3AD2 PUSH8 0x393AFB4841E826F6 PUSH1 0xC0 SHL PUSH2 0x43E9 JUMP JUMPDEST PUSH1 0x40 MLOAD PUSH32 0x644D871F00000000000000000000000000000000000000000000000000000000 DUP2 MSTORE PUSH1 0x4 ADD PUSH1 0x40 MLOAD DUP1 SWAP2 SUB SWAP1 REVERT JUMPDEST PUSH2 0x3B18 PUSH8 0x95FDACB73D08ADE1 PUSH1 0xC0 SHL PUSH2 0x43E9 JUMP JUMPDEST PUSH2 0x3B2C PUSH8 0xEC71E1389AF7D456 PUSH1 0xC0 SHL PUSH2 0x43E9 JUMP JUMPDEST PUSH2 0x3B40 PUSH8 0xE5279CBB25A837BA PUSH1 0xC0 SHL PUSH2 0x43E9 JUMP JUMPDEST PUSH1 0x0 PUSH1 0x3 PUSH1 0x0 DUP4 PUSH20 0xFFFFFFFFFFFFFFFFFFFFFFFFFFFFFFFFFFFFFFFF AND PUSH20 0xFFFFFFFFFFFFFFFFFFFFFFFFFFFFFFFFFFFFFFFF AND DUP2 MSTORE PUSH1 0x20 ADD SWAP1 DUP2 MSTORE PUSH1 0x20 ADD PUSH1 0x0 KECCAK256 SWAP1 POP PUSH2 0x3B97 PUSH8 0x121BFD62935D0521 PUSH1 0xC0 SHL PUSH2 0x43E9 JUMP JUMPDEST PUSH2 0x3BAB PUSH8 0x9B88F82BE0E22FE2 PUSH1 0xC0 SHL PUSH2 0x43E9 JUMP JUMPDEST DUP1 PUSH1 0x3 ADD PUSH1 0x1 SWAP1 SLOAD SWAP1 PUSH2 0x100 EXP SWAP1 DIV PUSH1 0xFF AND ISZERO PUSH2 0x3C08 JUMPI PUSH2 0x3BD6 PUSH8 0xF4E4744C3BF12A80 PUSH1 0xC0 SHL PUSH2 0x43E9 JUMP JUMPDEST PUSH1 0x40 MLOAD PUSH32 0xD1BA89A100000000000000000000000000000000000000000000000000000000 DUP2 MSTORE PUSH1 0x4 ADD PUSH1 0x40 MLOAD DUP1 SWAP2 SUB SWAP1 REVERT JUMPDEST PUSH2 0x3C1C PUSH8 0xC483A6A76D6573D8 PUSH1 0xC0 SHL PUSH2 0x43E9 JUMP JUMPDEST PUSH2 0x3C30 PUSH8 0x926245201B27DF28 PUSH1 0xC0 SHL PUSH2 0x43E9 JUMP JUMPDEST PUSH2 0x3C44 PUSH8 0x6AC6FB3B4F1B8116 PUSH1 0xC0 SHL PUSH2 0x43E9 JUMP JUMPDEST PUSH1 0x0 PUSH2 0x3C4F DUP4 PUSH2 0x4473 JUMP JUMPDEST SWAP1 POP PUSH2 0x3C65 PUSH8 0xA06CF12BD0C1ADF8 PUSH1 0xC0 SHL PUSH2 0x43E9 JUMP JUMPDEST PUSH2 0x3C79 PUSH8 0xB0692DA728DB2439 PUSH1 0xC0 SHL PUSH2 0x43E9 JUMP JUMPDEST PUSH1 0x0 DUP3 PUSH1 0x1 ADD SLOAD DUP3 PUSH2 0x3C8B SWAP2 SWAP1 PUSH2 0x5564 JUMP JUMPDEST SWAP1 POP PUSH2 0x3CA1 PUSH8 0x1C26D0FCD5EA8399 PUSH1 0xC0 SHL PUSH2 0x43E9 JUMP JUMPDEST PUSH2 0x3CB5 PUSH8 0xFB21DFF6E6880089 PUSH1 0xC0 SHL PUSH2 0x43E9 JUMP JUMPDEST PUSH1 0x0 DUP2 GT ISZERO PUSH2 0x3E25 JUMPI PUSH2 0x3CD2 PUSH8 0x32956CB11217E241 PUSH1 0xC0 SHL PUSH2 0x43E9 JUMP JUMPDEST PUSH2 0x3CE6 PUSH8 0x670626C04A6F2299 PUSH1 0xC0 SHL PUSH2 0x43E9 JUMP JUMPDEST DUP1 DUP4 PUSH1 0x1 ADD PUSH1 0x0 DUP3 DUP3 SLOAD PUSH2 0x3CFA SWAP2 SWAP1 PUSH2 0x55DA JUMP JUMPDEST SWAP3 POP POP DUP2 SWAP1 SSTORE POP PUSH2 0x3D15 PUSH8 0xAB9D1ADB3DFCE6BE PUSH1 0xC0 SHL PUSH2 0x43E9 JUMP JUMPDEST DUP1 PUSH1 0x6 PUSH1 0x0 DUP3 DUP3 SLOAD PUSH2 0x3D27 SWAP2 SWAP1 PUSH2 0x55DA JUMP JUMPDEST SWAP3 POP POP DUP2 SWAP1 SSTORE POP PUSH2 0x3D42 PUSH8 0x361000CDD2677E46 PUSH1 0xC0 SHL PUSH2 0x43E9 JUMP JUMPDEST PUSH2 0x3D56 PUSH8 0x51CBF0600378BD9D PUSH1 0xC0 SHL PUSH2 0x43E9 JUMP JUMPDEST PUSH2 0x3DA1 DUP5 DUP3 PUSH32 0x0 PUSH20 0xFFFFFFFFFFFFFFFFFFFFFFFFFFFFFFFFFFFFFFFF AND PUSH2 0x4A87 SWAP1 SWAP3 SWAP2 SWAP1 PUSH4 0xFFFFFFFF AND JUMP JUMPDEST PUSH2 0x3DB5 PUSH8 0x6E74EBAFFBC604A3 PUSH1 0xC0 SHL PUSH2 0x43E9 JUMP JUMPDEST PUSH2 0x3DC9 PUSH8 0x927108A4DDE796F2 PUSH1 0xC0 SHL PUSH2 0x43E9 JUMP JUMPDEST DUP4 PUSH20 0xFFFFFFFFFFFFFFFFFFFFFFFFFFFFFFFFFFFFFFFF AND PUSH32 0x9923B4306C6C030F2BDFBF156517D5983B87E15B96176DA122CD4F2EFFA4BA7B DUP3 PUSH2 0x3E0A PUSH2 0x47DB JUMP JUMPDEST PUSH1 0x40 MLOAD PUSH2 0x3E18 SWAP3 SWAP2 SWAP1 PUSH2 0x566E JUMP JUMPDEST PUSH1 0x40 MLOAD DUP1 SWAP2 SUB SWAP1 LOG2 PUSH2 0x3E3A JUMP JUMPDEST PUSH2 0x3E39 PUSH8 0x7FCA3FF3DF003885 PUSH1 0xC0 SHL PUSH2 0x43E9 JUMP JUMPDEST JUMPDEST PUSH2 0x3E4E PUSH8 0xEB7566323B426B63 PUSH1 0xC0 SHL PUSH2 0x43E9 JUMP JUMPDEST PUSH2 0x3E62 PUSH8 0x275360CECE3A5CF8 PUSH1 0xC0 SHL PUSH2 0x43E9 JUMP JUMPDEST PUSH1 0x0 DUP4 PUSH1 0x1 ADD SLOAD DUP5 PUSH1 0x0 ADD SLOAD PUSH2 0x3E78 SWAP2 SWAP1 PUSH2 0x5564 JUMP JUMPDEST SWAP1 POP PUSH2 0x3E8E PUSH8 0x194DFD9FB9570276 PUSH1 0xC0 SHL PUSH2 0x43E9 JUMP JUMPDEST PUSH1 0x1 DUP5 PUSH1 0x3 ADD PUSH1 0x1 PUSH2 0x100 EXP DUP2 SLOAD DUP2 PUSH1 0xFF MUL NOT AND SWAP1 DUP4 ISZERO ISZERO MUL OR SWAP1 SSTORE POP PUSH2 0x3EBF PUSH8 0x126DD02D7FE9BCFF PUSH1 0xC0 SHL PUSH2 0x43E9 JUMP JUMPDEST PUSH2 0x3ED3 PUSH8 0x9E112A28AEAA9BE6 PUSH1 0xC0 SHL PUSH2 0x43E9 JUMP JUMPDEST DUP5 PUSH20 0xFFFFFFFFFFFFFFFFFFFFFFFFFFFFFFFFFFFFFFFF AND PUSH32 0x40F95D3C705A0CFBBCFBB6F9B8777A527378D1C8CEAC50E5E22A1EB953E7F20 DUP3 PUSH1 0x40 MLOAD PUSH2 0x3F19 SWAP2 SWAP1 PUSH2 0x4ECB JUMP JUMPDEST PUSH1 0x40 MLOAD DUP1 SWAP2 SUB SWAP1 LOG2 POP POP POP POP POP JUMP JUMPDEST PUSH2 0x3F30 PUSH2 0x43EC JUMP JUMPDEST PUSH1 0x0 PUSH20 0xFFFFFFFFFFFFFFFFFFFFFFFFFFFFFFFFFFFFFFFF AND DUP2 PUSH20 0xFFFFFFFFFFFFFFFFFFFFFFFFFFFFFFFFFFFFFFFF AND SUB PUSH2 0x3FA2 JUMPI PUSH1 0x0 PUSH1 0x40 MLOAD PUSH32 0x1E4FBDF700000000000000000000000000000000000000000000000000000000 DUP2 MSTORE PUSH1 0x4 ADD PUSH2 0x3F99 SWAP2 SWAP1 PUSH2 0x536C JUMP JUMPDEST PUSH1 0x40 MLOAD DUP1 SWAP2 SUB SWAP1 REVERT JUMPDEST PUSH2 0x3FAB DUP2 PUSH2 0x4B0F JUMP JUMPDEST POP JUMP JUMPDEST PUSH2 0x3FC2 PUSH8 0xE88B49376A62B66A PUSH1 0xC0 SHL PUSH2 0x43E9 JUMP JUMPDEST PUSH2 0x3FCA PUSH2 0x43EC JUMP JUMPDEST PUSH2 0x3FDE PUSH8 0x8E3199409EAC543F PUSH1 0xC0 SHL PUSH2 0x43E9 JUMP JUMPDEST PUSH2 0x3FF2 PUSH8 0xD5AA0B8DE1D413FB PUSH1 0xC0 SHL PUSH2 0x43E9 JUMP JUMPDEST PUSH2 0x4006 PUSH8 0x4359BDE477C6026F PUSH1 0xC0 SHL PUSH2 0x43E9 JUMP JUMPDEST PUSH2 0x401A PUSH8 0x6C56B1668E4648D1 PUSH1 0xC0 SHL PUSH2 0x43E9 JUMP JUMPDEST PUSH1 0x7 PUSH1 0x0 SWAP1 SLOAD SWAP1 PUSH2 0x100 EXP SWAP1 DIV PUSH1 0xFF AND ISZERO PUSH2 0x4075 JUMPI PUSH2 0x4043 PUSH8 0xB4B2BF7A86D3D0E6 PUSH1 0xC0 SHL PUSH2 0x43E9 JUMP JUMPDEST PUSH1 0x40 MLOAD PUSH32 0x3BCD404900000000000000000000000000000000000000000000000000000000 DUP2 MSTORE PUSH1 0x4 ADD PUSH1 0x40 MLOAD DUP1 SWAP2 SUB SWAP1 REVERT JUMPDEST PUSH2 0x4089 PUSH8 0xA25E94DF6BE41277 PUSH1 0xC0 SHL PUSH2 0x43E9 JUMP JUMPDEST PUSH2 0x409D PUSH8 0x35B7CE9712EE139B PUSH1 0xC0 SHL PUSH2 0x43E9 JUMP JUMPDEST PUSH2 0x40B1 PUSH8 0x7F166F4018C68356 PUSH1 0xC0 SHL PUSH2 0x43E9 JUMP JUMPDEST PUSH1 0x3 PUSH1 0x0 DUP4 PUSH20 0xFFFFFFFFFFFFFFFFFFFFFFFFFFFFFFFFFFFFFFFF AND PUSH20 0xFFFFFFFFFFFFFFFFFFFFFFFFFFFFFFFFFFFFFFFF AND DUP2 MSTORE PUSH1 0x20 ADD SWAP1 DUP2 MSTORE PUSH1 0x20 ADD PUSH1 0x0 KECCAK256 PUSH1 0x3 ADD PUSH1 0x0 SWAP1 SLOAD SWAP1 PUSH2 0x100 EXP SWAP1 DIV PUSH1 0xFF AND PUSH2 0x414B JUMPI PUSH2 0x4119 PUSH8 0xE0EE5565E0E673CD PUSH1 0xC0 SHL PUSH2 0x43E9 JUMP JUMPDEST PUSH1 0x40 MLOAD PUSH32 0x644D871F00000000000000000000000000000000000000000000000000000000 DUP2 MSTORE PUSH1 0x4 ADD PUSH1 0x40 MLOAD DUP1 SWAP2 SUB SWAP1 REVERT JUMPDEST PUSH2 0x415F PUSH8 0x313C31FB2F73B373 PUSH1 0xC0 SHL PUSH2 0x43E9 JUMP JUMPDEST PUSH2 0x4173 PUSH8 0x6FF72A6AD9CFA863 PUSH1 0xC0 SHL PUSH2 0x43E9 JUMP JUMPDEST PUSH2 0x4187 PUSH8 0x279088856A39BCFD PUSH1 0xC0 SHL PUSH2 0x43E9 JUMP JUMPDEST PUSH1 0x0 DUP2 SUB PUSH2 0x41D5 JUMPI PUSH2 0x41A3 PUSH8 0xEFD40188ED42BF0C PUSH1 0xC0 SHL PUSH2 0x43E9 JUMP JUMPDEST PUSH1 0x40 MLOAD PUSH32 0x2C5211C600000000000000000000000000000000000000000000000000000000 DUP2 MSTORE PUSH1 0x4 ADD PUSH1 0x40 MLOAD DUP1 SWAP2 SUB SWAP1 REVERT JUMPDEST PUSH2 0x41E9 PUSH8 0x5417D716657C9522 PUSH1 0xC0 SHL PUSH2 0x43E9 JUMP JUMPDEST PUSH2 0x41FD PUSH8 0xF6B13052B56F5F66 PUSH1 0xC0 SHL PUSH2 0x43E9 JUMP JUMPDEST PUSH2 0x4211 PUSH8 0xA27FCEF02CC279B0 PUSH1 0xC0 SHL PUSH2 0x43E9 JUMP JUMPDEST PUSH1 0x0 PUSH1 0x3 PUSH1 0x0 DUP5 PUSH20 0xFFFFFFFFFFFFFFFFFFFFFFFFFFFFFFFFFFFFFFFF AND PUSH20 0xFFFFFFFFFFFFFFFFFFFFFFFFFFFFFFFFFFFFFFFF AND DUP2 MSTORE PUSH1 0x20 ADD SWAP1 DUP2 MSTORE PUSH1 0x20 ADD PUSH1 0x0 KECCAK256 SWAP1 POP PUSH2 0x4268 PUSH8 0xFB5D8E1E733E6AEF PUSH1 0xC0 SHL PUSH2 0x43E9 JUMP JUMPDEST PUSH2 0x427C PUSH8 0x8BB2908ACFFF1EDF PUSH1 0xC0 SHL PUSH2 0x43E9 JUMP JUMPDEST PUSH1 0x0 DUP2 PUSH1 0x0 ADD SLOAD SWAP1 POP PUSH2 0x4299 PUSH8 0xE3775B011174EBEF PUSH1 0xC0 SHL PUSH2 0x43E9 JUMP JUMPDEST DUP3 DUP2 PUSH1 0x5 SLOAD PUSH2 0x42A8 SWAP2 SWAP1 PUSH2 0x5564 JUMP JUMPDEST PUSH2 0x42B2 SWAP2 SWAP1 PUSH2 0x55DA JUMP JUMPDEST PUSH1 0x5 DUP2 SWAP1 SSTORE POP PUSH2 0x42CC PUSH8 0xC2FB9F49D3054DC6 PUSH1 0xC0 SHL PUSH2 0x43E9 JUMP JUMPDEST PUSH2 0x42E0 PUSH8 0x98D38B9F3265E452 PUSH1 0xC0 SHL PUSH2 0x43E9 JUMP JUMPDEST PUSH12 0x33B2E3C9FD0803CE8000000 PUSH1 0x5 SLOAD GT ISZERO PUSH2 0x433C JUMPI PUSH2 0x430A PUSH8 0x4C6C8FB3E95AC20D PUSH1 0xC0 SHL PUSH2 0x43E9 JUMP JUMPDEST PUSH1 0x40 MLOAD PUSH32 0x87A7C61E00000000000000000000000000000000000000000000000000000000 DUP2 MSTORE PUSH1 0x4 ADD PUSH1 0x40 MLOAD DUP1 SWAP2 SUB SWAP1 REVERT JUMPDEST PUSH2 0x4350 PUSH8 0x81DD9736A56786BF PUSH1 0xC0 SHL PUSH2 0x43E9 JUMP JUMPDEST PUSH2 0x4364 PUSH8 0x1E348192C12A35D2 PUSH1 0xC0 SHL PUSH2 0x43E9 JUMP JUMPDEST DUP3 DUP3 PUSH1 0x0 ADD DUP2 SWAP1 SSTORE POP PUSH2 0x4381 PUSH8 0x6BFAD3F883A83CB8 PUSH1 0xC0 SHL PUSH2 0x43E9 JUMP JUMPDEST PUSH2 0x4395 PUSH8 0x70764A2DCB9BBFCA PUSH1 0xC0 SHL PUSH2 0x43E9 JUMP JUMPDEST DUP4 PUSH20 0xFFFFFFFFFFFFFFFFFFFFFFFFFFFFFFFFFFFFFFFF AND PUSH32 0x73D60FA978F046C1CCF0F85C6247B34D322AD63D5184881EF2F10BF3C70DDE21 DUP5 PUSH1 0x40 MLOAD PUSH2 0x43DB SWAP2 SWAP1 PUSH2 0x4ECB JUMP JUMPDEST PUSH1 0x40 MLOAD DUP1 SWAP2 SUB SWAP1 LOG2 POP POP POP POP JUMP JUMPDEST POP JUMP JUMPDEST PUSH2 0x43F4 PUSH2 0x4CCA JUMP JUMPDEST PUSH20 0xFFFFFFFFFFFFFFFFFFFFFFFFFFFFFFFFFFFFFFFF AND PUSH2 0x4412 PUSH2 0x22A5 JUMP JUMPDEST PUSH20 0xFFFFFFFFFFFFFFFFFFFFFFFFFFFFFFFFFFFFFFFF AND EQ PUSH2 0x4471 JUMPI PUSH2 0x4435 PUSH2 0x4CCA JUMP JUMPDEST PUSH1 0x40 MLOAD PUSH32 0x118CDAA700000000000000000000000000000000000000000000000000000000 DUP2 MSTORE PUSH1 0x4 ADD PUSH2 0x4468 SWAP2 SWAP1 PUSH2 0x536C JUMP JUMPDEST PUSH1 0x40 MLOAD DUP1 SWAP2 SUB SWAP1 REVERT JUMPDEST JUMP JUMPDEST PUSH1 0x0 PUSH2 0x4489 PUSH8 0x34184535531EC495 PUSH1 0xC0 SHL PUSH2 0x43E9 JUMP JUMPDEST PUSH2 0x449D PUSH8 0x6003D429571361D5 PUSH1 0xC0 SHL PUSH2 0x43E9 JUMP JUMPDEST PUSH2 0x44B1 PUSH8 0xF3AE6DF15169AA80 PUSH1 0xC0 SHL PUSH2 0x43E9 JUMP JUMPDEST PUSH1 0x0 PUSH1 0x3 PUSH1 0x0 DUP5 PUSH20 0xFFFFFFFFFFFFFFFFFFFFFFFFFFFFFFFFFFFFFFFF AND PUSH20 0xFFFFFFFFFFFFFFFFFFFFFFFFFFFFFFFFFFFFFFFF AND DUP2 MSTORE PUSH1 0x20 ADD SWAP1 DUP2 MSTORE PUSH1 0x20 ADD PUSH1 0x0 KECCAK256 PUSH1 0x40 MLOAD DUP1 PUSH1 0xA0 ADD PUSH1 0x40 MSTORE SWAP1 DUP2 PUSH1 0x0 DUP3 ADD SLOAD DUP2 MSTORE PUSH1 0x20 ADD PUSH1 0x1 DUP3 ADD SLOAD DUP2 MSTORE PUSH1 0x20 ADD PUSH1 0x2 DUP3 ADD SLOAD DUP2 MSTORE PUSH1 0x20 ADD PUSH1 0x3 DUP3 ADD PUSH1 0x0 SWAP1 SLOAD SWAP1 PUSH2 0x100 EXP SWAP1 DIV PUSH1 0xFF AND ISZERO ISZERO ISZERO ISZERO DUP2 MSTORE PUSH1 0x20 ADD PUSH1 0x3 DUP3 ADD PUSH1 0x1 SWAP1 SLOAD SWAP1 PUSH2 0x100 EXP SWAP1 DIV PUSH1 0xFF AND ISZERO ISZERO ISZERO ISZERO DUP2 MSTORE POP POP SWAP1 POP PUSH2 0x4567 PUSH8 0xA45FD99DE78581F6 PUSH1 0xC0 SHL PUSH2 0x43E9 JUMP JUMPDEST PUSH2 0x457B PUSH8 0x94B6A67D4570B506 PUSH1 0xC0 SHL PUSH2 0x43E9 JUMP JUMPDEST DUP1 PUSH1 0x60 ADD MLOAD ISZERO DUP1 ISZERO PUSH2 0x459D JUMPI POP PUSH2 0x459C PUSH8 0x9F64B8F14263A5BA PUSH1 0xC0 SHL PUSH2 0x4BDA JUMP JUMPDEST JUMPDEST DUP1 PUSH2 0x45C5 JUMPI POP DUP1 PUSH1 0x80 ADD MLOAD DUP1 ISZERO PUSH2 0x45C4 JUMPI POP PUSH2 0x45C3 PUSH8 0x3B94B57CECAD3B6C PUSH1 0xC0 SHL PUSH2 0x4BDA JUMP JUMPDEST JUMPDEST JUMPDEST ISZERO PUSH2 0x45FC JUMPI PUSH2 0x45DE PUSH8 0x3372CC5BEB2A4003 PUSH1 0xC0 SHL PUSH2 0x43E9 JUMP JUMPDEST PUSH2 0x45F2 PUSH8 0xE8A4626E27FA37D4 PUSH1 0xC0 SHL PUSH2 0x43E9 JUMP JUMPDEST PUSH1 0x0 SWAP2 POP POP PUSH2 0x47D6 JUMP JUMPDEST PUSH2 0x4610 PUSH8 0x30BBCCBDBE77ED4F PUSH1 0xC0 SHL PUSH2 0x43E9 JUMP JUMPDEST PUSH2 0x4624 PUSH8 0xA02F0977F5D9B675 PUSH1 0xC0 SHL PUSH2 0x43E9 JUMP JUMPDEST PUSH2 0x4638 PUSH8 0x5859541148E6CC24 PUSH1 0xC0 SHL PUSH2 0x43E9 JUMP JUMPDEST PUSH32 0x0 TIMESTAMP LT ISZERO PUSH2 0x4692 JUMPI PUSH2 0x4674 PUSH8 0xB9E089F697373E78 PUSH1 0xC0 SHL PUSH2 0x43E9 JUMP JUMPDEST PUSH2 0x4688 PUSH8 0x64100488AAD21847 PUSH1 0xC0 SHL PUSH2 0x43E9 JUMP JUMPDEST PUSH1 0x0 SWAP2 POP POP PUSH2 0x47D6 JUMP JUMPDEST PUSH2 0x46A6 PUSH8 0xD4E6574193DEA1D2 PUSH1 0xC0 SHL PUSH2 0x43E9 JUMP JUMPDEST PUSH2 0x46BA PUSH8 0x5F26D5D25675AC6B PUSH1 0xC0 SHL PUSH2 0x43E9 JUMP JUMPDEST PUSH2 0x46CE PUSH8 0x18E90AA2F89B5445 PUSH1 0xC0 SHL PUSH2 0x43E9 JUMP JUMPDEST PUSH1 0x0 PUSH2 0x46D8 PUSH2 0x47DB JUMP JUMPDEST SWAP1 POP PUSH2 0x46EE PUSH8 0x93B8887CF7246538 PUSH1 0xC0 SHL PUSH2 0x43E9 JUMP JUMPDEST PUSH2 0x4702 PUSH8 0xEE4B4AE31F81475E PUSH1 0xC0 SHL PUSH2 0x43E9 JUMP JUMPDEST PUSH1 0x0 DUP2 SUB PUSH2 0x473D JUMPI PUSH2 0x471E PUSH8 0xB82E83653814947C PUSH1 0xC0 SHL PUSH2 0x43E9 JUMP JUMPDEST PUSH2 0x4732 PUSH8 0x71C2E71D4B70062D PUSH1 0xC0 SHL PUSH2 0x43E9 JUMP JUMPDEST PUSH1 0x0 SWAP3 POP POP POP PUSH2 0x47D6 JUMP JUMPDEST PUSH2 0x4751 PUSH8 0x5E9C693FCFD03F9A PUSH1 0xC0 SHL PUSH2 0x43E9 JUMP JUMPDEST PUSH2 0x4765 PUSH8 0xA076AC151F280EE5 PUSH1 0xC0 SHL PUSH2 0x43E9 JUMP JUMPDEST PUSH2 0x4779 PUSH8 0xCD3FAC658757AF97 PUSH1 0xC0 SHL PUSH2 0x43E9 JUMP JUMPDEST PUSH1 0x0 PUSH2 0x7D0 DUP3 PUSH2 0x4789 SWAP2 SWAP1 PUSH2 0x5598 JUMP JUMPDEST SWAP1 POP PUSH2 0x479F PUSH8 0x6549CAA83DA517DD PUSH1 0xC0 SHL PUSH2 0x43E9 JUMP JUMPDEST PUSH2 0x47B3 PUSH8 0x400C4229981C930D PUSH1 0xC0 SHL PUSH2 0x43E9 JUMP JUMPDEST PUSH2 0x2710 DUP2 DUP5 PUSH1 0x0 ADD MLOAD PUSH2 0x47C6 SWAP2 SWAP1 PUSH2 0x5598 JUMP JUMPDEST PUSH2 0x47D0 SWAP2 SWAP1 PUSH2 0x563D JUMP JUMPDEST SWAP4 POP POP POP POP JUMPDEST SWAP2 SWAP1 POP JUMP JUMPDEST PUSH1 0x0 PUSH2 0x47F1 PUSH8 0xFD164D9C20595DF4 PUSH1 0xC0 SHL PUSH2 0x43E9 JUMP JUMPDEST PUSH2 0x4805 PUSH8 0x1E87CF49EC6BD3B8 PUSH1 0xC0 SHL PUSH2 0x43E9 JUMP JUMPDEST PUSH2 0x4819 PUSH8 0xE67013E8892F8CA8 PUSH1 0xC0 SHL PUSH2 0x43E9 JUMP JUMPDEST PUSH32 0x0 TIMESTAMP LT ISZERO PUSH2 0x4872 JUMPI PUSH2 0x4855 PUSH8 0x2EB67E8349F67C21 PUSH1 0xC0 SHL PUSH2 0x43E9 JUMP JUMPDEST PUSH2 0x4869 PUSH8 0x8AA9C893A35DD3E4 PUSH1 0xC0 SHL PUSH2 0x43E9 JUMP JUMPDEST PUSH1 0x0 SWAP1 POP PUSH2 0x499A JUMP JUMPDEST PUSH2 0x4886 PUSH8 0x73682F47EF63CB76 PUSH1 0xC0 SHL PUSH2 0x43E9 JUMP JUMPDEST PUSH2 0x489A PUSH8 0x31A75B180A970EC7 PUSH1 0xC0 SHL PUSH2 0x43E9 JUMP JUMPDEST PUSH2 0x48AE PUSH8 0xDA6AC6B419E7F816 PUSH1 0xC0 SHL PUSH2 0x43E9 JUMP JUMPDEST PUSH1 0x0 PUSH32 0x0 TIMESTAMP PUSH2 0x48DC SWAP2 SWAP1 PUSH2 0x5564 JUMP JUMPDEST SWAP1 POP PUSH2 0x48F2 PUSH8 0xF69A814CB45B4DF9 PUSH1 0xC0 SHL PUSH2 0x43E9 JUMP JUMPDEST PUSH2 0x4906 PUSH8 0xF16BF684F018B8B1 PUSH1 0xC0 SHL PUSH2 0x43E9 JUMP JUMPDEST PUSH1 0x0 PUSH1 0x1 PUSH3 0xED4E00 DUP4 PUSH2 0x4919 SWAP2 SWAP1 PUSH2 0x563D JUMP JUMPDEST PUSH2 0x4923 SWAP2 SWAP1 PUSH2 0x55DA JUMP JUMPDEST SWAP1 POP PUSH2 0x4939 PUSH8 0xC2F677CFE6DEA3D3 PUSH1 0xC0 SHL PUSH2 0x43E9 JUMP JUMPDEST PUSH2 0x494D PUSH8 0xABAAAE14C2D29507 PUSH1 0xC0 SHL PUSH2 0x43E9 JUMP JUMPDEST PUSH1 0x5 DUP2 GT DUP1 PUSH2 0x496C JUMPI POP PUSH2 0x496B PUSH8 0x6088DAAAE2D07F6C PUSH1 0xC0 SHL PUSH2 0x4BD3 JUMP JUMPDEST JUMPDEST DUP1 ISZERO PUSH2 0x4988 JUMPI POP PUSH2 0x4987 PUSH8 0xCBE106B0D3756758 PUSH1 0xC0 SHL PUSH2 0x4BDA JUMP JUMPDEST JUMPDEST PUSH2 0x4992 JUMPI DUP1 PUSH2 0x4995 JUMP JUMPDEST PUSH1 0x5 JUMPDEST SWAP3 POP POP POP JUMPDEST SWAP1 JUMP JUMPDEST PUSH2 0x49A5 PUSH2 0x4CD2 JUMP JUMPDEST PUSH1 0x0 PUSH1 0x2 PUSH1 0x0 PUSH2 0x100 EXP DUP2 SLOAD DUP2 PUSH1 0xFF MUL NOT AND SWAP1 DUP4 ISZERO ISZERO MUL OR SWAP1 SSTORE POP PUSH32 0x5DB9EE0A495BF2E6FF9C91A7834C1BA4FDD244A5E8AA4E537BD38AEAE4B073AA PUSH2 0x49E9 PUSH2 0x4CCA JUMP JUMPDEST PUSH1 0x40 MLOAD PUSH2 0x49F6 SWAP2 SWAP1 PUSH2 0x536C JUMP JUMPDEST PUSH1 0x40 MLOAD DUP1 SWAP2 SUB SWAP1 LOG1 JUMP JUMPDEST PUSH1 0x2 PUSH1 0x1 SLOAD SUB PUSH2 0x4A3C JUMPI PUSH1 0x40 MLOAD PUSH32 0x3EE5AEB500000000000000000000000000000000000000000000000000000000 DUP2 MSTORE PUSH1 0x4 ADD PUSH1 0x40 MLOAD DUP1 SWAP2 SUB SWAP1 REVERT JUMPDEST PUSH1 0x2 PUSH1 0x1 DUP2 SWAP1 SSTORE POP JUMP JUMPDEST PUSH2 0x4A4E PUSH2 0x1F62 JUMP JUMPDEST ISZERO PUSH2 0x4A85 JUMPI PUSH1 0x40 MLOAD PUSH32 0xD93C066500000000000000000000000000000000000000000000000000000000 DUP2 MSTORE PUSH1 0x4 ADD PUSH1 0x40 MLOAD DUP1 SWAP2 SUB SWAP1 REVERT JUMPDEST JUMP JUMPDEST PUSH2 0x4B01 DUP4 DUP5 PUSH20 0xFFFFFFFFFFFFFFFFFFFFFFFFFFFFFFFFFFFFFFFF AND PUSH4 0xA9059CBB DUP6 DUP6 PUSH1 0x40 MLOAD PUSH1 0x24 ADD PUSH2 0x4ABA SWAP3 SWAP2 SWAP1 PUSH2 0x5708 JUMP JUMPDEST PUSH1 0x40 MLOAD PUSH1 0x20 DUP2 DUP4 SUB SUB DUP2 MSTORE SWAP1 PUSH1 0x40 MSTORE SWAP2 POP PUSH1 0xE0 SHL PUSH1 0x20 DUP3 ADD DUP1 MLOAD PUSH28 0xFFFFFFFFFFFFFFFFFFFFFFFFFFFFFFFFFFFFFFFFFFFFFFFFFFFFFFFF DUP4 DUP2 DUP4 AND OR DUP4 MSTORE POP POP POP POP PUSH2 0x4D12 JUMP JUMPDEST POP POP POP JUMP JUMPDEST PUSH1 0x1 DUP1 DUP2 SWAP1 SSTORE POP JUMP JUMPDEST PUSH1 0x0 DUP1 PUSH1 0x0 SWAP1 SLOAD SWAP1 PUSH2 0x100 EXP SWAP1 DIV PUSH20 0xFFFFFFFFFFFFFFFFFFFFFFFFFFFFFFFFFFFFFFFF AND SWAP1 POP DUP2 PUSH1 0x0 DUP1 PUSH2 0x100 EXP DUP2 SLOAD DUP2 PUSH20 0xFFFFFFFFFFFFFFFFFFFFFFFFFFFFFFFFFFFFFFFF MUL NOT AND SWAP1 DUP4 PUSH20 0xFFFFFFFFFFFFFFFFFFFFFFFFFFFFFFFFFFFFFFFF AND MUL OR SWAP1 SSTORE POP DUP2 PUSH20 0xFFFFFFFFFFFFFFFFFFFFFFFFFFFFFFFFFFFFFFFF AND DUP2 PUSH20 0xFFFFFFFFFFFFFFFFFFFFFFFFFFFFFFFFFFFFFFFF AND PUSH32 0x8BE0079C531659141344CD1FD0A4F28419497F9722A3DAAFE3B4186F6B6457E0 PUSH1 0x40 MLOAD PUSH1 0x40 MLOAD DUP1 SWAP2 SUB SWAP1 LOG3 POP POP JUMP JUMPDEST PUSH1 0x0 SWAP2 SWAP1 POP JUMP JUMPDEST PUSH1 0x0 PUSH1 0x1 SWAP1 POP SWAP2 SWAP1 POP JUMP JUMPDEST PUSH2 0x4BED PUSH2 0x4A46 JUMP JUMPDEST PUSH1 0x1 PUSH1 0x2 PUSH1 0x0 PUSH2 0x100 EXP DUP2 SLOAD DUP2 PUSH1 0xFF MUL NOT AND SWAP1 DUP4 ISZERO ISZERO MUL OR SWAP1 SSTORE POP PUSH32 0x62E78CEA01BEE320CD4E420270B5EA74000D11B0C9F74754EBDBFC544B05A258 PUSH2 0x4C31 PUSH2 0x4CCA JUMP JUMPDEST PUSH1 0x40 MLOAD PUSH2 0x4C3E SWAP2 SWAP1 PUSH2 0x536C JUMP JUMPDEST PUSH1 0x40 MLOAD DUP1 SWAP2 SUB SWAP1 LOG1 JUMP JUMPDEST PUSH2 0x4CC4 DUP5 DUP6 PUSH20 0xFFFFFFFFFFFFFFFFFFFFFFFFFFFFFFFFFFFFFFFF AND PUSH4 0x23B872DD DUP7 DUP7 DUP7 PUSH1 0x40 MLOAD PUSH1 0x24 ADD PUSH2 0x4C7D SWAP4 SWAP3 SWAP2 SWAP1 PUSH2 0x5731 JUMP JUMPDEST PUSH1 0x40 MLOAD PUSH1 0x20 DUP2 DUP4 SUB SUB DUP2 MSTORE SWAP1 PUSH1 0x40 MSTORE SWAP2 POP PUSH1 0xE0 SHL PUSH1 0x20 DUP3 ADD DUP1 MLOAD PUSH28 0xFFFFFFFFFFFFFFFFFFFFFFFFFFFFFFFFFFFFFFFFFFFFFFFFFFFFFFFF DUP4 DUP2 DUP4 AND OR DUP4 MSTORE POP POP POP POP PUSH2 0x4D12 JUMP JUMPDEST POP POP POP POP JUMP JUMPDEST PUSH1 0x0 CALLER SWAP1 POP SWAP1 JUMP JUMPDEST PUSH2 0x4CDA PUSH2 0x1F62 JUMP JUMPDEST PUSH2 0x4D10 JUMPI PUSH1 0x40 MLOAD PUSH32 0x8DFC202B00000000000000000000000000000000000000000000000000000000 DUP2 MSTORE PUSH1 0x4 ADD PUSH1 0x40 MLOAD DUP1 SWAP2 SUB SWAP1 REVERT JUMPDEST JUMP JUMPDEST PUSH1 0x0 DUP1 PUSH1 0x20 PUSH1 0x0 DUP5 MLOAD PUSH1 0x20 DUP7 ADD PUSH1 0x0 DUP9 GAS CALL DUP1 PUSH2 0x4D35 JUMPI PUSH1 0x40 MLOAD RETURNDATASIZE PUSH1 0x0 DUP3 RETURNDATACOPY RETURNDATASIZE DUP2 REVERT JUMPDEST RETURNDATASIZE SWAP3 POP PUSH1 0x0 MLOAD SWAP2 POP POP PUSH1 0x0 DUP3 EQ PUSH2 0x4D50 JUMPI PUSH1 0x1 DUP2 EQ ISZERO PUSH2 0x4D6C JUMP JUMPDEST PUSH1 0x0 DUP5 PUSH20 0xFFFFFFFFFFFFFFFFFFFFFFFFFFFFFFFFFFFFFFFF AND EXTCODESIZE EQ JUMPDEST ISZERO PUSH2 0x4DAE JUMPI DUP4 PUSH1 0x40 MLOAD PUSH32 0x5274AFE700000000000000000000000000000000000000000000000000000000 DUP2 MSTORE PUSH1 0x4 ADD PUSH2 0x4DA5 SWAP2 SWAP1 PUSH2 0x536C JUMP JUMPDEST PUSH1 0x40 MLOAD DUP1 SWAP2 SUB SWAP1 REVERT JUMPDEST POP POP POP POP JUMP JUMPDEST PUSH1 0x0 DUP1 REVERT JUMPDEST PUSH1 0x0 PUSH20 0xFFFFFFFFFFFFFFFFFFFFFFFFFFFFFFFFFFFFFFFF DUP3 AND SWAP1 POP SWAP2 SWAP1 POP JUMP JUMPDEST PUSH1 0x0 PUSH2 0x4DE4 DUP3 PUSH2 0x4DB9 JUMP JUMPDEST SWAP1 POP SWAP2 SWAP1 POP JUMP JUMPDEST PUSH2 0x4DF4 DUP2 PUSH2 0x4DD9 JUMP JUMPDEST DUP2 EQ PUSH2 0x4DFF JUMPI PUSH1 0x0 DUP1 REVERT JUMPDEST POP JUMP JUMPDEST PUSH1 0x0 DUP2 CALLDATALOAD SWAP1 POP PUSH2 0x4E11 DUP2 PUSH2 0x4DEB JUMP JUMPDEST SWAP3 SWAP2 POP POP JUMP JUMPDEST PUSH1 0x0 PUSH1 0x20 DUP3 DUP5 SUB SLT ISZERO PUSH2 0x4E2D JUMPI PUSH2 0x4E2C PUSH2 0x4DB4 JUMP JUMPDEST JUMPDEST PUSH1 0x0 PUSH2 0x4E3B DUP5 DUP3 DUP6 ADD PUSH2 0x4E02 JUMP JUMPDEST SWAP2 POP POP SWAP3 SWAP2 POP POP JUMP JUMPDEST PUSH1 0x0 DUP2 SWAP1 POP SWAP2 SWAP1 POP JUMP JUMPDEST PUSH2 0x4E57 DUP2 PUSH2 0x4E44 JUMP JUMPDEST DUP3 MSTORE POP POP JUMP JUMPDEST PUSH1 0x0 DUP2 ISZERO ISZERO SWAP1 POP SWAP2 SWAP1 POP JUMP JUMPDEST PUSH2 0x4E72 DUP2 PUSH2 0x4E5D JUMP JUMPDEST DUP3 MSTORE POP POP JUMP JUMPDEST PUSH1 0x0 PUSH1 0xA0 DUP3 ADD SWAP1 POP PUSH2 0x4E8D PUSH1 0x0 DUP4 ADD DUP9 PUSH2 0x4E4E JUMP JUMPDEST PUSH2 0x4E9A PUSH1 0x20 DUP4 ADD DUP8 PUSH2 0x4E4E JUMP JUMPDEST PUSH2 0x4EA7 PUSH1 0x40 DUP4 ADD DUP7 PUSH2 0x4E4E JUMP JUMPDEST PUSH2 0x4EB4 PUSH1 0x60 DUP4 ADD DUP6 PUSH2 0x4E69 JUMP JUMPDEST PUSH2 0x4EC1 PUSH1 0x80 DUP4 ADD DUP5 PUSH2 0x4E69 JUMP JUMPDEST SWAP7 SWAP6 POP POP POP POP POP POP JUMP JUMPDEST PUSH1 0x0 PUSH1 0x20 DUP3 ADD SWAP1 POP PUSH2 0x4EE0 PUSH1 0x0 DUP4 ADD DUP5 PUSH2 0x4E4E JUMP JUMPDEST SWAP3 SWAP2 POP POP JUMP JUMPDEST PUSH1 0x0 DUP2 MLOAD SWAP1 POP SWAP2 SWAP1 POP JUMP JUMPDEST PUSH1 0x0 DUP3 DUP3 MSTORE PUSH1 0x20 DUP3 ADD SWAP1 POP SWAP3 SWAP2 POP POP JUMP JUMPDEST PUSH1 0x0 DUP2 SWAP1 POP PUSH1 0x20 DUP3 ADD SWAP1 POP SWAP2 SWAP1 POP JUMP JUMPDEST PUSH2 0x4F1B DUP2 PUSH2 0x4DD9 JUMP JUMPDEST DUP3 MSTORE POP POP JUMP JUMPDEST PUSH1 0x0 PUSH2 0x4F2D DUP4 DUP4 PUSH2 0x4F12 JUMP JUMPDEST PUSH1 0x20 DUP4 ADD SWAP1 POP SWAP3 SWAP2 POP POP JUMP JUMPDEST PUSH1 0x0 PUSH1 0x20 DUP3 ADD SWAP1 POP SWAP2 SWAP1 POP JUMP JUMPDEST PUSH1 0x0 PUSH2 0x4F51 DUP3 PUSH2 0x4EE6 JUMP JUMPDEST PUSH2 0x4F5B DUP2 DUP6 PUSH2 0x4EF1 JUMP JUMPDEST SWAP4 POP PUSH2 0x4F66 DUP4 PUSH2 0x4F02 JUMP JUMPDEST DUP1 PUSH1 0x0 JUMPDEST DUP4 DUP2 LT ISZERO PUSH2 0x4F97 JUMPI DUP2 MLOAD PUSH2 0x4F7E DUP9 DUP3 PUSH2 0x4F21 JUMP JUMPDEST SWAP8 POP PUSH2 0x4F89 DUP4 PUSH2 0x4F39 JUMP JUMPDEST SWAP3 POP POP PUSH1 0x1 DUP2 ADD SWAP1 POP PUSH2 0x4F6A JUMP JUMPDEST POP DUP6 SWAP4 POP POP POP POP SWAP3 SWAP2 POP POP JUMP JUMPDEST PUSH1 0x0 DUP2 MLOAD SWAP1 POP SWAP2 SWAP1 POP JUMP JUMPDEST PUSH1 0x0 DUP3 DUP3 MSTORE PUSH1 0x20 DUP3 ADD SWAP1 POP SWAP3 SWAP2 POP POP JUMP JUMPDEST PUSH1 0x0 DUP2 SWAP1 POP PUSH1 0x20 DUP3 ADD SWAP1 POP SWAP2 SWAP1 POP JUMP JUMPDEST PUSH2 0x4FD9 DUP2 PUSH2 0x4E44 JUMP JUMPDEST DUP3 MSTORE POP POP JUMP JUMPDEST PUSH1 0x0 PUSH2 0x4FEB DUP4 DUP4 PUSH2 0x4FD0 JUMP JUMPDEST PUSH1 0x20 DUP4 ADD SWAP1 POP SWAP3 SWAP2 POP POP JUMP JUMPDEST PUSH1 0x0 PUSH1 0x20 DUP3 ADD SWAP1 POP SWAP2 SWAP1 POP JUMP JUMPDEST PUSH1 0x0 PUSH2 0x500F DUP3 PUSH2 0x4FA4 JUMP JUMPDEST PUSH2 0x5019 DUP2 DUP6 PUSH2 0x4FAF JUMP JUMPDEST SWAP4 POP PUSH2 0x5024 DUP4 PUSH2 0x4FC0 JUMP JUMPDEST DUP1 PUSH1 0x0 JUMPDEST DUP4 DUP2 LT ISZERO PUSH2 0x5055 JUMPI DUP2 MLOAD PUSH2 0x503C DUP9 DUP3 PUSH2 0x4FDF JUMP JUMPDEST SWAP8 POP PUSH2 0x5047 DUP4 PUSH2 0x4FF7 JUMP JUMPDEST SWAP3 POP POP PUSH1 0x1 DUP2 ADD SWAP1 POP PUSH2 0x5028 JUMP JUMPDEST POP DUP6 SWAP4 POP POP POP POP SWAP3 SWAP2 POP POP JUMP JUMPDEST PUSH1 0x0 DUP2 MLOAD SWAP1 POP SWAP2 SWAP1 POP JUMP JUMPDEST PUSH1 0x0 DUP3 DUP3 MSTORE PUSH1 0x20 DUP3 ADD SWAP1 POP SWAP3 SWAP2 POP POP JUMP JUMPDEST PUSH1 0x0 DUP2 SWAP1 POP PUSH1 0x20 DUP3 ADD SWAP1 POP SWAP2 SWAP1 POP JUMP JUMPDEST PUSH2 0x5097 DUP2 PUSH2 0x4E5D JUMP JUMPDEST DUP3 MSTORE POP POP JUMP JUMPDEST PUSH1 0x0 PUSH2 0x50A9 DUP4 DUP4 PUSH2 0x508E JUMP JUMPDEST PUSH1 0x20 DUP4 ADD SWAP1 POP SWAP3 SWAP2 POP POP JUMP JUMPDEST PUSH1 0x0 PUSH1 0x20 DUP3 ADD SWAP1 POP SWAP2 SWAP1 POP JUMP JUMPDEST PUSH1 0x0 PUSH2 0x50CD DUP3 PUSH2 0x5062 JUMP JUMPDEST PUSH2 0x50D7 DUP2 DUP6 PUSH2 0x506D JUMP JUMPDEST SWAP4 POP PUSH2 0x50E2 DUP4 PUSH2 0x507E JUMP JUMPDEST DUP1 PUSH1 0x0 JUMPDEST DUP4 DUP2 LT ISZERO PUSH2 0x5113 JUMPI DUP2 MLOAD PUSH2 0x50FA DUP9 DUP3 PUSH2 0x509D JUMP JUMPDEST SWAP8 POP PUSH2 0x5105 DUP4 PUSH2 0x50B5 JUMP JUMPDEST SWAP3 POP POP PUSH1 0x1 DUP2 ADD SWAP1 POP PUSH2 0x50E6 JUMP JUMPDEST POP DUP6 SWAP4 POP POP POP POP SWAP3 SWAP2 POP POP JUMP JUMPDEST PUSH1 0x0 PUSH1 0x80 DUP3 ADD SWAP1 POP DUP2 DUP2 SUB PUSH1 0x0 DUP4 ADD MSTORE PUSH2 0x513A DUP2 DUP8 PUSH2 0x4F46 JUMP JUMPDEST SWAP1 POP DUP2 DUP2 SUB PUSH1 0x20 DUP4 ADD MSTORE PUSH2 0x514E DUP2 DUP7 PUSH2 0x5004 JUMP JUMPDEST SWAP1 POP DUP2 DUP2 SUB PUSH1 0x40 DUP4 ADD MSTORE PUSH2 0x5162 DUP2 DUP6 PUSH2 0x5004 JUMP JUMPDEST SWAP1 POP DUP2 DUP2 SUB PUSH1 0x60 DUP4 ADD MSTORE PUSH2 0x5176 DUP2 DUP5 PUSH2 0x50C2 JUMP JUMPDEST SWAP1 POP SWAP6 SWAP5 POP POP POP POP POP JUMP JUMPDEST PUSH1 0x0 DUP2 SWAP1 POP SWAP2 SWAP1 POP JUMP JUMPDEST PUSH1 0x0 PUSH2 0x51A6 PUSH2 0x51A1 PUSH2 0x519C DUP5 PUSH2 0x4DB9 JUMP JUMPDEST PUSH2 0x5181 JUMP JUMPDEST PUSH2 0x4DB9 JUMP JUMPDEST SWAP1 POP SWAP2 SWAP1 POP JUMP JUMPDEST PUSH1 0x0 PUSH2 0x51B8 DUP3 PUSH2 0x518B JUMP JUMPDEST SWAP1 POP SWAP2 SWAP1 POP JUMP JUMPDEST PUSH1 0x0 PUSH2 0x51CA DUP3 PUSH2 0x51AD JUMP JUMPDEST SWAP1 POP SWAP2 SWAP1 POP JUMP JUMPDEST PUSH2 0x51DA DUP2 PUSH2 0x51BF JUMP JUMPDEST DUP3 MSTORE POP POP JUMP JUMPDEST PUSH1 0x0 PUSH1 0x20 DUP3 ADD SWAP1 POP PUSH2 0x51F5 PUSH1 0x0 DUP4 ADD DUP5 PUSH2 0x51D1 JUMP JUMPDEST SWAP3 SWAP2 POP POP JUMP JUMPDEST PUSH1 0x0 PUSH1 0x20 DUP3 ADD SWAP1 POP PUSH2 0x5210 PUSH1 0x0 DUP4 ADD DUP5 PUSH2 0x4E69 JUMP JUMPDEST SWAP3 SWAP2 POP POP JUMP JUMPDEST PUSH1 0x0 PUSH2 0x100 DUP3 ADD SWAP1 POP PUSH2 0x522C PUSH1 0x0 DUP4 ADD DUP12 PUSH2 0x4E4E JUMP JUMPDEST PUSH2 0x5239 PUSH1 0x20 DUP4 ADD DUP11 PUSH2 0x4E4E JUMP JUMPDEST PUSH2 0x5246 PUSH1 0x40 DUP4 ADD DUP10 PUSH2 0x4E4E JUMP JUMPDEST PUSH2 0x5253 PUSH1 0x60 DUP4 ADD DUP9 PUSH2 0x4E4E JUMP JUMPDEST PUSH2 0x5260 PUSH1 0x80 DUP4 ADD DUP8 PUSH2 0x4E4E JUMP JUMPDEST PUSH2 0x526D PUSH1 0xA0 DUP4 ADD DUP7 PUSH2 0x4E4E JUMP JUMPDEST PUSH2 0x527A PUSH1 0xC0 DUP4 ADD DUP6 PUSH2 0x4E69 JUMP JUMPDEST PUSH2 0x5287 PUSH1 0xE0 DUP4 ADD DUP5 PUSH2 0x4E69 JUMP JUMPDEST SWAP10 SWAP9 POP POP POP POP POP POP POP POP POP JUMP JUMPDEST PUSH1 0x0 PUSH1 0xC0 DUP3 ADD SWAP1 POP PUSH2 0x52A9 PUSH1 0x0 DUP4 ADD DUP10 PUSH2 0x4E4E JUMP JUMPDEST PUSH2 0x52B6 PUSH1 0x20 DUP4 ADD DUP9 PUSH2 0x4E4E JUMP JUMPDEST PUSH2 0x52C3 PUSH1 0x40 DUP4 ADD DUP8 PUSH2 0x4E4E JUMP JUMPDEST PUSH2 0x52D0 PUSH1 0x60 DUP4 ADD DUP7 PUSH2 0x4E4E JUMP JUMPDEST PUSH2 0x52DD PUSH1 0x80 DUP4 ADD DUP6 PUSH2 0x4E4E JUMP JUMPDEST DUP2 DUP2 SUB PUSH1 0xA0 DUP4 ADD MSTORE PUSH2 0x52EF DUP2 DUP5 PUSH2 0x5004 JUMP JUMPDEST SWAP1 POP SWAP8 SWAP7 POP POP POP POP POP POP POP JUMP JUMPDEST PUSH2 0x5305 DUP2 PUSH2 0x4DD9 JUMP JUMPDEST DUP3 MSTORE POP POP JUMP JUMPDEST PUSH1 0x0 PUSH1 0xC0 DUP3 ADD SWAP1 POP PUSH2 0x5320 PUSH1 0x0 DUP4 ADD DUP10 PUSH2 0x52FC JUMP JUMPDEST PUSH2 0x532D PUSH1 0x20 DUP4 ADD DUP9 PUSH2 0x4E4E JUMP JUMPDEST PUSH2 0x533A PUSH1 0x40 DUP4 ADD DUP8 PUSH2 0x4E4E JUMP JUMPDEST PUSH2 0x5347 PUSH1 0x60 DUP4 ADD DUP7 PUSH2 0x4E4E JUMP JUMPDEST PUSH2 0x5354 PUSH1 0x80 DUP4 ADD DUP6 PUSH2 0x4E4E JUMP JUMPDEST PUSH2 0x5361 PUSH1 0xA0 DUP4 ADD DUP5 PUSH2 0x4E4E JUMP JUMPDEST SWAP8 SWAP7 POP POP POP POP POP POP POP JUMP JUMPDEST PUSH1 0x0 PUSH1 0x20 DUP3 ADD SWAP1 POP PUSH2 0x5381 PUSH1 0x0 DUP4 ADD DUP5 PUSH2 0x52FC JUMP JUMPDEST SWAP3 SWAP2 POP POP JUMP JUMPDEST PUSH2 0x5390 DUP2 PUSH2 0x4E44 JUMP JUMPDEST DUP2 EQ PUSH2 0x539B JUMPI PUSH1 0x0 DUP1 REVERT JUMPDEST POP JUMP JUMPDEST PUSH1 0x0 DUP2 CALLDATALOAD SWAP1 POP PUSH2 0x53AD DUP2 PUSH2 0x5387 JUMP JUMPDEST SWAP3 SWAP2 POP POP JUMP JUMPDEST PUSH1 0x0 DUP1 PUSH1 0x40 DUP4 DUP6 SUB SLT ISZERO PUSH2 0x53CA JUMPI PUSH2 0x53C9 PUSH2 0x4DB4 JUMP JUMPDEST JUMPDEST PUSH1 0x0 PUSH2 0x53D8 DUP6 DUP3 DUP7 ADD PUSH2 0x4E02 JUMP JUMPDEST SWAP3 POP POP PUSH1 0x20 PUSH2 0x53E9 DUP6 DUP3 DUP7 ADD PUSH2 0x539E JUMP JUMPDEST SWAP2 POP POP SWAP3 POP SWAP3 SWAP1 POP JUMP JUMPDEST PUSH1 0x0 PUSH1 0x20 DUP3 DUP5 SUB SLT ISZERO PUSH2 0x5409 JUMPI PUSH2 0x5408 PUSH2 0x4DB4 JUMP JUMPDEST JUMPDEST PUSH1 0x0 PUSH2 0x5417 DUP5 DUP3 DUP6 ADD PUSH2 0x539E JUMP JUMPDEST SWAP2 POP POP SWAP3 SWAP2 POP POP JUMP JUMPDEST PUSH1 0x0 PUSH1 0xE0 DUP3 ADD SWAP1 POP PUSH2 0x5435 PUSH1 0x0 DUP4 ADD DUP11 PUSH2 0x4E4E JUMP JUMPDEST PUSH2 0x5442 PUSH1 0x20 DUP4 ADD DUP10 PUSH2 0x4E4E JUMP JUMPDEST PUSH2 0x544F PUSH1 0x40 DUP4 ADD DUP9 PUSH2 0x4E4E JUMP JUMPDEST PUSH2 0x545C PUSH1 0x60 DUP4 ADD DUP8 PUSH2 0x4E4E JUMP JUMPDEST PUSH2 0x5469 PUSH1 0x80 DUP4 ADD DUP7 PUSH2 0x4E4E JUMP JUMPDEST PUSH2 0x5476 PUSH1 0xA0 DUP4 ADD DUP6 PUSH2 0x4E69 JUMP JUMPDEST PUSH2 0x5483 PUSH1 0xC0 DUP4 ADD DUP5 PUSH2 0x4E69 JUMP JUMPDEST SWAP9 SWAP8 POP POP POP POP POP POP POP POP JUMP JUMPDEST PUSH32 0x4E487B7100000000000000000000000000000000000000000000000000000000 PUSH1 0x0 MSTORE PUSH1 0x41 PUSH1 0x4 MSTORE PUSH1 0x24 PUSH1 0x0 REVERT JUMPDEST PUSH32 0x4E487B7100000000000000000000000000000000000000000000000000000000 PUSH1 0x0 MSTORE PUSH1 0x32 PUSH1 0x4 MSTORE PUSH1 0x24 PUSH1 0x0 REVERT JUMPDEST PUSH32 0x4E487B7100000000000000000000000000000000000000000000000000000000 PUSH1 0x0 MSTORE PUSH1 0x11 PUSH1 0x4 MSTORE PUSH1 0x24 PUSH1 0x0 REVERT JUMPDEST PUSH1 0x0 PUSH2 0x5527 DUP3 PUSH2 0x4E44 JUMP JUMPDEST SWAP2 POP PUSH32 0xFFFFFFFFFFFFFFFFFFFFFFFFFFFFFFFFFFFFFFFFFFFFFFFFFFFFFFFFFFFFFFFF DUP3 SUB PUSH2 0x5559 JUMPI PUSH2 0x5558 PUSH2 0x54ED JUMP JUMPDEST JUMPDEST PUSH1 0x1 DUP3 ADD SWAP1 POP SWAP2 SWAP1 POP JUMP JUMPDEST PUSH1 0x0 PUSH2 0x556F DUP3 PUSH2 0x4E44 JUMP JUMPDEST SWAP2 POP PUSH2 0x557A DUP4 PUSH2 0x4E44 JUMP JUMPDEST SWAP3 POP DUP3 DUP3 SUB SWAP1 POP DUP2 DUP2 GT ISZERO PUSH2 0x5592 JUMPI PUSH2 0x5591 PUSH2 0x54ED JUMP JUMPDEST JUMPDEST SWAP3 SWAP2 POP POP JUMP JUMPDEST PUSH1 0x0 PUSH2 0x55A3 DUP3 PUSH2 0x4E44 JUMP JUMPDEST SWAP2 POP PUSH2 0x55AE DUP4 PUSH2 0x4E44 JUMP JUMPDEST SWAP3 POP DUP3 DUP3 MUL PUSH2 0x55BC DUP2 PUSH2 0x4E44 JUMP JUMPDEST SWAP2 POP DUP3 DUP3 DIV DUP5 EQ DUP4 ISZERO OR PUSH2 0x55D3 JUMPI PUSH2 0x55D2 PUSH2 0x54ED JUMP JUMPDEST JUMPDEST POP SWAP3 SWAP2 POP POP JUMP JUMPDEST PUSH1 0x0 PUSH2 0x55E5 DUP3 PUSH2 0x4E44 JUMP JUMPDEST SWAP2 POP PUSH2 0x55F0 DUP4 PUSH2 0x4E44 JUMP JUMPDEST SWAP3 POP DUP3 DUP3 ADD SWAP1 POP DUP1 DUP3 GT ISZERO PUSH2 0x5608 JUMPI PUSH2 0x5607 PUSH2 0x54ED JUMP JUMPDEST JUMPDEST SWAP3 SWAP2 POP POP JUMP JUMPDEST PUSH32 0x4E487B7100000000000000000000000000000000000000000000000000000000 PUSH1 0x0 MSTORE PUSH1 0x12 PUSH1 0x4 MSTORE PUSH1 0x24 PUSH1 0x0 REVERT JUMPDEST PUSH1 0x0 PUSH2 0x5648 DUP3 PUSH2 0x4E44 JUMP JUMPDEST SWAP2 POP PUSH2 0x5653 DUP4 PUSH2 0x4E44 JUMP JUMPDEST SWAP3 POP DUP3 PUSH2 0x5663 JUMPI PUSH2 0x5662 PUSH2 0x560E JUMP JUMPDEST JUMPDEST DUP3 DUP3 DIV SWAP1 POP SWAP3 SWAP2 POP POP JUMP JUMPDEST PUSH1 0x0 PUSH1 0x40 DUP3 ADD SWAP1 POP PUSH2 0x5683 PUSH1 0x0 DUP4 ADD DUP6 PUSH2 0x4E4E JUMP JUMPDEST PUSH2 0x5690 PUSH1 0x20 DUP4 ADD DUP5 PUSH2 0x4E4E JUMP JUMPDEST SWAP4 SWAP3 POP POP POP JUMP JUMPDEST PUSH32 0x4E487B7100000000000000000000000000000000000000000000000000000000 PUSH1 0x0 MSTORE PUSH1 0x31 PUSH1 0x4 MSTORE PUSH1 0x24 PUSH1 0x0 REVERT JUMPDEST PUSH1 0x0 DUP2 MLOAD SWAP1 POP PUSH2 0x56D5 DUP2 PUSH2 0x5387 JUMP JUMPDEST SWAP3 SWAP2 POP POP JUMP JUMPDEST PUSH1 0x0 PUSH1 0x20 DUP3 DUP5 SUB SLT ISZERO PUSH2 0x56F1 JUMPI PUSH2 0x56F0 PUSH2 0x4DB4 JUMP JUMPDEST JUMPDEST PUSH1 0x0 PUSH2 0x56FF DUP5 DUP3 DUP6 ADD PUSH2 0x56C6 JUMP JUMPDEST SWAP2 POP POP SWAP3 SWAP2 POP POP JUMP JUMPDEST PUSH1 0x0 PUSH1 0x40 DUP3 ADD SWAP1 POP PUSH2 0x571D PUSH1 0x0 DUP4 ADD DUP6 PUSH2 0x52FC JUMP JUMPDEST PUSH2 0x572A PUSH1 0x20 DUP4 ADD DUP5 PUSH2 0x4E4E JUMP JUMPDEST SWAP4 SWAP3 POP POP POP JUMP JUMPDEST PUSH1 0x0 PUSH1 0x60 DUP3 ADD SWAP1 POP PUSH2 0x5746 PUSH1 0x0 DUP4 ADD DUP7 PUSH2 0x52FC JUMP JUMPDEST PUSH2 0x5753 PUSH1 0x20 DUP4 ADD DUP6 PUSH2 0x52FC JUMP JUMPDEST PUSH2 0x5760 PUSH1 0x40 DUP4 ADD DUP5 PUSH2 0x4E4E JUMP JUMPDEST SWAP5 SWAP4 POP POP POP POP JUMP INVALID LOG2 PUSH5 0x6970667358 0x22 SLT KECCAK256 CALLVALUE SLOAD 0xB0 DUP15 0xE0 BYTE 0xD8 SMOD 0xAE 0xD3 0x26 0xB5 SUB SWAP15 SUB 0xB6 CALLER SGT 0xB7 0xD3 PUSH16 0x78F7984FEFBD7545CB242364736F6C63 NUMBER STOP ADDMOD EQ STOP CALLER "},"methodIdentifiers":{"BASIS_POINTS()":"e1f1c4a7","LOCK_DURATION()":"485d3834","PERCENTAGE_PER_MILESTONE()":"cc1b7ee5","TOTAL_ALLOCATION()":"0dac7bea","VESTING_INTERVAL()":"a5ca2afa","VESTING_MILESTONES()":"99aabf53","addBeneficiary(address,uint256)":"96074e70","allocationsLocked()":"306e6a1d","beneficiaries(address)":"01567739","beneficiaryList(uint256)":"9e761bbb","claimFor(address)":"ddeae033","claimTokens()":"48c54b9d","emergencyWithdraw()":"db2e21bc","escrowToken()":"2fe319da","firstUnlockTime()":"1db0ad5a","fundTreasury()":"b9c18685","getAllBeneficiaries()":"2f14bae8","getBeneficiaryInfo(address)":"366dc083","getClaimableAmount(address)":"e12f3a61","getContractInfo()":"7cc1f867","getNextUnlockTime()":"3bc8bce0","getTimeUntilNextUnlock()":"766f968e","getTreasuryStats()":"c8692e3f","getVestingSchedule()":"3a05f0d8","isBeneficiary(address)":"9d19b226","lockAllocations()":"25e2fbef","owner()":"8da5cb5b","pause()":"8456cb59","paused()":"5c975abb","removeBeneficiary(address)":"59633a1c","renounceOwnership()":"715018a6","revokeAllocation(address)":"e70b11df","totalAllocated()":"45f7f249","totalClaimed()":"d54ad2a1","transferOwnership(address)":"f2fde38b","treasuryFunded()":"5926a9e5","treasuryStartTime()":"388ea310","unpause()":"3f4ba83a","updateBeneficiary(address,uint256)":"fcb9b505"}}}}}