{
  "_format": "hh-sol-artifact-1",
  "contractName": "EscrowTeamTreasury",
  "sourceName": "contracts/EscrowTeamTreasury.sol",
  "abi": [
    {
      "inputs": [
        {
          "internalType": "address",
          "name": "_escrowToken",
          "type": "address"
        }
      ],
      "stateMutability": "nonpayable",
      "type": "constructor"
    },
    {
      "inputs": [],
      "name": "AllocationAlreadyRevoked",
      "type": "error"
    },
    {
      "inputs": [],
      "name": "AllocationsAlreadyLocked",
      "type": "error"
    },
    {
      "inputs": [],
      "name": "AllocationsNotLocked",
      "type": "error"
    },
    {
      "inputs": [],
      "name": "AlreadyAllocated",
      "type": "error"
    },
    {
      "inputs": [],
      "name": "EnforcedPause",
      "type": "error"
    },
    {
      "inputs": [],
      "name": "ExceedsTotalAllocation",
      "type": "error"
    },
    {
      "inputs": [],
      "name": "ExpectedPause",
      "type": "error"
    },
    {
      "inputs": [],
      "name": "InsufficientBalance",
      "type": "error"
    },
    {
      "inputs": [],
      "name": "InvalidAddress",
      "type": "error"
    },
    {
      "inputs": [],
      "name": "InvalidAmount",
      "type": "error"
    },
    {
      "inputs": [],
      "name": "InvalidMilestone",
      "type": "error"
    },
    {
      "inputs": [],
      "name": "LockPeriodNotEnded",
      "type": "error"
    },
    {
      "inputs": [],
      "name": "NoTokensAvailable",
      "type": "error"
    },
    {
      "inputs": [],
      "name": "NotBeneficiary",
      "type": "error"
    },
    {
      "inputs": [
        {
          "internalType": "address",
          "name": "owner",
          "type": "address"
        }
      ],
      "name": "OwnableInvalidOwner",
      "type": "error"
    },
    {
      "inputs": [
        {
          "internalType": "address",
          "name": "account",
          "type": "address"
        }
      ],
      "name": "OwnableUnauthorizedAccount",
      "type": "error"
    },
    {
      "inputs": [],
      "name": "ReentrancyGuardReentrantCall",
      "type": "error"
    },
    {
      "inputs": [
        {
          "internalType": "address",
          "name": "token",
          "type": "address"
        }
      ],
      "name": "SafeERC20FailedOperation",
      "type": "error"
    },
    {
      "inputs": [],
      "name": "TreasuryAlreadyFunded",
      "type": "error"
    },
    {
      "inputs": [],
      "name": "TreasuryNotFunded",
      "type": "error"
    },
    {
      "anonymous": false,
      "inputs": [
        {
          "indexed": true,
          "internalType": "address",
          "name": "beneficiary",
          "type": "address"
        },
        {
          "indexed": false,
          "internalType": "uint256",
          "name": "unvestedAmount",
          "type": "uint256"
        }
      ],
      "name": "AllocationRevoked",
      "type": "event"
    },
    {
      "anonymous": false,
      "inputs": [
        {
          "indexed": false,
          "internalType": "uint256",
          "name": "timestamp",
          "type": "uint256"
        }
      ],
      "name": "AllocationsLocked",
      "type": "event"
    },
    {
      "anonymous": false,
      "inputs": [
        {
          "indexed": true,
          "internalType": "address",
          "name": "beneficiary",
          "type": "address"
        },
        {
          "indexed": false,
          "internalType": "uint256",
          "name": "allocation",
          "type": "uint256"
        }
      ],
      "name": "BeneficiaryAdded",
      "type": "event"
    },
    {
      "anonymous": false,
      "inputs": [
        {
          "indexed": true,
          "internalType": "address",
          "name": "beneficiary",
          "type": "address"
        },
        {
          "indexed": false,
          "internalType": "uint256",
          "name": "allocation",
          "type": "uint256"
        }
      ],
      "name": "BeneficiaryRemoved",
      "type": "event"
    },
    {
      "anonymous": false,
      "inputs": [
        {
          "indexed": true,
          "internalType": "address",
          "name": "beneficiary",
          "type": "address"
        },
        {
          "indexed": false,
          "internalType": "uint256",
          "name": "newAllocation",
          "type": "uint256"
        }
      ],
      "name": "BeneficiaryUpdated",
      "type": "event"
    },
    {
      "anonymous": false,
      "inputs": [
        {
          "indexed": true,
          "internalType": "address",
          "name": "token",
          "type": "address"
        },
        {
          "indexed": false,
          "internalType": "uint256",
          "name": "amount",
          "type": "uint256"
        }
      ],
      "name": "EmergencyWithdraw",
      "type": "event"
    },
    {
      "anonymous": false,
      "inputs": [
        {
          "indexed": true,
          "internalType": "address",
          "name": "previousOwner",
          "type": "address"
        },
        {
          "indexed": true,
          "internalType": "address",
          "name": "newOwner",
          "type": "address"
        }
      ],
      "name": "OwnershipTransferred",
      "type": "event"
    },
    {
      "anonymous": false,
      "inputs": [
        {
          "indexed": false,
          "internalType": "address",
          "name": "account",
          "type": "address"
        }
      ],
      "name": "Paused",
      "type": "event"
    },
    {
      "anonymous": false,
      "inputs": [
        {
          "indexed": true,
          "internalType": "address",
          "name": "beneficiary",
          "type": "address"
        },
        {
          "indexed": false,
          "internalType": "uint256",
          "name": "amount",
          "type": "uint256"
        },
        {
          "indexed": false,
          "internalType": "uint256",
          "name": "milestone",
          "type": "uint256"
        }
      ],
      "name": "TokensClaimed",
      "type": "event"
    },
    {
      "anonymous": false,
      "inputs": [
        {
          "indexed": false,
          "internalType": "uint256",
          "name": "amount",
          "type": "uint256"
        },
        {
          "indexed": false,
          "internalType": "uint256",
          "name": "timestamp",
          "type": "uint256"
        }
      ],
      "name": "TreasuryFunded",
      "type": "event"
    },
    {
      "anonymous": false,
      "inputs": [
        {
          "indexed": false,
          "internalType": "address",
          "name": "account",
          "type": "address"
        }
      ],
      "name": "Unpaused",
      "type": "event"
    },
    {
      "inputs": [],
      "name": "BASIS_POINTS",
      "outputs": [
        {
          "internalType": "uint256",
          "name": "",
          "type": "uint256"
        }
      ],
      "stateMutability": "view",
      "type": "function"
    },
    {
      "inputs": [],
      "name": "LOCK_DURATION",
      "outputs": [
        {
          "internalType": "uint256",
          "name": "",
          "type": "uint256"
        }
      ],
      "stateMutability": "view",
      "type": "function"
    },
    {
      "inputs": [],
      "name": "PERCENTAGE_PER_MILESTONE",
      "outputs": [
        {
          "internalType": "uint256",
          "name": "",
          "type": "uint256"
        }
      ],
      "stateMutability": "view",
      "type": "function"
    },
    {
      "inputs": [],
      "name": "TOTAL_ALLOCATION",
      "outputs": [
        {
          "internalType": "uint256",
          "name": "",
          "type": "uint256"
        }
      ],
      "stateMutability": "view",
      "type": "function"
    },
    {
      "inputs": [],
      "name": "VESTING_INTERVAL",
      "outputs": [
        {
          "internalType": "uint256",
          "name": "",
          "type": "uint256"
        }
      ],
      "stateMutability": "view",
      "type": "function"
    },
    {
      "inputs": [],
      "name": "VESTING_MILESTONES",
      "outputs": [
        {
          "internalType": "uint256",
          "name": "",
          "type": "uint256"
        }
      ],
      "stateMutability": "view",
      "type": "function"
    },
    {
      "inputs": [
        {
          "internalType": "address",
          "name": "beneficiary",
          "type": "address"
        },
        {
          "internalType": "uint256",
          "name": "allocation",
          "type": "uint256"
        }
      ],
      "name": "addBeneficiary",
      "outputs": [],
      "stateMutability": "nonpayable",
      "type": "function"
    },
    {
      "inputs": [],
      "name": "allocationsLocked",
      "outputs": [
        {
          "internalType": "bool",
          "name": "",
          "type": "bool"
        }
      ],
      "stateMutability": "view",
      "type": "function"
    },
    {
      "inputs": [
        {
          "internalType": "address",
          "name": "",
          "type": "address"
        }
      ],
      "name": "beneficiaries",
      "outputs": [
        {
          "internalType": "uint256",
          "name": "totalAllocation",
          "type": "uint256"
        },
        {
          "internalType": "uint256",
          "name": "claimedAmount",
          "type": "uint256"
        },
        {
          "internalType": "uint256",
          "name": "lastClaimMilestone",
          "type": "uint256"
        },
        {
          "internalType": "bool",
          "name": "isActive",
          "type": "bool"
        },
        {
          "internalType": "bool",
          "name": "revoked",
          "type": "bool"
        }
      ],
      "stateMutability": "view",
      "type": "function"
    },
    {
      "inputs": [
        {
          "internalType": "uint256",
          "name": "",
          "type": "uint256"
        }
      ],
      "name": "beneficiaryList",
      "outputs": [
        {
          "internalType": "address",
          "name": "",
          "type": "address"
        }
      ],
      "stateMutability": "view",
      "type": "function"
    },
    {
      "inputs": [
        {
          "internalType": "address",
          "name": "beneficiary",
          "type": "address"
        }
      ],
      "name": "claimFor",
      "outputs": [],
      "stateMutability": "nonpayable",
      "type": "function"
    },
    {
      "inputs": [],
      "name": "claimTokens",
      "outputs": [],
      "stateMutability": "nonpayable",
      "type": "function"
    },
    {
      "inputs": [],
      "name": "emergencyWithdraw",
      "outputs": [],
      "stateMutability": "nonpayable",
      "type": "function"
    },
    {
      "inputs": [],
      "name": "escrowToken",
      "outputs": [
        {
          "internalType": "contract IERC20",
          "name": "",
          "type": "address"
        }
      ],
      "stateMutability": "view",
      "type": "function"
    },
    {
      "inputs": [],
      "name": "firstUnlockTime",
      "outputs": [
        {
          "internalType": "uint256",
          "name": "",
          "type": "uint256"
        }
      ],
      "stateMutability": "view",
      "type": "function"
    },
    {
      "inputs": [],
      "name": "fundTreasury",
      "outputs": [],
      "stateMutability": "nonpayable",
      "type": "function"
    },
    {
      "inputs": [],
      "name": "getAllBeneficiaries",
      "outputs": [
        {
          "internalType": "address[]",
          "name": "addresses",
          "type": "address[]"
        },
        {
          "internalType": "uint256[]",
          "name": "allocations",
          "type": "uint256[]"
        },
        {
          "internalType": "uint256[]",
          "name": "claimed",
          "type": "uint256[]"
        },
        {
          "internalType": "bool[]",
          "name": "active",
          "type": "bool[]"
        }
      ],
      "stateMutability": "view",
      "type": "function"
    },
    {
      "inputs": [
        {
          "internalType": "address",
          "name": "beneficiary",
          "type": "address"
        }
      ],
      "name": "getBeneficiaryInfo",
      "outputs": [
        {
          "internalType": "uint256",
          "name": "totalAllocation",
          "type": "uint256"
        },
        {
          "internalType": "uint256",
          "name": "vestedAmount",
          "type": "uint256"
        },
        {
          "internalType": "uint256",
          "name": "claimedAmount",
          "type": "uint256"
        },
        {
          "internalType": "uint256",
          "name": "claimableAmount",
          "type": "uint256"
        },
        {
          "internalType": "uint256",
          "name": "remainingAmount",
          "type": "uint256"
        },
        {
          "internalType": "uint256",
          "name": "currentMilestone",
          "type": "uint256"
        },
        {
          "internalType": "bool",
          "name": "isActive",
          "type": "bool"
        },
        {
          "internalType": "bool",
          "name": "revoked",
          "type": "bool"
        }
      ],
      "stateMutability": "view",
      "type": "function"
    },
    {
      "inputs": [
        {
          "internalType": "address",
          "name": "beneficiary",
          "type": "address"
        }
      ],
      "name": "getClaimableAmount",
      "outputs": [
        {
          "internalType": "uint256",
          "name": "",
          "type": "uint256"
        }
      ],
      "stateMutability": "view",
      "type": "function"
    },
    {
      "inputs": [],
      "name": "getContractInfo",
      "outputs": [
        {
          "internalType": "address",
          "name": "tokenAddress",
          "type": "address"
        },
        {
          "internalType": "uint256",
          "name": "totalAllocation",
          "type": "uint256"
        },
        {
          "internalType": "uint256",
          "name": "lockDuration",
          "type": "uint256"
        },
        {
          "internalType": "uint256",
          "name": "vestingInterval",
          "type": "uint256"
        },
        {
          "internalType": "uint256",
          "name": "milestones",
          "type": "uint256"
        },
        {
          "internalType": "uint256",
          "name": "percentPerMilestone",
          "type": "uint256"
        }
      ],
      "stateMutability": "view",
      "type": "function"
    },
    {
      "inputs": [],
      "name": "getNextUnlockTime",
      "outputs": [
        {
          "internalType": "uint256",
          "name": "",
          "type": "uint256"
        }
      ],
      "stateMutability": "view",
      "type": "function"
    },
    {
      "inputs": [],
      "name": "getTimeUntilNextUnlock",
      "outputs": [
        {
          "internalType": "uint256",
          "name": "",
          "type": "uint256"
        }
      ],
      "stateMutability": "view",
      "type": "function"
    },
    {
      "inputs": [],
      "name": "getTreasuryStats",
      "outputs": [
        {
          "internalType": "uint256",
          "name": "totalAlloc",
          "type": "uint256"
        },
        {
          "internalType": "uint256",
          "name": "totalClaim",
          "type": "uint256"
        },
        {
          "internalType": "uint256",
          "name": "totalRemaining",
          "type": "uint256"
        },
        {
          "internalType": "uint256",
          "name": "unallocated",
          "type": "uint256"
        },
        {
          "internalType": "uint256",
          "name": "beneficiaryCount",
          "type": "uint256"
        },
        {
          "internalType": "bool",
          "name": "locked",
          "type": "bool"
        },
        {
          "internalType": "bool",
          "name": "funded",
          "type": "bool"
        }
      ],
      "stateMutability": "view",
      "type": "function"
    },
    {
      "inputs": [],
      "name": "getVestingSchedule",
      "outputs": [
        {
          "internalType": "uint256",
          "name": "startTime",
          "type": "uint256"
        },
        {
          "internalType": "uint256",
          "name": "firstUnlock",
          "type": "uint256"
        },
        {
          "internalType": "uint256",
          "name": "currentMilestone",
          "type": "uint256"
        },
        {
          "internalType": "uint256",
          "name": "totalMilestones",
          "type": "uint256"
        },
        {
          "internalType": "uint256",
          "name": "intervalDays",
          "type": "uint256"
        },
        {
          "internalType": "uint256[]",
          "name": "unlockTimes",
          "type": "uint256[]"
        }
      ],
      "stateMutability": "view",
      "type": "function"
    },
    {
      "inputs": [
        {
          "internalType": "address",
          "name": "account",
          "type": "address"
        }
      ],
      "name": "isBeneficiary",
      "outputs": [
        {
          "internalType": "bool",
          "name": "",
          "type": "bool"
        }
      ],
      "stateMutability": "view",
      "type": "function"
    },
    {
      "inputs": [],
      "name": "lockAllocations",
      "outputs": [],
      "stateMutability": "nonpayable",
      "type": "function"
    },
    {
      "inputs": [],
      "name": "owner",
      "outputs": [
        {
          "internalType": "address",
          "name": "",
          "type": "address"
        }
      ],
      "stateMutability": "view",
      "type": "function"
    },
    {
      "inputs": [],
      "name": "pause",
      "outputs": [],
      "stateMutability": "nonpayable",
      "type": "function"
    },
    {
      "inputs": [],
      "name": "paused",
      "outputs": [
        {
          "internalType": "bool",
          "name": "",
          "type": "bool"
        }
      ],
      "stateMutability": "view",
      "type": "function"
    },
    {
      "inputs": [
        {
          "internalType": "address",
          "name": "beneficiary",
          "type": "address"
        }
      ],
      "name": "removeBeneficiary",
      "outputs": [],
      "stateMutability": "nonpayable",
      "type": "function"
    },
    {
      "inputs": [],
      "name": "renounceOwnership",
      "outputs": [],
      "stateMutability": "nonpayable",
      "type": "function"
    },
    {
      "inputs": [
        {
          "internalType": "address",
          "name": "beneficiary",
          "type": "address"
        }
      ],
      "name": "revokeAllocation",
      "outputs": [],
      "stateMutability": "nonpayable",
      "type": "function"
    },
    {
      "inputs": [],
      "name": "totalAllocated",
      "outputs": [
        {
          "internalType": "uint256",
          "name": "",
          "type": "uint256"
        }
      ],
      "stateMutability": "view",
      "type": "function"
    },
    {
      "inputs": [],
      "name": "totalClaimed",
      "outputs": [
        {
          "internalType": "uint256",
          "name": "",
          "type": "uint256"
        }
      ],
      "stateMutability": "view",
      "type": "function"
    },
    {
      "inputs": [
        {
          "internalType": "address",
          "name": "newOwner",
          "type": "address"
        }
      ],
      "name": "transferOwnership",
      "outputs": [],
      "stateMutability": "nonpayable",
      "type": "function"
    },
    {
      "inputs": [],
      "name": "treasuryFunded",
      "outputs": [
        {
          "internalType": "bool",
          "name": "",
          "type": "bool"
        }
      ],
      "stateMutability": "view",
      "type": "function"
    },
    {
      "inputs": [],
      "name": "treasuryStartTime",
      "outputs": [
        {
          "internalType": "uint256",
          "name": "",
          "type": "uint256"
        }
      ],
      "stateMutability": "view",
      "type": "function"
    },
    {
      "inputs": [],
      "name": "unpause",
      "outputs": [],
      "stateMutability": "nonpayable",
      "type": "function"
    },
    {
      "inputs": [
        {
          "internalType": "address",
          "name": "beneficiary",
          "type": "address"
        },
        {
          "internalType": "uint256",
          "name": "newAllocation",
          "type": "uint256"
        }
      ],
      "name": "updateBeneficiary",
      "outputs": [],
      "stateMutability": "nonpayable",
      "type": "function"
    }
  ],
  "bytecode": "0x60e06040523480156200001157600080fd5b5060405162005dc738038062005dc783398181016040528101906200003791906200040e565b33600073ffffffffffffffffffffffffffffffffffffffff168173ffffffffffffffffffffffffffffffffffffffff1603620000ad5760006040517f1e4fbdf7000000000000000000000000000000000000000000000000000000008152600401620000a4919062000451565b60405180910390fd5b620000be81620002dd60201b60201c565b5060018081905550620000e267abffef14120c437860c01b620003a160201b60201c565b620000fe67814ce1913a61820160c01b620003a160201b60201c565b6200011a67c77d4fa952e73eda60c01b620003a160201b60201c565b600073ffffffffffffffffffffffffffffffffffffffff168173ffffffffffffffffffffffffffffffffffffffff16036200019d576200016b67f5c94861818de63660c01b620003a160201b60201c565b6040517fe6c4247b00000000000000000000000000000000000000000000000000000000815260040160405180910390fd5b620001b96708c5ca17c4e045dd60c01b620003a160201b60201c565b620001d567a66316b7e94c4d4660c01b620003a160201b60201c565b8073ffffffffffffffffffffffffffffffffffffffff1660808173ffffffffffffffffffffffffffffffffffffffff16815250506200022567cc9068548fc7853460c01b620003a160201b60201c565b4260a0818152505062000249678791c11fb06aeec160c01b620003a160201b60201c565b6305a39a80426200025b9190620004a7565b60c081815250506200027e6787d011814a357eec60c01b620003a160201b60201c565b6200029a67fbfa528ae82084d560c01b620003a160201b60201c565b7ff705142bf09f04297640495ddf7c59b7fd6f51894c5aea9602d631cf05f0efc2600042604051620002ce92919062000540565b60405180910390a1506200056d565b60008060009054906101000a900473ffffffffffffffffffffffffffffffffffffffff169050816000806101000a81548173ffffffffffffffffffffffffffffffffffffffff021916908373ffffffffffffffffffffffffffffffffffffffff1602179055508173ffffffffffffffffffffffffffffffffffffffff168173ffffffffffffffffffffffffffffffffffffffff167f8be0079c531659141344cd1fd0a4f28419497f9722a3daafe3b4186f6b6457e060405160405180910390a35050565b50565b600080fd5b600073ffffffffffffffffffffffffffffffffffffffff82169050919050565b6000620003d682620003a9565b9050919050565b620003e881620003c9565b8114620003f457600080fd5b50565b6000815190506200040881620003dd565b92915050565b600060208284031215620004275762000426620003a4565b5b60006200043784828501620003f7565b91505092915050565b6200044b81620003c9565b82525050565b600060208201905062000468600083018462000440565b92915050565b6000819050919050565b7f4e487b7100000000000000000000000000000000000000000000000000000000600052601160045260246000fd5b6000620004b4826200046e565b9150620004c1836200046e565b9250828201905080821115620004dc57620004db62000478565b5b92915050565b6000819050919050565b6000819050919050565b600062000517620005116200050b84620004e2565b620004ec565b6200046e565b9050919050565b6200052981620004f6565b82525050565b6200053a816200046e565b82525050565b60006040820190506200055760008301856200051e565b6200056660208301846200052f565b9392505050565b60805160a05160c05161579e620006296000396000818161071601528181611156015281816111fd01528181611364015281816113d8015281816120c6015281816120f60152818161463a0152818161481b01526148b201526000818161105d01526111dc015260008181610e5a0152818161190b015281816121e101528181612b0801528181612c7401528181612da301528181612fa501528181613172015281816131e0015281816136d00152613d5d015261579e6000f3fe608060405234801561001057600080fd5b506004361061023d5760003560e01c8063766f968e1161013b578063c8692e3f116100b8578063e12f3a611161007c578063e12f3a6114610612578063e1f1c4a714610642578063e70b11df14610660578063f2fde38b1461067c578063fcb9b505146106985761023d565b8063c8692e3f1461058c578063cc1b7ee5146105b0578063d54ad2a1146105ce578063db2e21bc146105ec578063ddeae033146105f65761023d565b806399aabf53116100ff57806399aabf53146104e65780639d19b226146105045780639e761bbb14610534578063a5ca2afa14610564578063b9c18685146105825761023d565b8063766f968e146104615780637cc1f8671461047f5780638456cb59146104a25780638da5cb5b146104ac57806396074e70146104ca5761023d565b80633a05f0d8116101c957806348c54b9d1161018d57806348c54b9d146103f55780635926a9e5146103ff57806359633a1c1461041d5780635c975abb14610439578063715018a6146104575761023d565b80633a05f0d81461036e5780633bc8bce0146103915780633f4ba83a146103af57806345f7f249146103b9578063485d3834146103d75761023d565b80632f14bae8116102105780632f14bae8146102bc5780632fe319da146102dd578063306e6a1d146102fb578063366dc08314610319578063388ea310146103505761023d565b806301567739146102425780630dac7bea146102765780631db0ad5a1461029457806325e2fbef146102b2575b600080fd5b61025c60048036038101906102579190614e17565b6106b4565b60405161026d959493929190614e78565b60405180910390f35b61027e610704565b60405161028b9190614ecb565b60405180910390f35b61029c610714565b6040516102a99190614ecb565b60405180910390f35b6102ba610738565b005b6102c46109c5565b6040516102d49493929190615120565b60405180910390f35b6102e5610e58565b6040516102f291906151e0565b60405180910390f35b610303610e7c565b60405161031091906151fb565b60405180910390f35b610333600480360381019061032e9190614e17565b610e8f565b604051610347989796959493929190615216565b60405180910390f35b61035861105b565b6040516103659190614ecb565b60405180910390f35b61037661107f565b60405161038896959493929190615294565b60405180910390f35b61039961124a565b6040516103a69190614ecb565b60405180910390f35b6103b7611408565b005b6103c161147e565b6040516103ce9190614ecb565b60405180910390f35b6103df611484565b6040516103ec9190614ecb565b60405180910390f35b6103fd61148c565b005b6104076119d4565b60405161041491906151fb565b60405180910390f35b61043760048036038101906104329190614e17565b6119e7565b005b610441611f62565b60405161044e91906151fb565b60405180910390f35b61045f611f79565b005b610469611f8d565b6040516104769190614ecb565b60405180910390f35b61048761219a565b6040516104999695949392919061530b565b60405180910390f35b6104aa61222f565b005b6104b46122a5565b6040516104c1919061536c565b60405180910390f35b6104e460048036038101906104df91906153b3565b6122ce565b005b6104ee612921565b6040516104fb9190614ecb565b60405180910390f35b61051e60048036038101906105199190614e17565b612926565b60405161052b91906151fb565b60405180910390f35b61054e600480360381019061054991906153f3565b6129bb565b60405161055b919061536c565b60405180910390f35b61056c6129fa565b6040516105799190614ecb565b60405180910390f35b61058a612a01565b005b610594612d58565b6040516105a79796959493929190615420565b60405180910390f35b6105b8612f29565b6040516105c59190614ecb565b60405180910390f35b6105d6612f2f565b6040516105e39190614ecb565b60405180910390f35b6105f4612f35565b005b610610600480360381019061060b9190614e17565b613251565b005b61062c60048036038101906106279190614e17565b61379a565b6040516106399190614ecb565b60405180910390f35b61064a6139f8565b6040516106579190614ecb565b60405180910390f35b61067a60048036038101906106759190614e17565b6139fe565b005b61069660048036038101906106919190614e17565b613f28565b005b6106b260048036038101906106ad91906153b3565b613fae565b005b60036020528060005260406000206000915090508060000154908060010154908060020154908060030160009054906101000a900460ff16908060030160019054906101000a900460ff16905085565b6b033b2e3c9fd0803ce800000081565b7f000000000000000000000000000000000000000000000000000000000000000081565b61074c67b2967e9b3b94542a60c01b6143e9565b6107546143ec565b610768670e19cb0dcdce539760c01b6143e9565b61077c67b5d9c165317f549f60c01b6143e9565b61079067cb59f5b5c7a6676660c01b6143e9565b6107a467ec443f2f0b7db88f60c01b6143e9565b600760009054906101000a900460ff16156107ff576107cd67d4a7ab0b576ed4c960c01b6143e9565b6040517f3bcd404900000000000000000000000000000000000000000000000000000000815260040160405180910390fd5b61081367fa9ef02b23d965b960c01b6143e9565b61082767bb374bc0fcb28e8d60c01b6143e9565b61083b6746c1f0cc989d7f5760c01b6143e9565b600760019054906101000a900460ff16610895576108636776b455dfd3f3e36560c01b6143e9565b6040517f8896be0700000000000000000000000000000000000000000000000000000000815260040160405180910390fd5b6108a967d404f737b091b1d460c01b6143e9565b6108bd67085c4ba896066f0b60c01b6143e9565b6108d167bfc6d5904be7ec7b60c01b6143e9565b600060055403610921576108ef67a7a4ed72571ec28f60c01b6143e9565b6040517f2c5211c600000000000000000000000000000000000000000000000000000000815260040160405180910390fd5b610935670faf1f13b175f43260c01b6143e9565b61094967335cabd1d28e214360c01b6143e9565b6001600760006101000a81548160ff021916908315150217905550610978673873835f38f0db3a60c01b6143e9565b61098c67405eedcff035dcae60c01b6143e9565b7f50502e52aa6ca293c321541049509f7cdc9bc3fee99f3d02331196f7da8ef71f426040516109bb9190614ecb565b60405180910390a1565b6060806060806109df674b20f523befbf11360c01b6143e9565b6109f367e756db74837429c760c01b6143e9565b610a076703664a092fa9f4a060c01b6143e9565b60006004805490509050610a25674e67732182155b7960c01b6143e9565b8067ffffffffffffffff811115610a3f57610a3e61548f565b5b604051908082528060200260200182016040528015610a6d5781602001602082028036833780820191505090505b509450610a84676079b119e51a5e4b60c01b6143e9565b8067ffffffffffffffff811115610a9e57610a9d61548f565b5b604051908082528060200260200182016040528015610acc5781602001602082028036833780820191505090505b509350610ae367db35b35224bb25e360c01b6143e9565b8067ffffffffffffffff811115610afd57610afc61548f565b5b604051908082528060200260200182016040528015610b2b5781602001602082028036833780820191505090505b509250610b4267d525d8f6312a760560c01b6143e9565b8067ffffffffffffffff811115610b5c57610b5b61548f565b5b604051908082528060200260200182016040528015610b8a5781602001602082028036833780820191505090505b509150610ba167c42d36057d8c26ba60c01b6143e9565b610bb567a50b0857e57d5b7860c01b6143e9565b60005b81811015610e2857610bd4672aed1483193d8f0060c01b6143e9565b610be86719894d22a5ac6e0660c01b6143e9565b600060048281548110610bfe57610bfd6154be565b5b9060005260206000200160009054906101000a900473ffffffffffffffffffffffffffffffffffffffff169050610c3f67e67119ed1f1e9bf460c01b6143e9565b610c5367bdcc151195c40af160c01b6143e9565b6000600360008373ffffffffffffffffffffffffffffffffffffffff1673ffffffffffffffffffffffffffffffffffffffff1681526020019081526020016000206040518060a00160405290816000820154815260200160018201548152602001600282015481526020016003820160009054906101000a900460ff161515151581526020016003820160019054906101000a900460ff1615151515815250509050610d09674ef630d10fed760760c01b6143e9565b81888481518110610d1d57610d1c6154be565b5b602002602001019073ffffffffffffffffffffffffffffffffffffffff16908173ffffffffffffffffffffffffffffffffffffffff1681525050610d6b67726832439e699d0960c01b6143e9565b8060000151878481518110610d8357610d826154be565b5b602002602001018181525050610da367a0f305e73f45b9c360c01b6143e9565b8060200151868481518110610dbb57610dba6154be565b5b602002602001018181525050610ddb67027eb2583ad4616a60c01b6143e9565b80606001518015610dee57508060800151155b858481518110610e0157610e006154be565b5b60200260200101901515908115158152505050508080610e209061551c565b915050610bb8565b50610e3d674c84222cf019419660c01b6143e9565b610e5167093ee1b93cc2e2a160c01b6143e9565b5090919293565b7f000000000000000000000000000000000000000000000000000000000000000081565b600760009054906101000a900460ff1681565b600080600080600080600080610eaf67ca11f42a9d0d687960c01b6143e9565b610ec3675d13d56b3b22120960c01b6143e9565b610ed7676fc64105f386612f60c01b6143e9565b6000600360008b73ffffffffffffffffffffffffffffffffffffffff1673ffffffffffffffffffffffffffffffffffffffff1681526020019081526020016000206040518060a00160405290816000820154815260200160018201548152602001600282015481526020016003820160009054906101000a900460ff161515151581526020016003820160019054906101000a900460ff1615151515815250509050610f8d6788c4a2a1575071bd60c01b6143e9565b610f968a614473565b9750610fac67ebee7f182eb2d3ce60c01b6143e9565b610fb58a61379a565b9550610fcb67b2598d2f3311362b60c01b6143e9565b80602001518160000151610fdf9190615564565b9450610ff5673c480cbfd53b786660c01b6143e9565b610ffd6147db565b935061101367bc0f6db82f66e85d60c01b6143e9565b611027670753fcd8b5a6b98a60c01b6143e9565b8060000151888260200151888888866060015187608001519850985098509850985098509850985050919395975091939597565b7f000000000000000000000000000000000000000000000000000000000000000081565b6000806000806000606061109d67d2ee427e9b404b3460c01b6143e9565b6110b1673466dfb7fc412d3260c01b6143e9565b600567ffffffffffffffff8111156110cc576110cb61548f565b5b6040519080825280602002602001820160405280156110fa5781602001602082028036833780820191505090505b50905061111167ac979f2037a67a1460c01b6143e9565b61112567c872245c89b5e19e60c01b6143e9565b60005b60058110156111b15761114567f1e1f024182f9f3f60c01b6143e9565b62ed4e00816111549190615598565b7f000000000000000000000000000000000000000000000000000000000000000061117f91906155da565b828281518110611192576111916154be565b5b60200260200101818152505080806111a99061551c565b915050611128565b506111c6679ca2e5fad9987c3160c01b6143e9565b6111da67c4fe5524a379209260c01b6143e9565b7f00000000000000000000000000000000000000000000000000000000000000007f00000000000000000000000000000000000000000000000000000000000000006112246147db565b60056201518062ed4e00611238919061563d565b95509550955095509550909192939495565b6000611260671d040799eb8d7d9660c01b6143e9565b61127467d466688dbc6709cf60c01b6143e9565b611288674dab686df25ab1fc60c01b6143e9565b60006112926147db565b90506112a867175dbf858687e44a60c01b6143e9565b6112bc67be45a53f8599ce0b60c01b6143e9565b600581106112f6576112d867d893726ea963f4b260c01b6143e9565b6112ec6753abfc247d0d02c560c01b6143e9565b6000915050611405565b61130a67331e0b06b8a5397760c01b6143e9565b61131e67a1e712f28b9b81f060c01b6143e9565b6113326787f37fa107f1874060c01b6143e9565b6000810361138b5761134e67ab116fc4a709e22560c01b6143e9565b61136267344c52893752d99360c01b6143e9565b7f0000000000000000000000000000000000000000000000000000000000000000915050611405565b61139f67e90ef1da7fbedf4660c01b6143e9565b6113b367259defbca5859b8560c01b6143e9565b6113c76742f15983d86b9d7a60c01b6143e9565b62ed4e00816113d69190615598565b7f000000000000000000000000000000000000000000000000000000000000000061140191906155da565b9150505b90565b61141c672884288e22ba029360c01b6143e9565b6114246143ec565b6114386771219376e91c9ffc60c01b6143e9565b61144c67adcc4e9691cbd0dd60c01b6143e9565b611460674e90b22f629bef1b60c01b6143e9565b61147467a554c21de3f1e64e60c01b6143e9565b61147c61499d565b565b60055481565b6305a39a8081565b6114a06753ce81a66c27b35160c01b6143e9565b6114a8614a00565b6114bc6789a9d86a13606fb360c01b6143e9565b6114d0671847c5f2f560c8e160c01b6143e9565b6114d8614a46565b6114ec674fa6acb3e05fb14960c01b6143e9565b61150067551ac45e8751607460c01b6143e9565b6115146732813bb479b7770560c01b6143e9565b611528670c7e09ef037ab5c760c01b6143e9565b600760009054906101000a900460ff1661158257611550677ad6c559be2a88e360c01b6143e9565b6040517f39dc74ea00000000000000000000000000000000000000000000000000000000815260040160405180910390fd5b6115966794400f68d35146e360c01b6143e9565b6115aa67f9303b8c5875bbff60c01b6143e9565b6115be67184c9615764c0e5860c01b6143e9565b600360003373ffffffffffffffffffffffffffffffffffffffff1673ffffffffffffffffffffffffffffffffffffffff16815260200190815260200160002060030160009054906101000a900460ff166116585761162667a64c033fa5f00c6860c01b6143e9565b6040517f644d871f00000000000000000000000000000000000000000000000000000000815260040160405180910390fd5b61166c679b6b0a8d3de4601660c01b6143e9565b6116806793f3f50be422270b60c01b6143e9565b611694670edad93a702f9e7b60c01b6143e9565b6000600360003373ffffffffffffffffffffffffffffffffffffffff1673ffffffffffffffffffffffffffffffffffffffff16815260200190815260200160002090506116eb67b1bd12de32eef2ed60c01b6143e9565b6116ff675359855f3aed39da60c01b6143e9565b8060030160019054906101000a900460ff161561175c5761172a6725090f33247aecd060c01b6143e9565b6040517fd1ba89a100000000000000000000000000000000000000000000000000000000815260040160405180910390fd5b6117706797d11e1a358e509260c01b6143e9565b611784675146aa89be0a096b60c01b6143e9565b611798676c85d99c69b1b03a60c01b6143e9565b60006117a33361379a565b90506117b967d8edbf06b75e33bb60c01b6143e9565b6117cd67388da15ff163fa9e60c01b6143e9565b6000810361181b576117e9674111ff79eab8b4ac60c01b6143e9565b6040517fc4dc60e000000000000000000000000000000000000000000000000000000000815260040160405180910390fd5b61182f674eba6e469d4adc2c60c01b6143e9565b611843670df1cedf316a3b2c60c01b6143e9565b6118576704def79f937d645660c01b6143e9565b60006118616147db565b9050611877676868ecdf4cd3b23f60c01b6143e9565b8183600101600082825461188b91906155da565b925050819055506118a667817cdad86be20cbb60c01b6143e9565b8083600201819055506118c367ac484f6ba9f51a3b60c01b6143e9565b81600660008282546118d591906155da565b925050819055506118f067515172f8d631cb0a60c01b6143e9565b61190467f67224a18ee73d0a60c01b6143e9565b61194f33837f000000000000000000000000000000000000000000000000000000000000000073ffffffffffffffffffffffffffffffffffffffff16614a879092919063ffffffff16565b61196367fb897654a874f23560c01b6143e9565b611977677a944a9c194caa4760c01b6143e9565b3373ffffffffffffffffffffffffffffffffffffffff167f9923b4306c6c030f2bdfbf156517d5983b87e15b96176da122cd4f2effa4ba7b83836040516119bf92919061566e565b60405180910390a25050506119d2614b06565b565b600760019054906101000a900460ff1681565b6119fb67860fff03221ee52560c01b6143e9565b611a036143ec565b611a1767cfe89699f8c1756f60c01b6143e9565b611a2b67d420415052584abc60c01b6143e9565b611a3f676542558629e1d09b60c01b6143e9565b611a53674b6376a994a7e65560c01b6143e9565b600760009054906101000a900460ff1615611aae57611a7c67c246ff12115084be60c01b6143e9565b6040517f3bcd404900000000000000000000000000000000000000000000000000000000815260040160405180910390fd5b611ac267d6ecd0d4587a08e860c01b6143e9565b611ad667e4dbbe3004011b6b60c01b6143e9565b611aea6752d27527ceae136260c01b6143e9565b600360008273ffffffffffffffffffffffffffffffffffffffff1673ffffffffffffffffffffffffffffffffffffffff16815260200190815260200160002060030160009054906101000a900460ff16611b8457611b5267946745243cf7d55960c01b6143e9565b6040517f644d871f00000000000000000000000000000000000000000000000000000000815260040160405180910390fd5b611b9867f4a278e938e48b8660c01b6143e9565b611bac6773be317eba23517760c01b6143e9565b611bc0679523bc6a2b8105bf60c01b6143e9565b6000600360008373ffffffffffffffffffffffffffffffffffffffff1673ffffffffffffffffffffffffffffffffffffffff1681526020019081526020016000209050611c176778c9c4878030358a60c01b6143e9565b611c2b6788f508451ad565da60c01b6143e9565b600081600001549050611c48676d0c40d47175255360c01b6143e9565b60008260030160006101000a81548160ff021916908315150217905550611c7967f50a583383ab229d60c01b6143e9565b8060056000828254611c8b9190615564565b92505081905550611ca6671125a926628882dd60c01b6143e9565b611cba671c80f3b4880f2f3960c01b6143e9565b60005b600480549050811015611ee657611cde67d5f484c0ae21532060c01b6143e9565b611cf267d2c86c0ffe38cf6960c01b6143e9565b8373ffffffffffffffffffffffffffffffffffffffff1660048281548110611d1d57611d1c6154be565b5b9060005260206000200160009054906101000a900473ffffffffffffffffffffffffffffffffffffffff1673ffffffffffffffffffffffffffffffffffffffff1603611ebf57611d776726466b47f2b9b9f360c01b6143e9565b611d8b67e5a3ff290977c85760c01b6143e9565b60046001600480549050611d9f9190615564565b81548110611db057611daf6154be565b5b9060005260206000200160009054906101000a900473ffffffffffffffffffffffffffffffffffffffff1660048281548110611def57611dee6154be565b5b9060005260206000200160006101000a81548173ffffffffffffffffffffffffffffffffffffffff021916908373ffffffffffffffffffffffffffffffffffffffff160217905550611e4b67a6af2209ab2a520b60c01b6143e9565b611e5f67f1a5c657f87ef8a060c01b6143e9565b6004805480611e7157611e70615697565b5b6001900381819060005260206000200160006101000a81549073ffffffffffffffffffffffffffffffffffffffff02191690559055611eba67fc1d1a06db0a6cd660c01b6143e9565b611ee6565b611ed367474bfb1210e50c9b60c01b6143e9565b8080611ede9061551c565b915050611cbd565b50611efb671971f042a4e25f4d60c01b6143e9565b611f0f67bdf4490ef55c205d60c01b6143e9565b8273ffffffffffffffffffffffffffffffffffffffff167f4eba15b1481ac9c456ea6075869b280f4f84c5b462cf7bc01868dd40119ec06582604051611f559190614ecb565b60405180910390a2505050565b6000600260009054906101000a900460ff16905090565b611f816143ec565b611f8b6000614b0f565b565b6000611fa3670d2fa2a6a74af66260c01b6143e9565b611fb7673f080d835a183a4960c01b6143e9565b611fcb676e353df8c0fbfb2660c01b6143e9565b6000611fd56147db565b9050611feb675f823e5b6f564b7a60c01b6143e9565b611fff67ab77bdc1dec779eb60c01b6143e9565b600581106120395761201b675ddf8506c02bf42f60c01b6143e9565b61202f6708c0d1ee3474553560c01b6143e9565b6000915050612197565b61204d670fa8b63db57b302660c01b6143e9565b61206167fba15da225b86e7b60c01b6143e9565b612075672041b7d0998048d260c01b6143e9565b60008082148061209557506120946707273af87b9d20d360c01b614bd3565b5b80156120b157506120b0676ea1bd2f253f10e860c01b614bda565b5b6120f45762ed4e00826120c49190615598565b7f00000000000000000000000000000000000000000000000000000000000000006120ef91906155da565b612116565b7f00000000000000000000000000000000000000000000000000000000000000005b905061212c676fa0ea05101e168560c01b6143e9565b612140670b857dbc1479d3df60c01b6143e9565b4281118061215e575061215d67306e51292bcb52f060c01b614bd3565b5b801561217a575061217967c91ef8e6983f7b6560c01b614bda565b5b612185576000612192565b42816121919190615564565b5b925050505b90565b6000806000806000806121b767394c578d69e8a65860c01b6143e9565b6121cb6779e58ebe7aef14b860c01b6143e9565b6121df678c6f200fcc9ef0ee60c01b6143e9565b7f00000000000000000000000000000000000000000000000000000000000000006b033b2e3c9fd0803ce80000006305a39a8062ed4e0060056107d0955095509550955095509550909192939495565b61224367908fc6b18f576b1860c01b6143e9565b61224b6143ec565b61225f6713b482335770f95860c01b6143e9565b61227367e6b941163877c41560c01b6143e9565b612287676a38808804430d9260c01b6143e9565b61229b67a0359974b5b1f9da60c01b6143e9565b6122a3614be5565b565b60008060009054906101000a900473ffffffffffffffffffffffffffffffffffffffff16905090565b6122e267dd3e4bbe932f069a60c01b6143e9565b6122ea6143ec565b6122fe67c76e7caa78d1ac7560c01b6143e9565b61231267bd9d74b8bc3f833160c01b6143e9565b612326671a96a0655472876660c01b6143e9565b61233a67941d718a9328105460c01b6143e9565b600760009054906101000a900460ff16156123955761236367480b51b08d4943b860c01b6143e9565b6040517f3bcd404900000000000000000000000000000000000000000000000000000000815260040160405180910390fd5b6123a967e93f462a9fc654b860c01b6143e9565b6123bd67e806f5cc0d18d6dc60c01b6143e9565b6123d06686fd9e595a3f5560c01b6143e9565b600760019054906101000a900460ff1661242a576123f867cf4ce95928134ef060c01b6143e9565b6040517f8896be0700000000000000000000000000000000000000000000000000000000815260040160405180910390fd5b61243e67b00d86883068d34f60c01b6143e9565b6124526797dd197151b2fd6160c01b6143e9565b61246667752006e8e7fabf6460c01b6143e9565b600073ffffffffffffffffffffffffffffffffffffffff168273ffffffffffffffffffffffffffffffffffffffff16036124e0576124ae67df0c62ef2537907560c01b6143e9565b6040517fe6c4247b00000000000000000000000000000000000000000000000000000000815260040160405180910390fd5b6124f4679641f2ada293f96d60c01b6143e9565b61250867af4bc0a1bddff0b660c01b6143e9565b61251c679b4aef77d0a03a4760c01b6143e9565b6000810361256a576125386783c3819de36a022c60c01b6143e9565b6040517f2c5211c600000000000000000000000000000000000000000000000000000000815260040160405180910390fd5b61257e6797a1e0e06c31765d60c01b6143e9565b612592675a6960de54bb23f860c01b6143e9565b6125a6674a6adaaf88e8c19960c01b6143e9565b600360008373ffffffffffffffffffffffffffffffffffffffff1673ffffffffffffffffffffffffffffffffffffffff16815260200190815260200160002060030160009054906101000a900460ff16156126415761260f673383533f02edfba760c01b6143e9565b6040517fc2f34d1800000000000000000000000000000000000000000000000000000000815260040160405180910390fd5b61265567fdb15791be2312e060c01b6143e9565b612669671b8eb69259e1c3bf60c01b6143e9565b61267d67766097f488046e4860c01b6143e9565b6b033b2e3c9fd0803ce80000008160055461269891906155da565b11156126f8576126b267fca58999e659c54d60c01b6143e9565b6126c6670cae04d1e751768e60c01b6143e9565b6040517f87a7c61e00000000000000000000000000000000000000000000000000000000815260040160405180910390fd5b61270c67b1001cae972891a160c01b6143e9565b61272067d65868995a92b83860c01b6143e9565b6040518060a00160405280828152602001600081526020016000815260200160011515815260200160001515815250600360008473ffffffffffffffffffffffffffffffffffffffff1673ffffffffffffffffffffffffffffffffffffffff16815260200190815260200160002060008201518160000155602082015181600101556040820151816002015560608201518160030160006101000a81548160ff02191690831515021790555060808201518160030160016101000a81548160ff02191690831515021790555090505061280367c751d94e3336662960c01b6143e9565b6128176797aabe957b42bffb60c01b6143e9565b6004829080600181540180825580915050600190039060005260206000200160009091909190916101000a81548173ffffffffffffffffffffffffffffffffffffffff021916908373ffffffffffffffffffffffffffffffffffffffff16021790555061288e673c08e1002f6b60c260c01b6143e9565b80600560008282546128a091906155da565b925050819055506128bb67c98d367aa3c99fe260c01b6143e9565b6128cf67c3b33274f72c283a60c01b6143e9565b8173ffffffffffffffffffffffffffffffffffffffff167fe6b83177f11971ba30369bb38b914ffba97d5969a3c857b286fa8fdbb150b3ba826040516129159190614ecb565b60405180910390a25050565b600581565b600061293c67ac009d2bad6b569c60c01b6143e9565b6129506799807495d1418ee360c01b6143e9565b612964677706dd0c5bdc089a60c01b6143e9565b600360008373ffffffffffffffffffffffffffffffffffffffff1673ffffffffffffffffffffffffffffffffffffffff16815260200190815260200160002060030160009054906101000a900460ff169050919050565b600481815481106129cb57600080fd5b906000526020600020016000915054906101000a900473ffffffffffffffffffffffffffffffffffffffff1681565b62ed4e0081565b612a15678cb08f52402468e060c01b6143e9565b612a1d6143ec565b612a31676681c1b27a2fa3d860c01b6143e9565b612a45673427cab15fa7b3c360c01b6143e9565b612a59677f01ba88bb0ef98560c01b6143e9565b612a6d67e5b5685cfc90afb360c01b6143e9565b600760019054906101000a900460ff1615612ac857612a9667eaf7acbd07023c8360c01b6143e9565b6040517f742f800000000000000000000000000000000000000000000000000000000000815260040160405180910390fd5b612adc672dfcef5537458e2760c01b6143e9565b612af067a5eccc8567369a0460c01b6143e9565b612b0467b6dfada730d2b1ba60c01b6143e9565b60007f000000000000000000000000000000000000000000000000000000000000000073ffffffffffffffffffffffffffffffffffffffff166370a08231336040518263ffffffff1660e01b8152600401612b5f919061536c565b602060405180830381865afa158015612b7c573d6000803e3d6000fd5b505050506040513d601f19601f82011682018060405250810190612ba091906156db565b9050612bb667516388626b13109360c01b6143e9565b612bca6758c4cc016ec9c24860c01b6143e9565b6b033b2e3c9fd0803ce8000000811015612c2457612bf267c36577b47cf2559660c01b6143e9565b6040517ff4d678b800000000000000000000000000000000000000000000000000000000815260040160405180910390fd5b612c3867cf7e46b3cdc1a27960c01b6143e9565b612c4c67a2e881040f9f381260c01b6143e9565b612c6067ba2aa30c118d59ea60c01b6143e9565b612cb933306b033b2e3c9fd0803ce80000007f000000000000000000000000000000000000000000000000000000000000000073ffffffffffffffffffffffffffffffffffffffff16614c48909392919063ffffffff16565b612ccd6752bff1f15ef0044a60c01b6143e9565b6001600760016101000a81548160ff021916908315150217905550612cfc67945006a8b4687f8660c01b6143e9565b612d1067817fabc52093b7a360c01b6143e9565b7ff705142bf09f04297640495ddf7c59b7fd6f51894c5aea9602d631cf05f0efc26b033b2e3c9fd0803ce800000042604051612d4d92919061566e565b60405180910390a150565b6000806000806000806000612d776721a9404d20b0b97e60c01b6143e9565b612d8b678e57b1a66cd9867c60c01b6143e9565b612d9f678098b8a6f37884b560c01b6143e9565b60007f000000000000000000000000000000000000000000000000000000000000000073ffffffffffffffffffffffffffffffffffffffff166370a08231306040518263ffffffff1660e01b8152600401612dfa919061536c565b602060405180830381865afa158015612e17573d6000803e3d6000fd5b505050506040513d601f19601f82011682018060405250810190612e3b91906156db565b9050612e51673c49bf5d91cd1acc60c01b6143e9565b612e65670146a35cacd5e5df60c01b6143e9565b600554600654600654600554612e7b9190615564565b600654600554612e8b9190615564565b841180612ea85750612ea767ae966c5da9e1a3db60c01b614bd3565b5b8015612ec45750612ec36743cf35e7db6ef12a60c01b614bda565b5b612ecf576000612eeb565b600654600554612edf9190615564565b84612eea9190615564565b5b600480549050600760009054906101000a900460ff16600760019054906101000a900460ff1697509750975097509750975097505090919293949596565b6107d081565b60065481565b612f496761af9bf87b2dfff160c01b6143e9565b612f516143ec565b612f6567d78e60a0455577f460c01b6143e9565b612f79674fc3eb2ad92eb68160c01b6143e9565b612f8d67dd255698d0e7ea9160c01b6143e9565b612fa16789a9b7a2d314ff7c60c01b6143e9565b60007f000000000000000000000000000000000000000000000000000000000000000073ffffffffffffffffffffffffffffffffffffffff166370a08231306040518263ffffffff1660e01b8152600401612ffc919061536c565b602060405180830381865afa158015613019573d6000803e3d6000fd5b505050506040513d601f19601f8201168201806040525081019061303d91906156db565b9050613053673fb70b0fd07532d360c01b6143e9565b61306767ebe594c87552165260c01b6143e9565b60006006546005546130799190615564565b905061308f679056534f9f53ac5160c01b6143e9565b6130a36779a9481b80afe37260c01b6143e9565b8082116130f0576130be673e5287f6e486c1df60c01b6143e9565b6040517ff4d678b800000000000000000000000000000000000000000000000000000000815260040160405180910390fd5b61310467da34a09660e151bd60c01b6143e9565b613118672f85cba82a71f31e60c01b6143e9565b61312c67961b2f5c3cde2fba60c01b6143e9565b6000818361313a9190615564565b9050613150670c06bd1ad015b37560c01b6143e9565b61316467fcd498c42fb5c83760c01b6143e9565b6131b661316f6122a5565b827f000000000000000000000000000000000000000000000000000000000000000073ffffffffffffffffffffffffffffffffffffffff16614a879092919063ffffffff16565b6131ca67e644ea392a8e56f060c01b6143e9565b6131de672f27b395576b6f2760c01b6143e9565b7f000000000000000000000000000000000000000000000000000000000000000073ffffffffffffffffffffffffffffffffffffffff167f5fafa99d0643513820be26656b45130b01e1c03062e1266bf36f88cbd3bd9695826040516132449190614ecb565b60405180910390a2505050565b61326567ef66feab10d24b1e60c01b6143e9565b61326d614a00565b61328167029799fa17b253cd60c01b6143e9565b61329567ecccd2b0953d853660c01b6143e9565b61329d614a46565b6132b167ac9b8de12ee8630e60c01b6143e9565b6132c5672dbb3f40a6aac24f60c01b6143e9565b6132d967b7b81f7eca34670960c01b6143e9565b6132ed67d6413e4cc800dcba60c01b6143e9565b600760009054906101000a900460ff16613347576133156798fc1860e8619ca360c01b6143e9565b6040517f39dc74ea00000000000000000000000000000000000000000000000000000000815260040160405180910390fd5b61335b6754fbbfd7df205f4c60c01b6143e9565b61336f675e9f727b3e92f2d660c01b6143e9565b6133836750b95a5819bb0e2d60c01b6143e9565b600360008273ffffffffffffffffffffffffffffffffffffffff1673ffffffffffffffffffffffffffffffffffffffff16815260200190815260200160002060030160009054906101000a900460ff1661341d576133eb67de5cb237e7c527db60c01b6143e9565b6040517f644d871f00000000000000000000000000000000000000000000000000000000815260040160405180910390fd5b6134316779d9ce3df765476c60c01b6143e9565b613445675f7001e89bc115b660c01b6143e9565b61345967d0355f60dc7926bf60c01b6143e9565b6000600360008373ffffffffffffffffffffffffffffffffffffffff1673ffffffffffffffffffffffffffffffffffffffff16815260200190815260200160002090506134b0671a289d0527b8edfe60c01b6143e9565b6134c467535e1290ef4dd25860c01b6143e9565b8060030160019054906101000a900460ff1615613521576134ef6762a0fe60862026e160c01b6143e9565b6040517fd1ba89a100000000000000000000000000000000000000000000000000000000815260040160405180910390fd5b6135356776dadafa1359950160c01b6143e9565b6135496725e7513416e2069760c01b6143e9565b61355d67c068a428fc39ae2360c01b6143e9565b60006135688361379a565b905061357e67c562bbd29541adad60c01b6143e9565b61359267ab2e95f38a52881f60c01b6143e9565b600081036135e0576135ae67d2a5576f2cc40a7760c01b6143e9565b6040517fc4dc60e000000000000000000000000000000000000000000000000000000000815260040160405180910390fd5b6135f4673c20ed92c4d2135f60c01b6143e9565b61360867921003c76a59e45060c01b6143e9565b61361c67f2d405ef3fcc352560c01b6143e9565b60006136266147db565b905061363c67df7f60eb12de58bc60c01b6143e9565b8183600101600082825461365091906155da565b9250508190555061366b67543384d21963ac1460c01b6143e9565b808360020181905550613688674a6b8858c165cb7c60c01b6143e9565b816006600082825461369a91906155da565b925050819055506136b567d77267629569928260c01b6143e9565b6136c967fa322d5e6d33f12560c01b6143e9565b61371484837f000000000000000000000000000000000000000000000000000000000000000073ffffffffffffffffffffffffffffffffffffffff16614a879092919063ffffffff16565b613728676d4676ea2357915f60c01b6143e9565b61373c677109e149e59b3b3f60c01b6143e9565b8373ffffffffffffffffffffffffffffffffffffffff167f9923b4306c6c030f2bdfbf156517d5983b87e15b96176da122cd4f2effa4ba7b838360405161378492919061566e565b60405180910390a2505050613797614b06565b50565b60006137b0672d3142bc750de11f60c01b6143e9565b6137c4671c3f8aa45a9f4ba460c01b6143e9565b6137d8670ce56edb0a2c33de60c01b6143e9565b6000600360008473ffffffffffffffffffffffffffffffffffffffff1673ffffffffffffffffffffffffffffffffffffffff1681526020019081526020016000206040518060a00160405290816000820154815260200160018201548152602001600282015481526020016003820160009054906101000a900460ff161515151581526020016003820160019054906101000a900460ff161515151581525050905061388e67abf5fce010b3e45c60c01b6143e9565b6138a267f4e1fa42f077f2e660c01b6143e9565b80606001511580156138c457506138c36750e2537ce67fa0c460c01b614bda565b5b806138ec5750806080015180156138eb57506138ea67d2cfc76a7daebb7a60c01b614bda565b5b5b156139235761390567aeaabcc84f67cd7560c01b6143e9565b613919677741efecc9991c7a60c01b6143e9565b60009150506139f3565b61393767d1c55781de6e337560c01b6143e9565b61394b67a8e780653af9bb8560c01b6143e9565b61395f67d9074b5f25bd5f6060c01b6143e9565b600061396a84614473565b905061398067d77f8354881aebba60c01b6143e9565b61399467d1c6a6ec0927e1e760c01b6143e9565b81602001518111806139b657506139b5674f16ba9e70ecb8c660c01b614bd3565b5b80156139d257506139d16752a1fe9668949eeb60c01b614bda565b5b6139dd5760006139ee565b8160200151816139ed9190615564565b5b925050505b919050565b61271081565b613a12672f17b67a3f5a322360c01b6143e9565b613a1a6143ec565b613a2e67e6c3e2f131b1fbd360c01b6143e9565b613a42671343c5c9273f15d160c01b6143e9565b613a5667ecedf326517a783760c01b6143e9565b613a6a671462159037ee261560c01b6143e9565b600360008273ffffffffffffffffffffffffffffffffffffffff1673ffffffffffffffffffffffffffffffffffffffff16815260200190815260200160002060030160009054906101000a900460ff16613b0457613ad267393afb4841e826f660c01b6143e9565b6040517f644d871f00000000000000000000000000000000000000000000000000000000815260040160405180910390fd5b613b186795fdacb73d08ade160c01b6143e9565b613b2c67ec71e1389af7d45660c01b6143e9565b613b4067e5279cbb25a837ba60c01b6143e9565b6000600360008373ffffffffffffffffffffffffffffffffffffffff1673ffffffffffffffffffffffffffffffffffffffff1681526020019081526020016000209050613b9767121bfd62935d052160c01b6143e9565b613bab679b88f82be0e22fe260c01b6143e9565b8060030160019054906101000a900460ff1615613c0857613bd667f4e4744c3bf12a8060c01b6143e9565b6040517fd1ba89a100000000000000000000000000000000000000000000000000000000815260040160405180910390fd5b613c1c67c483a6a76d6573d860c01b6143e9565b613c3067926245201b27df2860c01b6143e9565b613c44676ac6fb3b4f1b811660c01b6143e9565b6000613c4f83614473565b9050613c6567a06cf12bd0c1adf860c01b6143e9565b613c7967b0692da728db243960c01b6143e9565b6000826001015482613c8b9190615564565b9050613ca1671c26d0fcd5ea839960c01b6143e9565b613cb567fb21dff6e688008960c01b6143e9565b6000811115613e2557613cd26732956cb11217e24160c01b6143e9565b613ce667670626c04a6f229960c01b6143e9565b80836001016000828254613cfa91906155da565b92505081905550613d1567ab9d1adb3dfce6be60c01b6143e9565b8060066000828254613d2791906155da565b92505081905550613d4267361000cdd2677e4660c01b6143e9565b613d566751cbf0600378bd9d60c01b6143e9565b613da184827f000000000000000000000000000000000000000000000000000000000000000073ffffffffffffffffffffffffffffffffffffffff16614a879092919063ffffffff16565b613db5676e74ebaffbc604a360c01b6143e9565b613dc967927108a4dde796f260c01b6143e9565b8373ffffffffffffffffffffffffffffffffffffffff167f9923b4306c6c030f2bdfbf156517d5983b87e15b96176da122cd4f2effa4ba7b82613e0a6147db565b604051613e1892919061566e565b60405180910390a2613e3a565b613e39677fca3ff3df00388560c01b6143e9565b5b613e4e67eb7566323b426b6360c01b6143e9565b613e6267275360cece3a5cf860c01b6143e9565b600083600101548460000154613e789190615564565b9050613e8e67194dfd9fb957027660c01b6143e9565b60018460030160016101000a81548160ff021916908315150217905550613ebf67126dd02d7fe9bcff60c01b6143e9565b613ed3679e112a28aeaa9be660c01b6143e9565b8473ffffffffffffffffffffffffffffffffffffffff167f040f95d3c705a0cfbbcfbb6f9b8777a527378d1c8ceac50e5e22a1eb953e7f2082604051613f199190614ecb565b60405180910390a25050505050565b613f306143ec565b600073ffffffffffffffffffffffffffffffffffffffff168173ffffffffffffffffffffffffffffffffffffffff1603613fa25760006040517f1e4fbdf7000000000000000000000000000000000000000000000000000000008152600401613f99919061536c565b60405180910390fd5b613fab81614b0f565b50565b613fc267e88b49376a62b66a60c01b6143e9565b613fca6143ec565b613fde678e3199409eac543f60c01b6143e9565b613ff267d5aa0b8de1d413fb60c01b6143e9565b614006674359bde477c6026f60c01b6143e9565b61401a676c56b1668e4648d160c01b6143e9565b600760009054906101000a900460ff16156140755761404367b4b2bf7a86d3d0e660c01b6143e9565b6040517f3bcd404900000000000000000000000000000000000000000000000000000000815260040160405180910390fd5b61408967a25e94df6be4127760c01b6143e9565b61409d6735b7ce9712ee139b60c01b6143e9565b6140b1677f166f4018c6835660c01b6143e9565b600360008373ffffffffffffffffffffffffffffffffffffffff1673ffffffffffffffffffffffffffffffffffffffff16815260200190815260200160002060030160009054906101000a900460ff1661414b5761411967e0ee5565e0e673cd60c01b6143e9565b6040517f644d871f00000000000000000000000000000000000000000000000000000000815260040160405180910390fd5b61415f67313c31fb2f73b37360c01b6143e9565b614173676ff72a6ad9cfa86360c01b6143e9565b61418767279088856a39bcfd60c01b6143e9565b600081036141d5576141a367efd40188ed42bf0c60c01b6143e9565b6040517f2c5211c600000000000000000000000000000000000000000000000000000000815260040160405180910390fd5b6141e9675417d716657c952260c01b6143e9565b6141fd67f6b13052b56f5f6660c01b6143e9565b61421167a27fcef02cc279b060c01b6143e9565b6000600360008473ffffffffffffffffffffffffffffffffffffffff1673ffffffffffffffffffffffffffffffffffffffff168152602001908152602001600020905061426867fb5d8e1e733e6aef60c01b6143e9565b61427c678bb2908acfff1edf60c01b6143e9565b60008160000154905061429967e3775b011174ebef60c01b6143e9565b82816005546142a89190615564565b6142b291906155da565b6005819055506142cc67c2fb9f49d3054dc660c01b6143e9565b6142e06798d38b9f3265e45260c01b6143e9565b6b033b2e3c9fd0803ce8000000600554111561433c5761430a674c6c8fb3e95ac20d60c01b6143e9565b6040517f87a7c61e00000000000000000000000000000000000000000000000000000000815260040160405180910390fd5b6143506781dd9736a56786bf60c01b6143e9565b614364671e348192c12a35d260c01b6143e9565b828260000181905550614381676bfad3f883a83cb860c01b6143e9565b6143956770764a2dcb9bbfca60c01b6143e9565b8373ffffffffffffffffffffffffffffffffffffffff167f73d60fa978f046c1ccf0f85c6247b34d322ad63d5184881ef2f10bf3c70dde21846040516143db9190614ecb565b60405180910390a250505050565b50565b6143f4614cca565b73ffffffffffffffffffffffffffffffffffffffff166144126122a5565b73ffffffffffffffffffffffffffffffffffffffff161461447157614435614cca565b6040517f118cdaa7000000000000000000000000000000000000000000000000000000008152600401614468919061536c565b60405180910390fd5b565b60006144896734184535531ec49560c01b6143e9565b61449d676003d429571361d560c01b6143e9565b6144b167f3ae6df15169aa8060c01b6143e9565b6000600360008473ffffffffffffffffffffffffffffffffffffffff1673ffffffffffffffffffffffffffffffffffffffff1681526020019081526020016000206040518060a00160405290816000820154815260200160018201548152602001600282015481526020016003820160009054906101000a900460ff161515151581526020016003820160019054906101000a900460ff161515151581525050905061456767a45fd99de78581f660c01b6143e9565b61457b6794b6a67d4570b50660c01b6143e9565b806060015115801561459d575061459c679f64b8f14263a5ba60c01b614bda565b5b806145c55750806080015180156145c457506145c3673b94b57cecad3b6c60c01b614bda565b5b5b156145fc576145de673372cc5beb2a400360c01b6143e9565b6145f267e8a4626e27fa37d460c01b6143e9565b60009150506147d6565b6146106730bbccbdbe77ed4f60c01b6143e9565b61462467a02f0977f5d9b67560c01b6143e9565b614638675859541148e6cc2460c01b6143e9565b7f00000000000000000000000000000000000000000000000000000000000000004210156146925761467467b9e089f697373e7860c01b6143e9565b6146886764100488aad2184760c01b6143e9565b60009150506147d6565b6146a667d4e6574193dea1d260c01b6143e9565b6146ba675f26d5d25675ac6b60c01b6143e9565b6146ce6718e90aa2f89b544560c01b6143e9565b60006146d86147db565b90506146ee6793b8887cf724653860c01b6143e9565b61470267ee4b4ae31f81475e60c01b6143e9565b6000810361473d5761471e67b82e83653814947c60c01b6143e9565b6147326771c2e71d4b70062d60c01b6143e9565b6000925050506147d6565b614751675e9c693fcfd03f9a60c01b6143e9565b61476567a076ac151f280ee560c01b6143e9565b61477967cd3fac658757af9760c01b6143e9565b60006107d0826147899190615598565b905061479f676549caa83da517dd60c01b6143e9565b6147b367400c4229981c930d60c01b6143e9565b6127108184600001516147c69190615598565b6147d0919061563d565b93505050505b919050565b60006147f167fd164d9c20595df460c01b6143e9565b614805671e87cf49ec6bd3b860c01b6143e9565b61481967e67013e8892f8ca860c01b6143e9565b7f000000000000000000000000000000000000000000000000000000000000000042101561487257614855672eb67e8349f67c2160c01b6143e9565b614869678aa9c893a35dd3e460c01b6143e9565b6000905061499a565b6148866773682f47ef63cb7660c01b6143e9565b61489a6731a75b180a970ec760c01b6143e9565b6148ae67da6ac6b419e7f81660c01b6143e9565b60007f0000000000000000000000000000000000000000000000000000000000000000426148dc9190615564565b90506148f267f69a814cb45b4df960c01b6143e9565b61490667f16bf684f018b8b160c01b6143e9565b6000600162ed4e0083614919919061563d565b61492391906155da565b905061493967c2f677cfe6dea3d360c01b6143e9565b61494d67abaaae14c2d2950760c01b6143e9565b600581118061496c575061496b676088daaae2d07f6c60c01b614bd3565b5b8015614988575061498767cbe106b0d375675860c01b614bda565b5b6149925780614995565b60055b925050505b90565b6149a5614cd2565b6000600260006101000a81548160ff0219169083151502179055507f5db9ee0a495bf2e6ff9c91a7834c1ba4fdd244a5e8aa4e537bd38aeae4b073aa6149e9614cca565b6040516149f6919061536c565b60405180910390a1565b600260015403614a3c576040517f3ee5aeb500000000000000000000000000000000000000000000000000000000815260040160405180910390fd5b6002600181905550565b614a4e611f62565b15614a85576040517fd93c066500000000000000000000000000000000000000000000000000000000815260040160405180910390fd5b565b614b01838473ffffffffffffffffffffffffffffffffffffffff1663a9059cbb8585604051602401614aba929190615708565b604051602081830303815290604052915060e01b6020820180517bffffffffffffffffffffffffffffffffffffffffffffffffffffffff8381831617835250505050614d12565b505050565b60018081905550565b60008060009054906101000a900473ffffffffffffffffffffffffffffffffffffffff169050816000806101000a81548173ffffffffffffffffffffffffffffffffffffffff021916908373ffffffffffffffffffffffffffffffffffffffff1602179055508173ffffffffffffffffffffffffffffffffffffffff168173ffffffffffffffffffffffffffffffffffffffff167f8be0079c531659141344cd1fd0a4f28419497f9722a3daafe3b4186f6b6457e060405160405180910390a35050565b6000919050565b600060019050919050565b614bed614a46565b6001600260006101000a81548160ff0219169083151502179055507f62e78cea01bee320cd4e420270b5ea74000d11b0c9f74754ebdbfc544b05a258614c31614cca565b604051614c3e919061536c565b60405180910390a1565b614cc4848573ffffffffffffffffffffffffffffffffffffffff166323b872dd868686604051602401614c7d93929190615731565b604051602081830303815290604052915060e01b6020820180517bffffffffffffffffffffffffffffffffffffffffffffffffffffffff8381831617835250505050614d12565b50505050565b600033905090565b614cda611f62565b614d10576040517f8dfc202b00000000000000000000000000000000000000000000000000000000815260040160405180910390fd5b565b600080602060008451602086016000885af180614d35576040513d6000823e3d81fd5b3d925060005191505060008214614d50576001811415614d6c565b60008473ffffffffffffffffffffffffffffffffffffffff163b145b15614dae57836040517f5274afe7000000000000000000000000000000000000000000000000000000008152600401614da5919061536c565b60405180910390fd5b50505050565b600080fd5b600073ffffffffffffffffffffffffffffffffffffffff82169050919050565b6000614de482614db9565b9050919050565b614df481614dd9565b8114614dff57600080fd5b50565b600081359050614e1181614deb565b92915050565b600060208284031215614e2d57614e2c614db4565b5b6000614e3b84828501614e02565b91505092915050565b6000819050919050565b614e5781614e44565b82525050565b60008115159050919050565b614e7281614e5d565b82525050565b600060a082019050614e8d6000830188614e4e565b614e9a6020830187614e4e565b614ea76040830186614e4e565b614eb46060830185614e69565b614ec16080830184614e69565b9695505050505050565b6000602082019050614ee06000830184614e4e565b92915050565b600081519050919050565b600082825260208201905092915050565b6000819050602082019050919050565b614f1b81614dd9565b82525050565b6000614f2d8383614f12565b60208301905092915050565b6000602082019050919050565b6000614f5182614ee6565b614f5b8185614ef1565b9350614f6683614f02565b8060005b83811015614f97578151614f7e8882614f21565b9750614f8983614f39565b925050600181019050614f6a565b5085935050505092915050565b600081519050919050565b600082825260208201905092915050565b6000819050602082019050919050565b614fd981614e44565b82525050565b6000614feb8383614fd0565b60208301905092915050565b6000602082019050919050565b600061500f82614fa4565b6150198185614faf565b935061502483614fc0565b8060005b8381101561505557815161503c8882614fdf565b975061504783614ff7565b925050600181019050615028565b5085935050505092915050565b600081519050919050565b600082825260208201905092915050565b6000819050602082019050919050565b61509781614e5d565b82525050565b60006150a9838361508e565b60208301905092915050565b6000602082019050919050565b60006150cd82615062565b6150d7818561506d565b93506150e28361507e565b8060005b838110156151135781516150fa888261509d565b9750615105836150b5565b9250506001810190506150e6565b5085935050505092915050565b6000608082019050818103600083015261513a8187614f46565b9050818103602083015261514e8186615004565b905081810360408301526151628185615004565b9050818103606083015261517681846150c2565b905095945050505050565b6000819050919050565b60006151a66151a161519c84614db9565b615181565b614db9565b9050919050565b60006151b88261518b565b9050919050565b60006151ca826151ad565b9050919050565b6151da816151bf565b82525050565b60006020820190506151f560008301846151d1565b92915050565b60006020820190506152106000830184614e69565b92915050565b60006101008201905061522c600083018b614e4e565b615239602083018a614e4e565b6152466040830189614e4e565b6152536060830188614e4e565b6152606080830187614e4e565b61526d60a0830186614e4e565b61527a60c0830185614e69565b61528760e0830184614e69565b9998505050505050505050565b600060c0820190506152a96000830189614e4e565b6152b66020830188614e4e565b6152c36040830187614e4e565b6152d06060830186614e4e565b6152dd6080830185614e4e565b81810360a08301526152ef8184615004565b9050979650505050505050565b61530581614dd9565b82525050565b600060c08201905061532060008301896152fc565b61532d6020830188614e4e565b61533a6040830187614e4e565b6153476060830186614e4e565b6153546080830185614e4e565b61536160a0830184614e4e565b979650505050505050565b600060208201905061538160008301846152fc565b92915050565b61539081614e44565b811461539b57600080fd5b50565b6000813590506153ad81615387565b92915050565b600080604083850312156153ca576153c9614db4565b5b60006153d885828601614e02565b92505060206153e98582860161539e565b9150509250929050565b60006020828403121561540957615408614db4565b5b60006154178482850161539e565b91505092915050565b600060e082019050615435600083018a614e4e565b6154426020830189614e4e565b61544f6040830188614e4e565b61545c6060830187614e4e565b6154696080830186614e4e565b61547660a0830185614e69565b61548360c0830184614e69565b98975050505050505050565b7f4e487b7100000000000000000000000000000000000000000000000000000000600052604160045260246000fd5b7f4e487b7100000000000000000000000000000000000000000000000000000000600052603260045260246000fd5b7f4e487b7100000000000000000000000000000000000000000000000000000000600052601160045260246000fd5b600061552782614e44565b91507fffffffffffffffffffffffffffffffffffffffffffffffffffffffffffffffff8203615559576155586154ed565b5b600182019050919050565b600061556f82614e44565b915061557a83614e44565b9250828203905081811115615592576155916154ed565b5b92915050565b60006155a382614e44565b91506155ae83614e44565b92508282026155bc81614e44565b915082820484148315176155d3576155d26154ed565b5b5092915050565b60006155e582614e44565b91506155f083614e44565b9250828201905080821115615608576156076154ed565b5b92915050565b7f4e487b7100000000000000000000000000000000000000000000000000000000600052601260045260246000fd5b600061564882614e44565b915061565383614e44565b9250826156635761566261560e565b5b828204905092915050565b60006040820190506156836000830185614e4e565b6156906020830184614e4e565b9392505050565b7f4e487b7100000000000000000000000000000000000000000000000000000000600052603160045260246000fd5b6000815190506156d581615387565b92915050565b6000602082840312156156f1576156f0614db4565b5b60006156ff848285016156c6565b91505092915050565b600060408201905061571d60008301856152fc565b61572a6020830184614e4e565b9392505050565b600060608201905061574660008301866152fc565b61575360208301856152fc565b6157606040830184614e4e565b94935050505056fea26469706673582212203454b08ee01ad807aed326b5039e03b63313b7d36f78f7984fefbd7545cb242364736f6c63430008140033",
  "linkReferences": {},
  "deployedLinkReferences": {}
}